{
	"blockchain/contracts/VoteLedger.sol": {
		"VoteLedger": {
			"abi": [
				{
					"inputs": [
						{
							"internalType": "uint256",
							"name": "_quorum",
							"type": "uint256"
						}
					],
					"stateMutability": "nonpayable",
					"type": "constructor"
				},
				{
					"anonymous": false,
					"inputs": [
						{
							"indexed": false,
							"internalType": "bytes32",
							"name": "electionIdHash",
							"type": "bytes32"
						},
						{
							"indexed": false,
							"internalType": "bytes32",
							"name": "blockHash",
							"type": "bytes32"
						},
						{
							"indexed": false,
							"internalType": "address",
							"name": "approver",
							"type": "address"
						},
						{
							"indexed": false,
							"internalType": "uint256",
							"name": "approvals",
							"type": "uint256"
						}
					],
					"name": "BlockApproved",
					"type": "event"
				},
				{
					"anonymous": false,
					"inputs": [
						{
							"indexed": false,
							"internalType": "bytes32",
							"name": "electionIdHash",
							"type": "bytes32"
						},
						{
							"indexed": false,
							"internalType": "bytes32",
							"name": "blockHash",
							"type": "bytes32"
						},
						{
							"indexed": false,
							"internalType": "uint256",
							"name": "height",
							"type": "uint256"
						}
					],
					"name": "BlockFinalized",
					"type": "event"
				},
				{
					"anonymous": false,
					"inputs": [
						{
							"indexed": false,
							"internalType": "bytes32",
							"name": "electionIdHash",
							"type": "bytes32"
						},
						{
							"indexed": false,
							"internalType": "bytes32",
							"name": "blockHash",
							"type": "bytes32"
						},
						{
							"indexed": false,
							"internalType": "uint256",
							"name": "height",
							"type": "uint256"
						},
						{
							"indexed": false,
							"internalType": "bytes32",
							"name": "merkleRoot",
							"type": "bytes32"
						}
					],
					"name": "BlockProposed",
					"type": "event"
				},
				{
					"anonymous": false,
					"inputs": [
						{
							"indexed": false,
							"internalType": "address",
							"name": "node",
							"type": "address"
						},
						{
							"indexed": false,
							"internalType": "bool",
							"name": "allowed",
							"type": "bool"
						}
					],
					"name": "NodeUpdated",
					"type": "event"
				},
				{
					"anonymous": false,
					"inputs": [
						{
							"indexed": false,
							"internalType": "uint256",
							"name": "quorum",
							"type": "uint256"
						}
					],
					"name": "QuorumUpdated",
					"type": "event"
				},
				{
					"inputs": [],
					"name": "admin",
					"outputs": [
						{
							"internalType": "address",
							"name": "",
							"type": "address"
						}
					],
					"stateMutability": "view",
					"type": "function"
				},
				{
					"inputs": [
						{
							"internalType": "bytes32",
							"name": "",
							"type": "bytes32"
						},
						{
							"internalType": "bytes32",
							"name": "",
							"type": "bytes32"
						}
					],
					"name": "approvalsCount",
					"outputs": [
						{
							"internalType": "uint256",
							"name": "",
							"type": "uint256"
						}
					],
					"stateMutability": "view",
					"type": "function"
				},
				{
					"inputs": [
						{
							"internalType": "bytes32",
							"name": "electionIdHash",
							"type": "bytes32"
						},
						{
							"internalType": "bytes32",
							"name": "blockHash",
							"type": "bytes32"
						}
					],
					"name": "approveBlock",
					"outputs": [],
					"stateMutability": "nonpayable",
					"type": "function"
				},
				{
					"inputs": [
						{
							"internalType": "bytes32",
							"name": "",
							"type": "bytes32"
						},
						{
							"internalType": "bytes32",
							"name": "",
							"type": "bytes32"
						},
						{
							"internalType": "address",
							"name": "",
							"type": "address"
						}
					],
					"name": "approvedBy",
					"outputs": [
						{
							"internalType": "bool",
							"name": "",
							"type": "bool"
						}
					],
					"stateMutability": "view",
					"type": "function"
				},
				{
					"inputs": [
						{
							"internalType": "bytes32",
							"name": "",
							"type": "bytes32"
						},
						{
							"internalType": "uint256",
							"name": "",
							"type": "uint256"
						}
					],
					"name": "blocks",
					"outputs": [
						{
							"internalType": "uint256",
							"name": "height",
							"type": "uint256"
						},
						{
							"internalType": "bytes32",
							"name": "prevHash",
							"type": "bytes32"
						},
						{
							"internalType": "bytes32",
							"name": "merkleRoot",
							"type": "bytes32"
						},
						{
							"internalType": "uint256",
							"name": "entryCount",
							"type": "uint256"
						},
						{
							"internalType": "bytes32",
							"name": "blockHash",
							"type": "bytes32"
						},
						{
							"internalType": "uint256",
							"name": "timestamp",
							"type": "uint256"
						}
					],
					"stateMutability": "view",
					"type": "function"
				},
				{
					"inputs": [
						{
							"internalType": "bytes32",
							"name": "electionIdHash",
							"type": "bytes32"
						},
						{
							"internalType": "bytes32",
							"name": "blockHash",
							"type": "bytes32"
						}
					],
					"name": "finalizeBlock",
					"outputs": [],
					"stateMutability": "nonpayable",
					"type": "function"
				},
				{
					"inputs": [
						{
							"internalType": "bytes32",
							"name": "",
							"type": "bytes32"
						},
						{
							"internalType": "bytes32",
							"name": "",
							"type": "bytes32"
						}
					],
					"name": "finalized",
					"outputs": [
						{
							"internalType": "bool",
							"name": "",
							"type": "bool"
						}
					],
					"stateMutability": "view",
					"type": "function"
				},
				{
					"inputs": [
						{
							"internalType": "bytes32",
							"name": "electionIdHash",
							"type": "bytes32"
						},
						{
							"internalType": "uint256",
							"name": "height",
							"type": "uint256"
						}
					],
					"name": "getBlock",
					"outputs": [
						{
							"components": [
								{
									"internalType": "uint256",
									"name": "height",
									"type": "uint256"
								},
								{
									"internalType": "bytes32",
									"name": "prevHash",
									"type": "bytes32"
								},
								{
									"internalType": "bytes32",
									"name": "merkleRoot",
									"type": "bytes32"
								},
								{
									"internalType": "uint256",
									"name": "entryCount",
									"type": "uint256"
								},
								{
									"internalType": "bytes32",
									"name": "blockHash",
									"type": "bytes32"
								},
								{
									"internalType": "uint256",
									"name": "timestamp",
									"type": "uint256"
								}
							],
							"internalType": "struct VoteLedger.BlockHeader",
							"name": "",
							"type": "tuple"
						}
					],
					"stateMutability": "view",
					"type": "function"
				},
				{
					"inputs": [
						{
							"internalType": "bytes32",
							"name": "electionIdHash",
							"type": "bytes32"
						}
					],
					"name": "getTip",
					"outputs": [
						{
							"internalType": "uint256",
							"name": "",
							"type": "uint256"
						},
						{
							"internalType": "bytes32",
							"name": "",
							"type": "bytes32"
						}
					],
					"stateMutability": "view",
					"type": "function"
				},
				{
					"inputs": [
						{
							"internalType": "address",
							"name": "",
							"type": "address"
						}
					],
					"name": "isNode",
					"outputs": [
						{
							"internalType": "bool",
							"name": "",
							"type": "bool"
						}
					],
					"stateMutability": "view",
					"type": "function"
				},
				{
					"inputs": [
						{
							"internalType": "bytes32",
							"name": "",
							"type": "bytes32"
						},
						{
							"internalType": "bytes32",
							"name": "",
							"type": "bytes32"
						}
					],
					"name": "proposalExists",
					"outputs": [
						{
							"internalType": "bool",
							"name": "",
							"type": "bool"
						}
					],
					"stateMutability": "view",
					"type": "function"
				},
				{
					"inputs": [
						{
							"internalType": "bytes32",
							"name": "",
							"type": "bytes32"
						},
						{
							"internalType": "bytes32",
							"name": "",
							"type": "bytes32"
						}
					],
					"name": "proposals",
					"outputs": [
						{
							"internalType": "uint256",
							"name": "height",
							"type": "uint256"
						},
						{
							"internalType": "bytes32",
							"name": "prevHash",
							"type": "bytes32"
						},
						{
							"internalType": "bytes32",
							"name": "merkleRoot",
							"type": "bytes32"
						},
						{
							"internalType": "uint256",
							"name": "entryCount",
							"type": "uint256"
						},
						{
							"internalType": "bytes32",
							"name": "blockHash",
							"type": "bytes32"
						},
						{
							"internalType": "uint256",
							"name": "timestamp",
							"type": "uint256"
						}
					],
					"stateMutability": "view",
					"type": "function"
				},
				{
					"inputs": [
						{
							"internalType": "bytes32",
							"name": "electionIdHash",
							"type": "bytes32"
						},
						{
							"internalType": "uint256",
							"name": "height",
							"type": "uint256"
						},
						{
							"internalType": "bytes32",
							"name": "prevHash",
							"type": "bytes32"
						},
						{
							"internalType": "bytes32",
							"name": "merkleRoot",
							"type": "bytes32"
						},
						{
							"internalType": "uint256",
							"name": "entryCount",
							"type": "uint256"
						}
					],
					"name": "proposeBlock",
					"outputs": [
						{
							"internalType": "bytes32",
							"name": "",
							"type": "bytes32"
						}
					],
					"stateMutability": "nonpayable",
					"type": "function"
				},
				{
					"inputs": [],
					"name": "quorum",
					"outputs": [
						{
							"internalType": "uint256",
							"name": "",
							"type": "uint256"
						}
					],
					"stateMutability": "view",
					"type": "function"
				},
				{
					"inputs": [
						{
							"internalType": "address",
							"name": "node",
							"type": "address"
						},
						{
							"internalType": "bool",
							"name": "allowed",
							"type": "bool"
						}
					],
					"name": "setNode",
					"outputs": [],
					"stateMutability": "nonpayable",
					"type": "function"
				},
				{
					"inputs": [
						{
							"internalType": "uint256",
							"name": "_quorum",
							"type": "uint256"
						}
					],
					"name": "setQuorum",
					"outputs": [],
					"stateMutability": "nonpayable",
					"type": "function"
				},
				{
					"inputs": [
						{
							"internalType": "bytes32",
							"name": "",
							"type": "bytes32"
						}
					],
					"name": "tipHash",
					"outputs": [
						{
							"internalType": "bytes32",
							"name": "",
							"type": "bytes32"
						}
					],
					"stateMutability": "view",
					"type": "function"
				},
				{
					"inputs": [
						{
							"internalType": "bytes32",
							"name": "",
							"type": "bytes32"
						}
					],
					"name": "tipHeight",
					"outputs": [
						{
							"internalType": "uint256",
							"name": "",
							"type": "uint256"
						}
					],
					"stateMutability": "view",
					"type": "function"
				}
			],
			"devdoc": {
				"kind": "dev",
				"methods": {},
				"version": 1
			},
			"evm": {
				"assembly": "    /* \"blockchain/contracts/VoteLedger.sol\":234:5633  contract VoteLedger {... */\n  mstore(0x40, 0x80)\n    /* \"blockchain/contracts/VoteLedger.sol\":1997:2240  constructor(uint256 _quorum) {... */\n  callvalue\n  dup1\n  iszero\n  tag_1\n  jumpi\n  revert(0x00, 0x00)\ntag_1:\n  pop\n  mload(0x40)\n  sub(codesize, bytecodeSize)\n  dup1\n  bytecodeSize\n  dup4\n  codecopy\n  dup2\n  dup2\n  add\n  0x40\n  mstore\n  dup2\n  add\n  swap1\n  tag_2\n  swap2\n  swap1\n  tag_3\n  jump\t// in\ntag_2:\n    /* \"blockchain/contracts/VoteLedger.sol\":2045:2055  msg.sender */\n  caller\n    /* \"blockchain/contracts/VoteLedger.sol\":2037:2042  admin */\n  0x00\n  0x00\n    /* \"blockchain/contracts/VoteLedger.sol\":2037:2055  admin = msg.sender */\n  0x0100\n  exp\n  dup2\n  sload\n  dup2\n  0xffffffffffffffffffffffffffffffffffffffff\n  mul\n  not\n  and\n  swap1\n  dup4\n  0xffffffffffffffffffffffffffffffffffffffff\n  and\n  mul\n  or\n  swap1\n  sstore\n  pop\n    /* \"blockchain/contracts/VoteLedger.sol\":2075:2082  _quorum */\n  dup1\n    /* \"blockchain/contracts/VoteLedger.sol\":2066:2072  quorum */\n  0x01\n    /* \"blockchain/contracts/VoteLedger.sol\":2066:2082  quorum = _quorum */\n  dup2\n  swap1\n  sstore\n  pop\n    /* \"blockchain/contracts/VoteLedger.sol\":2114:2118  true */\n  0x01\n    /* \"blockchain/contracts/VoteLedger.sol\":2093:2099  isNode */\n  0x02\n    /* \"blockchain/contracts/VoteLedger.sol\":2093:2111  isNode[msg.sender] */\n  0x00\n    /* \"blockchain/contracts/VoteLedger.sol\":2100:2110  msg.sender */\n  caller\n    /* \"blockchain/contracts/VoteLedger.sol\":2093:2111  isNode[msg.sender] */\n  0xffffffffffffffffffffffffffffffffffffffff\n  and\n  0xffffffffffffffffffffffffffffffffffffffff\n  and\n  dup2\n  mstore\n  0x20\n  add\n  swap1\n  dup2\n  mstore\n  0x20\n  add\n  0x00\n  keccak256\n  0x00\n    /* \"blockchain/contracts/VoteLedger.sol\":2093:2118  isNode[msg.sender] = true */\n  0x0100\n  exp\n  dup2\n  sload\n  dup2\n  0xff\n  mul\n  not\n  and\n  swap1\n  dup4\n  iszero\n  iszero\n  mul\n  or\n  swap1\n  sstore\n  pop\n    /* \"blockchain/contracts/VoteLedger.sol\":2165:2194  NodeUpdated(msg.sender, true) */\n  0x2594c7e2dc67dba873b8fcc63bc8a5ee2c8b37fa772f132594cfc90bb82e0fe9\n    /* \"blockchain/contracts/VoteLedger.sol\":2177:2187  msg.sender */\n  caller\n    /* \"blockchain/contracts/VoteLedger.sol\":2189:2193  true */\n  0x01\n    /* \"blockchain/contracts/VoteLedger.sol\":2165:2194  NodeUpdated(msg.sender, true) */\n  mload(0x40)\n  tag_6\n  swap3\n  swap2\n  swap1\n  tag_7\n  jump\t// in\ntag_6:\n  mload(0x40)\n  dup1\n  swap2\n  sub\n  swap1\n  log1\n    /* \"blockchain/contracts/VoteLedger.sol\":2210:2232  QuorumUpdated(_quorum) */\n  0xf18f88786aae85a652aadb99a82462616489a33370c9bcc7b245906812ef7cd1\n    /* \"blockchain/contracts/VoteLedger.sol\":2224:2231  _quorum */\n  dup2\n    /* \"blockchain/contracts/VoteLedger.sol\":2210:2232  QuorumUpdated(_quorum) */\n  mload(0x40)\n  tag_8\n  swap2\n  swap1\n  tag_9\n  jump\t// in\ntag_8:\n  mload(0x40)\n  dup1\n  swap2\n  sub\n  swap1\n  log1\n    /* \"blockchain/contracts/VoteLedger.sol\":1997:2240  constructor(uint256 _quorum) {... */\n  pop\n    /* \"blockchain/contracts/VoteLedger.sol\":234:5633  contract VoteLedger {... */\n  jump(tag_10)\n    /* \"#utility.yul\":88:205   */\ntag_12:\n    /* \"#utility.yul\":197:198   */\n  0x00\n    /* \"#utility.yul\":194:195   */\n  0x00\n    /* \"#utility.yul\":187:199   */\n  revert\n    /* \"#utility.yul\":334:411   */\ntag_14:\n    /* \"#utility.yul\":371:378   */\n  0x00\n    /* \"#utility.yul\":400:405   */\n  dup2\n    /* \"#utility.yul\":389:405   */\n  swap1\n  pop\n    /* \"#utility.yul\":334:411   */\n  swap2\n  swap1\n  pop\n  jump\t// out\n    /* \"#utility.yul\":417:539   */\ntag_15:\n    /* \"#utility.yul\":490:514   */\n  tag_29\n    /* \"#utility.yul\":508:513   */\n  dup2\n    /* \"#utility.yul\":490:514   */\n  tag_14\n  jump\t// in\ntag_29:\n    /* \"#utility.yul\":483:488   */\n  dup2\n    /* \"#utility.yul\":480:515   */\n  eq\n    /* \"#utility.yul\":470:533   */\n  tag_30\n  jumpi\n    /* \"#utility.yul\":529:530   */\n  0x00\n    /* \"#utility.yul\":526:527   */\n  0x00\n    /* \"#utility.yul\":519:531   */\n  revert\n    /* \"#utility.yul\":470:533   */\ntag_30:\n    /* \"#utility.yul\":417:539   */\n  pop\n  jump\t// out\n    /* \"#utility.yul\":545:688   */\ntag_16:\n    /* \"#utility.yul\":602:607   */\n  0x00\n    /* \"#utility.yul\":633:639   */\n  dup2\n    /* \"#utility.yul\":627:640   */\n  mload\n    /* \"#utility.yul\":618:640   */\n  swap1\n  pop\n    /* \"#utility.yul\":649:682   */\n  tag_32\n    /* \"#utility.yul\":676:681   */\n  dup2\n    /* \"#utility.yul\":649:682   */\n  tag_15\n  jump\t// in\ntag_32:\n    /* \"#utility.yul\":545:688   */\n  swap3\n  swap2\n  pop\n  pop\n  jump\t// out\n    /* \"#utility.yul\":694:1045   */\ntag_3:\n    /* \"#utility.yul\":764:770   */\n  0x00\n    /* \"#utility.yul\":813:815   */\n  0x20\n    /* \"#utility.yul\":801:810   */\n  dup3\n    /* \"#utility.yul\":792:799   */\n  dup5\n    /* \"#utility.yul\":788:811   */\n  sub\n    /* \"#utility.yul\":784:816   */\n  slt\n    /* \"#utility.yul\":781:900   */\n  iszero\n  tag_34\n  jumpi\n    /* \"#utility.yul\":819:898   */\n  tag_35\n  tag_12\n  jump\t// in\ntag_35:\n    /* \"#utility.yul\":781:900   */\ntag_34:\n    /* \"#utility.yul\":939:940   */\n  0x00\n    /* \"#utility.yul\":964:1028   */\n  tag_36\n    /* \"#utility.yul\":1020:1027   */\n  dup5\n    /* \"#utility.yul\":1011:1017   */\n  dup3\n    /* \"#utility.yul\":1000:1009   */\n  dup6\n    /* \"#utility.yul\":996:1018   */\n  add\n    /* \"#utility.yul\":964:1028   */\n  tag_16\n  jump\t// in\ntag_36:\n    /* \"#utility.yul\":954:1028   */\n  swap2\n  pop\n    /* \"#utility.yul\":910:1038   */\n  pop\n    /* \"#utility.yul\":694:1045   */\n  swap3\n  swap2\n  pop\n  pop\n  jump\t// out\n    /* \"#utility.yul\":1051:1177   */\ntag_17:\n    /* \"#utility.yul\":1088:1095   */\n  0x00\n    /* \"#utility.yul\":1128:1170   */\n  0xffffffffffffffffffffffffffffffffffffffff\n    /* \"#utility.yul\":1121:1126   */\n  dup3\n    /* \"#utility.yul\":1117:1171   */\n  and\n    /* \"#utility.yul\":1106:1171   */\n  swap1\n  pop\n    /* \"#utility.yul\":1051:1177   */\n  swap2\n  swap1\n  pop\n  jump\t// out\n    /* \"#utility.yul\":1183:1279   */\ntag_18:\n    /* \"#utility.yul\":1220:1227   */\n  0x00\n    /* \"#utility.yul\":1249:1273   */\n  tag_39\n    /* \"#utility.yul\":1267:1272   */\n  dup3\n    /* \"#utility.yul\":1249:1273   */\n  tag_17\n  jump\t// in\ntag_39:\n    /* \"#utility.yul\":1238:1273   */\n  swap1\n  pop\n    /* \"#utility.yul\":1183:1279   */\n  swap2\n  swap1\n  pop\n  jump\t// out\n    /* \"#utility.yul\":1285:1403   */\ntag_19:\n    /* \"#utility.yul\":1372:1396   */\n  tag_41\n    /* \"#utility.yul\":1390:1395   */\n  dup2\n    /* \"#utility.yul\":1372:1396   */\n  tag_18\n  jump\t// in\ntag_41:\n    /* \"#utility.yul\":1367:1370   */\n  dup3\n    /* \"#utility.yul\":1360:1397   */\n  mstore\n    /* \"#utility.yul\":1285:1403   */\n  pop\n  pop\n  jump\t// out\n    /* \"#utility.yul\":1409:1499   */\ntag_20:\n    /* \"#utility.yul\":1443:1450   */\n  0x00\n    /* \"#utility.yul\":1486:1491   */\n  dup2\n    /* \"#utility.yul\":1479:1492   */\n  iszero\n    /* \"#utility.yul\":1472:1493   */\n  iszero\n    /* \"#utility.yul\":1461:1493   */\n  swap1\n  pop\n    /* \"#utility.yul\":1409:1499   */\n  swap2\n  swap1\n  pop\n  jump\t// out\n    /* \"#utility.yul\":1505:1614   */\ntag_21:\n    /* \"#utility.yul\":1586:1607   */\n  tag_44\n    /* \"#utility.yul\":1601:1606   */\n  dup2\n    /* \"#utility.yul\":1586:1607   */\n  tag_20\n  jump\t// in\ntag_44:\n    /* \"#utility.yul\":1581:1584   */\n  dup3\n    /* \"#utility.yul\":1574:1608   */\n  mstore\n    /* \"#utility.yul\":1505:1614   */\n  pop\n  pop\n  jump\t// out\n    /* \"#utility.yul\":1620:1940   */\ntag_7:\n    /* \"#utility.yul\":1735:1739   */\n  0x00\n    /* \"#utility.yul\":1773:1775   */\n  0x40\n    /* \"#utility.yul\":1762:1771   */\n  dup3\n    /* \"#utility.yul\":1758:1776   */\n  add\n    /* \"#utility.yul\":1750:1776   */\n  swap1\n  pop\n    /* \"#utility.yul\":1786:1857   */\n  tag_46\n    /* \"#utility.yul\":1854:1855   */\n  0x00\n    /* \"#utility.yul\":1843:1852   */\n  dup4\n    /* \"#utility.yul\":1839:1856   */\n  add\n    /* \"#utility.yul\":1830:1836   */\n  dup6\n    /* \"#utility.yul\":1786:1857   */\n  tag_19\n  jump\t// in\ntag_46:\n    /* \"#utility.yul\":1867:1933   */\n  tag_47\n    /* \"#utility.yul\":1929:1931   */\n  0x20\n    /* \"#utility.yul\":1918:1927   */\n  dup4\n    /* \"#utility.yul\":1914:1932   */\n  add\n    /* \"#utility.yul\":1905:1911   */\n  dup5\n    /* \"#utility.yul\":1867:1933   */\n  tag_21\n  jump\t// in\ntag_47:\n    /* \"#utility.yul\":1620:1940   */\n  swap4\n  swap3\n  pop\n  pop\n  pop\n  jump\t// out\n    /* \"#utility.yul\":1946:2064   */\ntag_22:\n    /* \"#utility.yul\":2033:2057   */\n  tag_49\n    /* \"#utility.yul\":2051:2056   */\n  dup2\n    /* \"#utility.yul\":2033:2057   */\n  tag_14\n  jump\t// in\ntag_49:\n    /* \"#utility.yul\":2028:2031   */\n  dup3\n    /* \"#utility.yul\":2021:2058   */\n  mstore\n    /* \"#utility.yul\":1946:2064   */\n  pop\n  pop\n  jump\t// out\n    /* \"#utility.yul\":2070:2292   */\ntag_9:\n    /* \"#utility.yul\":2163:2167   */\n  0x00\n    /* \"#utility.yul\":2201:2203   */\n  0x20\n    /* \"#utility.yul\":2190:2199   */\n  dup3\n    /* \"#utility.yul\":2186:2204   */\n  add\n    /* \"#utility.yul\":2178:2204   */\n  swap1\n  pop\n    /* \"#utility.yul\":2214:2285   */\n  tag_51\n    /* \"#utility.yul\":2282:2283   */\n  0x00\n    /* \"#utility.yul\":2271:2280   */\n  dup4\n    /* \"#utility.yul\":2267:2284   */\n  add\n    /* \"#utility.yul\":2258:2264   */\n  dup5\n    /* \"#utility.yul\":2214:2285   */\n  tag_22\n  jump\t// in\ntag_51:\n    /* \"#utility.yul\":2070:2292   */\n  swap3\n  swap2\n  pop\n  pop\n  jump\t// out\n    /* \"blockchain/contracts/VoteLedger.sol\":234:5633  contract VoteLedger {... */\ntag_10:\n  dataSize(sub_0)\n  dup1\n  dataOffset(sub_0)\n  0x00\n  codecopy\n  0x00\n  return\nstop\n\nsub_0: assembly {\n        /* \"blockchain/contracts/VoteLedger.sol\":234:5633  contract VoteLedger {... */\n      mstore(0x40, 0x80)\n      callvalue\n      dup1\n      iszero\n      tag_1\n      jumpi\n      revert(0x00, 0x00)\n    tag_1:\n      pop\n      jumpi(tag_2, lt(calldatasize, 0x04))\n      shr(0xe0, calldataload(0x00))\n      dup1\n      0x8f4f5ddd\n      gt\n      tag_21\n      jumpi\n      dup1\n      0xdc791cc9\n      gt\n      tag_22\n      jumpi\n      dup1\n      0xdc791cc9\n      eq\n      tag_16\n      jumpi\n      dup1\n      0xdfb42fd1\n      eq\n      tag_17\n      jumpi\n      dup1\n      0xf04e4ca3\n      eq\n      tag_18\n      jumpi\n      dup1\n      0xf59e292e\n      eq\n      tag_19\n      jumpi\n      dup1\n      0xf851a440\n      eq\n      tag_20\n      jumpi\n      jump(tag_2)\n    tag_22:\n      dup1\n      0x8f4f5ddd\n      eq\n      tag_12\n      jumpi\n      dup1\n      0xc1ba4e59\n      eq\n      tag_13\n      jumpi\n      dup1\n      0xcf2b1531\n      eq\n      tag_14\n      jumpi\n      dup1\n      0xd623be16\n      eq\n      tag_15\n      jumpi\n      jump(tag_2)\n    tag_21:\n      dup1\n      0x3e534788\n      gt\n      tag_23\n      jumpi\n      dup1\n      0x3e534788\n      eq\n      tag_7\n      jumpi\n      dup1\n      0x41addb7b\n      eq\n      tag_8\n      jumpi\n      dup1\n      0x5af2f431\n      eq\n      tag_9\n      jumpi\n      dup1\n      0x764addb0\n      eq\n      tag_10\n      jumpi\n      dup1\n      0x8b104b44\n      eq\n      tag_11\n      jumpi\n      jump(tag_2)\n    tag_23:\n      dup1\n      0x01750152\n      eq\n      tag_3\n      jumpi\n      dup1\n      0x1703a018\n      eq\n      tag_4\n      jumpi\n      dup1\n      0x1dc4bd6c\n      eq\n      tag_5\n      jumpi\n      dup1\n      0x34ef78ef\n      eq\n      tag_6\n      jumpi\n    tag_2:\n      revert(0x00, 0x00)\n        /* \"blockchain/contracts/VoteLedger.sol\":353:391  mapping(address => bool) public isNode */\n    tag_3:\n      tag_24\n      0x04\n      dup1\n      calldatasize\n      sub\n      dup2\n      add\n      swap1\n      tag_25\n      swap2\n      swap1\n      tag_26\n      jump\t// in\n    tag_25:\n      tag_27\n      jump\t// in\n    tag_24:\n      mload(0x40)\n      tag_28\n      swap2\n      swap1\n      tag_29\n      jump\t// in\n    tag_28:\n      mload(0x40)\n      dup1\n      swap2\n      sub\n      swap1\n      return\n        /* \"blockchain/contracts/VoteLedger.sol\":288:309  uint256 public quorum */\n    tag_4:\n      tag_30\n      tag_31\n      jump\t// in\n    tag_30:\n      mload(0x40)\n      tag_32\n      swap2\n      swap1\n      tag_33\n      jump\t// in\n    tag_32:\n      mload(0x40)\n      dup1\n      swap2\n      sub\n      swap1\n      return\n        /* \"blockchain/contracts/VoteLedger.sol\":2756:2913  function getBlock(bytes32 electionIdHash, uint256 height) external view returns (BlockHeader memory) {... */\n    tag_5:\n      tag_34\n      0x04\n      dup1\n      calldatasize\n      sub\n      dup2\n      add\n      swap1\n      tag_35\n      swap2\n      swap1\n      tag_36\n      jump\t// in\n    tag_35:\n      tag_37\n      jump\t// in\n    tag_34:\n      mload(0x40)\n      tag_38\n      swap2\n      swap1\n      tag_39\n      jump\t// in\n    tag_38:\n      mload(0x40)\n      dup1\n      swap2\n      sub\n      swap1\n      return\n        /* \"blockchain/contracts/VoteLedger.sol\":2921:4123  function proposeBlock(... */\n    tag_6:\n      tag_40\n      0x04\n      dup1\n      calldatasize\n      sub\n      dup2\n      add\n      swap1\n      tag_41\n      swap2\n      swap1\n      tag_42\n      jump\t// in\n    tag_41:\n      tag_43\n      jump\t// in\n    tag_40:\n      mload(0x40)\n      tag_44\n      swap2\n      swap1\n      tag_45\n      jump\t// in\n    tag_44:\n      mload(0x40)\n      dup1\n      swap2\n      sub\n      swap1\n      return\n        /* \"blockchain/contracts/VoteLedger.sol\":936:1005  mapping(bytes32 => mapping(bytes32 => uint256)) public approvalsCount */\n    tag_7:\n      tag_46\n      0x04\n      dup1\n      calldatasize\n      sub\n      dup2\n      add\n      swap1\n      tag_47\n      swap2\n      swap1\n      tag_48\n      jump\t// in\n    tag_47:\n      tag_49\n      jump\t// in\n    tag_46:\n      mload(0x40)\n      tag_50\n      swap2\n      swap1\n      tag_33\n      jump\t// in\n    tag_50:\n      mload(0x40)\n      dup1\n      swap2\n      sub\n      swap1\n      return\n        /* \"blockchain/contracts/VoteLedger.sol\":2248:2395  function setNode(address node, bool allowed) external onlyAdmin {... */\n    tag_8:\n      tag_51\n      0x04\n      dup1\n      calldatasize\n      sub\n      dup2\n      add\n      swap1\n      tag_52\n      swap2\n      swap1\n      tag_53\n      jump\t// in\n    tag_52:\n      tag_54\n      jump\t// in\n    tag_51:\n      stop\n        /* \"blockchain/contracts/VoteLedger.sol\":760:804  mapping(bytes32 => uint256) public tipHeight */\n    tag_9:\n      tag_55\n      0x04\n      dup1\n      calldatasize\n      sub\n      dup2\n      add\n      swap1\n      tag_56\n      swap2\n      swap1\n      tag_57\n      jump\t// in\n    tag_56:\n      tag_58\n      jump\t// in\n    tag_55:\n      mload(0x40)\n      tag_59\n      swap2\n      swap1\n      tag_33\n      jump\t// in\n    tag_59:\n      mload(0x40)\n      dup1\n      swap2\n      sub\n      swap1\n      return\n        /* \"blockchain/contracts/VoteLedger.sol\":2589:2748  function getTip(bytes32 electionIdHash) external view returns (uint256, bytes32) {... */\n    tag_10:\n      tag_60\n      0x04\n      dup1\n      calldatasize\n      sub\n      dup2\n      add\n      swap1\n      tag_61\n      swap2\n      swap1\n      tag_57\n      jump\t// in\n    tag_61:\n      tag_62\n      jump\t// in\n    tag_60:\n      mload(0x40)\n      tag_63\n      swap3\n      swap2\n      swap1\n      tag_64\n      jump\t// in\n    tag_63:\n      mload(0x40)\n      dup1\n      swap2\n      sub\n      swap1\n      return\n        /* \"blockchain/contracts/VoteLedger.sol\":811:853  mapping(bytes32 => bytes32) public tipHash */\n    tag_11:\n      tag_65\n      0x04\n      dup1\n      calldatasize\n      sub\n      dup2\n      add\n      swap1\n      tag_66\n      swap2\n      swap1\n      tag_57\n      jump\t// in\n    tag_66:\n      tag_67\n      jump\t// in\n    tag_65:\n      mload(0x40)\n      tag_68\n      swap2\n      swap1\n      tag_45\n      jump\t// in\n    tag_68:\n      mload(0x40)\n      dup1\n      swap2\n      sub\n      swap1\n      return\n        /* \"blockchain/contracts/VoteLedger.sol\":1012:1094  mapping(bytes32 => mapping(bytes32 => mapping(address => bool))) public approvedBy */\n    tag_12:\n      tag_69\n      0x04\n      dup1\n      calldatasize\n      sub\n      dup2\n      add\n      swap1\n      tag_70\n      swap2\n      swap1\n      tag_71\n      jump\t// in\n    tag_70:\n      tag_72\n      jump\t// in\n    tag_69:\n      mload(0x40)\n      tag_73\n      swap2\n      swap1\n      tag_29\n      jump\t// in\n    tag_73:\n      mload(0x40)\n      dup1\n      swap2\n      sub\n      swap1\n      return\n        /* \"blockchain/contracts/VoteLedger.sol\":2403:2581  function setQuorum(uint256 _quorum) external onlyAdmin {... */\n    tag_13:\n      tag_74\n      0x04\n      dup1\n      calldatasize\n      sub\n      dup2\n      add\n      swap1\n      tag_75\n      swap2\n      swap1\n      tag_76\n      jump\t// in\n    tag_75:\n      tag_77\n      jump\t// in\n    tag_74:\n      stop\n        /* \"blockchain/contracts/VoteLedger.sol\":644:709  mapping(bytes32 => mapping(uint256 => BlockHeader)) public blocks */\n    tag_14:\n      tag_78\n      0x04\n      dup1\n      calldatasize\n      sub\n      dup2\n      add\n      swap1\n      tag_79\n      swap2\n      swap1\n      tag_36\n      jump\t// in\n    tag_79:\n      tag_80\n      jump\t// in\n    tag_78:\n      mload(0x40)\n      tag_81\n      swap7\n      swap6\n      swap5\n      swap4\n      swap3\n      swap2\n      swap1\n      tag_82\n      jump\t// in\n    tag_81:\n      mload(0x40)\n      dup1\n      swap2\n      sub\n      swap1\n      return\n        /* \"blockchain/contracts/VoteLedger.sol\":1322:1383  mapping(bytes32 => mapping(bytes32 => bool)) public finalized */\n    tag_15:\n      tag_83\n      0x04\n      dup1\n      calldatasize\n      sub\n      dup2\n      add\n      swap1\n      tag_84\n      swap2\n      swap1\n      tag_48\n      jump\t// in\n    tag_84:\n      tag_85\n      jump\t// in\n    tag_83:\n      mload(0x40)\n      tag_86\n      swap2\n      swap1\n      tag_29\n      jump\t// in\n    tag_86:\n      mload(0x40)\n      dup1\n      swap2\n      sub\n      swap1\n      return\n        /* \"blockchain/contracts/VoteLedger.sol\":1249:1315  mapping(bytes32 => mapping(bytes32 => bool)) public proposalExists */\n    tag_16:\n      tag_87\n      0x04\n      dup1\n      calldatasize\n      sub\n      dup2\n      add\n      swap1\n      tag_88\n      swap2\n      swap1\n      tag_48\n      jump\t// in\n    tag_88:\n      tag_89\n      jump\t// in\n    tag_87:\n      mload(0x40)\n      tag_90\n      swap2\n      swap1\n      tag_29\n      jump\t// in\n    tag_90:\n      mload(0x40)\n      dup1\n      swap2\n      sub\n      swap1\n      return\n        /* \"blockchain/contracts/VoteLedger.sol\":1174:1242  mapping(bytes32 => mapping(bytes32 => BlockHeader)) public proposals */\n    tag_17:\n      tag_91\n      0x04\n      dup1\n      calldatasize\n      sub\n      dup2\n      add\n      swap1\n      tag_92\n      swap2\n      swap1\n      tag_48\n      jump\t// in\n    tag_92:\n      tag_93\n      jump\t// in\n    tag_91:\n      mload(0x40)\n      tag_94\n      swap7\n      swap6\n      swap5\n      swap4\n      swap3\n      swap2\n      swap1\n      tag_82\n      jump\t// in\n    tag_94:\n      mload(0x40)\n      dup1\n      swap2\n      sub\n      swap1\n      return\n        /* \"blockchain/contracts/VoteLedger.sol\":4931:5630  function finalizeBlock(bytes32 electionIdHash, bytes32 blockHash) external onlyNode {... */\n    tag_18:\n      tag_95\n      0x04\n      dup1\n      calldatasize\n      sub\n      dup2\n      add\n      swap1\n      tag_96\n      swap2\n      swap1\n      tag_48\n      jump\t// in\n    tag_96:\n      tag_97\n      jump\t// in\n    tag_95:\n      stop\n        /* \"blockchain/contracts/VoteLedger.sol\":4131:4427  function approveBlock(bytes32 electionIdHash, bytes32 blockHash) external onlyNode {... */\n    tag_19:\n      tag_98\n      0x04\n      dup1\n      calldatasize\n      sub\n      dup2\n      add\n      swap1\n      tag_99\n      swap2\n      swap1\n      tag_48\n      jump\t// in\n    tag_99:\n      tag_100\n      jump\t// in\n    tag_98:\n      stop\n        /* \"blockchain/contracts/VoteLedger.sol\":261:281  address public admin */\n    tag_20:\n      tag_101\n      tag_102\n      jump\t// in\n    tag_101:\n      mload(0x40)\n      tag_103\n      swap2\n      swap1\n      tag_104\n      jump\t// in\n    tag_103:\n      mload(0x40)\n      dup1\n      swap2\n      sub\n      swap1\n      return\n        /* \"blockchain/contracts/VoteLedger.sol\":353:391  mapping(address => bool) public isNode */\n    tag_27:\n      mstore(0x20, 0x02)\n      dup1\n      0x00\n      mstore\n      keccak256(0x00, 0x40)\n      0x00\n      swap2\n      pop\n      sload\n      swap1\n      0x0100\n      exp\n      swap1\n      div\n      0xff\n      and\n      dup2\n      jump\t// out\n        /* \"blockchain/contracts/VoteLedger.sol\":288:309  uint256 public quorum */\n    tag_31:\n      sload(0x01)\n      dup2\n      jump\t// out\n        /* \"blockchain/contracts/VoteLedger.sol\":2756:2913  function getBlock(bytes32 electionIdHash, uint256 height) external view returns (BlockHeader memory) {... */\n    tag_37:\n        /* \"blockchain/contracts/VoteLedger.sol\":2837:2855  BlockHeader memory */\n      tag_105\n      tag_106\n      jump\t// in\n    tag_105:\n        /* \"blockchain/contracts/VoteLedger.sol\":2875:2881  blocks */\n      0x03\n        /* \"blockchain/contracts/VoteLedger.sol\":2875:2897  blocks[electionIdHash] */\n      0x00\n        /* \"blockchain/contracts/VoteLedger.sol\":2882:2896  electionIdHash */\n      dup5\n        /* \"blockchain/contracts/VoteLedger.sol\":2875:2897  blocks[electionIdHash] */\n      dup2\n      mstore\n      0x20\n      add\n      swap1\n      dup2\n      mstore\n      0x20\n      add\n      0x00\n      keccak256\n        /* \"blockchain/contracts/VoteLedger.sol\":2875:2905  blocks[electionIdHash][height] */\n      0x00\n        /* \"blockchain/contracts/VoteLedger.sol\":2898:2904  height */\n      dup4\n        /* \"blockchain/contracts/VoteLedger.sol\":2875:2905  blocks[electionIdHash][height] */\n      dup2\n      mstore\n      0x20\n      add\n      swap1\n      dup2\n      mstore\n      0x20\n      add\n      0x00\n      keccak256\n        /* \"blockchain/contracts/VoteLedger.sol\":2868:2905  return blocks[electionIdHash][height] */\n      mload(0x40)\n      dup1\n      0xc0\n      add\n      0x40\n      mstore\n      swap1\n      dup2\n      0x00\n      dup3\n      add\n      sload\n      dup2\n      mstore\n      0x20\n      add\n      0x01\n      dup3\n      add\n      sload\n      dup2\n      mstore\n      0x20\n      add\n      0x02\n      dup3\n      add\n      sload\n      dup2\n      mstore\n      0x20\n      add\n      0x03\n      dup3\n      add\n      sload\n      dup2\n      mstore\n      0x20\n      add\n      0x04\n      dup3\n      add\n      sload\n      dup2\n      mstore\n      0x20\n      add\n      0x05\n      dup3\n      add\n      sload\n      dup2\n      mstore\n      pop\n      pop\n      swap1\n      pop\n        /* \"blockchain/contracts/VoteLedger.sol\":2756:2913  function getBlock(bytes32 electionIdHash, uint256 height) external view returns (BlockHeader memory) {... */\n      swap3\n      swap2\n      pop\n      pop\n      jump\t// out\n        /* \"blockchain/contracts/VoteLedger.sol\":2921:4123  function proposeBlock(... */\n    tag_43:\n        /* \"blockchain/contracts/VoteLedger.sol\":3120:3127  bytes32 */\n      0x00\n        /* \"blockchain/contracts/VoteLedger.sol\":1927:1933  isNode */\n      0x02\n        /* \"blockchain/contracts/VoteLedger.sol\":1927:1945  isNode[msg.sender] */\n      0x00\n        /* \"blockchain/contracts/VoteLedger.sol\":1934:1944  msg.sender */\n      caller\n        /* \"blockchain/contracts/VoteLedger.sol\":1927:1945  isNode[msg.sender] */\n      0xffffffffffffffffffffffffffffffffffffffff\n      and\n      0xffffffffffffffffffffffffffffffffffffffff\n      and\n      dup2\n      mstore\n      0x20\n      add\n      swap1\n      dup2\n      mstore\n      0x20\n      add\n      0x00\n      keccak256\n      0x00\n      swap1\n      sload\n      swap1\n      0x0100\n      exp\n      swap1\n      div\n      0xff\n      and\n        /* \"blockchain/contracts/VoteLedger.sol\":1919:1969  require(isNode[msg.sender], \"Not authorized node\") */\n      tag_109\n      jumpi\n      mload(0x40)\n      0x08c379a000000000000000000000000000000000000000000000000000000000\n      dup2\n      mstore\n      0x04\n      add\n      tag_110\n      swap1\n      tag_111\n      jump\t// in\n    tag_110:\n      mload(0x40)\n      dup1\n      swap2\n      sub\n      swap1\n      revert\n    tag_109:\n        /* \"blockchain/contracts/VoteLedger.sol\":3223:3224  1 */\n      0x01\n        /* \"blockchain/contracts/VoteLedger.sol\":3195:3204  tipHeight */\n      0x04\n        /* \"blockchain/contracts/VoteLedger.sol\":3195:3220  tipHeight[electionIdHash] */\n      0x00\n        /* \"blockchain/contracts/VoteLedger.sol\":3205:3219  electionIdHash */\n      dup9\n        /* \"blockchain/contracts/VoteLedger.sol\":3195:3220  tipHeight[electionIdHash] */\n      dup2\n      mstore\n      0x20\n      add\n      swap1\n      dup2\n      mstore\n      0x20\n      add\n      0x00\n      keccak256\n      sload\n        /* \"blockchain/contracts/VoteLedger.sol\":3195:3224  tipHeight[electionIdHash] + 1 */\n      tag_113\n      swap2\n      swap1\n      tag_114\n      jump\t// in\n    tag_113:\n        /* \"blockchain/contracts/VoteLedger.sol\":3185:3191  height */\n      dup6\n        /* \"blockchain/contracts/VoteLedger.sol\":3185:3224  height == tipHeight[electionIdHash] + 1 */\n      eq\n        /* \"blockchain/contracts/VoteLedger.sol\":3177:3239  require(height == tipHeight[electionIdHash] + 1, \"Bad height\") */\n      tag_115\n      jumpi\n      mload(0x40)\n      0x08c379a000000000000000000000000000000000000000000000000000000000\n      dup2\n      mstore\n      0x04\n      add\n      tag_116\n      swap1\n      tag_117\n      jump\t// in\n    tag_116:\n      mload(0x40)\n      dup1\n      swap2\n      sub\n      swap1\n      revert\n    tag_115:\n        /* \"blockchain/contracts/VoteLedger.sol\":3270:3277  tipHash */\n      0x05\n        /* \"blockchain/contracts/VoteLedger.sol\":3270:3293  tipHash[electionIdHash] */\n      0x00\n        /* \"blockchain/contracts/VoteLedger.sol\":3278:3292  electionIdHash */\n      dup8\n        /* \"blockchain/contracts/VoteLedger.sol\":3270:3293  tipHash[electionIdHash] */\n      dup2\n      mstore\n      0x20\n      add\n      swap1\n      dup2\n      mstore\n      0x20\n      add\n      0x00\n      keccak256\n      sload\n        /* \"blockchain/contracts/VoteLedger.sol\":3258:3266  prevHash */\n      dup5\n        /* \"blockchain/contracts/VoteLedger.sol\":3258:3293  prevHash == tipHash[electionIdHash] */\n      eq\n        /* \"blockchain/contracts/VoteLedger.sol\":3250:3311  require(prevHash == tipHash[electionIdHash], \"Bad prev hash\") */\n      tag_118\n      jumpi\n      mload(0x40)\n      0x08c379a000000000000000000000000000000000000000000000000000000000\n      dup2\n      mstore\n      0x04\n      add\n      tag_119\n      swap1\n      tag_120\n      jump\t// in\n    tag_119:\n      mload(0x40)\n      dup1\n      swap2\n      sub\n      swap1\n      revert\n    tag_118:\n        /* \"blockchain/contracts/VoteLedger.sol\":3324:3341  bytes32 blockHash */\n      0x00\n        /* \"blockchain/contracts/VoteLedger.sol\":3385:3399  electionIdHash */\n      dup7\n        /* \"blockchain/contracts/VoteLedger.sol\":3401:3407  height */\n      dup7\n        /* \"blockchain/contracts/VoteLedger.sol\":3409:3417  prevHash */\n      dup7\n        /* \"blockchain/contracts/VoteLedger.sol\":3419:3429  merkleRoot */\n      dup7\n        /* \"blockchain/contracts/VoteLedger.sol\":3431:3441  entryCount */\n      dup7\n        /* \"blockchain/contracts/VoteLedger.sol\":3368:3442  abi.encodePacked(electionIdHash, height, prevHash, merkleRoot, entryCount) */\n      add(0x20, mload(0x40))\n      tag_121\n      swap6\n      swap5\n      swap4\n      swap3\n      swap2\n      swap1\n      tag_122\n      jump\t// in\n    tag_121:\n      mload(0x40)\n      0x20\n      dup2\n      dup4\n      sub\n      sub\n      dup2\n      mstore\n      swap1\n      0x40\n      mstore\n        /* \"blockchain/contracts/VoteLedger.sol\":3344:3453  keccak256(... */\n      dup1\n      mload\n      swap1\n      0x20\n      add\n      keccak256\n        /* \"blockchain/contracts/VoteLedger.sol\":3324:3453  bytes32 blockHash = keccak256(... */\n      swap1\n      pop\n        /* \"blockchain/contracts/VoteLedger.sol\":3475:3489  proposalExists */\n      0x09\n        /* \"blockchain/contracts/VoteLedger.sol\":3475:3505  proposalExists[electionIdHash] */\n      0x00\n        /* \"blockchain/contracts/VoteLedger.sol\":3490:3504  electionIdHash */\n      dup9\n        /* \"blockchain/contracts/VoteLedger.sol\":3475:3505  proposalExists[electionIdHash] */\n      dup2\n      mstore\n      0x20\n      add\n      swap1\n      dup2\n      mstore\n      0x20\n      add\n      0x00\n      keccak256\n        /* \"blockchain/contracts/VoteLedger.sol\":3475:3516  proposalExists[electionIdHash][blockHash] */\n      0x00\n        /* \"blockchain/contracts/VoteLedger.sol\":3506:3515  blockHash */\n      dup3\n        /* \"blockchain/contracts/VoteLedger.sol\":3475:3516  proposalExists[electionIdHash][blockHash] */\n      dup2\n      mstore\n      0x20\n      add\n      swap1\n      dup2\n      mstore\n      0x20\n      add\n      0x00\n      keccak256\n      0x00\n      swap1\n      sload\n      swap1\n      0x0100\n      exp\n      swap1\n      div\n      0xff\n      and\n        /* \"blockchain/contracts/VoteLedger.sol\":3474:3516  !proposalExists[electionIdHash][blockHash] */\n      iszero\n        /* \"blockchain/contracts/VoteLedger.sol\":3466:3537  require(!proposalExists[electionIdHash][blockHash], \"Already proposed\") */\n      tag_123\n      jumpi\n      mload(0x40)\n      0x08c379a000000000000000000000000000000000000000000000000000000000\n      dup2\n      mstore\n      0x04\n      add\n      tag_124\n      swap1\n      tag_125\n      jump\t// in\n    tag_124:\n      mload(0x40)\n      dup1\n      swap2\n      sub\n      swap1\n      revert\n    tag_123:\n        /* \"blockchain/contracts/VoteLedger.sol\":3550:3572  BlockHeader memory hdr */\n      0x00\n        /* \"blockchain/contracts/VoteLedger.sol\":3575:3811  BlockHeader({... */\n      mload(0x40)\n      dup1\n      0xc0\n      add\n      0x40\n      mstore\n      dup1\n        /* \"blockchain/contracts/VoteLedger.sol\":3610:3616  height */\n      dup9\n        /* \"blockchain/contracts/VoteLedger.sol\":3575:3811  BlockHeader({... */\n      dup2\n      mstore\n      0x20\n      add\n        /* \"blockchain/contracts/VoteLedger.sol\":3641:3649  prevHash */\n      dup8\n        /* \"blockchain/contracts/VoteLedger.sol\":3575:3811  BlockHeader({... */\n      dup2\n      mstore\n      0x20\n      add\n        /* \"blockchain/contracts/VoteLedger.sol\":3676:3686  merkleRoot */\n      dup7\n        /* \"blockchain/contracts/VoteLedger.sol\":3575:3811  BlockHeader({... */\n      dup2\n      mstore\n      0x20\n      add\n        /* \"blockchain/contracts/VoteLedger.sol\":3713:3723  entryCount */\n      dup6\n        /* \"blockchain/contracts/VoteLedger.sol\":3575:3811  BlockHeader({... */\n      dup2\n      mstore\n      0x20\n      add\n        /* \"blockchain/contracts/VoteLedger.sol\":3749:3758  blockHash */\n      dup4\n        /* \"blockchain/contracts/VoteLedger.sol\":3575:3811  BlockHeader({... */\n      dup2\n      mstore\n      0x20\n      add\n        /* \"blockchain/contracts/VoteLedger.sol\":3784:3799  block.timestamp */\n      timestamp\n        /* \"blockchain/contracts/VoteLedger.sol\":3575:3811  BlockHeader({... */\n      dup2\n      mstore\n      pop\n        /* \"blockchain/contracts/VoteLedger.sol\":3550:3811  BlockHeader memory hdr = BlockHeader({... */\n      swap1\n      pop\n        /* \"blockchain/contracts/VoteLedger.sol\":3863:3866  hdr */\n      dup1\n        /* \"blockchain/contracts/VoteLedger.sol\":3824:3833  proposals */\n      0x08\n        /* \"blockchain/contracts/VoteLedger.sol\":3824:3849  proposals[electionIdHash] */\n      0x00\n        /* \"blockchain/contracts/VoteLedger.sol\":3834:3848  electionIdHash */\n      dup11\n        /* \"blockchain/contracts/VoteLedger.sol\":3824:3849  proposals[electionIdHash] */\n      dup2\n      mstore\n      0x20\n      add\n      swap1\n      dup2\n      mstore\n      0x20\n      add\n      0x00\n      keccak256\n        /* \"blockchain/contracts/VoteLedger.sol\":3824:3860  proposals[electionIdHash][blockHash] */\n      0x00\n        /* \"blockchain/contracts/VoteLedger.sol\":3850:3859  blockHash */\n      dup5\n        /* \"blockchain/contracts/VoteLedger.sol\":3824:3860  proposals[electionIdHash][blockHash] */\n      dup2\n      mstore\n      0x20\n      add\n      swap1\n      dup2\n      mstore\n      0x20\n      add\n      0x00\n      keccak256\n        /* \"blockchain/contracts/VoteLedger.sol\":3824:3866  proposals[electionIdHash][blockHash] = hdr */\n      0x00\n      dup3\n      add\n      mload\n      dup2\n      0x00\n      add\n      sstore\n      0x20\n      dup3\n      add\n      mload\n      dup2\n      0x01\n      add\n      sstore\n      0x40\n      dup3\n      add\n      mload\n      dup2\n      0x02\n      add\n      sstore\n      0x60\n      dup3\n      add\n      mload\n      dup2\n      0x03\n      add\n      sstore\n      0x80\n      dup3\n      add\n      mload\n      dup2\n      0x04\n      add\n      sstore\n      0xa0\n      dup3\n      add\n      mload\n      dup2\n      0x05\n      add\n      sstore\n      swap1\n      pop\n      pop\n        /* \"blockchain/contracts/VoteLedger.sol\":3921:3925  true */\n      0x01\n        /* \"blockchain/contracts/VoteLedger.sol\":3877:3891  proposalExists */\n      0x09\n        /* \"blockchain/contracts/VoteLedger.sol\":3877:3907  proposalExists[electionIdHash] */\n      0x00\n        /* \"blockchain/contracts/VoteLedger.sol\":3892:3906  electionIdHash */\n      dup11\n        /* \"blockchain/contracts/VoteLedger.sol\":3877:3907  proposalExists[electionIdHash] */\n      dup2\n      mstore\n      0x20\n      add\n      swap1\n      dup2\n      mstore\n      0x20\n      add\n      0x00\n      keccak256\n        /* \"blockchain/contracts/VoteLedger.sol\":3877:3918  proposalExists[electionIdHash][blockHash] */\n      0x00\n        /* \"blockchain/contracts/VoteLedger.sol\":3908:3917  blockHash */\n      dup5\n        /* \"blockchain/contracts/VoteLedger.sol\":3877:3918  proposalExists[electionIdHash][blockHash] */\n      dup2\n      mstore\n      0x20\n      add\n      swap1\n      dup2\n      mstore\n      0x20\n      add\n      0x00\n      keccak256\n      0x00\n        /* \"blockchain/contracts/VoteLedger.sol\":3877:3925  proposalExists[electionIdHash][blockHash] = true */\n      0x0100\n      exp\n      dup2\n      sload\n      dup2\n      0xff\n      mul\n      not\n      and\n      swap1\n      dup4\n      iszero\n      iszero\n      mul\n      or\n      swap1\n      sstore\n      pop\n        /* \"blockchain/contracts/VoteLedger.sol\":3943:4003  BlockProposed(electionIdHash, blockHash, height, merkleRoot) */\n      0x51d7cc0ea5b00d3c1c1eff0d06862630b4ca2795e9d1be3ccca63c417b48086d\n        /* \"blockchain/contracts/VoteLedger.sol\":3957:3971  electionIdHash */\n      dup9\n        /* \"blockchain/contracts/VoteLedger.sol\":3973:3982  blockHash */\n      dup4\n        /* \"blockchain/contracts/VoteLedger.sol\":3984:3990  height */\n      dup10\n        /* \"blockchain/contracts/VoteLedger.sol\":3992:4002  merkleRoot */\n      dup9\n        /* \"blockchain/contracts/VoteLedger.sol\":3943:4003  BlockProposed(electionIdHash, blockHash, height, merkleRoot) */\n      mload(0x40)\n      tag_126\n      swap5\n      swap4\n      swap3\n      swap2\n      swap1\n      tag_127\n      jump\t// in\n    tag_126:\n      mload(0x40)\n      dup1\n      swap2\n      sub\n      swap1\n      log1\n        /* \"blockchain/contracts/VoteLedger.sol\":4051:4086  _approve(electionIdHash, blockHash) */\n      tag_128\n        /* \"blockchain/contracts/VoteLedger.sol\":4060:4074  electionIdHash */\n      dup9\n        /* \"blockchain/contracts/VoteLedger.sol\":4076:4085  blockHash */\n      dup4\n        /* \"blockchain/contracts/VoteLedger.sol\":4051:4059  _approve */\n      tag_129\n        /* \"blockchain/contracts/VoteLedger.sol\":4051:4086  _approve(electionIdHash, blockHash) */\n      jump\t// in\n    tag_128:\n        /* \"blockchain/contracts/VoteLedger.sol\":4106:4115  blockHash */\n      dup2\n        /* \"blockchain/contracts/VoteLedger.sol\":4099:4115  return blockHash */\n      swap3\n      pop\n      pop\n      pop\n        /* \"blockchain/contracts/VoteLedger.sol\":2921:4123  function proposeBlock(... */\n      swap6\n      swap5\n      pop\n      pop\n      pop\n      pop\n      pop\n      jump\t// out\n        /* \"blockchain/contracts/VoteLedger.sol\":936:1005  mapping(bytes32 => mapping(bytes32 => uint256)) public approvalsCount */\n    tag_49:\n      mstore(0x20, 0x06)\n      dup2\n      0x00\n      mstore\n      mstore(0x20, keccak256(0x00, 0x40))\n      dup1\n      0x00\n      mstore\n      keccak256(0x00, 0x40)\n      0x00\n      swap2\n      pop\n      swap2\n      pop\n      pop\n      sload\n      dup2\n      jump\t// out\n        /* \"blockchain/contracts/VoteLedger.sol\":2248:2395  function setNode(address node, bool allowed) external onlyAdmin {... */\n    tag_54:\n        /* \"blockchain/contracts/VoteLedger.sol\":1841:1846  admin */\n      0x00\n      0x00\n      swap1\n      sload\n      swap1\n      0x0100\n      exp\n      swap1\n      div\n      0xffffffffffffffffffffffffffffffffffffffff\n      and\n        /* \"blockchain/contracts/VoteLedger.sol\":1827:1846  msg.sender == admin */\n      0xffffffffffffffffffffffffffffffffffffffff\n      and\n        /* \"blockchain/contracts/VoteLedger.sol\":1827:1837  msg.sender */\n      caller\n        /* \"blockchain/contracts/VoteLedger.sol\":1827:1846  msg.sender == admin */\n      0xffffffffffffffffffffffffffffffffffffffff\n      and\n      eq\n        /* \"blockchain/contracts/VoteLedger.sol\":1819:1860  require(msg.sender == admin, \"Not admin\") */\n      tag_131\n      jumpi\n      mload(0x40)\n      0x08c379a000000000000000000000000000000000000000000000000000000000\n      dup2\n      mstore\n      0x04\n      add\n      tag_132\n      swap1\n      tag_133\n      jump\t// in\n    tag_132:\n      mload(0x40)\n      dup1\n      swap2\n      sub\n      swap1\n      revert\n    tag_131:\n        /* \"blockchain/contracts/VoteLedger.sol\":2338:2345  allowed */\n      dup1\n        /* \"blockchain/contracts/VoteLedger.sol\":2323:2329  isNode */\n      0x02\n        /* \"blockchain/contracts/VoteLedger.sol\":2323:2335  isNode[node] */\n      0x00\n        /* \"blockchain/contracts/VoteLedger.sol\":2330:2334  node */\n      dup5\n        /* \"blockchain/contracts/VoteLedger.sol\":2323:2335  isNode[node] */\n      0xffffffffffffffffffffffffffffffffffffffff\n      and\n      0xffffffffffffffffffffffffffffffffffffffff\n      and\n      dup2\n      mstore\n      0x20\n      add\n      swap1\n      dup2\n      mstore\n      0x20\n      add\n      0x00\n      keccak256\n      0x00\n        /* \"blockchain/contracts/VoteLedger.sol\":2323:2345  isNode[node] = allowed */\n      0x0100\n      exp\n      dup2\n      sload\n      dup2\n      0xff\n      mul\n      not\n      and\n      swap1\n      dup4\n      iszero\n      iszero\n      mul\n      or\n      swap1\n      sstore\n      pop\n        /* \"blockchain/contracts/VoteLedger.sol\":2361:2387  NodeUpdated(node, allowed) */\n      0x2594c7e2dc67dba873b8fcc63bc8a5ee2c8b37fa772f132594cfc90bb82e0fe9\n        /* \"blockchain/contracts/VoteLedger.sol\":2373:2377  node */\n      dup3\n        /* \"blockchain/contracts/VoteLedger.sol\":2379:2386  allowed */\n      dup3\n        /* \"blockchain/contracts/VoteLedger.sol\":2361:2387  NodeUpdated(node, allowed) */\n      mload(0x40)\n      tag_135\n      swap3\n      swap2\n      swap1\n      tag_136\n      jump\t// in\n    tag_135:\n      mload(0x40)\n      dup1\n      swap2\n      sub\n      swap1\n      log1\n        /* \"blockchain/contracts/VoteLedger.sol\":2248:2395  function setNode(address node, bool allowed) external onlyAdmin {... */\n      pop\n      pop\n      jump\t// out\n        /* \"blockchain/contracts/VoteLedger.sol\":760:804  mapping(bytes32 => uint256) public tipHeight */\n    tag_58:\n      mstore(0x20, 0x04)\n      dup1\n      0x00\n      mstore\n      keccak256(0x00, 0x40)\n      0x00\n      swap2\n      pop\n      swap1\n      pop\n      sload\n      dup2\n      jump\t// out\n        /* \"blockchain/contracts/VoteLedger.sol\":2589:2748  function getTip(bytes32 electionIdHash) external view returns (uint256, bytes32) {... */\n    tag_62:\n        /* \"blockchain/contracts/VoteLedger.sol\":2652:2659  uint256 */\n      0x00\n        /* \"blockchain/contracts/VoteLedger.sol\":2661:2668  bytes32 */\n      0x00\n        /* \"blockchain/contracts/VoteLedger.sol\":2689:2698  tipHeight */\n      0x04\n        /* \"blockchain/contracts/VoteLedger.sol\":2689:2714  tipHeight[electionIdHash] */\n      0x00\n        /* \"blockchain/contracts/VoteLedger.sol\":2699:2713  electionIdHash */\n      dup5\n        /* \"blockchain/contracts/VoteLedger.sol\":2689:2714  tipHeight[electionIdHash] */\n      dup2\n      mstore\n      0x20\n      add\n      swap1\n      dup2\n      mstore\n      0x20\n      add\n      0x00\n      keccak256\n      sload\n        /* \"blockchain/contracts/VoteLedger.sol\":2716:2723  tipHash */\n      0x05\n        /* \"blockchain/contracts/VoteLedger.sol\":2716:2739  tipHash[electionIdHash] */\n      0x00\n        /* \"blockchain/contracts/VoteLedger.sol\":2724:2738  electionIdHash */\n      dup6\n        /* \"blockchain/contracts/VoteLedger.sol\":2716:2739  tipHash[electionIdHash] */\n      dup2\n      mstore\n      0x20\n      add\n      swap1\n      dup2\n      mstore\n      0x20\n      add\n      0x00\n      keccak256\n      sload\n        /* \"blockchain/contracts/VoteLedger.sol\":2681:2740  return (tipHeight[electionIdHash], tipHash[electionIdHash]) */\n      swap2\n      pop\n      swap2\n      pop\n        /* \"blockchain/contracts/VoteLedger.sol\":2589:2748  function getTip(bytes32 electionIdHash) external view returns (uint256, bytes32) {... */\n      swap2\n      pop\n      swap2\n      jump\t// out\n        /* \"blockchain/contracts/VoteLedger.sol\":811:853  mapping(bytes32 => bytes32) public tipHash */\n    tag_67:\n      mstore(0x20, 0x05)\n      dup1\n      0x00\n      mstore\n      keccak256(0x00, 0x40)\n      0x00\n      swap2\n      pop\n      swap1\n      pop\n      sload\n      dup2\n      jump\t// out\n        /* \"blockchain/contracts/VoteLedger.sol\":1012:1094  mapping(bytes32 => mapping(bytes32 => mapping(address => bool))) public approvedBy */\n    tag_72:\n      mstore(0x20, 0x07)\n      dup3\n      0x00\n      mstore\n      mstore(0x20, keccak256(0x00, 0x40))\n      dup2\n      0x00\n      mstore\n      mstore(0x20, keccak256(0x00, 0x40))\n      dup1\n      0x00\n      mstore\n      keccak256(0x00, 0x40)\n      0x00\n      swap3\n      pop\n      swap3\n      pop\n      pop\n      swap1\n      sload\n      swap1\n      0x0100\n      exp\n      swap1\n      div\n      0xff\n      and\n      dup2\n      jump\t// out\n        /* \"blockchain/contracts/VoteLedger.sol\":2403:2581  function setQuorum(uint256 _quorum) external onlyAdmin {... */\n    tag_77:\n        /* \"blockchain/contracts/VoteLedger.sol\":1841:1846  admin */\n      0x00\n      0x00\n      swap1\n      sload\n      swap1\n      0x0100\n      exp\n      swap1\n      div\n      0xffffffffffffffffffffffffffffffffffffffff\n      and\n        /* \"blockchain/contracts/VoteLedger.sol\":1827:1846  msg.sender == admin */\n      0xffffffffffffffffffffffffffffffffffffffff\n      and\n        /* \"blockchain/contracts/VoteLedger.sol\":1827:1837  msg.sender */\n      caller\n        /* \"blockchain/contracts/VoteLedger.sol\":1827:1846  msg.sender == admin */\n      0xffffffffffffffffffffffffffffffffffffffff\n      and\n      eq\n        /* \"blockchain/contracts/VoteLedger.sol\":1819:1860  require(msg.sender == admin, \"Not admin\") */\n      tag_139\n      jumpi\n      mload(0x40)\n      0x08c379a000000000000000000000000000000000000000000000000000000000\n      dup2\n      mstore\n      0x04\n      add\n      tag_140\n      swap1\n      tag_133\n      jump\t// in\n    tag_140:\n      mload(0x40)\n      dup1\n      swap2\n      sub\n      swap1\n      revert\n    tag_139:\n        /* \"blockchain/contracts/VoteLedger.sol\":2488:2489  1 */\n      0x01\n        /* \"blockchain/contracts/VoteLedger.sol\":2477:2484  _quorum */\n      dup2\n        /* \"blockchain/contracts/VoteLedger.sol\":2477:2489  _quorum >= 1 */\n      lt\n      iszero\n        /* \"blockchain/contracts/VoteLedger.sol\":2469:2508  require(_quorum >= 1, \"quorum too low\") */\n      tag_142\n      jumpi\n      mload(0x40)\n      0x08c379a000000000000000000000000000000000000000000000000000000000\n      dup2\n      mstore\n      0x04\n      add\n      tag_143\n      swap1\n      tag_144\n      jump\t// in\n    tag_143:\n      mload(0x40)\n      dup1\n      swap2\n      sub\n      swap1\n      revert\n    tag_142:\n        /* \"blockchain/contracts/VoteLedger.sol\":2528:2535  _quorum */\n      dup1\n        /* \"blockchain/contracts/VoteLedger.sol\":2519:2525  quorum */\n      0x01\n        /* \"blockchain/contracts/VoteLedger.sol\":2519:2535  quorum = _quorum */\n      dup2\n      swap1\n      sstore\n      pop\n        /* \"blockchain/contracts/VoteLedger.sol\":2551:2573  QuorumUpdated(_quorum) */\n      0xf18f88786aae85a652aadb99a82462616489a33370c9bcc7b245906812ef7cd1\n        /* \"blockchain/contracts/VoteLedger.sol\":2565:2572  _quorum */\n      dup2\n        /* \"blockchain/contracts/VoteLedger.sol\":2551:2573  QuorumUpdated(_quorum) */\n      mload(0x40)\n      tag_145\n      swap2\n      swap1\n      tag_33\n      jump\t// in\n    tag_145:\n      mload(0x40)\n      dup1\n      swap2\n      sub\n      swap1\n      log1\n        /* \"blockchain/contracts/VoteLedger.sol\":2403:2581  function setQuorum(uint256 _quorum) external onlyAdmin {... */\n      pop\n      jump\t// out\n        /* \"blockchain/contracts/VoteLedger.sol\":644:709  mapping(bytes32 => mapping(uint256 => BlockHeader)) public blocks */\n    tag_80:\n      mstore(0x20, 0x03)\n      dup2\n      0x00\n      mstore\n      mstore(0x20, keccak256(0x00, 0x40))\n      dup1\n      0x00\n      mstore\n      keccak256(0x00, 0x40)\n      0x00\n      swap2\n      pop\n      swap2\n      pop\n      pop\n      dup1\n      0x00\n      add\n      sload\n      swap1\n      dup1\n      0x01\n      add\n      sload\n      swap1\n      dup1\n      0x02\n      add\n      sload\n      swap1\n      dup1\n      0x03\n      add\n      sload\n      swap1\n      dup1\n      0x04\n      add\n      sload\n      swap1\n      dup1\n      0x05\n      add\n      sload\n      swap1\n      pop\n      dup7\n      jump\t// out\n        /* \"blockchain/contracts/VoteLedger.sol\":1322:1383  mapping(bytes32 => mapping(bytes32 => bool)) public finalized */\n    tag_85:\n      mstore(0x20, 0x0a)\n      dup2\n      0x00\n      mstore\n      mstore(0x20, keccak256(0x00, 0x40))\n      dup1\n      0x00\n      mstore\n      keccak256(0x00, 0x40)\n      0x00\n      swap2\n      pop\n      swap2\n      pop\n      swap1\n      sload\n      swap1\n      0x0100\n      exp\n      swap1\n      div\n      0xff\n      and\n      dup2\n      jump\t// out\n        /* \"blockchain/contracts/VoteLedger.sol\":1249:1315  mapping(bytes32 => mapping(bytes32 => bool)) public proposalExists */\n    tag_89:\n      mstore(0x20, 0x09)\n      dup2\n      0x00\n      mstore\n      mstore(0x20, keccak256(0x00, 0x40))\n      dup1\n      0x00\n      mstore\n      keccak256(0x00, 0x40)\n      0x00\n      swap2\n      pop\n      swap2\n      pop\n      swap1\n      sload\n      swap1\n      0x0100\n      exp\n      swap1\n      div\n      0xff\n      and\n      dup2\n      jump\t// out\n        /* \"blockchain/contracts/VoteLedger.sol\":1174:1242  mapping(bytes32 => mapping(bytes32 => BlockHeader)) public proposals */\n    tag_93:\n      mstore(0x20, 0x08)\n      dup2\n      0x00\n      mstore\n      mstore(0x20, keccak256(0x00, 0x40))\n      dup1\n      0x00\n      mstore\n      keccak256(0x00, 0x40)\n      0x00\n      swap2\n      pop\n      swap2\n      pop\n      pop\n      dup1\n      0x00\n      add\n      sload\n      swap1\n      dup1\n      0x01\n      add\n      sload\n      swap1\n      dup1\n      0x02\n      add\n      sload\n      swap1\n      dup1\n      0x03\n      add\n      sload\n      swap1\n      dup1\n      0x04\n      add\n      sload\n      swap1\n      dup1\n      0x05\n      add\n      sload\n      swap1\n      pop\n      dup7\n      jump\t// out\n        /* \"blockchain/contracts/VoteLedger.sol\":4931:5630  function finalizeBlock(bytes32 electionIdHash, bytes32 blockHash) external onlyNode {... */\n    tag_97:\n        /* \"blockchain/contracts/VoteLedger.sol\":1927:1933  isNode */\n      0x02\n        /* \"blockchain/contracts/VoteLedger.sol\":1927:1945  isNode[msg.sender] */\n      0x00\n        /* \"blockchain/contracts/VoteLedger.sol\":1934:1944  msg.sender */\n      caller\n        /* \"blockchain/contracts/VoteLedger.sol\":1927:1945  isNode[msg.sender] */\n      0xffffffffffffffffffffffffffffffffffffffff\n      and\n      0xffffffffffffffffffffffffffffffffffffffff\n      and\n      dup2\n      mstore\n      0x20\n      add\n      swap1\n      dup2\n      mstore\n      0x20\n      add\n      0x00\n      keccak256\n      0x00\n      swap1\n      sload\n      swap1\n      0x0100\n      exp\n      swap1\n      div\n      0xff\n      and\n        /* \"blockchain/contracts/VoteLedger.sol\":1919:1969  require(isNode[msg.sender], \"Not authorized node\") */\n      tag_147\n      jumpi\n      mload(0x40)\n      0x08c379a000000000000000000000000000000000000000000000000000000000\n      dup2\n      mstore\n      0x04\n      add\n      tag_148\n      swap1\n      tag_111\n      jump\t// in\n    tag_148:\n      mload(0x40)\n      dup1\n      swap2\n      sub\n      swap1\n      revert\n    tag_147:\n        /* \"blockchain/contracts/VoteLedger.sol\":5034:5048  proposalExists */\n      0x09\n        /* \"blockchain/contracts/VoteLedger.sol\":5034:5064  proposalExists[electionIdHash] */\n      0x00\n        /* \"blockchain/contracts/VoteLedger.sol\":5049:5063  electionIdHash */\n      dup4\n        /* \"blockchain/contracts/VoteLedger.sol\":5034:5064  proposalExists[electionIdHash] */\n      dup2\n      mstore\n      0x20\n      add\n      swap1\n      dup2\n      mstore\n      0x20\n      add\n      0x00\n      keccak256\n        /* \"blockchain/contracts/VoteLedger.sol\":5034:5075  proposalExists[electionIdHash][blockHash] */\n      0x00\n        /* \"blockchain/contracts/VoteLedger.sol\":5065:5074  blockHash */\n      dup3\n        /* \"blockchain/contracts/VoteLedger.sol\":5034:5075  proposalExists[electionIdHash][blockHash] */\n      dup2\n      mstore\n      0x20\n      add\n      swap1\n      dup2\n      mstore\n      0x20\n      add\n      0x00\n      keccak256\n      0x00\n      swap1\n      sload\n      swap1\n      0x0100\n      exp\n      swap1\n      div\n      0xff\n      and\n        /* \"blockchain/contracts/VoteLedger.sol\":5026:5096  require(proposalExists[electionIdHash][blockHash], \"No such proposal\") */\n      tag_150\n      jumpi\n      mload(0x40)\n      0x08c379a000000000000000000000000000000000000000000000000000000000\n      dup2\n      mstore\n      0x04\n      add\n      tag_151\n      swap1\n      tag_152\n      jump\t// in\n    tag_151:\n      mload(0x40)\n      dup1\n      swap2\n      sub\n      swap1\n      revert\n    tag_150:\n        /* \"blockchain/contracts/VoteLedger.sol\":5116:5125  finalized */\n      0x0a\n        /* \"blockchain/contracts/VoteLedger.sol\":5116:5141  finalized[electionIdHash] */\n      0x00\n        /* \"blockchain/contracts/VoteLedger.sol\":5126:5140  electionIdHash */\n      dup4\n        /* \"blockchain/contracts/VoteLedger.sol\":5116:5141  finalized[electionIdHash] */\n      dup2\n      mstore\n      0x20\n      add\n      swap1\n      dup2\n      mstore\n      0x20\n      add\n      0x00\n      keccak256\n        /* \"blockchain/contracts/VoteLedger.sol\":5116:5152  finalized[electionIdHash][blockHash] */\n      0x00\n        /* \"blockchain/contracts/VoteLedger.sol\":5142:5151  blockHash */\n      dup3\n        /* \"blockchain/contracts/VoteLedger.sol\":5116:5152  finalized[electionIdHash][blockHash] */\n      dup2\n      mstore\n      0x20\n      add\n      swap1\n      dup2\n      mstore\n      0x20\n      add\n      0x00\n      keccak256\n      0x00\n      swap1\n      sload\n      swap1\n      0x0100\n      exp\n      swap1\n      div\n      0xff\n      and\n        /* \"blockchain/contracts/VoteLedger.sol\":5115:5152  !finalized[electionIdHash][blockHash] */\n      iszero\n        /* \"blockchain/contracts/VoteLedger.sol\":5107:5174  require(!finalized[electionIdHash][blockHash], \"Already finalized\") */\n      tag_153\n      jumpi\n      mload(0x40)\n      0x08c379a000000000000000000000000000000000000000000000000000000000\n      dup2\n      mstore\n      0x04\n      add\n      tag_154\n      swap1\n      tag_155\n      jump\t// in\n    tag_154:\n      mload(0x40)\n      dup1\n      swap2\n      sub\n      swap1\n      revert\n    tag_153:\n        /* \"blockchain/contracts/VoteLedger.sol\":5238:5244  quorum */\n      sload(0x01)\n        /* \"blockchain/contracts/VoteLedger.sol\":5193:5207  approvalsCount */\n      0x06\n        /* \"blockchain/contracts/VoteLedger.sol\":5193:5223  approvalsCount[electionIdHash] */\n      0x00\n        /* \"blockchain/contracts/VoteLedger.sol\":5208:5222  electionIdHash */\n      dup5\n        /* \"blockchain/contracts/VoteLedger.sol\":5193:5223  approvalsCount[electionIdHash] */\n      dup2\n      mstore\n      0x20\n      add\n      swap1\n      dup2\n      mstore\n      0x20\n      add\n      0x00\n      keccak256\n        /* \"blockchain/contracts/VoteLedger.sol\":5193:5234  approvalsCount[electionIdHash][blockHash] */\n      0x00\n        /* \"blockchain/contracts/VoteLedger.sol\":5224:5233  blockHash */\n      dup4\n        /* \"blockchain/contracts/VoteLedger.sol\":5193:5234  approvalsCount[electionIdHash][blockHash] */\n      dup2\n      mstore\n      0x20\n      add\n      swap1\n      dup2\n      mstore\n      0x20\n      add\n      0x00\n      keccak256\n      sload\n        /* \"blockchain/contracts/VoteLedger.sol\":5193:5244  approvalsCount[electionIdHash][blockHash] >= quorum */\n      lt\n      iszero\n        /* \"blockchain/contracts/VoteLedger.sol\":5185:5269  require(approvalsCount[electionIdHash][blockHash] >= quorum, \"Not enough approvals\") */\n      tag_156\n      jumpi\n      mload(0x40)\n      0x08c379a000000000000000000000000000000000000000000000000000000000\n      dup2\n      mstore\n      0x04\n      add\n      tag_157\n      swap1\n      tag_158\n      jump\t// in\n    tag_157:\n      mload(0x40)\n      dup1\n      swap2\n      sub\n      swap1\n      revert\n    tag_156:\n        /* \"blockchain/contracts/VoteLedger.sol\":5282:5304  BlockHeader memory hdr */\n      0x00\n        /* \"blockchain/contracts/VoteLedger.sol\":5307:5316  proposals */\n      0x08\n        /* \"blockchain/contracts/VoteLedger.sol\":5307:5332  proposals[electionIdHash] */\n      0x00\n        /* \"blockchain/contracts/VoteLedger.sol\":5317:5331  electionIdHash */\n      dup5\n        /* \"blockchain/contracts/VoteLedger.sol\":5307:5332  proposals[electionIdHash] */\n      dup2\n      mstore\n      0x20\n      add\n      swap1\n      dup2\n      mstore\n      0x20\n      add\n      0x00\n      keccak256\n        /* \"blockchain/contracts/VoteLedger.sol\":5307:5343  proposals[electionIdHash][blockHash] */\n      0x00\n        /* \"blockchain/contracts/VoteLedger.sol\":5333:5342  blockHash */\n      dup4\n        /* \"blockchain/contracts/VoteLedger.sol\":5307:5343  proposals[electionIdHash][blockHash] */\n      dup2\n      mstore\n      0x20\n      add\n      swap1\n      dup2\n      mstore\n      0x20\n      add\n      0x00\n      keccak256\n        /* \"blockchain/contracts/VoteLedger.sol\":5282:5343  BlockHeader memory hdr = proposals[electionIdHash][blockHash] */\n      mload(0x40)\n      dup1\n      0xc0\n      add\n      0x40\n      mstore\n      swap1\n      dup2\n      0x00\n      dup3\n      add\n      sload\n      dup2\n      mstore\n      0x20\n      add\n      0x01\n      dup3\n      add\n      sload\n      dup2\n      mstore\n      0x20\n      add\n      0x02\n      dup3\n      add\n      sload\n      dup2\n      mstore\n      0x20\n      add\n      0x03\n      dup3\n      add\n      sload\n      dup2\n      mstore\n      0x20\n      add\n      0x04\n      dup3\n      add\n      sload\n      dup2\n      mstore\n      0x20\n      add\n      0x05\n      dup3\n      add\n      sload\n      dup2\n      mstore\n      pop\n      pop\n      swap1\n      pop\n        /* \"blockchain/contracts/VoteLedger.sol\":5393:5396  hdr */\n      dup1\n        /* \"blockchain/contracts/VoteLedger.sol\":5356:5362  blocks */\n      0x03\n        /* \"blockchain/contracts/VoteLedger.sol\":5356:5378  blocks[electionIdHash] */\n      0x00\n        /* \"blockchain/contracts/VoteLedger.sol\":5363:5377  electionIdHash */\n      dup6\n        /* \"blockchain/contracts/VoteLedger.sol\":5356:5378  blocks[electionIdHash] */\n      dup2\n      mstore\n      0x20\n      add\n      swap1\n      dup2\n      mstore\n      0x20\n      add\n      0x00\n      keccak256\n        /* \"blockchain/contracts/VoteLedger.sol\":5356:5390  blocks[electionIdHash][hdr.height] */\n      0x00\n        /* \"blockchain/contracts/VoteLedger.sol\":5379:5382  hdr */\n      dup4\n        /* \"blockchain/contracts/VoteLedger.sol\":5379:5389  hdr.height */\n      0x00\n      add\n      mload\n        /* \"blockchain/contracts/VoteLedger.sol\":5356:5390  blocks[electionIdHash][hdr.height] */\n      dup2\n      mstore\n      0x20\n      add\n      swap1\n      dup2\n      mstore\n      0x20\n      add\n      0x00\n      keccak256\n        /* \"blockchain/contracts/VoteLedger.sol\":5356:5396  blocks[electionIdHash][hdr.height] = hdr */\n      0x00\n      dup3\n      add\n      mload\n      dup2\n      0x00\n      add\n      sstore\n      0x20\n      dup3\n      add\n      mload\n      dup2\n      0x01\n      add\n      sstore\n      0x40\n      dup3\n      add\n      mload\n      dup2\n      0x02\n      add\n      sstore\n      0x60\n      dup3\n      add\n      mload\n      dup2\n      0x03\n      add\n      sstore\n      0x80\n      dup3\n      add\n      mload\n      dup2\n      0x04\n      add\n      sstore\n      0xa0\n      dup3\n      add\n      mload\n      dup2\n      0x05\n      add\n      sstore\n      swap1\n      pop\n      pop\n        /* \"blockchain/contracts/VoteLedger.sol\":5435:5438  hdr */\n      dup1\n        /* \"blockchain/contracts/VoteLedger.sol\":5435:5445  hdr.height */\n      0x00\n      add\n      mload\n        /* \"blockchain/contracts/VoteLedger.sol\":5407:5416  tipHeight */\n      0x04\n        /* \"blockchain/contracts/VoteLedger.sol\":5407:5432  tipHeight[electionIdHash] */\n      0x00\n        /* \"blockchain/contracts/VoteLedger.sol\":5417:5431  electionIdHash */\n      dup6\n        /* \"blockchain/contracts/VoteLedger.sol\":5407:5432  tipHeight[electionIdHash] */\n      dup2\n      mstore\n      0x20\n      add\n      swap1\n      dup2\n      mstore\n      0x20\n      add\n      0x00\n      keccak256\n        /* \"blockchain/contracts/VoteLedger.sol\":5407:5445  tipHeight[electionIdHash] = hdr.height */\n      dup2\n      swap1\n      sstore\n      pop\n        /* \"blockchain/contracts/VoteLedger.sol\":5482:5485  hdr */\n      dup1\n        /* \"blockchain/contracts/VoteLedger.sol\":5482:5495  hdr.blockHash */\n      0x80\n      add\n      mload\n        /* \"blockchain/contracts/VoteLedger.sol\":5456:5463  tipHash */\n      0x05\n        /* \"blockchain/contracts/VoteLedger.sol\":5456:5479  tipHash[electionIdHash] */\n      0x00\n        /* \"blockchain/contracts/VoteLedger.sol\":5464:5478  electionIdHash */\n      dup6\n        /* \"blockchain/contracts/VoteLedger.sol\":5456:5479  tipHash[electionIdHash] */\n      dup2\n      mstore\n      0x20\n      add\n      swap1\n      dup2\n      mstore\n      0x20\n      add\n      0x00\n      keccak256\n        /* \"blockchain/contracts/VoteLedger.sol\":5456:5495  tipHash[electionIdHash] = hdr.blockHash */\n      dup2\n      swap1\n      sstore\n      pop\n        /* \"blockchain/contracts/VoteLedger.sol\":5547:5551  true */\n      0x01\n        /* \"blockchain/contracts/VoteLedger.sol\":5508:5517  finalized */\n      0x0a\n        /* \"blockchain/contracts/VoteLedger.sol\":5508:5533  finalized[electionIdHash] */\n      0x00\n        /* \"blockchain/contracts/VoteLedger.sol\":5518:5532  electionIdHash */\n      dup6\n        /* \"blockchain/contracts/VoteLedger.sol\":5508:5533  finalized[electionIdHash] */\n      dup2\n      mstore\n      0x20\n      add\n      swap1\n      dup2\n      mstore\n      0x20\n      add\n      0x00\n      keccak256\n        /* \"blockchain/contracts/VoteLedger.sol\":5508:5544  finalized[electionIdHash][blockHash] */\n      0x00\n        /* \"blockchain/contracts/VoteLedger.sol\":5534:5543  blockHash */\n      dup5\n        /* \"blockchain/contracts/VoteLedger.sol\":5508:5544  finalized[electionIdHash][blockHash] */\n      dup2\n      mstore\n      0x20\n      add\n      swap1\n      dup2\n      mstore\n      0x20\n      add\n      0x00\n      keccak256\n      0x00\n        /* \"blockchain/contracts/VoteLedger.sol\":5508:5551  finalized[electionIdHash][blockHash] = true */\n      0x0100\n      exp\n      dup2\n      sload\n      dup2\n      0xff\n      mul\n      not\n      and\n      swap1\n      dup4\n      iszero\n      iszero\n      mul\n      or\n      swap1\n      sstore\n      pop\n        /* \"blockchain/contracts/VoteLedger.sol\":5569:5622  BlockFinalized(electionIdHash, blockHash, hdr.height) */\n      0xe87ca8b6e4c0c3d2c47e459bfe4ae13698ba00331ec65fd1088451c80e3a39e7\n        /* \"blockchain/contracts/VoteLedger.sol\":5584:5598  electionIdHash */\n      dup4\n        /* \"blockchain/contracts/VoteLedger.sol\":5600:5609  blockHash */\n      dup4\n        /* \"blockchain/contracts/VoteLedger.sol\":5611:5614  hdr */\n      dup4\n        /* \"blockchain/contracts/VoteLedger.sol\":5611:5621  hdr.height */\n      0x00\n      add\n      mload\n        /* \"blockchain/contracts/VoteLedger.sol\":5569:5622  BlockFinalized(electionIdHash, blockHash, hdr.height) */\n      mload(0x40)\n      tag_159\n      swap4\n      swap3\n      swap2\n      swap1\n      tag_160\n      jump\t// in\n    tag_159:\n      mload(0x40)\n      dup1\n      swap2\n      sub\n      swap1\n      log1\n        /* \"blockchain/contracts/VoteLedger.sol\":5015:5630  {... */\n      pop\n        /* \"blockchain/contracts/VoteLedger.sol\":4931:5630  function finalizeBlock(bytes32 electionIdHash, bytes32 blockHash) external onlyNode {... */\n      pop\n      pop\n      jump\t// out\n        /* \"blockchain/contracts/VoteLedger.sol\":4131:4427  function approveBlock(bytes32 electionIdHash, bytes32 blockHash) external onlyNode {... */\n    tag_100:\n        /* \"blockchain/contracts/VoteLedger.sol\":1927:1933  isNode */\n      0x02\n        /* \"blockchain/contracts/VoteLedger.sol\":1927:1945  isNode[msg.sender] */\n      0x00\n        /* \"blockchain/contracts/VoteLedger.sol\":1934:1944  msg.sender */\n      caller\n        /* \"blockchain/contracts/VoteLedger.sol\":1927:1945  isNode[msg.sender] */\n      0xffffffffffffffffffffffffffffffffffffffff\n      and\n      0xffffffffffffffffffffffffffffffffffffffff\n      and\n      dup2\n      mstore\n      0x20\n      add\n      swap1\n      dup2\n      mstore\n      0x20\n      add\n      0x00\n      keccak256\n      0x00\n      swap1\n      sload\n      swap1\n      0x0100\n      exp\n      swap1\n      div\n      0xff\n      and\n        /* \"blockchain/contracts/VoteLedger.sol\":1919:1969  require(isNode[msg.sender], \"Not authorized node\") */\n      tag_162\n      jumpi\n      mload(0x40)\n      0x08c379a000000000000000000000000000000000000000000000000000000000\n      dup2\n      mstore\n      0x04\n      add\n      tag_163\n      swap1\n      tag_111\n      jump\t// in\n    tag_163:\n      mload(0x40)\n      dup1\n      swap2\n      sub\n      swap1\n      revert\n    tag_162:\n        /* \"blockchain/contracts/VoteLedger.sol\":4233:4247  proposalExists */\n      0x09\n        /* \"blockchain/contracts/VoteLedger.sol\":4233:4263  proposalExists[electionIdHash] */\n      0x00\n        /* \"blockchain/contracts/VoteLedger.sol\":4248:4262  electionIdHash */\n      dup4\n        /* \"blockchain/contracts/VoteLedger.sol\":4233:4263  proposalExists[electionIdHash] */\n      dup2\n      mstore\n      0x20\n      add\n      swap1\n      dup2\n      mstore\n      0x20\n      add\n      0x00\n      keccak256\n        /* \"blockchain/contracts/VoteLedger.sol\":4233:4274  proposalExists[electionIdHash][blockHash] */\n      0x00\n        /* \"blockchain/contracts/VoteLedger.sol\":4264:4273  blockHash */\n      dup3\n        /* \"blockchain/contracts/VoteLedger.sol\":4233:4274  proposalExists[electionIdHash][blockHash] */\n      dup2\n      mstore\n      0x20\n      add\n      swap1\n      dup2\n      mstore\n      0x20\n      add\n      0x00\n      keccak256\n      0x00\n      swap1\n      sload\n      swap1\n      0x0100\n      exp\n      swap1\n      div\n      0xff\n      and\n        /* \"blockchain/contracts/VoteLedger.sol\":4225:4295  require(proposalExists[electionIdHash][blockHash], \"No such proposal\") */\n      tag_165\n      jumpi\n      mload(0x40)\n      0x08c379a000000000000000000000000000000000000000000000000000000000\n      dup2\n      mstore\n      0x04\n      add\n      tag_166\n      swap1\n      tag_152\n      jump\t// in\n    tag_166:\n      mload(0x40)\n      dup1\n      swap2\n      sub\n      swap1\n      revert\n    tag_165:\n        /* \"blockchain/contracts/VoteLedger.sol\":4315:4324  finalized */\n      0x0a\n        /* \"blockchain/contracts/VoteLedger.sol\":4315:4340  finalized[electionIdHash] */\n      0x00\n        /* \"blockchain/contracts/VoteLedger.sol\":4325:4339  electionIdHash */\n      dup4\n        /* \"blockchain/contracts/VoteLedger.sol\":4315:4340  finalized[electionIdHash] */\n      dup2\n      mstore\n      0x20\n      add\n      swap1\n      dup2\n      mstore\n      0x20\n      add\n      0x00\n      keccak256\n        /* \"blockchain/contracts/VoteLedger.sol\":4315:4351  finalized[electionIdHash][blockHash] */\n      0x00\n        /* \"blockchain/contracts/VoteLedger.sol\":4341:4350  blockHash */\n      dup3\n        /* \"blockchain/contracts/VoteLedger.sol\":4315:4351  finalized[electionIdHash][blockHash] */\n      dup2\n      mstore\n      0x20\n      add\n      swap1\n      dup2\n      mstore\n      0x20\n      add\n      0x00\n      keccak256\n      0x00\n      swap1\n      sload\n      swap1\n      0x0100\n      exp\n      swap1\n      div\n      0xff\n      and\n        /* \"blockchain/contracts/VoteLedger.sol\":4314:4351  !finalized[electionIdHash][blockHash] */\n      iszero\n        /* \"blockchain/contracts/VoteLedger.sol\":4306:4373  require(!finalized[electionIdHash][blockHash], \"Already finalized\") */\n      tag_167\n      jumpi\n      mload(0x40)\n      0x08c379a000000000000000000000000000000000000000000000000000000000\n      dup2\n      mstore\n      0x04\n      add\n      tag_168\n      swap1\n      tag_155\n      jump\t// in\n    tag_168:\n      mload(0x40)\n      dup1\n      swap2\n      sub\n      swap1\n      revert\n    tag_167:\n        /* \"blockchain/contracts/VoteLedger.sol\":4384:4419  _approve(electionIdHash, blockHash) */\n      tag_169\n        /* \"blockchain/contracts/VoteLedger.sol\":4393:4407  electionIdHash */\n      dup3\n        /* \"blockchain/contracts/VoteLedger.sol\":4409:4418  blockHash */\n      dup3\n        /* \"blockchain/contracts/VoteLedger.sol\":4384:4392  _approve */\n      tag_129\n        /* \"blockchain/contracts/VoteLedger.sol\":4384:4419  _approve(electionIdHash, blockHash) */\n      jump\t// in\n    tag_169:\n        /* \"blockchain/contracts/VoteLedger.sol\":4131:4427  function approveBlock(bytes32 electionIdHash, bytes32 blockHash) external onlyNode {... */\n      pop\n      pop\n      jump\t// out\n        /* \"blockchain/contracts/VoteLedger.sol\":261:281  address public admin */\n    tag_102:\n      0x00\n      0x00\n      swap1\n      sload\n      swap1\n      0x0100\n      exp\n      swap1\n      div\n      0xffffffffffffffffffffffffffffffffffffffff\n      and\n      dup2\n      jump\t// out\n        /* \"blockchain/contracts/VoteLedger.sol\":4435:4923  function _approve(bytes32 electionIdHash, bytes32 blockHash) internal {... */\n    tag_129:\n        /* \"blockchain/contracts/VoteLedger.sol\":4521:4531  approvedBy */\n      0x07\n        /* \"blockchain/contracts/VoteLedger.sol\":4521:4547  approvedBy[electionIdHash] */\n      0x00\n        /* \"blockchain/contracts/VoteLedger.sol\":4532:4546  electionIdHash */\n      dup4\n        /* \"blockchain/contracts/VoteLedger.sol\":4521:4547  approvedBy[electionIdHash] */\n      dup2\n      mstore\n      0x20\n      add\n      swap1\n      dup2\n      mstore\n      0x20\n      add\n      0x00\n      keccak256\n        /* \"blockchain/contracts/VoteLedger.sol\":4521:4558  approvedBy[electionIdHash][blockHash] */\n      0x00\n        /* \"blockchain/contracts/VoteLedger.sol\":4548:4557  blockHash */\n      dup3\n        /* \"blockchain/contracts/VoteLedger.sol\":4521:4558  approvedBy[electionIdHash][blockHash] */\n      dup2\n      mstore\n      0x20\n      add\n      swap1\n      dup2\n      mstore\n      0x20\n      add\n      0x00\n      keccak256\n        /* \"blockchain/contracts/VoteLedger.sol\":4521:4570  approvedBy[electionIdHash][blockHash][msg.sender] */\n      0x00\n        /* \"blockchain/contracts/VoteLedger.sol\":4559:4569  msg.sender */\n      caller\n        /* \"blockchain/contracts/VoteLedger.sol\":4521:4570  approvedBy[electionIdHash][blockHash][msg.sender] */\n      0xffffffffffffffffffffffffffffffffffffffff\n      and\n      0xffffffffffffffffffffffffffffffffffffffff\n      and\n      dup2\n      mstore\n      0x20\n      add\n      swap1\n      dup2\n      mstore\n      0x20\n      add\n      0x00\n      keccak256\n      0x00\n      swap1\n      sload\n      swap1\n      0x0100\n      exp\n      swap1\n      div\n      0xff\n      and\n        /* \"blockchain/contracts/VoteLedger.sol\":4516:4916  if (!approvedBy[electionIdHash][blockHash][msg.sender]) {... */\n      tag_171\n      jumpi\n        /* \"blockchain/contracts/VoteLedger.sol\":4639:4643  true */\n      0x01\n        /* \"blockchain/contracts/VoteLedger.sol\":4587:4597  approvedBy */\n      0x07\n        /* \"blockchain/contracts/VoteLedger.sol\":4587:4613  approvedBy[electionIdHash] */\n      0x00\n        /* \"blockchain/contracts/VoteLedger.sol\":4598:4612  electionIdHash */\n      dup5\n        /* \"blockchain/contracts/VoteLedger.sol\":4587:4613  approvedBy[electionIdHash] */\n      dup2\n      mstore\n      0x20\n      add\n      swap1\n      dup2\n      mstore\n      0x20\n      add\n      0x00\n      keccak256\n        /* \"blockchain/contracts/VoteLedger.sol\":4587:4624  approvedBy[electionIdHash][blockHash] */\n      0x00\n        /* \"blockchain/contracts/VoteLedger.sol\":4614:4623  blockHash */\n      dup4\n        /* \"blockchain/contracts/VoteLedger.sol\":4587:4624  approvedBy[electionIdHash][blockHash] */\n      dup2\n      mstore\n      0x20\n      add\n      swap1\n      dup2\n      mstore\n      0x20\n      add\n      0x00\n      keccak256\n        /* \"blockchain/contracts/VoteLedger.sol\":4587:4636  approvedBy[electionIdHash][blockHash][msg.sender] */\n      0x00\n        /* \"blockchain/contracts/VoteLedger.sol\":4625:4635  msg.sender */\n      caller\n        /* \"blockchain/contracts/VoteLedger.sol\":4587:4636  approvedBy[electionIdHash][blockHash][msg.sender] */\n      0xffffffffffffffffffffffffffffffffffffffff\n      and\n      0xffffffffffffffffffffffffffffffffffffffff\n      and\n      dup2\n      mstore\n      0x20\n      add\n      swap1\n      dup2\n      mstore\n      0x20\n      add\n      0x00\n      keccak256\n      0x00\n        /* \"blockchain/contracts/VoteLedger.sol\":4587:4643  approvedBy[electionIdHash][blockHash][msg.sender] = true */\n      0x0100\n      exp\n      dup2\n      sload\n      dup2\n      0xff\n      mul\n      not\n      and\n      swap1\n      dup4\n      iszero\n      iszero\n      mul\n      or\n      swap1\n      sstore\n      pop\n        /* \"blockchain/contracts/VoteLedger.sol\":4703:4704  1 */\n      0x01\n        /* \"blockchain/contracts/VoteLedger.sol\":4658:4672  approvalsCount */\n      0x06\n        /* \"blockchain/contracts/VoteLedger.sol\":4658:4688  approvalsCount[electionIdHash] */\n      0x00\n        /* \"blockchain/contracts/VoteLedger.sol\":4673:4687  electionIdHash */\n      dup5\n        /* \"blockchain/contracts/VoteLedger.sol\":4658:4688  approvalsCount[electionIdHash] */\n      dup2\n      mstore\n      0x20\n      add\n      swap1\n      dup2\n      mstore\n      0x20\n      add\n      0x00\n      keccak256\n        /* \"blockchain/contracts/VoteLedger.sol\":4658:4699  approvalsCount[electionIdHash][blockHash] */\n      0x00\n        /* \"blockchain/contracts/VoteLedger.sol\":4689:4698  blockHash */\n      dup4\n        /* \"blockchain/contracts/VoteLedger.sol\":4658:4699  approvalsCount[electionIdHash][blockHash] */\n      dup2\n      mstore\n      0x20\n      add\n      swap1\n      dup2\n      mstore\n      0x20\n      add\n      0x00\n      keccak256\n      0x00\n        /* \"blockchain/contracts/VoteLedger.sol\":4658:4704  approvalsCount[electionIdHash][blockHash] += 1 */\n      dup3\n      dup3\n      sload\n      tag_172\n      swap2\n      swap1\n      tag_114\n      jump\t// in\n    tag_172:\n      swap3\n      pop\n      pop\n      dup2\n      swap1\n      sstore\n      pop\n        /* \"blockchain/contracts/VoteLedger.sol\":4726:4904  BlockApproved(... */\n      0x0f79f4badf9148332d9b98dbcb97180529bdaa7c60cbff0ed66f78c43cf1555f\n        /* \"blockchain/contracts/VoteLedger.sol\":4758:4772  electionIdHash */\n      dup3\n        /* \"blockchain/contracts/VoteLedger.sol\":4791:4800  blockHash */\n      dup3\n        /* \"blockchain/contracts/VoteLedger.sol\":4819:4829  msg.sender */\n      caller\n        /* \"blockchain/contracts/VoteLedger.sol\":4848:4862  approvalsCount */\n      0x06\n        /* \"blockchain/contracts/VoteLedger.sol\":4848:4878  approvalsCount[electionIdHash] */\n      0x00\n        /* \"blockchain/contracts/VoteLedger.sol\":4863:4877  electionIdHash */\n      dup8\n        /* \"blockchain/contracts/VoteLedger.sol\":4848:4878  approvalsCount[electionIdHash] */\n      dup2\n      mstore\n      0x20\n      add\n      swap1\n      dup2\n      mstore\n      0x20\n      add\n      0x00\n      keccak256\n        /* \"blockchain/contracts/VoteLedger.sol\":4848:4889  approvalsCount[electionIdHash][blockHash] */\n      0x00\n        /* \"blockchain/contracts/VoteLedger.sol\":4879:4888  blockHash */\n      dup7\n        /* \"blockchain/contracts/VoteLedger.sol\":4848:4889  approvalsCount[electionIdHash][blockHash] */\n      dup2\n      mstore\n      0x20\n      add\n      swap1\n      dup2\n      mstore\n      0x20\n      add\n      0x00\n      keccak256\n      sload\n        /* \"blockchain/contracts/VoteLedger.sol\":4726:4904  BlockApproved(... */\n      mload(0x40)\n      tag_173\n      swap5\n      swap4\n      swap3\n      swap2\n      swap1\n      tag_174\n      jump\t// in\n    tag_173:\n      mload(0x40)\n      dup1\n      swap2\n      sub\n      swap1\n      log1\n        /* \"blockchain/contracts/VoteLedger.sol\":4516:4916  if (!approvedBy[electionIdHash][blockHash][msg.sender]) {... */\n    tag_171:\n        /* \"blockchain/contracts/VoteLedger.sol\":4435:4923  function _approve(bytes32 electionIdHash, bytes32 blockHash) internal {... */\n      pop\n      pop\n      jump\t// out\n    tag_106:\n      mload(0x40)\n      dup1\n      0xc0\n      add\n      0x40\n      mstore\n      dup1\n      0x00\n      dup2\n      mstore\n      0x20\n      add\n      0x00\n      dup2\n      mstore\n      0x20\n      add\n      0x00\n      dup2\n      mstore\n      0x20\n      add\n      0x00\n      dup2\n      mstore\n      0x20\n      add\n      0x00\n      dup2\n      mstore\n      0x20\n      add\n      0x00\n      dup2\n      mstore\n      pop\n      swap1\n      jump\t// out\n        /* \"#utility.yul\":88:205   */\n    tag_176:\n        /* \"#utility.yul\":197:198   */\n      0x00\n        /* \"#utility.yul\":194:195   */\n      0x00\n        /* \"#utility.yul\":187:199   */\n      revert\n        /* \"#utility.yul\":334:460   */\n    tag_178:\n        /* \"#utility.yul\":371:378   */\n      0x00\n        /* \"#utility.yul\":411:453   */\n      0xffffffffffffffffffffffffffffffffffffffff\n        /* \"#utility.yul\":404:409   */\n      dup3\n        /* \"#utility.yul\":400:454   */\n      and\n        /* \"#utility.yul\":389:454   */\n      swap1\n      pop\n        /* \"#utility.yul\":334:460   */\n      swap2\n      swap1\n      pop\n      jump\t// out\n        /* \"#utility.yul\":466:562   */\n    tag_179:\n        /* \"#utility.yul\":503:510   */\n      0x00\n        /* \"#utility.yul\":532:556   */\n      tag_228\n        /* \"#utility.yul\":550:555   */\n      dup3\n        /* \"#utility.yul\":532:556   */\n      tag_178\n      jump\t// in\n    tag_228:\n        /* \"#utility.yul\":521:556   */\n      swap1\n      pop\n        /* \"#utility.yul\":466:562   */\n      swap2\n      swap1\n      pop\n      jump\t// out\n        /* \"#utility.yul\":568:690   */\n    tag_180:\n        /* \"#utility.yul\":641:665   */\n      tag_230\n        /* \"#utility.yul\":659:664   */\n      dup2\n        /* \"#utility.yul\":641:665   */\n      tag_179\n      jump\t// in\n    tag_230:\n        /* \"#utility.yul\":634:639   */\n      dup2\n        /* \"#utility.yul\":631:666   */\n      eq\n        /* \"#utility.yul\":621:684   */\n      tag_231\n      jumpi\n        /* \"#utility.yul\":680:681   */\n      0x00\n        /* \"#utility.yul\":677:678   */\n      0x00\n        /* \"#utility.yul\":670:682   */\n      revert\n        /* \"#utility.yul\":621:684   */\n    tag_231:\n        /* \"#utility.yul\":568:690   */\n      pop\n      jump\t// out\n        /* \"#utility.yul\":696:835   */\n    tag_181:\n        /* \"#utility.yul\":742:747   */\n      0x00\n        /* \"#utility.yul\":780:786   */\n      dup2\n        /* \"#utility.yul\":767:787   */\n      calldataload\n        /* \"#utility.yul\":758:787   */\n      swap1\n      pop\n        /* \"#utility.yul\":796:829   */\n      tag_233\n        /* \"#utility.yul\":823:828   */\n      dup2\n        /* \"#utility.yul\":796:829   */\n      tag_180\n      jump\t// in\n    tag_233:\n        /* \"#utility.yul\":696:835   */\n      swap3\n      swap2\n      pop\n      pop\n      jump\t// out\n        /* \"#utility.yul\":841:1170   */\n    tag_26:\n        /* \"#utility.yul\":900:906   */\n      0x00\n        /* \"#utility.yul\":949:951   */\n      0x20\n        /* \"#utility.yul\":937:946   */\n      dup3\n        /* \"#utility.yul\":928:935   */\n      dup5\n        /* \"#utility.yul\":924:947   */\n      sub\n        /* \"#utility.yul\":920:952   */\n      slt\n        /* \"#utility.yul\":917:1036   */\n      iszero\n      tag_235\n      jumpi\n        /* \"#utility.yul\":955:1034   */\n      tag_236\n      tag_176\n      jump\t// in\n    tag_236:\n        /* \"#utility.yul\":917:1036   */\n    tag_235:\n        /* \"#utility.yul\":1075:1076   */\n      0x00\n        /* \"#utility.yul\":1100:1153   */\n      tag_237\n        /* \"#utility.yul\":1145:1152   */\n      dup5\n        /* \"#utility.yul\":1136:1142   */\n      dup3\n        /* \"#utility.yul\":1125:1134   */\n      dup6\n        /* \"#utility.yul\":1121:1143   */\n      add\n        /* \"#utility.yul\":1100:1153   */\n      tag_181\n      jump\t// in\n    tag_237:\n        /* \"#utility.yul\":1090:1153   */\n      swap2\n      pop\n        /* \"#utility.yul\":1046:1163   */\n      pop\n        /* \"#utility.yul\":841:1170   */\n      swap3\n      swap2\n      pop\n      pop\n      jump\t// out\n        /* \"#utility.yul\":1176:1266   */\n    tag_182:\n        /* \"#utility.yul\":1210:1217   */\n      0x00\n        /* \"#utility.yul\":1253:1258   */\n      dup2\n        /* \"#utility.yul\":1246:1259   */\n      iszero\n        /* \"#utility.yul\":1239:1260   */\n      iszero\n        /* \"#utility.yul\":1228:1260   */\n      swap1\n      pop\n        /* \"#utility.yul\":1176:1266   */\n      swap2\n      swap1\n      pop\n      jump\t// out\n        /* \"#utility.yul\":1272:1381   */\n    tag_183:\n        /* \"#utility.yul\":1353:1374   */\n      tag_240\n        /* \"#utility.yul\":1368:1373   */\n      dup2\n        /* \"#utility.yul\":1353:1374   */\n      tag_182\n      jump\t// in\n    tag_240:\n        /* \"#utility.yul\":1348:1351   */\n      dup3\n        /* \"#utility.yul\":1341:1375   */\n      mstore\n        /* \"#utility.yul\":1272:1381   */\n      pop\n      pop\n      jump\t// out\n        /* \"#utility.yul\":1387:1597   */\n    tag_29:\n        /* \"#utility.yul\":1474:1478   */\n      0x00\n        /* \"#utility.yul\":1512:1514   */\n      0x20\n        /* \"#utility.yul\":1501:1510   */\n      dup3\n        /* \"#utility.yul\":1497:1515   */\n      add\n        /* \"#utility.yul\":1489:1515   */\n      swap1\n      pop\n        /* \"#utility.yul\":1525:1590   */\n      tag_242\n        /* \"#utility.yul\":1587:1588   */\n      0x00\n        /* \"#utility.yul\":1576:1585   */\n      dup4\n        /* \"#utility.yul\":1572:1589   */\n      add\n        /* \"#utility.yul\":1563:1569   */\n      dup5\n        /* \"#utility.yul\":1525:1590   */\n      tag_183\n      jump\t// in\n    tag_242:\n        /* \"#utility.yul\":1387:1597   */\n      swap3\n      swap2\n      pop\n      pop\n      jump\t// out\n        /* \"#utility.yul\":1603:1680   */\n    tag_184:\n        /* \"#utility.yul\":1640:1647   */\n      0x00\n        /* \"#utility.yul\":1669:1674   */\n      dup2\n        /* \"#utility.yul\":1658:1674   */\n      swap1\n      pop\n        /* \"#utility.yul\":1603:1680   */\n      swap2\n      swap1\n      pop\n      jump\t// out\n        /* \"#utility.yul\":1686:1804   */\n    tag_185:\n        /* \"#utility.yul\":1773:1797   */\n      tag_245\n        /* \"#utility.yul\":1791:1796   */\n      dup2\n        /* \"#utility.yul\":1773:1797   */\n      tag_184\n      jump\t// in\n    tag_245:\n        /* \"#utility.yul\":1768:1771   */\n      dup3\n        /* \"#utility.yul\":1761:1798   */\n      mstore\n        /* \"#utility.yul\":1686:1804   */\n      pop\n      pop\n      jump\t// out\n        /* \"#utility.yul\":1810:2032   */\n    tag_33:\n        /* \"#utility.yul\":1903:1907   */\n      0x00\n        /* \"#utility.yul\":1941:1943   */\n      0x20\n        /* \"#utility.yul\":1930:1939   */\n      dup3\n        /* \"#utility.yul\":1926:1944   */\n      add\n        /* \"#utility.yul\":1918:1944   */\n      swap1\n      pop\n        /* \"#utility.yul\":1954:2025   */\n      tag_247\n        /* \"#utility.yul\":2022:2023   */\n      0x00\n        /* \"#utility.yul\":2011:2020   */\n      dup4\n        /* \"#utility.yul\":2007:2024   */\n      add\n        /* \"#utility.yul\":1998:2004   */\n      dup5\n        /* \"#utility.yul\":1954:2025   */\n      tag_185\n      jump\t// in\n    tag_247:\n        /* \"#utility.yul\":1810:2032   */\n      swap3\n      swap2\n      pop\n      pop\n      jump\t// out\n        /* \"#utility.yul\":2038:2115   */\n    tag_186:\n        /* \"#utility.yul\":2075:2082   */\n      0x00\n        /* \"#utility.yul\":2104:2109   */\n      dup2\n        /* \"#utility.yul\":2093:2109   */\n      swap1\n      pop\n        /* \"#utility.yul\":2038:2115   */\n      swap2\n      swap1\n      pop\n      jump\t// out\n        /* \"#utility.yul\":2121:2243   */\n    tag_187:\n        /* \"#utility.yul\":2194:2218   */\n      tag_250\n        /* \"#utility.yul\":2212:2217   */\n      dup2\n        /* \"#utility.yul\":2194:2218   */\n      tag_186\n      jump\t// in\n    tag_250:\n        /* \"#utility.yul\":2187:2192   */\n      dup2\n        /* \"#utility.yul\":2184:2219   */\n      eq\n        /* \"#utility.yul\":2174:2237   */\n      tag_251\n      jumpi\n        /* \"#utility.yul\":2233:2234   */\n      0x00\n        /* \"#utility.yul\":2230:2231   */\n      0x00\n        /* \"#utility.yul\":2223:2235   */\n      revert\n        /* \"#utility.yul\":2174:2237   */\n    tag_251:\n        /* \"#utility.yul\":2121:2243   */\n      pop\n      jump\t// out\n        /* \"#utility.yul\":2249:2388   */\n    tag_188:\n        /* \"#utility.yul\":2295:2300   */\n      0x00\n        /* \"#utility.yul\":2333:2339   */\n      dup2\n        /* \"#utility.yul\":2320:2340   */\n      calldataload\n        /* \"#utility.yul\":2311:2340   */\n      swap1\n      pop\n        /* \"#utility.yul\":2349:2382   */\n      tag_253\n        /* \"#utility.yul\":2376:2381   */\n      dup2\n        /* \"#utility.yul\":2349:2382   */\n      tag_187\n      jump\t// in\n    tag_253:\n        /* \"#utility.yul\":2249:2388   */\n      swap3\n      swap2\n      pop\n      pop\n      jump\t// out\n        /* \"#utility.yul\":2394:2516   */\n    tag_189:\n        /* \"#utility.yul\":2467:2491   */\n      tag_255\n        /* \"#utility.yul\":2485:2490   */\n      dup2\n        /* \"#utility.yul\":2467:2491   */\n      tag_184\n      jump\t// in\n    tag_255:\n        /* \"#utility.yul\":2460:2465   */\n      dup2\n        /* \"#utility.yul\":2457:2492   */\n      eq\n        /* \"#utility.yul\":2447:2510   */\n      tag_256\n      jumpi\n        /* \"#utility.yul\":2506:2507   */\n      0x00\n        /* \"#utility.yul\":2503:2504   */\n      0x00\n        /* \"#utility.yul\":2496:2508   */\n      revert\n        /* \"#utility.yul\":2447:2510   */\n    tag_256:\n        /* \"#utility.yul\":2394:2516   */\n      pop\n      jump\t// out\n        /* \"#utility.yul\":2522:2661   */\n    tag_190:\n        /* \"#utility.yul\":2568:2573   */\n      0x00\n        /* \"#utility.yul\":2606:2612   */\n      dup2\n        /* \"#utility.yul\":2593:2613   */\n      calldataload\n        /* \"#utility.yul\":2584:2613   */\n      swap1\n      pop\n        /* \"#utility.yul\":2622:2655   */\n      tag_258\n        /* \"#utility.yul\":2649:2654   */\n      dup2\n        /* \"#utility.yul\":2622:2655   */\n      tag_189\n      jump\t// in\n    tag_258:\n        /* \"#utility.yul\":2522:2661   */\n      swap3\n      swap2\n      pop\n      pop\n      jump\t// out\n        /* \"#utility.yul\":2667:3141   */\n    tag_36:\n        /* \"#utility.yul\":2735:2741   */\n      0x00\n        /* \"#utility.yul\":2743:2749   */\n      0x00\n        /* \"#utility.yul\":2792:2794   */\n      0x40\n        /* \"#utility.yul\":2780:2789   */\n      dup4\n        /* \"#utility.yul\":2771:2778   */\n      dup6\n        /* \"#utility.yul\":2767:2790   */\n      sub\n        /* \"#utility.yul\":2763:2795   */\n      slt\n        /* \"#utility.yul\":2760:2879   */\n      iszero\n      tag_260\n      jumpi\n        /* \"#utility.yul\":2798:2877   */\n      tag_261\n      tag_176\n      jump\t// in\n    tag_261:\n        /* \"#utility.yul\":2760:2879   */\n    tag_260:\n        /* \"#utility.yul\":2918:2919   */\n      0x00\n        /* \"#utility.yul\":2943:2996   */\n      tag_262\n        /* \"#utility.yul\":2988:2995   */\n      dup6\n        /* \"#utility.yul\":2979:2985   */\n      dup3\n        /* \"#utility.yul\":2968:2977   */\n      dup7\n        /* \"#utility.yul\":2964:2986   */\n      add\n        /* \"#utility.yul\":2943:2996   */\n      tag_188\n      jump\t// in\n    tag_262:\n        /* \"#utility.yul\":2933:2996   */\n      swap3\n      pop\n        /* \"#utility.yul\":2889:3006   */\n      pop\n        /* \"#utility.yul\":3045:3047   */\n      0x20\n        /* \"#utility.yul\":3071:3124   */\n      tag_263\n        /* \"#utility.yul\":3116:3123   */\n      dup6\n        /* \"#utility.yul\":3107:3113   */\n      dup3\n        /* \"#utility.yul\":3096:3105   */\n      dup7\n        /* \"#utility.yul\":3092:3114   */\n      add\n        /* \"#utility.yul\":3071:3124   */\n      tag_190\n      jump\t// in\n    tag_263:\n        /* \"#utility.yul\":3061:3124   */\n      swap2\n      pop\n        /* \"#utility.yul\":3016:3134   */\n      pop\n        /* \"#utility.yul\":2667:3141   */\n      swap3\n      pop\n      swap3\n      swap1\n      pop\n      jump\t// out\n        /* \"#utility.yul\":3147:3255   */\n    tag_191:\n        /* \"#utility.yul\":3224:3248   */\n      tag_265\n        /* \"#utility.yul\":3242:3247   */\n      dup2\n        /* \"#utility.yul\":3224:3248   */\n      tag_184\n      jump\t// in\n    tag_265:\n        /* \"#utility.yul\":3219:3222   */\n      dup3\n        /* \"#utility.yul\":3212:3249   */\n      mstore\n        /* \"#utility.yul\":3147:3255   */\n      pop\n      pop\n      jump\t// out\n        /* \"#utility.yul\":3261:3369   */\n    tag_192:\n        /* \"#utility.yul\":3338:3362   */\n      tag_267\n        /* \"#utility.yul\":3356:3361   */\n      dup2\n        /* \"#utility.yul\":3338:3362   */\n      tag_186\n      jump\t// in\n    tag_267:\n        /* \"#utility.yul\":3333:3336   */\n      dup3\n        /* \"#utility.yul\":3326:3363   */\n      mstore\n        /* \"#utility.yul\":3261:3369   */\n      pop\n      pop\n      jump\t// out\n        /* \"#utility.yul\":3445:4680   */\n    tag_193:\n        /* \"#utility.yul\":3596:3600   */\n      0xc0\n        /* \"#utility.yul\":3591:3594   */\n      dup3\n        /* \"#utility.yul\":3587:3601   */\n      add\n        /* \"#utility.yul\":3685:3689   */\n      0x00\n        /* \"#utility.yul\":3678:3683   */\n      dup3\n        /* \"#utility.yul\":3674:3690   */\n      add\n        /* \"#utility.yul\":3668:3691   */\n      mload\n        /* \"#utility.yul\":3704:3767   */\n      tag_269\n        /* \"#utility.yul\":3761:3765   */\n      0x00\n        /* \"#utility.yul\":3756:3759   */\n      dup6\n        /* \"#utility.yul\":3752:3766   */\n      add\n        /* \"#utility.yul\":3738:3750   */\n      dup3\n        /* \"#utility.yul\":3704:3767   */\n      tag_191\n      jump\t// in\n    tag_269:\n        /* \"#utility.yul\":3611:3777   */\n      pop\n        /* \"#utility.yul\":3863:3867   */\n      0x20\n        /* \"#utility.yul\":3856:3861   */\n      dup3\n        /* \"#utility.yul\":3852:3868   */\n      add\n        /* \"#utility.yul\":3846:3869   */\n      mload\n        /* \"#utility.yul\":3882:3945   */\n      tag_270\n        /* \"#utility.yul\":3939:3943   */\n      0x20\n        /* \"#utility.yul\":3934:3937   */\n      dup6\n        /* \"#utility.yul\":3930:3944   */\n      add\n        /* \"#utility.yul\":3916:3928   */\n      dup3\n        /* \"#utility.yul\":3882:3945   */\n      tag_192\n      jump\t// in\n    tag_270:\n        /* \"#utility.yul\":3787:3955   */\n      pop\n        /* \"#utility.yul\":4043:4047   */\n      0x40\n        /* \"#utility.yul\":4036:4041   */\n      dup3\n        /* \"#utility.yul\":4032:4048   */\n      add\n        /* \"#utility.yul\":4026:4049   */\n      mload\n        /* \"#utility.yul\":4062:4125   */\n      tag_271\n        /* \"#utility.yul\":4119:4123   */\n      0x40\n        /* \"#utility.yul\":4114:4117   */\n      dup6\n        /* \"#utility.yul\":4110:4124   */\n      add\n        /* \"#utility.yul\":4096:4108   */\n      dup3\n        /* \"#utility.yul\":4062:4125   */\n      tag_192\n      jump\t// in\n    tag_271:\n        /* \"#utility.yul\":3965:4135   */\n      pop\n        /* \"#utility.yul\":4223:4227   */\n      0x60\n        /* \"#utility.yul\":4216:4221   */\n      dup3\n        /* \"#utility.yul\":4212:4228   */\n      add\n        /* \"#utility.yul\":4206:4229   */\n      mload\n        /* \"#utility.yul\":4242:4305   */\n      tag_272\n        /* \"#utility.yul\":4299:4303   */\n      0x60\n        /* \"#utility.yul\":4294:4297   */\n      dup6\n        /* \"#utility.yul\":4290:4304   */\n      add\n        /* \"#utility.yul\":4276:4288   */\n      dup3\n        /* \"#utility.yul\":4242:4305   */\n      tag_191\n      jump\t// in\n    tag_272:\n        /* \"#utility.yul\":4145:4315   */\n      pop\n        /* \"#utility.yul\":4402:4406   */\n      0x80\n        /* \"#utility.yul\":4395:4400   */\n      dup3\n        /* \"#utility.yul\":4391:4407   */\n      add\n        /* \"#utility.yul\":4385:4408   */\n      mload\n        /* \"#utility.yul\":4421:4484   */\n      tag_273\n        /* \"#utility.yul\":4478:4482   */\n      0x80\n        /* \"#utility.yul\":4473:4476   */\n      dup6\n        /* \"#utility.yul\":4469:4483   */\n      add\n        /* \"#utility.yul\":4455:4467   */\n      dup3\n        /* \"#utility.yul\":4421:4484   */\n      tag_192\n      jump\t// in\n    tag_273:\n        /* \"#utility.yul\":4325:4494   */\n      pop\n        /* \"#utility.yul\":4581:4585   */\n      0xa0\n        /* \"#utility.yul\":4574:4579   */\n      dup3\n        /* \"#utility.yul\":4570:4586   */\n      add\n        /* \"#utility.yul\":4564:4587   */\n      mload\n        /* \"#utility.yul\":4600:4663   */\n      tag_274\n        /* \"#utility.yul\":4657:4661   */\n      0xa0\n        /* \"#utility.yul\":4652:4655   */\n      dup6\n        /* \"#utility.yul\":4648:4662   */\n      add\n        /* \"#utility.yul\":4634:4646   */\n      dup3\n        /* \"#utility.yul\":4600:4663   */\n      tag_191\n      jump\t// in\n    tag_274:\n        /* \"#utility.yul\":4504:4673   */\n      pop\n        /* \"#utility.yul\":3565:4680   */\n      pop\n        /* \"#utility.yul\":3445:4680   */\n      pop\n      pop\n      jump\t// out\n        /* \"#utility.yul\":4686:5017   */\n    tag_39:\n        /* \"#utility.yul\":4833:4837   */\n      0x00\n        /* \"#utility.yul\":4871:4874   */\n      0xc0\n        /* \"#utility.yul\":4860:4869   */\n      dup3\n        /* \"#utility.yul\":4856:4875   */\n      add\n        /* \"#utility.yul\":4848:4875   */\n      swap1\n      pop\n        /* \"#utility.yul\":4885:5010   */\n      tag_276\n        /* \"#utility.yul\":5007:5008   */\n      0x00\n        /* \"#utility.yul\":4996:5005   */\n      dup4\n        /* \"#utility.yul\":4992:5009   */\n      add\n        /* \"#utility.yul\":4983:4989   */\n      dup5\n        /* \"#utility.yul\":4885:5010   */\n      tag_193\n      jump\t// in\n    tag_276:\n        /* \"#utility.yul\":4686:5017   */\n      swap3\n      swap2\n      pop\n      pop\n      jump\t// out\n        /* \"#utility.yul\":5023:5934   */\n    tag_42:\n        /* \"#utility.yul\":5118:5124   */\n      0x00\n        /* \"#utility.yul\":5126:5132   */\n      0x00\n        /* \"#utility.yul\":5134:5140   */\n      0x00\n        /* \"#utility.yul\":5142:5148   */\n      0x00\n        /* \"#utility.yul\":5150:5156   */\n      0x00\n        /* \"#utility.yul\":5199:5202   */\n      0xa0\n        /* \"#utility.yul\":5187:5196   */\n      dup7\n        /* \"#utility.yul\":5178:5185   */\n      dup9\n        /* \"#utility.yul\":5174:5197   */\n      sub\n        /* \"#utility.yul\":5170:5203   */\n      slt\n        /* \"#utility.yul\":5167:5287   */\n      iszero\n      tag_278\n      jumpi\n        /* \"#utility.yul\":5206:5285   */\n      tag_279\n      tag_176\n      jump\t// in\n    tag_279:\n        /* \"#utility.yul\":5167:5287   */\n    tag_278:\n        /* \"#utility.yul\":5326:5327   */\n      0x00\n        /* \"#utility.yul\":5351:5404   */\n      tag_280\n        /* \"#utility.yul\":5396:5403   */\n      dup9\n        /* \"#utility.yul\":5387:5393   */\n      dup3\n        /* \"#utility.yul\":5376:5385   */\n      dup10\n        /* \"#utility.yul\":5372:5394   */\n      add\n        /* \"#utility.yul\":5351:5404   */\n      tag_188\n      jump\t// in\n    tag_280:\n        /* \"#utility.yul\":5341:5404   */\n      swap6\n      pop\n        /* \"#utility.yul\":5297:5414   */\n      pop\n        /* \"#utility.yul\":5453:5455   */\n      0x20\n        /* \"#utility.yul\":5479:5532   */\n      tag_281\n        /* \"#utility.yul\":5524:5531   */\n      dup9\n        /* \"#utility.yul\":5515:5521   */\n      dup3\n        /* \"#utility.yul\":5504:5513   */\n      dup10\n        /* \"#utility.yul\":5500:5522   */\n      add\n        /* \"#utility.yul\":5479:5532   */\n      tag_190\n      jump\t// in\n    tag_281:\n        /* \"#utility.yul\":5469:5532   */\n      swap5\n      pop\n        /* \"#utility.yul\":5424:5542   */\n      pop\n        /* \"#utility.yul\":5581:5583   */\n      0x40\n        /* \"#utility.yul\":5607:5660   */\n      tag_282\n        /* \"#utility.yul\":5652:5659   */\n      dup9\n        /* \"#utility.yul\":5643:5649   */\n      dup3\n        /* \"#utility.yul\":5632:5641   */\n      dup10\n        /* \"#utility.yul\":5628:5650   */\n      add\n        /* \"#utility.yul\":5607:5660   */\n      tag_188\n      jump\t// in\n    tag_282:\n        /* \"#utility.yul\":5597:5660   */\n      swap4\n      pop\n        /* \"#utility.yul\":5552:5670   */\n      pop\n        /* \"#utility.yul\":5709:5711   */\n      0x60\n        /* \"#utility.yul\":5735:5788   */\n      tag_283\n        /* \"#utility.yul\":5780:5787   */\n      dup9\n        /* \"#utility.yul\":5771:5777   */\n      dup3\n        /* \"#utility.yul\":5760:5769   */\n      dup10\n        /* \"#utility.yul\":5756:5778   */\n      add\n        /* \"#utility.yul\":5735:5788   */\n      tag_188\n      jump\t// in\n    tag_283:\n        /* \"#utility.yul\":5725:5788   */\n      swap3\n      pop\n        /* \"#utility.yul\":5680:5798   */\n      pop\n        /* \"#utility.yul\":5837:5840   */\n      0x80\n        /* \"#utility.yul\":5864:5917   */\n      tag_284\n        /* \"#utility.yul\":5909:5916   */\n      dup9\n        /* \"#utility.yul\":5900:5906   */\n      dup3\n        /* \"#utility.yul\":5889:5898   */\n      dup10\n        /* \"#utility.yul\":5885:5907   */\n      add\n        /* \"#utility.yul\":5864:5917   */\n      tag_190\n      jump\t// in\n    tag_284:\n        /* \"#utility.yul\":5854:5917   */\n      swap2\n      pop\n        /* \"#utility.yul\":5808:5927   */\n      pop\n        /* \"#utility.yul\":5023:5934   */\n      swap3\n      swap6\n      pop\n      swap3\n      swap6\n      swap1\n      swap4\n      pop\n      jump\t// out\n        /* \"#utility.yul\":5940:6058   */\n    tag_194:\n        /* \"#utility.yul\":6027:6051   */\n      tag_286\n        /* \"#utility.yul\":6045:6050   */\n      dup2\n        /* \"#utility.yul\":6027:6051   */\n      tag_186\n      jump\t// in\n    tag_286:\n        /* \"#utility.yul\":6022:6025   */\n      dup3\n        /* \"#utility.yul\":6015:6052   */\n      mstore\n        /* \"#utility.yul\":5940:6058   */\n      pop\n      pop\n      jump\t// out\n        /* \"#utility.yul\":6064:6286   */\n    tag_45:\n        /* \"#utility.yul\":6157:6161   */\n      0x00\n        /* \"#utility.yul\":6195:6197   */\n      0x20\n        /* \"#utility.yul\":6184:6193   */\n      dup3\n        /* \"#utility.yul\":6180:6198   */\n      add\n        /* \"#utility.yul\":6172:6198   */\n      swap1\n      pop\n        /* \"#utility.yul\":6208:6279   */\n      tag_288\n        /* \"#utility.yul\":6276:6277   */\n      0x00\n        /* \"#utility.yul\":6265:6274   */\n      dup4\n        /* \"#utility.yul\":6261:6278   */\n      add\n        /* \"#utility.yul\":6252:6258   */\n      dup5\n        /* \"#utility.yul\":6208:6279   */\n      tag_194\n      jump\t// in\n    tag_288:\n        /* \"#utility.yul\":6064:6286   */\n      swap3\n      swap2\n      pop\n      pop\n      jump\t// out\n        /* \"#utility.yul\":6292:6766   */\n    tag_48:\n        /* \"#utility.yul\":6360:6366   */\n      0x00\n        /* \"#utility.yul\":6368:6374   */\n      0x00\n        /* \"#utility.yul\":6417:6419   */\n      0x40\n        /* \"#utility.yul\":6405:6414   */\n      dup4\n        /* \"#utility.yul\":6396:6403   */\n      dup6\n        /* \"#utility.yul\":6392:6415   */\n      sub\n        /* \"#utility.yul\":6388:6420   */\n      slt\n        /* \"#utility.yul\":6385:6504   */\n      iszero\n      tag_290\n      jumpi\n        /* \"#utility.yul\":6423:6502   */\n      tag_291\n      tag_176\n      jump\t// in\n    tag_291:\n        /* \"#utility.yul\":6385:6504   */\n    tag_290:\n        /* \"#utility.yul\":6543:6544   */\n      0x00\n        /* \"#utility.yul\":6568:6621   */\n      tag_292\n        /* \"#utility.yul\":6613:6620   */\n      dup6\n        /* \"#utility.yul\":6604:6610   */\n      dup3\n        /* \"#utility.yul\":6593:6602   */\n      dup7\n        /* \"#utility.yul\":6589:6611   */\n      add\n        /* \"#utility.yul\":6568:6621   */\n      tag_188\n      jump\t// in\n    tag_292:\n        /* \"#utility.yul\":6558:6621   */\n      swap3\n      pop\n        /* \"#utility.yul\":6514:6631   */\n      pop\n        /* \"#utility.yul\":6670:6672   */\n      0x20\n        /* \"#utility.yul\":6696:6749   */\n      tag_293\n        /* \"#utility.yul\":6741:6748   */\n      dup6\n        /* \"#utility.yul\":6732:6738   */\n      dup3\n        /* \"#utility.yul\":6721:6730   */\n      dup7\n        /* \"#utility.yul\":6717:6739   */\n      add\n        /* \"#utility.yul\":6696:6749   */\n      tag_188\n      jump\t// in\n    tag_293:\n        /* \"#utility.yul\":6686:6749   */\n      swap2\n      pop\n        /* \"#utility.yul\":6641:6759   */\n      pop\n        /* \"#utility.yul\":6292:6766   */\n      swap3\n      pop\n      swap3\n      swap1\n      pop\n      jump\t// out\n        /* \"#utility.yul\":6772:6888   */\n    tag_195:\n        /* \"#utility.yul\":6842:6863   */\n      tag_295\n        /* \"#utility.yul\":6857:6862   */\n      dup2\n        /* \"#utility.yul\":6842:6863   */\n      tag_182\n      jump\t// in\n    tag_295:\n        /* \"#utility.yul\":6835:6840   */\n      dup2\n        /* \"#utility.yul\":6832:6864   */\n      eq\n        /* \"#utility.yul\":6822:6882   */\n      tag_296\n      jumpi\n        /* \"#utility.yul\":6878:6879   */\n      0x00\n        /* \"#utility.yul\":6875:6876   */\n      0x00\n        /* \"#utility.yul\":6868:6880   */\n      revert\n        /* \"#utility.yul\":6822:6882   */\n    tag_296:\n        /* \"#utility.yul\":6772:6888   */\n      pop\n      jump\t// out\n        /* \"#utility.yul\":6894:7027   */\n    tag_196:\n        /* \"#utility.yul\":6937:6942   */\n      0x00\n        /* \"#utility.yul\":6975:6981   */\n      dup2\n        /* \"#utility.yul\":6962:6982   */\n      calldataload\n        /* \"#utility.yul\":6953:6982   */\n      swap1\n      pop\n        /* \"#utility.yul\":6991:7021   */\n      tag_298\n        /* \"#utility.yul\":7015:7020   */\n      dup2\n        /* \"#utility.yul\":6991:7021   */\n      tag_195\n      jump\t// in\n    tag_298:\n        /* \"#utility.yul\":6894:7027   */\n      swap3\n      swap2\n      pop\n      pop\n      jump\t// out\n        /* \"#utility.yul\":7033:7501   */\n    tag_53:\n        /* \"#utility.yul\":7098:7104   */\n      0x00\n        /* \"#utility.yul\":7106:7112   */\n      0x00\n        /* \"#utility.yul\":7155:7157   */\n      0x40\n        /* \"#utility.yul\":7143:7152   */\n      dup4\n        /* \"#utility.yul\":7134:7141   */\n      dup6\n        /* \"#utility.yul\":7130:7153   */\n      sub\n        /* \"#utility.yul\":7126:7158   */\n      slt\n        /* \"#utility.yul\":7123:7242   */\n      iszero\n      tag_300\n      jumpi\n        /* \"#utility.yul\":7161:7240   */\n      tag_301\n      tag_176\n      jump\t// in\n    tag_301:\n        /* \"#utility.yul\":7123:7242   */\n    tag_300:\n        /* \"#utility.yul\":7281:7282   */\n      0x00\n        /* \"#utility.yul\":7306:7359   */\n      tag_302\n        /* \"#utility.yul\":7351:7358   */\n      dup6\n        /* \"#utility.yul\":7342:7348   */\n      dup3\n        /* \"#utility.yul\":7331:7340   */\n      dup7\n        /* \"#utility.yul\":7327:7349   */\n      add\n        /* \"#utility.yul\":7306:7359   */\n      tag_181\n      jump\t// in\n    tag_302:\n        /* \"#utility.yul\":7296:7359   */\n      swap3\n      pop\n        /* \"#utility.yul\":7252:7369   */\n      pop\n        /* \"#utility.yul\":7408:7410   */\n      0x20\n        /* \"#utility.yul\":7434:7484   */\n      tag_303\n        /* \"#utility.yul\":7476:7483   */\n      dup6\n        /* \"#utility.yul\":7467:7473   */\n      dup3\n        /* \"#utility.yul\":7456:7465   */\n      dup7\n        /* \"#utility.yul\":7452:7474   */\n      add\n        /* \"#utility.yul\":7434:7484   */\n      tag_196\n      jump\t// in\n    tag_303:\n        /* \"#utility.yul\":7424:7484   */\n      swap2\n      pop\n        /* \"#utility.yul\":7379:7494   */\n      pop\n        /* \"#utility.yul\":7033:7501   */\n      swap3\n      pop\n      swap3\n      swap1\n      pop\n      jump\t// out\n        /* \"#utility.yul\":7507:7836   */\n    tag_57:\n        /* \"#utility.yul\":7566:7572   */\n      0x00\n        /* \"#utility.yul\":7615:7617   */\n      0x20\n        /* \"#utility.yul\":7603:7612   */\n      dup3\n        /* \"#utility.yul\":7594:7601   */\n      dup5\n        /* \"#utility.yul\":7590:7613   */\n      sub\n        /* \"#utility.yul\":7586:7618   */\n      slt\n        /* \"#utility.yul\":7583:7702   */\n      iszero\n      tag_305\n      jumpi\n        /* \"#utility.yul\":7621:7700   */\n      tag_306\n      tag_176\n      jump\t// in\n    tag_306:\n        /* \"#utility.yul\":7583:7702   */\n    tag_305:\n        /* \"#utility.yul\":7741:7742   */\n      0x00\n        /* \"#utility.yul\":7766:7819   */\n      tag_307\n        /* \"#utility.yul\":7811:7818   */\n      dup5\n        /* \"#utility.yul\":7802:7808   */\n      dup3\n        /* \"#utility.yul\":7791:7800   */\n      dup6\n        /* \"#utility.yul\":7787:7809   */\n      add\n        /* \"#utility.yul\":7766:7819   */\n      tag_188\n      jump\t// in\n    tag_307:\n        /* \"#utility.yul\":7756:7819   */\n      swap2\n      pop\n        /* \"#utility.yul\":7712:7829   */\n      pop\n        /* \"#utility.yul\":7507:7836   */\n      swap3\n      swap2\n      pop\n      pop\n      jump\t// out\n        /* \"#utility.yul\":7842:8174   */\n    tag_64:\n        /* \"#utility.yul\":7963:7967   */\n      0x00\n        /* \"#utility.yul\":8001:8003   */\n      0x40\n        /* \"#utility.yul\":7990:7999   */\n      dup3\n        /* \"#utility.yul\":7986:8004   */\n      add\n        /* \"#utility.yul\":7978:8004   */\n      swap1\n      pop\n        /* \"#utility.yul\":8014:8085   */\n      tag_309\n        /* \"#utility.yul\":8082:8083   */\n      0x00\n        /* \"#utility.yul\":8071:8080   */\n      dup4\n        /* \"#utility.yul\":8067:8084   */\n      add\n        /* \"#utility.yul\":8058:8064   */\n      dup6\n        /* \"#utility.yul\":8014:8085   */\n      tag_185\n      jump\t// in\n    tag_309:\n        /* \"#utility.yul\":8095:8167   */\n      tag_310\n        /* \"#utility.yul\":8163:8165   */\n      0x20\n        /* \"#utility.yul\":8152:8161   */\n      dup4\n        /* \"#utility.yul\":8148:8166   */\n      add\n        /* \"#utility.yul\":8139:8145   */\n      dup5\n        /* \"#utility.yul\":8095:8167   */\n      tag_194\n      jump\t// in\n    tag_310:\n        /* \"#utility.yul\":7842:8174   */\n      swap4\n      swap3\n      pop\n      pop\n      pop\n      jump\t// out\n        /* \"#utility.yul\":8180:8799   */\n    tag_71:\n        /* \"#utility.yul\":8257:8263   */\n      0x00\n        /* \"#utility.yul\":8265:8271   */\n      0x00\n        /* \"#utility.yul\":8273:8279   */\n      0x00\n        /* \"#utility.yul\":8322:8324   */\n      0x60\n        /* \"#utility.yul\":8310:8319   */\n      dup5\n        /* \"#utility.yul\":8301:8308   */\n      dup7\n        /* \"#utility.yul\":8297:8320   */\n      sub\n        /* \"#utility.yul\":8293:8325   */\n      slt\n        /* \"#utility.yul\":8290:8409   */\n      iszero\n      tag_312\n      jumpi\n        /* \"#utility.yul\":8328:8407   */\n      tag_313\n      tag_176\n      jump\t// in\n    tag_313:\n        /* \"#utility.yul\":8290:8409   */\n    tag_312:\n        /* \"#utility.yul\":8448:8449   */\n      0x00\n        /* \"#utility.yul\":8473:8526   */\n      tag_314\n        /* \"#utility.yul\":8518:8525   */\n      dup7\n        /* \"#utility.yul\":8509:8515   */\n      dup3\n        /* \"#utility.yul\":8498:8507   */\n      dup8\n        /* \"#utility.yul\":8494:8516   */\n      add\n        /* \"#utility.yul\":8473:8526   */\n      tag_188\n      jump\t// in\n    tag_314:\n        /* \"#utility.yul\":8463:8526   */\n      swap4\n      pop\n        /* \"#utility.yul\":8419:8536   */\n      pop\n        /* \"#utility.yul\":8575:8577   */\n      0x20\n        /* \"#utility.yul\":8601:8654   */\n      tag_315\n        /* \"#utility.yul\":8646:8653   */\n      dup7\n        /* \"#utility.yul\":8637:8643   */\n      dup3\n        /* \"#utility.yul\":8626:8635   */\n      dup8\n        /* \"#utility.yul\":8622:8644   */\n      add\n        /* \"#utility.yul\":8601:8654   */\n      tag_188\n      jump\t// in\n    tag_315:\n        /* \"#utility.yul\":8591:8654   */\n      swap3\n      pop\n        /* \"#utility.yul\":8546:8664   */\n      pop\n        /* \"#utility.yul\":8703:8705   */\n      0x40\n        /* \"#utility.yul\":8729:8782   */\n      tag_316\n        /* \"#utility.yul\":8774:8781   */\n      dup7\n        /* \"#utility.yul\":8765:8771   */\n      dup3\n        /* \"#utility.yul\":8754:8763   */\n      dup8\n        /* \"#utility.yul\":8750:8772   */\n      add\n        /* \"#utility.yul\":8729:8782   */\n      tag_181\n      jump\t// in\n    tag_316:\n        /* \"#utility.yul\":8719:8782   */\n      swap2\n      pop\n        /* \"#utility.yul\":8674:8792   */\n      pop\n        /* \"#utility.yul\":8180:8799   */\n      swap3\n      pop\n      swap3\n      pop\n      swap3\n      jump\t// out\n        /* \"#utility.yul\":8805:9134   */\n    tag_76:\n        /* \"#utility.yul\":8864:8870   */\n      0x00\n        /* \"#utility.yul\":8913:8915   */\n      0x20\n        /* \"#utility.yul\":8901:8910   */\n      dup3\n        /* \"#utility.yul\":8892:8899   */\n      dup5\n        /* \"#utility.yul\":8888:8911   */\n      sub\n        /* \"#utility.yul\":8884:8916   */\n      slt\n        /* \"#utility.yul\":8881:9000   */\n      iszero\n      tag_318\n      jumpi\n        /* \"#utility.yul\":8919:8998   */\n      tag_319\n      tag_176\n      jump\t// in\n    tag_319:\n        /* \"#utility.yul\":8881:9000   */\n    tag_318:\n        /* \"#utility.yul\":9039:9040   */\n      0x00\n        /* \"#utility.yul\":9064:9117   */\n      tag_320\n        /* \"#utility.yul\":9109:9116   */\n      dup5\n        /* \"#utility.yul\":9100:9106   */\n      dup3\n        /* \"#utility.yul\":9089:9098   */\n      dup6\n        /* \"#utility.yul\":9085:9107   */\n      add\n        /* \"#utility.yul\":9064:9117   */\n      tag_190\n      jump\t// in\n    tag_320:\n        /* \"#utility.yul\":9054:9117   */\n      swap2\n      pop\n        /* \"#utility.yul\":9010:9127   */\n      pop\n        /* \"#utility.yul\":8805:9134   */\n      swap3\n      swap2\n      pop\n      pop\n      jump\t// out\n        /* \"#utility.yul\":9140:9915   */\n    tag_82:\n        /* \"#utility.yul\":9373:9377   */\n      0x00\n        /* \"#utility.yul\":9411:9414   */\n      0xc0\n        /* \"#utility.yul\":9400:9409   */\n      dup3\n        /* \"#utility.yul\":9396:9415   */\n      add\n        /* \"#utility.yul\":9388:9415   */\n      swap1\n      pop\n        /* \"#utility.yul\":9425:9496   */\n      tag_322\n        /* \"#utility.yul\":9493:9494   */\n      0x00\n        /* \"#utility.yul\":9482:9491   */\n      dup4\n        /* \"#utility.yul\":9478:9495   */\n      add\n        /* \"#utility.yul\":9469:9475   */\n      dup10\n        /* \"#utility.yul\":9425:9496   */\n      tag_185\n      jump\t// in\n    tag_322:\n        /* \"#utility.yul\":9506:9578   */\n      tag_323\n        /* \"#utility.yul\":9574:9576   */\n      0x20\n        /* \"#utility.yul\":9563:9572   */\n      dup4\n        /* \"#utility.yul\":9559:9577   */\n      add\n        /* \"#utility.yul\":9550:9556   */\n      dup9\n        /* \"#utility.yul\":9506:9578   */\n      tag_194\n      jump\t// in\n    tag_323:\n        /* \"#utility.yul\":9588:9660   */\n      tag_324\n        /* \"#utility.yul\":9656:9658   */\n      0x40\n        /* \"#utility.yul\":9645:9654   */\n      dup4\n        /* \"#utility.yul\":9641:9659   */\n      add\n        /* \"#utility.yul\":9632:9638   */\n      dup8\n        /* \"#utility.yul\":9588:9660   */\n      tag_194\n      jump\t// in\n    tag_324:\n        /* \"#utility.yul\":9670:9742   */\n      tag_325\n        /* \"#utility.yul\":9738:9740   */\n      0x60\n        /* \"#utility.yul\":9727:9736   */\n      dup4\n        /* \"#utility.yul\":9723:9741   */\n      add\n        /* \"#utility.yul\":9714:9720   */\n      dup7\n        /* \"#utility.yul\":9670:9742   */\n      tag_185\n      jump\t// in\n    tag_325:\n        /* \"#utility.yul\":9752:9825   */\n      tag_326\n        /* \"#utility.yul\":9820:9823   */\n      0x80\n        /* \"#utility.yul\":9809:9818   */\n      dup4\n        /* \"#utility.yul\":9805:9824   */\n      add\n        /* \"#utility.yul\":9796:9802   */\n      dup6\n        /* \"#utility.yul\":9752:9825   */\n      tag_194\n      jump\t// in\n    tag_326:\n        /* \"#utility.yul\":9835:9908   */\n      tag_327\n        /* \"#utility.yul\":9903:9906   */\n      0xa0\n        /* \"#utility.yul\":9892:9901   */\n      dup4\n        /* \"#utility.yul\":9888:9907   */\n      add\n        /* \"#utility.yul\":9879:9885   */\n      dup5\n        /* \"#utility.yul\":9835:9908   */\n      tag_185\n      jump\t// in\n    tag_327:\n        /* \"#utility.yul\":9140:9915   */\n      swap8\n      swap7\n      pop\n      pop\n      pop\n      pop\n      pop\n      pop\n      pop\n      jump\t// out\n        /* \"#utility.yul\":9921:10039   */\n    tag_197:\n        /* \"#utility.yul\":10008:10032   */\n      tag_329\n        /* \"#utility.yul\":10026:10031   */\n      dup2\n        /* \"#utility.yul\":10008:10032   */\n      tag_179\n      jump\t// in\n    tag_329:\n        /* \"#utility.yul\":10003:10006   */\n      dup3\n        /* \"#utility.yul\":9996:10033   */\n      mstore\n        /* \"#utility.yul\":9921:10039   */\n      pop\n      pop\n      jump\t// out\n        /* \"#utility.yul\":10045:10267   */\n    tag_104:\n        /* \"#utility.yul\":10138:10142   */\n      0x00\n        /* \"#utility.yul\":10176:10178   */\n      0x20\n        /* \"#utility.yul\":10165:10174   */\n      dup3\n        /* \"#utility.yul\":10161:10179   */\n      add\n        /* \"#utility.yul\":10153:10179   */\n      swap1\n      pop\n        /* \"#utility.yul\":10189:10260   */\n      tag_331\n        /* \"#utility.yul\":10257:10258   */\n      0x00\n        /* \"#utility.yul\":10246:10255   */\n      dup4\n        /* \"#utility.yul\":10242:10259   */\n      add\n        /* \"#utility.yul\":10233:10239   */\n      dup5\n        /* \"#utility.yul\":10189:10260   */\n      tag_197\n      jump\t// in\n    tag_331:\n        /* \"#utility.yul\":10045:10267   */\n      swap3\n      swap2\n      pop\n      pop\n      jump\t// out\n        /* \"#utility.yul\":10273:10442   */\n    tag_198:\n        /* \"#utility.yul\":10357:10368   */\n      0x00\n        /* \"#utility.yul\":10391:10397   */\n      dup3\n        /* \"#utility.yul\":10386:10389   */\n      dup3\n        /* \"#utility.yul\":10379:10398   */\n      mstore\n        /* \"#utility.yul\":10431:10435   */\n      0x20\n        /* \"#utility.yul\":10426:10429   */\n      dup3\n        /* \"#utility.yul\":10422:10436   */\n      add\n        /* \"#utility.yul\":10407:10436   */\n      swap1\n      pop\n        /* \"#utility.yul\":10273:10442   */\n      swap3\n      swap2\n      pop\n      pop\n      jump\t// out\n        /* \"#utility.yul\":10448:10617   */\n    tag_199:\n        /* \"#utility.yul\":10588:10609   */\n      0x4e6f7420617574686f72697a6564206e6f646500000000000000000000000000\n        /* \"#utility.yul\":10584:10585   */\n      0x00\n        /* \"#utility.yul\":10576:10582   */\n      dup3\n        /* \"#utility.yul\":10572:10586   */\n      add\n        /* \"#utility.yul\":10565:10610   */\n      mstore\n        /* \"#utility.yul\":10448:10617   */\n      pop\n      jump\t// out\n        /* \"#utility.yul\":10623:10989   */\n    tag_200:\n        /* \"#utility.yul\":10765:10768   */\n      0x00\n        /* \"#utility.yul\":10786:10853   */\n      tag_335\n        /* \"#utility.yul\":10850:10852   */\n      0x13\n        /* \"#utility.yul\":10845:10848   */\n      dup4\n        /* \"#utility.yul\":10786:10853   */\n      tag_198\n      jump\t// in\n    tag_335:\n        /* \"#utility.yul\":10779:10853   */\n      swap2\n      pop\n        /* \"#utility.yul\":10862:10955   */\n      tag_336\n        /* \"#utility.yul\":10951:10954   */\n      dup3\n        /* \"#utility.yul\":10862:10955   */\n      tag_199\n      jump\t// in\n    tag_336:\n        /* \"#utility.yul\":10980:10982   */\n      0x20\n        /* \"#utility.yul\":10975:10978   */\n      dup3\n        /* \"#utility.yul\":10971:10983   */\n      add\n        /* \"#utility.yul\":10964:10983   */\n      swap1\n      pop\n        /* \"#utility.yul\":10623:10989   */\n      swap2\n      swap1\n      pop\n      jump\t// out\n        /* \"#utility.yul\":10995:11414   */\n    tag_111:\n        /* \"#utility.yul\":11161:11165   */\n      0x00\n        /* \"#utility.yul\":11199:11201   */\n      0x20\n        /* \"#utility.yul\":11188:11197   */\n      dup3\n        /* \"#utility.yul\":11184:11202   */\n      add\n        /* \"#utility.yul\":11176:11202   */\n      swap1\n      pop\n        /* \"#utility.yul\":11248:11257   */\n      dup2\n        /* \"#utility.yul\":11242:11246   */\n      dup2\n        /* \"#utility.yul\":11238:11258   */\n      sub\n        /* \"#utility.yul\":11234:11235   */\n      0x00\n        /* \"#utility.yul\":11223:11232   */\n      dup4\n        /* \"#utility.yul\":11219:11236   */\n      add\n        /* \"#utility.yul\":11212:11259   */\n      mstore\n        /* \"#utility.yul\":11276:11407   */\n      tag_338\n        /* \"#utility.yul\":11402:11406   */\n      dup2\n        /* \"#utility.yul\":11276:11407   */\n      tag_200\n      jump\t// in\n    tag_338:\n        /* \"#utility.yul\":11268:11407   */\n      swap1\n      pop\n        /* \"#utility.yul\":10995:11414   */\n      swap2\n      swap1\n      pop\n      jump\t// out\n        /* \"#utility.yul\":11420:11600   */\n    tag_201:\n        /* \"#utility.yul\":11468:11545   */\n      0x4e487b7100000000000000000000000000000000000000000000000000000000\n        /* \"#utility.yul\":11465:11466   */\n      0x00\n        /* \"#utility.yul\":11458:11546   */\n      mstore\n        /* \"#utility.yul\":11565:11569   */\n      0x11\n        /* \"#utility.yul\":11562:11563   */\n      0x04\n        /* \"#utility.yul\":11555:11570   */\n      mstore\n        /* \"#utility.yul\":11589:11593   */\n      0x24\n        /* \"#utility.yul\":11586:11587   */\n      0x00\n        /* \"#utility.yul\":11579:11594   */\n      revert\n        /* \"#utility.yul\":11606:11797   */\n    tag_114:\n        /* \"#utility.yul\":11646:11649   */\n      0x00\n        /* \"#utility.yul\":11665:11685   */\n      tag_341\n        /* \"#utility.yul\":11683:11684   */\n      dup3\n        /* \"#utility.yul\":11665:11685   */\n      tag_184\n      jump\t// in\n    tag_341:\n        /* \"#utility.yul\":11660:11685   */\n      swap2\n      pop\n        /* \"#utility.yul\":11699:11719   */\n      tag_342\n        /* \"#utility.yul\":11717:11718   */\n      dup4\n        /* \"#utility.yul\":11699:11719   */\n      tag_184\n      jump\t// in\n    tag_342:\n        /* \"#utility.yul\":11694:11719   */\n      swap3\n      pop\n        /* \"#utility.yul\":11742:11743   */\n      dup3\n        /* \"#utility.yul\":11739:11740   */\n      dup3\n        /* \"#utility.yul\":11735:11744   */\n      add\n        /* \"#utility.yul\":11728:11744   */\n      swap1\n      pop\n        /* \"#utility.yul\":11763:11766   */\n      dup1\n        /* \"#utility.yul\":11760:11761   */\n      dup3\n        /* \"#utility.yul\":11757:11767   */\n      gt\n        /* \"#utility.yul\":11754:11790   */\n      iszero\n      tag_343\n      jumpi\n        /* \"#utility.yul\":11770:11788   */\n      tag_344\n      tag_201\n      jump\t// in\n    tag_344:\n        /* \"#utility.yul\":11754:11790   */\n    tag_343:\n        /* \"#utility.yul\":11606:11797   */\n      swap3\n      swap2\n      pop\n      pop\n      jump\t// out\n        /* \"#utility.yul\":11803:11963   */\n    tag_202:\n        /* \"#utility.yul\":11943:11955   */\n      0x4261642068656967687400000000000000000000000000000000000000000000\n        /* \"#utility.yul\":11939:11940   */\n      0x00\n        /* \"#utility.yul\":11931:11937   */\n      dup3\n        /* \"#utility.yul\":11927:11941   */\n      add\n        /* \"#utility.yul\":11920:11956   */\n      mstore\n        /* \"#utility.yul\":11803:11963   */\n      pop\n      jump\t// out\n        /* \"#utility.yul\":11969:12335   */\n    tag_203:\n        /* \"#utility.yul\":12111:12114   */\n      0x00\n        /* \"#utility.yul\":12132:12199   */\n      tag_347\n        /* \"#utility.yul\":12196:12198   */\n      0x0a\n        /* \"#utility.yul\":12191:12194   */\n      dup4\n        /* \"#utility.yul\":12132:12199   */\n      tag_198\n      jump\t// in\n    tag_347:\n        /* \"#utility.yul\":12125:12199   */\n      swap2\n      pop\n        /* \"#utility.yul\":12208:12301   */\n      tag_348\n        /* \"#utility.yul\":12297:12300   */\n      dup3\n        /* \"#utility.yul\":12208:12301   */\n      tag_202\n      jump\t// in\n    tag_348:\n        /* \"#utility.yul\":12326:12328   */\n      0x20\n        /* \"#utility.yul\":12321:12324   */\n      dup3\n        /* \"#utility.yul\":12317:12329   */\n      add\n        /* \"#utility.yul\":12310:12329   */\n      swap1\n      pop\n        /* \"#utility.yul\":11969:12335   */\n      swap2\n      swap1\n      pop\n      jump\t// out\n        /* \"#utility.yul\":12341:12760   */\n    tag_117:\n        /* \"#utility.yul\":12507:12511   */\n      0x00\n        /* \"#utility.yul\":12545:12547   */\n      0x20\n        /* \"#utility.yul\":12534:12543   */\n      dup3\n        /* \"#utility.yul\":12530:12548   */\n      add\n        /* \"#utility.yul\":12522:12548   */\n      swap1\n      pop\n        /* \"#utility.yul\":12594:12603   */\n      dup2\n        /* \"#utility.yul\":12588:12592   */\n      dup2\n        /* \"#utility.yul\":12584:12604   */\n      sub\n        /* \"#utility.yul\":12580:12581   */\n      0x00\n        /* \"#utility.yul\":12569:12578   */\n      dup4\n        /* \"#utility.yul\":12565:12582   */\n      add\n        /* \"#utility.yul\":12558:12605   */\n      mstore\n        /* \"#utility.yul\":12622:12753   */\n      tag_350\n        /* \"#utility.yul\":12748:12752   */\n      dup2\n        /* \"#utility.yul\":12622:12753   */\n      tag_203\n      jump\t// in\n    tag_350:\n        /* \"#utility.yul\":12614:12753   */\n      swap1\n      pop\n        /* \"#utility.yul\":12341:12760   */\n      swap2\n      swap1\n      pop\n      jump\t// out\n        /* \"#utility.yul\":12766:12929   */\n    tag_204:\n        /* \"#utility.yul\":12906:12921   */\n      0x4261642070726576206861736800000000000000000000000000000000000000\n        /* \"#utility.yul\":12902:12903   */\n      0x00\n        /* \"#utility.yul\":12894:12900   */\n      dup3\n        /* \"#utility.yul\":12890:12904   */\n      add\n        /* \"#utility.yul\":12883:12922   */\n      mstore\n        /* \"#utility.yul\":12766:12929   */\n      pop\n      jump\t// out\n        /* \"#utility.yul\":12935:13301   */\n    tag_205:\n        /* \"#utility.yul\":13077:13080   */\n      0x00\n        /* \"#utility.yul\":13098:13165   */\n      tag_353\n        /* \"#utility.yul\":13162:13164   */\n      0x0d\n        /* \"#utility.yul\":13157:13160   */\n      dup4\n        /* \"#utility.yul\":13098:13165   */\n      tag_198\n      jump\t// in\n    tag_353:\n        /* \"#utility.yul\":13091:13165   */\n      swap2\n      pop\n        /* \"#utility.yul\":13174:13267   */\n      tag_354\n        /* \"#utility.yul\":13263:13266   */\n      dup3\n        /* \"#utility.yul\":13174:13267   */\n      tag_204\n      jump\t// in\n    tag_354:\n        /* \"#utility.yul\":13292:13294   */\n      0x20\n        /* \"#utility.yul\":13287:13290   */\n      dup3\n        /* \"#utility.yul\":13283:13295   */\n      add\n        /* \"#utility.yul\":13276:13295   */\n      swap1\n      pop\n        /* \"#utility.yul\":12935:13301   */\n      swap2\n      swap1\n      pop\n      jump\t// out\n        /* \"#utility.yul\":13307:13726   */\n    tag_120:\n        /* \"#utility.yul\":13473:13477   */\n      0x00\n        /* \"#utility.yul\":13511:13513   */\n      0x20\n        /* \"#utility.yul\":13500:13509   */\n      dup3\n        /* \"#utility.yul\":13496:13514   */\n      add\n        /* \"#utility.yul\":13488:13514   */\n      swap1\n      pop\n        /* \"#utility.yul\":13560:13569   */\n      dup2\n        /* \"#utility.yul\":13554:13558   */\n      dup2\n        /* \"#utility.yul\":13550:13570   */\n      sub\n        /* \"#utility.yul\":13546:13547   */\n      0x00\n        /* \"#utility.yul\":13535:13544   */\n      dup4\n        /* \"#utility.yul\":13531:13548   */\n      add\n        /* \"#utility.yul\":13524:13571   */\n      mstore\n        /* \"#utility.yul\":13588:13719   */\n      tag_356\n        /* \"#utility.yul\":13714:13718   */\n      dup2\n        /* \"#utility.yul\":13588:13719   */\n      tag_205\n      jump\t// in\n    tag_356:\n        /* \"#utility.yul\":13580:13719   */\n      swap1\n      pop\n        /* \"#utility.yul\":13307:13726   */\n      swap2\n      swap1\n      pop\n      jump\t// out\n        /* \"#utility.yul\":13732:13811   */\n    tag_206:\n        /* \"#utility.yul\":13771:13778   */\n      0x00\n        /* \"#utility.yul\":13800:13805   */\n      dup2\n        /* \"#utility.yul\":13789:13805   */\n      swap1\n      pop\n        /* \"#utility.yul\":13732:13811   */\n      swap2\n      swap1\n      pop\n      jump\t// out\n        /* \"#utility.yul\":13817:13974   */\n    tag_207:\n        /* \"#utility.yul\":13922:13967   */\n      tag_359\n        /* \"#utility.yul\":13942:13966   */\n      tag_360\n        /* \"#utility.yul\":13960:13965   */\n      dup3\n        /* \"#utility.yul\":13942:13966   */\n      tag_186\n      jump\t// in\n    tag_360:\n        /* \"#utility.yul\":13922:13967   */\n      tag_206\n      jump\t// in\n    tag_359:\n        /* \"#utility.yul\":13917:13920   */\n      dup3\n        /* \"#utility.yul\":13910:13968   */\n      mstore\n        /* \"#utility.yul\":13817:13974   */\n      pop\n      pop\n      jump\t// out\n        /* \"#utility.yul\":13980:14059   */\n    tag_208:\n        /* \"#utility.yul\":14019:14026   */\n      0x00\n        /* \"#utility.yul\":14048:14053   */\n      dup2\n        /* \"#utility.yul\":14037:14053   */\n      swap1\n      pop\n        /* \"#utility.yul\":13980:14059   */\n      swap2\n      swap1\n      pop\n      jump\t// out\n        /* \"#utility.yul\":14065:14222   */\n    tag_209:\n        /* \"#utility.yul\":14170:14215   */\n      tag_363\n        /* \"#utility.yul\":14190:14214   */\n      tag_364\n        /* \"#utility.yul\":14208:14213   */\n      dup3\n        /* \"#utility.yul\":14190:14214   */\n      tag_184\n      jump\t// in\n    tag_364:\n        /* \"#utility.yul\":14170:14215   */\n      tag_208\n      jump\t// in\n    tag_363:\n        /* \"#utility.yul\":14165:14168   */\n      dup3\n        /* \"#utility.yul\":14158:14216   */\n      mstore\n        /* \"#utility.yul\":14065:14222   */\n      pop\n      pop\n      jump\t// out\n        /* \"#utility.yul\":14228:15048   */\n    tag_122:\n        /* \"#utility.yul\":14452:14455   */\n      0x00\n        /* \"#utility.yul\":14467:14542   */\n      tag_366\n        /* \"#utility.yul\":14538:14541   */\n      dup3\n        /* \"#utility.yul\":14529:14535   */\n      dup9\n        /* \"#utility.yul\":14467:14542   */\n      tag_207\n      jump\t// in\n    tag_366:\n        /* \"#utility.yul\":14567:14569   */\n      0x20\n        /* \"#utility.yul\":14562:14565   */\n      dup3\n        /* \"#utility.yul\":14558:14570   */\n      add\n        /* \"#utility.yul\":14551:14570   */\n      swap2\n      pop\n        /* \"#utility.yul\":14580:14655   */\n      tag_367\n        /* \"#utility.yul\":14651:14654   */\n      dup3\n        /* \"#utility.yul\":14642:14648   */\n      dup8\n        /* \"#utility.yul\":14580:14655   */\n      tag_209\n      jump\t// in\n    tag_367:\n        /* \"#utility.yul\":14680:14682   */\n      0x20\n        /* \"#utility.yul\":14675:14678   */\n      dup3\n        /* \"#utility.yul\":14671:14683   */\n      add\n        /* \"#utility.yul\":14664:14683   */\n      swap2\n      pop\n        /* \"#utility.yul\":14693:14768   */\n      tag_368\n        /* \"#utility.yul\":14764:14767   */\n      dup3\n        /* \"#utility.yul\":14755:14761   */\n      dup7\n        /* \"#utility.yul\":14693:14768   */\n      tag_207\n      jump\t// in\n    tag_368:\n        /* \"#utility.yul\":14793:14795   */\n      0x20\n        /* \"#utility.yul\":14788:14791   */\n      dup3\n        /* \"#utility.yul\":14784:14796   */\n      add\n        /* \"#utility.yul\":14777:14796   */\n      swap2\n      pop\n        /* \"#utility.yul\":14806:14881   */\n      tag_369\n        /* \"#utility.yul\":14877:14880   */\n      dup3\n        /* \"#utility.yul\":14868:14874   */\n      dup6\n        /* \"#utility.yul\":14806:14881   */\n      tag_207\n      jump\t// in\n    tag_369:\n        /* \"#utility.yul\":14906:14908   */\n      0x20\n        /* \"#utility.yul\":14901:14904   */\n      dup3\n        /* \"#utility.yul\":14897:14909   */\n      add\n        /* \"#utility.yul\":14890:14909   */\n      swap2\n      pop\n        /* \"#utility.yul\":14919:14994   */\n      tag_370\n        /* \"#utility.yul\":14990:14993   */\n      dup3\n        /* \"#utility.yul\":14981:14987   */\n      dup5\n        /* \"#utility.yul\":14919:14994   */\n      tag_209\n      jump\t// in\n    tag_370:\n        /* \"#utility.yul\":15019:15021   */\n      0x20\n        /* \"#utility.yul\":15014:15017   */\n      dup3\n        /* \"#utility.yul\":15010:15022   */\n      add\n        /* \"#utility.yul\":15003:15022   */\n      swap2\n      pop\n        /* \"#utility.yul\":15039:15042   */\n      dup2\n        /* \"#utility.yul\":15032:15042   */\n      swap1\n      pop\n        /* \"#utility.yul\":14228:15048   */\n      swap7\n      swap6\n      pop\n      pop\n      pop\n      pop\n      pop\n      pop\n      jump\t// out\n        /* \"#utility.yul\":15054:15220   */\n    tag_210:\n        /* \"#utility.yul\":15194:15212   */\n      0x416c72656164792070726f706f73656400000000000000000000000000000000\n        /* \"#utility.yul\":15190:15191   */\n      0x00\n        /* \"#utility.yul\":15182:15188   */\n      dup3\n        /* \"#utility.yul\":15178:15192   */\n      add\n        /* \"#utility.yul\":15171:15213   */\n      mstore\n        /* \"#utility.yul\":15054:15220   */\n      pop\n      jump\t// out\n        /* \"#utility.yul\":15226:15592   */\n    tag_211:\n        /* \"#utility.yul\":15368:15371   */\n      0x00\n        /* \"#utility.yul\":15389:15456   */\n      tag_373\n        /* \"#utility.yul\":15453:15455   */\n      0x10\n        /* \"#utility.yul\":15448:15451   */\n      dup4\n        /* \"#utility.yul\":15389:15456   */\n      tag_198\n      jump\t// in\n    tag_373:\n        /* \"#utility.yul\":15382:15456   */\n      swap2\n      pop\n        /* \"#utility.yul\":15465:15558   */\n      tag_374\n        /* \"#utility.yul\":15554:15557   */\n      dup3\n        /* \"#utility.yul\":15465:15558   */\n      tag_210\n      jump\t// in\n    tag_374:\n        /* \"#utility.yul\":15583:15585   */\n      0x20\n        /* \"#utility.yul\":15578:15581   */\n      dup3\n        /* \"#utility.yul\":15574:15586   */\n      add\n        /* \"#utility.yul\":15567:15586   */\n      swap1\n      pop\n        /* \"#utility.yul\":15226:15592   */\n      swap2\n      swap1\n      pop\n      jump\t// out\n        /* \"#utility.yul\":15598:16017   */\n    tag_125:\n        /* \"#utility.yul\":15764:15768   */\n      0x00\n        /* \"#utility.yul\":15802:15804   */\n      0x20\n        /* \"#utility.yul\":15791:15800   */\n      dup3\n        /* \"#utility.yul\":15787:15805   */\n      add\n        /* \"#utility.yul\":15779:15805   */\n      swap1\n      pop\n        /* \"#utility.yul\":15851:15860   */\n      dup2\n        /* \"#utility.yul\":15845:15849   */\n      dup2\n        /* \"#utility.yul\":15841:15861   */\n      sub\n        /* \"#utility.yul\":15837:15838   */\n      0x00\n        /* \"#utility.yul\":15826:15835   */\n      dup4\n        /* \"#utility.yul\":15822:15839   */\n      add\n        /* \"#utility.yul\":15815:15862   */\n      mstore\n        /* \"#utility.yul\":15879:16010   */\n      tag_376\n        /* \"#utility.yul\":16005:16009   */\n      dup2\n        /* \"#utility.yul\":15879:16010   */\n      tag_211\n      jump\t// in\n    tag_376:\n        /* \"#utility.yul\":15871:16010   */\n      swap1\n      pop\n        /* \"#utility.yul\":15598:16017   */\n      swap2\n      swap1\n      pop\n      jump\t// out\n        /* \"#utility.yul\":16023:16576   */\n    tag_127:\n        /* \"#utility.yul\":16200:16204   */\n      0x00\n        /* \"#utility.yul\":16238:16241   */\n      0x80\n        /* \"#utility.yul\":16227:16236   */\n      dup3\n        /* \"#utility.yul\":16223:16242   */\n      add\n        /* \"#utility.yul\":16215:16242   */\n      swap1\n      pop\n        /* \"#utility.yul\":16252:16323   */\n      tag_378\n        /* \"#utility.yul\":16320:16321   */\n      0x00\n        /* \"#utility.yul\":16309:16318   */\n      dup4\n        /* \"#utility.yul\":16305:16322   */\n      add\n        /* \"#utility.yul\":16296:16302   */\n      dup8\n        /* \"#utility.yul\":16252:16323   */\n      tag_194\n      jump\t// in\n    tag_378:\n        /* \"#utility.yul\":16333:16405   */\n      tag_379\n        /* \"#utility.yul\":16401:16403   */\n      0x20\n        /* \"#utility.yul\":16390:16399   */\n      dup4\n        /* \"#utility.yul\":16386:16404   */\n      add\n        /* \"#utility.yul\":16377:16383   */\n      dup7\n        /* \"#utility.yul\":16333:16405   */\n      tag_194\n      jump\t// in\n    tag_379:\n        /* \"#utility.yul\":16415:16487   */\n      tag_380\n        /* \"#utility.yul\":16483:16485   */\n      0x40\n        /* \"#utility.yul\":16472:16481   */\n      dup4\n        /* \"#utility.yul\":16468:16486   */\n      add\n        /* \"#utility.yul\":16459:16465   */\n      dup6\n        /* \"#utility.yul\":16415:16487   */\n      tag_185\n      jump\t// in\n    tag_380:\n        /* \"#utility.yul\":16497:16569   */\n      tag_381\n        /* \"#utility.yul\":16565:16567   */\n      0x60\n        /* \"#utility.yul\":16554:16563   */\n      dup4\n        /* \"#utility.yul\":16550:16568   */\n      add\n        /* \"#utility.yul\":16541:16547   */\n      dup5\n        /* \"#utility.yul\":16497:16569   */\n      tag_194\n      jump\t// in\n    tag_381:\n        /* \"#utility.yul\":16023:16576   */\n      swap6\n      swap5\n      pop\n      pop\n      pop\n      pop\n      pop\n      jump\t// out\n        /* \"#utility.yul\":16582:16741   */\n    tag_212:\n        /* \"#utility.yul\":16722:16733   */\n      0x4e6f742061646d696e0000000000000000000000000000000000000000000000\n        /* \"#utility.yul\":16718:16719   */\n      0x00\n        /* \"#utility.yul\":16710:16716   */\n      dup3\n        /* \"#utility.yul\":16706:16720   */\n      add\n        /* \"#utility.yul\":16699:16734   */\n      mstore\n        /* \"#utility.yul\":16582:16741   */\n      pop\n      jump\t// out\n        /* \"#utility.yul\":16747:17112   */\n    tag_213:\n        /* \"#utility.yul\":16889:16892   */\n      0x00\n        /* \"#utility.yul\":16910:16976   */\n      tag_384\n        /* \"#utility.yul\":16974:16975   */\n      0x09\n        /* \"#utility.yul\":16969:16972   */\n      dup4\n        /* \"#utility.yul\":16910:16976   */\n      tag_198\n      jump\t// in\n    tag_384:\n        /* \"#utility.yul\":16903:16976   */\n      swap2\n      pop\n        /* \"#utility.yul\":16985:17078   */\n      tag_385\n        /* \"#utility.yul\":17074:17077   */\n      dup3\n        /* \"#utility.yul\":16985:17078   */\n      tag_212\n      jump\t// in\n    tag_385:\n        /* \"#utility.yul\":17103:17105   */\n      0x20\n        /* \"#utility.yul\":17098:17101   */\n      dup3\n        /* \"#utility.yul\":17094:17106   */\n      add\n        /* \"#utility.yul\":17087:17106   */\n      swap1\n      pop\n        /* \"#utility.yul\":16747:17112   */\n      swap2\n      swap1\n      pop\n      jump\t// out\n        /* \"#utility.yul\":17118:17537   */\n    tag_133:\n        /* \"#utility.yul\":17284:17288   */\n      0x00\n        /* \"#utility.yul\":17322:17324   */\n      0x20\n        /* \"#utility.yul\":17311:17320   */\n      dup3\n        /* \"#utility.yul\":17307:17325   */\n      add\n        /* \"#utility.yul\":17299:17325   */\n      swap1\n      pop\n        /* \"#utility.yul\":17371:17380   */\n      dup2\n        /* \"#utility.yul\":17365:17369   */\n      dup2\n        /* \"#utility.yul\":17361:17381   */\n      sub\n        /* \"#utility.yul\":17357:17358   */\n      0x00\n        /* \"#utility.yul\":17346:17355   */\n      dup4\n        /* \"#utility.yul\":17342:17359   */\n      add\n        /* \"#utility.yul\":17335:17382   */\n      mstore\n        /* \"#utility.yul\":17399:17530   */\n      tag_387\n        /* \"#utility.yul\":17525:17529   */\n      dup2\n        /* \"#utility.yul\":17399:17530   */\n      tag_213\n      jump\t// in\n    tag_387:\n        /* \"#utility.yul\":17391:17530   */\n      swap1\n      pop\n        /* \"#utility.yul\":17118:17537   */\n      swap2\n      swap1\n      pop\n      jump\t// out\n        /* \"#utility.yul\":17543:17863   */\n    tag_136:\n        /* \"#utility.yul\":17658:17662   */\n      0x00\n        /* \"#utility.yul\":17696:17698   */\n      0x40\n        /* \"#utility.yul\":17685:17694   */\n      dup3\n        /* \"#utility.yul\":17681:17699   */\n      add\n        /* \"#utility.yul\":17673:17699   */\n      swap1\n      pop\n        /* \"#utility.yul\":17709:17780   */\n      tag_389\n        /* \"#utility.yul\":17777:17778   */\n      0x00\n        /* \"#utility.yul\":17766:17775   */\n      dup4\n        /* \"#utility.yul\":17762:17779   */\n      add\n        /* \"#utility.yul\":17753:17759   */\n      dup6\n        /* \"#utility.yul\":17709:17780   */\n      tag_197\n      jump\t// in\n    tag_389:\n        /* \"#utility.yul\":17790:17856   */\n      tag_390\n        /* \"#utility.yul\":17852:17854   */\n      0x20\n        /* \"#utility.yul\":17841:17850   */\n      dup4\n        /* \"#utility.yul\":17837:17855   */\n      add\n        /* \"#utility.yul\":17828:17834   */\n      dup5\n        /* \"#utility.yul\":17790:17856   */\n      tag_183\n      jump\t// in\n    tag_390:\n        /* \"#utility.yul\":17543:17863   */\n      swap4\n      swap3\n      pop\n      pop\n      pop\n      jump\t// out\n        /* \"#utility.yul\":17869:18033   */\n    tag_214:\n        /* \"#utility.yul\":18009:18025   */\n      0x71756f72756d20746f6f206c6f77000000000000000000000000000000000000\n        /* \"#utility.yul\":18005:18006   */\n      0x00\n        /* \"#utility.yul\":17997:18003   */\n      dup3\n        /* \"#utility.yul\":17993:18007   */\n      add\n        /* \"#utility.yul\":17986:18026   */\n      mstore\n        /* \"#utility.yul\":17869:18033   */\n      pop\n      jump\t// out\n        /* \"#utility.yul\":18039:18405   */\n    tag_215:\n        /* \"#utility.yul\":18181:18184   */\n      0x00\n        /* \"#utility.yul\":18202:18269   */\n      tag_393\n        /* \"#utility.yul\":18266:18268   */\n      0x0e\n        /* \"#utility.yul\":18261:18264   */\n      dup4\n        /* \"#utility.yul\":18202:18269   */\n      tag_198\n      jump\t// in\n    tag_393:\n        /* \"#utility.yul\":18195:18269   */\n      swap2\n      pop\n        /* \"#utility.yul\":18278:18371   */\n      tag_394\n        /* \"#utility.yul\":18367:18370   */\n      dup3\n        /* \"#utility.yul\":18278:18371   */\n      tag_214\n      jump\t// in\n    tag_394:\n        /* \"#utility.yul\":18396:18398   */\n      0x20\n        /* \"#utility.yul\":18391:18394   */\n      dup3\n        /* \"#utility.yul\":18387:18399   */\n      add\n        /* \"#utility.yul\":18380:18399   */\n      swap1\n      pop\n        /* \"#utility.yul\":18039:18405   */\n      swap2\n      swap1\n      pop\n      jump\t// out\n        /* \"#utility.yul\":18411:18830   */\n    tag_144:\n        /* \"#utility.yul\":18577:18581   */\n      0x00\n        /* \"#utility.yul\":18615:18617   */\n      0x20\n        /* \"#utility.yul\":18604:18613   */\n      dup3\n        /* \"#utility.yul\":18600:18618   */\n      add\n        /* \"#utility.yul\":18592:18618   */\n      swap1\n      pop\n        /* \"#utility.yul\":18664:18673   */\n      dup2\n        /* \"#utility.yul\":18658:18662   */\n      dup2\n        /* \"#utility.yul\":18654:18674   */\n      sub\n        /* \"#utility.yul\":18650:18651   */\n      0x00\n        /* \"#utility.yul\":18639:18648   */\n      dup4\n        /* \"#utility.yul\":18635:18652   */\n      add\n        /* \"#utility.yul\":18628:18675   */\n      mstore\n        /* \"#utility.yul\":18692:18823   */\n      tag_396\n        /* \"#utility.yul\":18818:18822   */\n      dup2\n        /* \"#utility.yul\":18692:18823   */\n      tag_215\n      jump\t// in\n    tag_396:\n        /* \"#utility.yul\":18684:18823   */\n      swap1\n      pop\n        /* \"#utility.yul\":18411:18830   */\n      swap2\n      swap1\n      pop\n      jump\t// out\n        /* \"#utility.yul\":18836:19002   */\n    tag_216:\n        /* \"#utility.yul\":18976:18994   */\n      0x4e6f20737563682070726f706f73616c00000000000000000000000000000000\n        /* \"#utility.yul\":18972:18973   */\n      0x00\n        /* \"#utility.yul\":18964:18970   */\n      dup3\n        /* \"#utility.yul\":18960:18974   */\n      add\n        /* \"#utility.yul\":18953:18995   */\n      mstore\n        /* \"#utility.yul\":18836:19002   */\n      pop\n      jump\t// out\n        /* \"#utility.yul\":19008:19374   */\n    tag_217:\n        /* \"#utility.yul\":19150:19153   */\n      0x00\n        /* \"#utility.yul\":19171:19238   */\n      tag_399\n        /* \"#utility.yul\":19235:19237   */\n      0x10\n        /* \"#utility.yul\":19230:19233   */\n      dup4\n        /* \"#utility.yul\":19171:19238   */\n      tag_198\n      jump\t// in\n    tag_399:\n        /* \"#utility.yul\":19164:19238   */\n      swap2\n      pop\n        /* \"#utility.yul\":19247:19340   */\n      tag_400\n        /* \"#utility.yul\":19336:19339   */\n      dup3\n        /* \"#utility.yul\":19247:19340   */\n      tag_216\n      jump\t// in\n    tag_400:\n        /* \"#utility.yul\":19365:19367   */\n      0x20\n        /* \"#utility.yul\":19360:19363   */\n      dup3\n        /* \"#utility.yul\":19356:19368   */\n      add\n        /* \"#utility.yul\":19349:19368   */\n      swap1\n      pop\n        /* \"#utility.yul\":19008:19374   */\n      swap2\n      swap1\n      pop\n      jump\t// out\n        /* \"#utility.yul\":19380:19799   */\n    tag_152:\n        /* \"#utility.yul\":19546:19550   */\n      0x00\n        /* \"#utility.yul\":19584:19586   */\n      0x20\n        /* \"#utility.yul\":19573:19582   */\n      dup3\n        /* \"#utility.yul\":19569:19587   */\n      add\n        /* \"#utility.yul\":19561:19587   */\n      swap1\n      pop\n        /* \"#utility.yul\":19633:19642   */\n      dup2\n        /* \"#utility.yul\":19627:19631   */\n      dup2\n        /* \"#utility.yul\":19623:19643   */\n      sub\n        /* \"#utility.yul\":19619:19620   */\n      0x00\n        /* \"#utility.yul\":19608:19617   */\n      dup4\n        /* \"#utility.yul\":19604:19621   */\n      add\n        /* \"#utility.yul\":19597:19644   */\n      mstore\n        /* \"#utility.yul\":19661:19792   */\n      tag_402\n        /* \"#utility.yul\":19787:19791   */\n      dup2\n        /* \"#utility.yul\":19661:19792   */\n      tag_217\n      jump\t// in\n    tag_402:\n        /* \"#utility.yul\":19653:19792   */\n      swap1\n      pop\n        /* \"#utility.yul\":19380:19799   */\n      swap2\n      swap1\n      pop\n      jump\t// out\n        /* \"#utility.yul\":19805:19972   */\n    tag_218:\n        /* \"#utility.yul\":19945:19964   */\n      0x416c72656164792066696e616c697a6564000000000000000000000000000000\n        /* \"#utility.yul\":19941:19942   */\n      0x00\n        /* \"#utility.yul\":19933:19939   */\n      dup3\n        /* \"#utility.yul\":19929:19943   */\n      add\n        /* \"#utility.yul\":19922:19965   */\n      mstore\n        /* \"#utility.yul\":19805:19972   */\n      pop\n      jump\t// out\n        /* \"#utility.yul\":19978:20344   */\n    tag_219:\n        /* \"#utility.yul\":20120:20123   */\n      0x00\n        /* \"#utility.yul\":20141:20208   */\n      tag_405\n        /* \"#utility.yul\":20205:20207   */\n      0x11\n        /* \"#utility.yul\":20200:20203   */\n      dup4\n        /* \"#utility.yul\":20141:20208   */\n      tag_198\n      jump\t// in\n    tag_405:\n        /* \"#utility.yul\":20134:20208   */\n      swap2\n      pop\n        /* \"#utility.yul\":20217:20310   */\n      tag_406\n        /* \"#utility.yul\":20306:20309   */\n      dup3\n        /* \"#utility.yul\":20217:20310   */\n      tag_218\n      jump\t// in\n    tag_406:\n        /* \"#utility.yul\":20335:20337   */\n      0x20\n        /* \"#utility.yul\":20330:20333   */\n      dup3\n        /* \"#utility.yul\":20326:20338   */\n      add\n        /* \"#utility.yul\":20319:20338   */\n      swap1\n      pop\n        /* \"#utility.yul\":19978:20344   */\n      swap2\n      swap1\n      pop\n      jump\t// out\n        /* \"#utility.yul\":20350:20769   */\n    tag_155:\n        /* \"#utility.yul\":20516:20520   */\n      0x00\n        /* \"#utility.yul\":20554:20556   */\n      0x20\n        /* \"#utility.yul\":20543:20552   */\n      dup3\n        /* \"#utility.yul\":20539:20557   */\n      add\n        /* \"#utility.yul\":20531:20557   */\n      swap1\n      pop\n        /* \"#utility.yul\":20603:20612   */\n      dup2\n        /* \"#utility.yul\":20597:20601   */\n      dup2\n        /* \"#utility.yul\":20593:20613   */\n      sub\n        /* \"#utility.yul\":20589:20590   */\n      0x00\n        /* \"#utility.yul\":20578:20587   */\n      dup4\n        /* \"#utility.yul\":20574:20591   */\n      add\n        /* \"#utility.yul\":20567:20614   */\n      mstore\n        /* \"#utility.yul\":20631:20762   */\n      tag_408\n        /* \"#utility.yul\":20757:20761   */\n      dup2\n        /* \"#utility.yul\":20631:20762   */\n      tag_219\n      jump\t// in\n    tag_408:\n        /* \"#utility.yul\":20623:20762   */\n      swap1\n      pop\n        /* \"#utility.yul\":20350:20769   */\n      swap2\n      swap1\n      pop\n      jump\t// out\n        /* \"#utility.yul\":20775:20945   */\n    tag_220:\n        /* \"#utility.yul\":20915:20937   */\n      0x4e6f7420656e6f75676820617070726f76616c73000000000000000000000000\n        /* \"#utility.yul\":20911:20912   */\n      0x00\n        /* \"#utility.yul\":20903:20909   */\n      dup3\n        /* \"#utility.yul\":20899:20913   */\n      add\n        /* \"#utility.yul\":20892:20938   */\n      mstore\n        /* \"#utility.yul\":20775:20945   */\n      pop\n      jump\t// out\n        /* \"#utility.yul\":20951:21317   */\n    tag_221:\n        /* \"#utility.yul\":21093:21096   */\n      0x00\n        /* \"#utility.yul\":21114:21181   */\n      tag_411\n        /* \"#utility.yul\":21178:21180   */\n      0x14\n        /* \"#utility.yul\":21173:21176   */\n      dup4\n        /* \"#utility.yul\":21114:21181   */\n      tag_198\n      jump\t// in\n    tag_411:\n        /* \"#utility.yul\":21107:21181   */\n      swap2\n      pop\n        /* \"#utility.yul\":21190:21283   */\n      tag_412\n        /* \"#utility.yul\":21279:21282   */\n      dup3\n        /* \"#utility.yul\":21190:21283   */\n      tag_220\n      jump\t// in\n    tag_412:\n        /* \"#utility.yul\":21308:21310   */\n      0x20\n        /* \"#utility.yul\":21303:21306   */\n      dup3\n        /* \"#utility.yul\":21299:21311   */\n      add\n        /* \"#utility.yul\":21292:21311   */\n      swap1\n      pop\n        /* \"#utility.yul\":20951:21317   */\n      swap2\n      swap1\n      pop\n      jump\t// out\n        /* \"#utility.yul\":21323:21742   */\n    tag_158:\n        /* \"#utility.yul\":21489:21493   */\n      0x00\n        /* \"#utility.yul\":21527:21529   */\n      0x20\n        /* \"#utility.yul\":21516:21525   */\n      dup3\n        /* \"#utility.yul\":21512:21530   */\n      add\n        /* \"#utility.yul\":21504:21530   */\n      swap1\n      pop\n        /* \"#utility.yul\":21576:21585   */\n      dup2\n        /* \"#utility.yul\":21570:21574   */\n      dup2\n        /* \"#utility.yul\":21566:21586   */\n      sub\n        /* \"#utility.yul\":21562:21563   */\n      0x00\n        /* \"#utility.yul\":21551:21560   */\n      dup4\n        /* \"#utility.yul\":21547:21564   */\n      add\n        /* \"#utility.yul\":21540:21587   */\n      mstore\n        /* \"#utility.yul\":21604:21735   */\n      tag_414\n        /* \"#utility.yul\":21730:21734   */\n      dup2\n        /* \"#utility.yul\":21604:21735   */\n      tag_221\n      jump\t// in\n    tag_414:\n        /* \"#utility.yul\":21596:21735   */\n      swap1\n      pop\n        /* \"#utility.yul\":21323:21742   */\n      swap2\n      swap1\n      pop\n      jump\t// out\n        /* \"#utility.yul\":21748:22190   */\n    tag_160:\n        /* \"#utility.yul\":21897:21901   */\n      0x00\n        /* \"#utility.yul\":21935:21937   */\n      0x60\n        /* \"#utility.yul\":21924:21933   */\n      dup3\n        /* \"#utility.yul\":21920:21938   */\n      add\n        /* \"#utility.yul\":21912:21938   */\n      swap1\n      pop\n        /* \"#utility.yul\":21948:22019   */\n      tag_416\n        /* \"#utility.yul\":22016:22017   */\n      0x00\n        /* \"#utility.yul\":22005:22014   */\n      dup4\n        /* \"#utility.yul\":22001:22018   */\n      add\n        /* \"#utility.yul\":21992:21998   */\n      dup7\n        /* \"#utility.yul\":21948:22019   */\n      tag_194\n      jump\t// in\n    tag_416:\n        /* \"#utility.yul\":22029:22101   */\n      tag_417\n        /* \"#utility.yul\":22097:22099   */\n      0x20\n        /* \"#utility.yul\":22086:22095   */\n      dup4\n        /* \"#utility.yul\":22082:22100   */\n      add\n        /* \"#utility.yul\":22073:22079   */\n      dup6\n        /* \"#utility.yul\":22029:22101   */\n      tag_194\n      jump\t// in\n    tag_417:\n        /* \"#utility.yul\":22111:22183   */\n      tag_418\n        /* \"#utility.yul\":22179:22181   */\n      0x40\n        /* \"#utility.yul\":22168:22177   */\n      dup4\n        /* \"#utility.yul\":22164:22182   */\n      add\n        /* \"#utility.yul\":22155:22161   */\n      dup5\n        /* \"#utility.yul\":22111:22183   */\n      tag_185\n      jump\t// in\n    tag_418:\n        /* \"#utility.yul\":21748:22190   */\n      swap5\n      swap4\n      pop\n      pop\n      pop\n      pop\n      jump\t// out\n        /* \"#utility.yul\":22196:22749   */\n    tag_174:\n        /* \"#utility.yul\":22373:22377   */\n      0x00\n        /* \"#utility.yul\":22411:22414   */\n      0x80\n        /* \"#utility.yul\":22400:22409   */\n      dup3\n        /* \"#utility.yul\":22396:22415   */\n      add\n        /* \"#utility.yul\":22388:22415   */\n      swap1\n      pop\n        /* \"#utility.yul\":22425:22496   */\n      tag_420\n        /* \"#utility.yul\":22493:22494   */\n      0x00\n        /* \"#utility.yul\":22482:22491   */\n      dup4\n        /* \"#utility.yul\":22478:22495   */\n      add\n        /* \"#utility.yul\":22469:22475   */\n      dup8\n        /* \"#utility.yul\":22425:22496   */\n      tag_194\n      jump\t// in\n    tag_420:\n        /* \"#utility.yul\":22506:22578   */\n      tag_421\n        /* \"#utility.yul\":22574:22576   */\n      0x20\n        /* \"#utility.yul\":22563:22572   */\n      dup4\n        /* \"#utility.yul\":22559:22577   */\n      add\n        /* \"#utility.yul\":22550:22556   */\n      dup7\n        /* \"#utility.yul\":22506:22578   */\n      tag_194\n      jump\t// in\n    tag_421:\n        /* \"#utility.yul\":22588:22660   */\n      tag_422\n        /* \"#utility.yul\":22656:22658   */\n      0x40\n        /* \"#utility.yul\":22645:22654   */\n      dup4\n        /* \"#utility.yul\":22641:22659   */\n      add\n        /* \"#utility.yul\":22632:22638   */\n      dup6\n        /* \"#utility.yul\":22588:22660   */\n      tag_197\n      jump\t// in\n    tag_422:\n        /* \"#utility.yul\":22670:22742   */\n      tag_423\n        /* \"#utility.yul\":22738:22740   */\n      0x60\n        /* \"#utility.yul\":22727:22736   */\n      dup4\n        /* \"#utility.yul\":22723:22741   */\n      add\n        /* \"#utility.yul\":22714:22720   */\n      dup5\n        /* \"#utility.yul\":22670:22742   */\n      tag_185\n      jump\t// in\n    tag_423:\n        /* \"#utility.yul\":22196:22749   */\n      swap6\n      swap5\n      pop\n      pop\n      pop\n      pop\n      pop\n      jump\t// out\n\n    auxdata: 0xa264697066735822122025cd83e4741a3e43efe38b83659661d1424dc0ce197c898feda031437dfd066964736f6c634300081e0033\n}\n",
				"bytecode": {
					"linkReferences": {},
					"object": "608060405234801561000f575f5ffd5b50604051611ecc380380611ecc8339818101604052810190610031919061017a565b335f5f6101000a81548173ffffffffffffffffffffffffffffffffffffffff021916908373ffffffffffffffffffffffffffffffffffffffff16021790555080600181905550600160025f3373ffffffffffffffffffffffffffffffffffffffff1673ffffffffffffffffffffffffffffffffffffffff1681526020019081526020015f205f6101000a81548160ff0219169083151502179055507f2594c7e2dc67dba873b8fcc63bc8a5ee2c8b37fa772f132594cfc90bb82e0fe93360016040516100fe9291906101fe565b60405180910390a17ff18f88786aae85a652aadb99a82462616489a33370c9bcc7b245906812ef7cd1816040516101359190610234565b60405180910390a15061024d565b5f5ffd5b5f819050919050565b61015981610147565b8114610163575f5ffd5b50565b5f8151905061017481610150565b92915050565b5f6020828403121561018f5761018e610143565b5b5f61019c84828501610166565b91505092915050565b5f73ffffffffffffffffffffffffffffffffffffffff82169050919050565b5f6101ce826101a5565b9050919050565b6101de816101c4565b82525050565b5f8115159050919050565b6101f8816101e4565b82525050565b5f6040820190506102115f8301856101d5565b61021e60208301846101ef565b9392505050565b61022e81610147565b82525050565b5f6020820190506102475f830184610225565b92915050565b611c728061025a5f395ff3fe608060405234801561000f575f5ffd5b5060043610610114575f3560e01c80638f4f5ddd116100a0578063dc791cc91161006f578063dc791cc914610354578063dfb42fd114610384578063f04e4ca3146103b9578063f59e292e146103d5578063f851a440146103f157610114565b80638f4f5ddd146102a3578063c1ba4e59146102d3578063cf2b1531146102ef578063d623be161461032457610114565b80633e534788116100e75780633e534788146101c657806341addb7b146101f65780635af2f43114610212578063764addb0146102425780638b104b441461027357610114565b806301750152146101185780631703a018146101485780631dc4bd6c1461016657806334ef78ef14610196575b5f5ffd5b610132600480360381019061012d9190611231565b61040f565b60405161013f9190611276565b60405180910390f35b61015061042c565b60405161015d91906112a7565b60405180910390f35b610180600480360381019061017b919061131d565b610432565b60405161018d91906113f2565b60405180910390f35b6101b060048036038101906101ab919061140b565b6104a8565b6040516101bd9190611491565b60405180910390f35b6101e060048036038101906101db91906114aa565b61079e565b6040516101ed91906112a7565b60405180910390f35b610210600480360381019061020b9190611512565b6107be565b005b61022c60048036038101906102279190611550565b6108dd565b60405161023991906112a7565b60405180910390f35b61025c60048036038101906102579190611550565b6108f2565b60405161026a92919061157b565b60405180910390f35b61028d60048036038101906102889190611550565b610921565b60405161029a9190611491565b60405180910390f35b6102bd60048036038101906102b891906115a2565b610936565b6040516102ca9190611276565b60405180910390f35b6102ed60048036038101906102e891906115f2565b61096b565b005b6103096004803603810190610304919061131d565b610a7e565b60405161031b9695949392919061161d565b60405180910390f35b61033e600480360381019061033991906114aa565b610ac1565b60405161034b9190611276565b60405180910390f35b61036e600480360381019061036991906114aa565b610aeb565b60405161037b9190611276565b60405180910390f35b61039e600480360381019061039991906114aa565b610b15565b6040516103b09695949392919061161d565b60405180910390f35b6103d360048036038101906103ce91906114aa565b610b58565b005b6103ef60048036038101906103ea91906114aa565b610e97565b005b6103f9611007565b604051610406919061168b565b60405180910390f35b6002602052805f5260405f205f915054906101000a900460ff1681565b60015481565b61043a6111a3565b60035f8481526020019081526020015f205f8381526020019081526020015f206040518060c00160405290815f820154815260200160018201548152602001600282015481526020016003820154815260200160048201548152602001600582015481525050905092915050565b5f60025f3373ffffffffffffffffffffffffffffffffffffffff1673ffffffffffffffffffffffffffffffffffffffff1681526020019081526020015f205f9054906101000a900460ff16610532576040517f08c379a0000000000000000000000000000000000000000000000000000000008152600401610529906116fe565b60405180910390fd5b600160045f8881526020019081526020015f20546105509190611749565b8514610591576040517f08c379a0000000000000000000000000000000000000000000000000000000008152600401610588906117c6565b60405180910390fd5b60055f8781526020019081526020015f205484146105e4576040517f08c379a00000000000000000000000000000000000000000000000000000000081526004016105db9061182e565b60405180910390fd5b5f86868686866040516020016105fe95949392919061188c565b60405160208183030381529060405280519060200120905060095f8881526020019081526020015f205f8281526020019081526020015f205f9054906101000a900460ff1615610683576040517f08c379a000000000000000000000000000000000000000000000000000000000815260040161067a90611934565b60405180910390fd5b5f6040518060c001604052808881526020018781526020018681526020018581526020018381526020014281525090508060085f8a81526020019081526020015f205f8481526020019081526020015f205f820151815f01556020820151816001015560408201518160020155606082015181600301556080820151816004015560a08201518160050155905050600160095f8a81526020019081526020015f205f8481526020019081526020015f205f6101000a81548160ff0219169083151502179055507f51d7cc0ea5b00d3c1c1eff0d06862630b4ca2795e9d1be3ccca63c417b48086d8883898860405161077e9493929190611952565b60405180910390a1610790888361102b565b819250505095945050505050565b6006602052815f5260405f20602052805f5260405f205f91509150505481565b5f5f9054906101000a900473ffffffffffffffffffffffffffffffffffffffff1673ffffffffffffffffffffffffffffffffffffffff163373ffffffffffffffffffffffffffffffffffffffff161461084c576040517f08c379a0000000000000000000000000000000000000000000000000000000008152600401610843906119df565b60405180910390fd5b8060025f8473ffffffffffffffffffffffffffffffffffffffff1673ffffffffffffffffffffffffffffffffffffffff1681526020019081526020015f205f6101000a81548160ff0219169083151502179055507f2594c7e2dc67dba873b8fcc63bc8a5ee2c8b37fa772f132594cfc90bb82e0fe982826040516108d19291906119fd565b60405180910390a15050565b6004602052805f5260405f205f915090505481565b5f5f60045f8481526020019081526020015f205460055f8581526020019081526020015f205491509150915091565b6005602052805f5260405f205f915090505481565b6007602052825f5260405f20602052815f5260405f20602052805f5260405f205f92509250509054906101000a900460ff1681565b5f5f9054906101000a900473ffffffffffffffffffffffffffffffffffffffff1673ffffffffffffffffffffffffffffffffffffffff163373ffffffffffffffffffffffffffffffffffffffff16146109f9576040517f08c379a00000000000000000000000000000000000000000000000000000000081526004016109f0906119df565b60405180910390fd5b6001811015610a3d576040517f08c379a0000000000000000000000000000000000000000000000000000000008152600401610a3490611a6e565b60405180910390fd5b806001819055507ff18f88786aae85a652aadb99a82462616489a33370c9bcc7b245906812ef7cd181604051610a7391906112a7565b60405180910390a150565b6003602052815f5260405f20602052805f5260405f205f9150915050805f0154908060010154908060020154908060030154908060040154908060050154905086565b600a602052815f5260405f20602052805f5260405f205f915091509054906101000a900460ff1681565b6009602052815f5260405f20602052805f5260405f205f915091509054906101000a900460ff1681565b6008602052815f5260405f20602052805f5260405f205f9150915050805f0154908060010154908060020154908060030154908060040154908060050154905086565b60025f3373ffffffffffffffffffffffffffffffffffffffff1673ffffffffffffffffffffffffffffffffffffffff1681526020019081526020015f205f9054906101000a900460ff16610be1576040517f08c379a0000000000000000000000000000000000000000000000000000000008152600401610bd8906116fe565b60405180910390fd5b60095f8381526020019081526020015f205f8281526020019081526020015f205f9054906101000a900460ff16610c4d576040517f08c379a0000000000000000000000000000000000000000000000000000000008152600401610c4490611ad6565b60405180910390fd5b600a5f8381526020019081526020015f205f8281526020019081526020015f205f9054906101000a900460ff1615610cba576040517f08c379a0000000000000000000000000000000000000000000000000000000008152600401610cb190611b3e565b60405180910390fd5b60015460065f8481526020019081526020015f205f8381526020019081526020015f20541015610d1f576040517f08c379a0000000000000000000000000000000000000000000000000000000008152600401610d1690611ba6565b60405180910390fd5b5f60085f8481526020019081526020015f205f8381526020019081526020015f206040518060c00160405290815f82015481526020016001820154815260200160028201548152602001600382015481526020016004820154815260200160058201548152505090508060035f8581526020019081526020015f205f835f015181526020019081526020015f205f820151815f01556020820151816001015560408201518160020155606082015181600301556080820151816004015560a08201518160050155905050805f015160045f8581526020019081526020015f2081905550806080015160055f8581526020019081526020015f20819055506001600a5f8581526020019081526020015f205f8481526020019081526020015f205f6101000a81548160ff0219169083151502179055507fe87ca8b6e4c0c3d2c47e459bfe4ae13698ba00331ec65fd1088451c80e3a39e78383835f0151604051610e8a93929190611bc4565b60405180910390a1505050565b60025f3373ffffffffffffffffffffffffffffffffffffffff1673ffffffffffffffffffffffffffffffffffffffff1681526020019081526020015f205f9054906101000a900460ff16610f20576040517f08c379a0000000000000000000000000000000000000000000000000000000008152600401610f17906116fe565b60405180910390fd5b60095f8381526020019081526020015f205f8281526020019081526020015f205f9054906101000a900460ff16610f8c576040517f08c379a0000000000000000000000000000000000000000000000000000000008152600401610f8390611ad6565b60405180910390fd5b600a5f8381526020019081526020015f205f8281526020019081526020015f205f9054906101000a900460ff1615610ff9576040517f08c379a0000000000000000000000000000000000000000000000000000000008152600401610ff090611b3e565b60405180910390fd5b611003828261102b565b5050565b5f5f9054906101000a900473ffffffffffffffffffffffffffffffffffffffff1681565b60075f8381526020019081526020015f205f8281526020019081526020015f205f3373ffffffffffffffffffffffffffffffffffffffff1673ffffffffffffffffffffffffffffffffffffffff1681526020019081526020015f205f9054906101000a900460ff1661119f57600160075f8481526020019081526020015f205f8381526020019081526020015f205f3373ffffffffffffffffffffffffffffffffffffffff1673ffffffffffffffffffffffffffffffffffffffff1681526020019081526020015f205f6101000a81548160ff021916908315150217905550600160065f8481526020019081526020015f205f8381526020019081526020015f205f82825461113a9190611749565b925050819055507f0f79f4badf9148332d9b98dbcb97180529bdaa7c60cbff0ed66f78c43cf1555f82823360065f8781526020019081526020015f205f8681526020019081526020015f20546040516111969493929190611bf9565b60405180910390a15b5050565b6040518060c001604052805f81526020015f81526020015f81526020015f81526020015f81526020015f81525090565b5f5ffd5b5f73ffffffffffffffffffffffffffffffffffffffff82169050919050565b5f611200826111d7565b9050919050565b611210816111f6565b811461121a575f5ffd5b50565b5f8135905061122b81611207565b92915050565b5f60208284031215611246576112456111d3565b5b5f6112538482850161121d565b91505092915050565b5f8115159050919050565b6112708161125c565b82525050565b5f6020820190506112895f830184611267565b92915050565b5f819050919050565b6112a18161128f565b82525050565b5f6020820190506112ba5f830184611298565b92915050565b5f819050919050565b6112d2816112c0565b81146112dc575f5ffd5b50565b5f813590506112ed816112c9565b92915050565b6112fc8161128f565b8114611306575f5ffd5b50565b5f81359050611317816112f3565b92915050565b5f5f60408385031215611333576113326111d3565b5b5f611340858286016112df565b925050602061135185828601611309565b9150509250929050565b6113648161128f565b82525050565b611373816112c0565b82525050565b60c082015f82015161138d5f85018261135b565b5060208201516113a0602085018261136a565b5060408201516113b3604085018261136a565b5060608201516113c6606085018261135b565b5060808201516113d9608085018261136a565b5060a08201516113ec60a085018261135b565b50505050565b5f60c0820190506114055f830184611379565b92915050565b5f5f5f5f5f60a08688031215611424576114236111d3565b5b5f611431888289016112df565b955050602061144288828901611309565b9450506040611453888289016112df565b9350506060611464888289016112df565b925050608061147588828901611309565b9150509295509295909350565b61148b816112c0565b82525050565b5f6020820190506114a45f830184611482565b92915050565b5f5f604083850312156114c0576114bf6111d3565b5b5f6114cd858286016112df565b92505060206114de858286016112df565b9150509250929050565b6114f18161125c565b81146114fb575f5ffd5b50565b5f8135905061150c816114e8565b92915050565b5f5f60408385031215611528576115276111d3565b5b5f6115358582860161121d565b9250506020611546858286016114fe565b9150509250929050565b5f60208284031215611565576115646111d3565b5b5f611572848285016112df565b91505092915050565b5f60408201905061158e5f830185611298565b61159b6020830184611482565b9392505050565b5f5f5f606084860312156115b9576115b86111d3565b5b5f6115c6868287016112df565b93505060206115d7868287016112df565b92505060406115e88682870161121d565b9150509250925092565b5f60208284031215611607576116066111d3565b5b5f61161484828501611309565b91505092915050565b5f60c0820190506116305f830189611298565b61163d6020830188611482565b61164a6040830187611482565b6116576060830186611298565b6116646080830185611482565b61167160a0830184611298565b979650505050505050565b611685816111f6565b82525050565b5f60208201905061169e5f83018461167c565b92915050565b5f82825260208201905092915050565b7f4e6f7420617574686f72697a6564206e6f6465000000000000000000000000005f82015250565b5f6116e86013836116a4565b91506116f3826116b4565b602082019050919050565b5f6020820190508181035f830152611715816116dc565b9050919050565b7f4e487b71000000000000000000000000000000000000000000000000000000005f52601160045260245ffd5b5f6117538261128f565b915061175e8361128f565b92508282019050808211156117765761177561171c565b5b92915050565b7f42616420686569676874000000000000000000000000000000000000000000005f82015250565b5f6117b0600a836116a4565b91506117bb8261177c565b602082019050919050565b5f6020820190508181035f8301526117dd816117a4565b9050919050565b7f42616420707265762068617368000000000000000000000000000000000000005f82015250565b5f611818600d836116a4565b9150611823826117e4565b602082019050919050565b5f6020820190508181035f8301526118458161180c565b9050919050565b5f819050919050565b611866611861826112c0565b61184c565b82525050565b5f819050919050565b6118866118818261128f565b61186c565b82525050565b5f6118978288611855565b6020820191506118a78287611875565b6020820191506118b78286611855565b6020820191506118c78285611855565b6020820191506118d78284611875565b6020820191508190509695505050505050565b7f416c72656164792070726f706f736564000000000000000000000000000000005f82015250565b5f61191e6010836116a4565b9150611929826118ea565b602082019050919050565b5f6020820190508181035f83015261194b81611912565b9050919050565b5f6080820190506119655f830187611482565b6119726020830186611482565b61197f6040830185611298565b61198c6060830184611482565b95945050505050565b7f4e6f742061646d696e00000000000000000000000000000000000000000000005f82015250565b5f6119c96009836116a4565b91506119d482611995565b602082019050919050565b5f6020820190508181035f8301526119f6816119bd565b9050919050565b5f604082019050611a105f83018561167c565b611a1d6020830184611267565b9392505050565b7f71756f72756d20746f6f206c6f770000000000000000000000000000000000005f82015250565b5f611a58600e836116a4565b9150611a6382611a24565b602082019050919050565b5f6020820190508181035f830152611a8581611a4c565b9050919050565b7f4e6f20737563682070726f706f73616c000000000000000000000000000000005f82015250565b5f611ac06010836116a4565b9150611acb82611a8c565b602082019050919050565b5f6020820190508181035f830152611aed81611ab4565b9050919050565b7f416c72656164792066696e616c697a65640000000000000000000000000000005f82015250565b5f611b286011836116a4565b9150611b3382611af4565b602082019050919050565b5f6020820190508181035f830152611b5581611b1c565b9050919050565b7f4e6f7420656e6f75676820617070726f76616c730000000000000000000000005f82015250565b5f611b906014836116a4565b9150611b9b82611b5c565b602082019050919050565b5f6020820190508181035f830152611bbd81611b84565b9050919050565b5f606082019050611bd75f830186611482565b611be46020830185611482565b611bf16040830184611298565b949350505050565b5f608082019050611c0c5f830187611482565b611c196020830186611482565b611c26604083018561167c565b611c336060830184611298565b9594505050505056fea264697066735822122025cd83e4741a3e43efe38b83659661d1424dc0ce197c898feda031437dfd066964736f6c634300081e0033",
					"opcodes": "PUSH1 0x80 PUSH1 0x40 MSTORE CALLVALUE DUP1 ISZERO PUSH2 0xF JUMPI PUSH0 PUSH0 REVERT JUMPDEST POP PUSH1 0x40 MLOAD PUSH2 0x1ECC CODESIZE SUB DUP1 PUSH2 0x1ECC DUP4 CODECOPY DUP2 DUP2 ADD PUSH1 0x40 MSTORE DUP2 ADD SWAP1 PUSH2 0x31 SWAP2 SWAP1 PUSH2 0x17A JUMP JUMPDEST CALLER PUSH0 PUSH0 PUSH2 0x100 EXP DUP2 SLOAD DUP2 PUSH20 0xFFFFFFFFFFFFFFFFFFFFFFFFFFFFFFFFFFFFFFFF MUL NOT AND SWAP1 DUP4 PUSH20 0xFFFFFFFFFFFFFFFFFFFFFFFFFFFFFFFFFFFFFFFF AND MUL OR SWAP1 SSTORE POP DUP1 PUSH1 0x1 DUP2 SWAP1 SSTORE POP PUSH1 0x1 PUSH1 0x2 PUSH0 CALLER PUSH20 0xFFFFFFFFFFFFFFFFFFFFFFFFFFFFFFFFFFFFFFFF AND PUSH20 0xFFFFFFFFFFFFFFFFFFFFFFFFFFFFFFFFFFFFFFFF AND DUP2 MSTORE PUSH1 0x20 ADD SWAP1 DUP2 MSTORE PUSH1 0x20 ADD PUSH0 KECCAK256 PUSH0 PUSH2 0x100 EXP DUP2 SLOAD DUP2 PUSH1 0xFF MUL NOT AND SWAP1 DUP4 ISZERO ISZERO MUL OR SWAP1 SSTORE POP PUSH32 0x2594C7E2DC67DBA873B8FCC63BC8A5EE2C8B37FA772F132594CFC90BB82E0FE9 CALLER PUSH1 0x1 PUSH1 0x40 MLOAD PUSH2 0xFE SWAP3 SWAP2 SWAP1 PUSH2 0x1FE JUMP JUMPDEST PUSH1 0x40 MLOAD DUP1 SWAP2 SUB SWAP1 LOG1 PUSH32 0xF18F88786AAE85A652AADB99A82462616489A33370C9BCC7B245906812EF7CD1 DUP2 PUSH1 0x40 MLOAD PUSH2 0x135 SWAP2 SWAP1 PUSH2 0x234 JUMP JUMPDEST PUSH1 0x40 MLOAD DUP1 SWAP2 SUB SWAP1 LOG1 POP PUSH2 0x24D JUMP JUMPDEST PUSH0 PUSH0 REVERT JUMPDEST PUSH0 DUP2 SWAP1 POP SWAP2 SWAP1 POP JUMP JUMPDEST PUSH2 0x159 DUP2 PUSH2 0x147 JUMP JUMPDEST DUP2 EQ PUSH2 0x163 JUMPI PUSH0 PUSH0 REVERT JUMPDEST POP JUMP JUMPDEST PUSH0 DUP2 MLOAD SWAP1 POP PUSH2 0x174 DUP2 PUSH2 0x150 JUMP JUMPDEST SWAP3 SWAP2 POP POP JUMP JUMPDEST PUSH0 PUSH1 0x20 DUP3 DUP5 SUB SLT ISZERO PUSH2 0x18F JUMPI PUSH2 0x18E PUSH2 0x143 JUMP JUMPDEST JUMPDEST PUSH0 PUSH2 0x19C DUP5 DUP3 DUP6 ADD PUSH2 0x166 JUMP JUMPDEST SWAP2 POP POP SWAP3 SWAP2 POP POP JUMP JUMPDEST PUSH0 PUSH20 0xFFFFFFFFFFFFFFFFFFFFFFFFFFFFFFFFFFFFFFFF DUP3 AND SWAP1 POP SWAP2 SWAP1 POP JUMP JUMPDEST PUSH0 PUSH2 0x1CE DUP3 PUSH2 0x1A5 JUMP JUMPDEST SWAP1 POP SWAP2 SWAP1 POP JUMP JUMPDEST PUSH2 0x1DE DUP2 PUSH2 0x1C4 JUMP JUMPDEST DUP3 MSTORE POP POP JUMP JUMPDEST PUSH0 DUP2 ISZERO ISZERO SWAP1 POP SWAP2 SWAP1 POP JUMP JUMPDEST PUSH2 0x1F8 DUP2 PUSH2 0x1E4 JUMP JUMPDEST DUP3 MSTORE POP POP JUMP JUMPDEST PUSH0 PUSH1 0x40 DUP3 ADD SWAP1 POP PUSH2 0x211 PUSH0 DUP4 ADD DUP6 PUSH2 0x1D5 JUMP JUMPDEST PUSH2 0x21E PUSH1 0x20 DUP4 ADD DUP5 PUSH2 0x1EF JUMP JUMPDEST SWAP4 SWAP3 POP POP POP JUMP JUMPDEST PUSH2 0x22E DUP2 PUSH2 0x147 JUMP JUMPDEST DUP3 MSTORE POP POP JUMP JUMPDEST PUSH0 PUSH1 0x20 DUP3 ADD SWAP1 POP PUSH2 0x247 PUSH0 DUP4 ADD DUP5 PUSH2 0x225 JUMP JUMPDEST SWAP3 SWAP2 POP POP JUMP JUMPDEST PUSH2 0x1C72 DUP1 PUSH2 0x25A PUSH0 CODECOPY PUSH0 RETURN INVALID PUSH1 0x80 PUSH1 0x40 MSTORE CALLVALUE DUP1 ISZERO PUSH2 0xF JUMPI PUSH0 PUSH0 REVERT JUMPDEST POP PUSH1 0x4 CALLDATASIZE LT PUSH2 0x114 JUMPI PUSH0 CALLDATALOAD PUSH1 0xE0 SHR DUP1 PUSH4 0x8F4F5DDD GT PUSH2 0xA0 JUMPI DUP1 PUSH4 0xDC791CC9 GT PUSH2 0x6F JUMPI DUP1 PUSH4 0xDC791CC9 EQ PUSH2 0x354 JUMPI DUP1 PUSH4 0xDFB42FD1 EQ PUSH2 0x384 JUMPI DUP1 PUSH4 0xF04E4CA3 EQ PUSH2 0x3B9 JUMPI DUP1 PUSH4 0xF59E292E EQ PUSH2 0x3D5 JUMPI DUP1 PUSH4 0xF851A440 EQ PUSH2 0x3F1 JUMPI PUSH2 0x114 JUMP JUMPDEST DUP1 PUSH4 0x8F4F5DDD EQ PUSH2 0x2A3 JUMPI DUP1 PUSH4 0xC1BA4E59 EQ PUSH2 0x2D3 JUMPI DUP1 PUSH4 0xCF2B1531 EQ PUSH2 0x2EF JUMPI DUP1 PUSH4 0xD623BE16 EQ PUSH2 0x324 JUMPI PUSH2 0x114 JUMP JUMPDEST DUP1 PUSH4 0x3E534788 GT PUSH2 0xE7 JUMPI DUP1 PUSH4 0x3E534788 EQ PUSH2 0x1C6 JUMPI DUP1 PUSH4 0x41ADDB7B EQ PUSH2 0x1F6 JUMPI DUP1 PUSH4 0x5AF2F431 EQ PUSH2 0x212 JUMPI DUP1 PUSH4 0x764ADDB0 EQ PUSH2 0x242 JUMPI DUP1 PUSH4 0x8B104B44 EQ PUSH2 0x273 JUMPI PUSH2 0x114 JUMP JUMPDEST DUP1 PUSH4 0x1750152 EQ PUSH2 0x118 JUMPI DUP1 PUSH4 0x1703A018 EQ PUSH2 0x148 JUMPI DUP1 PUSH4 0x1DC4BD6C EQ PUSH2 0x166 JUMPI DUP1 PUSH4 0x34EF78EF EQ PUSH2 0x196 JUMPI JUMPDEST PUSH0 PUSH0 REVERT JUMPDEST PUSH2 0x132 PUSH1 0x4 DUP1 CALLDATASIZE SUB DUP2 ADD SWAP1 PUSH2 0x12D SWAP2 SWAP1 PUSH2 0x1231 JUMP JUMPDEST PUSH2 0x40F JUMP JUMPDEST PUSH1 0x40 MLOAD PUSH2 0x13F SWAP2 SWAP1 PUSH2 0x1276 JUMP JUMPDEST PUSH1 0x40 MLOAD DUP1 SWAP2 SUB SWAP1 RETURN JUMPDEST PUSH2 0x150 PUSH2 0x42C JUMP JUMPDEST PUSH1 0x40 MLOAD PUSH2 0x15D SWAP2 SWAP1 PUSH2 0x12A7 JUMP JUMPDEST PUSH1 0x40 MLOAD DUP1 SWAP2 SUB SWAP1 RETURN JUMPDEST PUSH2 0x180 PUSH1 0x4 DUP1 CALLDATASIZE SUB DUP2 ADD SWAP1 PUSH2 0x17B SWAP2 SWAP1 PUSH2 0x131D JUMP JUMPDEST PUSH2 0x432 JUMP JUMPDEST PUSH1 0x40 MLOAD PUSH2 0x18D SWAP2 SWAP1 PUSH2 0x13F2 JUMP JUMPDEST PUSH1 0x40 MLOAD DUP1 SWAP2 SUB SWAP1 RETURN JUMPDEST PUSH2 0x1B0 PUSH1 0x4 DUP1 CALLDATASIZE SUB DUP2 ADD SWAP1 PUSH2 0x1AB SWAP2 SWAP1 PUSH2 0x140B JUMP JUMPDEST PUSH2 0x4A8 JUMP JUMPDEST PUSH1 0x40 MLOAD PUSH2 0x1BD SWAP2 SWAP1 PUSH2 0x1491 JUMP JUMPDEST PUSH1 0x40 MLOAD DUP1 SWAP2 SUB SWAP1 RETURN JUMPDEST PUSH2 0x1E0 PUSH1 0x4 DUP1 CALLDATASIZE SUB DUP2 ADD SWAP1 PUSH2 0x1DB SWAP2 SWAP1 PUSH2 0x14AA JUMP JUMPDEST PUSH2 0x79E JUMP JUMPDEST PUSH1 0x40 MLOAD PUSH2 0x1ED SWAP2 SWAP1 PUSH2 0x12A7 JUMP JUMPDEST PUSH1 0x40 MLOAD DUP1 SWAP2 SUB SWAP1 RETURN JUMPDEST PUSH2 0x210 PUSH1 0x4 DUP1 CALLDATASIZE SUB DUP2 ADD SWAP1 PUSH2 0x20B SWAP2 SWAP1 PUSH2 0x1512 JUMP JUMPDEST PUSH2 0x7BE JUMP JUMPDEST STOP JUMPDEST PUSH2 0x22C PUSH1 0x4 DUP1 CALLDATASIZE SUB DUP2 ADD SWAP1 PUSH2 0x227 SWAP2 SWAP1 PUSH2 0x1550 JUMP JUMPDEST PUSH2 0x8DD JUMP JUMPDEST PUSH1 0x40 MLOAD PUSH2 0x239 SWAP2 SWAP1 PUSH2 0x12A7 JUMP JUMPDEST PUSH1 0x40 MLOAD DUP1 SWAP2 SUB SWAP1 RETURN JUMPDEST PUSH2 0x25C PUSH1 0x4 DUP1 CALLDATASIZE SUB DUP2 ADD SWAP1 PUSH2 0x257 SWAP2 SWAP1 PUSH2 0x1550 JUMP JUMPDEST PUSH2 0x8F2 JUMP JUMPDEST PUSH1 0x40 MLOAD PUSH2 0x26A SWAP3 SWAP2 SWAP1 PUSH2 0x157B JUMP JUMPDEST PUSH1 0x40 MLOAD DUP1 SWAP2 SUB SWAP1 RETURN JUMPDEST PUSH2 0x28D PUSH1 0x4 DUP1 CALLDATASIZE SUB DUP2 ADD SWAP1 PUSH2 0x288 SWAP2 SWAP1 PUSH2 0x1550 JUMP JUMPDEST PUSH2 0x921 JUMP JUMPDEST PUSH1 0x40 MLOAD PUSH2 0x29A SWAP2 SWAP1 PUSH2 0x1491 JUMP JUMPDEST PUSH1 0x40 MLOAD DUP1 SWAP2 SUB SWAP1 RETURN JUMPDEST PUSH2 0x2BD PUSH1 0x4 DUP1 CALLDATASIZE SUB DUP2 ADD SWAP1 PUSH2 0x2B8 SWAP2 SWAP1 PUSH2 0x15A2 JUMP JUMPDEST PUSH2 0x936 JUMP JUMPDEST PUSH1 0x40 MLOAD PUSH2 0x2CA SWAP2 SWAP1 PUSH2 0x1276 JUMP JUMPDEST PUSH1 0x40 MLOAD DUP1 SWAP2 SUB SWAP1 RETURN JUMPDEST PUSH2 0x2ED PUSH1 0x4 DUP1 CALLDATASIZE SUB DUP2 ADD SWAP1 PUSH2 0x2E8 SWAP2 SWAP1 PUSH2 0x15F2 JUMP JUMPDEST PUSH2 0x96B JUMP JUMPDEST STOP JUMPDEST PUSH2 0x309 PUSH1 0x4 DUP1 CALLDATASIZE SUB DUP2 ADD SWAP1 PUSH2 0x304 SWAP2 SWAP1 PUSH2 0x131D JUMP JUMPDEST PUSH2 0xA7E JUMP JUMPDEST PUSH1 0x40 MLOAD PUSH2 0x31B SWAP7 SWAP6 SWAP5 SWAP4 SWAP3 SWAP2 SWAP1 PUSH2 0x161D JUMP JUMPDEST PUSH1 0x40 MLOAD DUP1 SWAP2 SUB SWAP1 RETURN JUMPDEST PUSH2 0x33E PUSH1 0x4 DUP1 CALLDATASIZE SUB DUP2 ADD SWAP1 PUSH2 0x339 SWAP2 SWAP1 PUSH2 0x14AA JUMP JUMPDEST PUSH2 0xAC1 JUMP JUMPDEST PUSH1 0x40 MLOAD PUSH2 0x34B SWAP2 SWAP1 PUSH2 0x1276 JUMP JUMPDEST PUSH1 0x40 MLOAD DUP1 SWAP2 SUB SWAP1 RETURN JUMPDEST PUSH2 0x36E PUSH1 0x4 DUP1 CALLDATASIZE SUB DUP2 ADD SWAP1 PUSH2 0x369 SWAP2 SWAP1 PUSH2 0x14AA JUMP JUMPDEST PUSH2 0xAEB JUMP JUMPDEST PUSH1 0x40 MLOAD PUSH2 0x37B SWAP2 SWAP1 PUSH2 0x1276 JUMP JUMPDEST PUSH1 0x40 MLOAD DUP1 SWAP2 SUB SWAP1 RETURN JUMPDEST PUSH2 0x39E PUSH1 0x4 DUP1 CALLDATASIZE SUB DUP2 ADD SWAP1 PUSH2 0x399 SWAP2 SWAP1 PUSH2 0x14AA JUMP JUMPDEST PUSH2 0xB15 JUMP JUMPDEST PUSH1 0x40 MLOAD PUSH2 0x3B0 SWAP7 SWAP6 SWAP5 SWAP4 SWAP3 SWAP2 SWAP1 PUSH2 0x161D JUMP JUMPDEST PUSH1 0x40 MLOAD DUP1 SWAP2 SUB SWAP1 RETURN JUMPDEST PUSH2 0x3D3 PUSH1 0x4 DUP1 CALLDATASIZE SUB DUP2 ADD SWAP1 PUSH2 0x3CE SWAP2 SWAP1 PUSH2 0x14AA JUMP JUMPDEST PUSH2 0xB58 JUMP JUMPDEST STOP JUMPDEST PUSH2 0x3EF PUSH1 0x4 DUP1 CALLDATASIZE SUB DUP2 ADD SWAP1 PUSH2 0x3EA SWAP2 SWAP1 PUSH2 0x14AA JUMP JUMPDEST PUSH2 0xE97 JUMP JUMPDEST STOP JUMPDEST PUSH2 0x3F9 PUSH2 0x1007 JUMP JUMPDEST PUSH1 0x40 MLOAD PUSH2 0x406 SWAP2 SWAP1 PUSH2 0x168B JUMP JUMPDEST PUSH1 0x40 MLOAD DUP1 SWAP2 SUB SWAP1 RETURN JUMPDEST PUSH1 0x2 PUSH1 0x20 MSTORE DUP1 PUSH0 MSTORE PUSH1 0x40 PUSH0 KECCAK256 PUSH0 SWAP2 POP SLOAD SWAP1 PUSH2 0x100 EXP SWAP1 DIV PUSH1 0xFF AND DUP2 JUMP JUMPDEST PUSH1 0x1 SLOAD DUP2 JUMP JUMPDEST PUSH2 0x43A PUSH2 0x11A3 JUMP JUMPDEST PUSH1 0x3 PUSH0 DUP5 DUP2 MSTORE PUSH1 0x20 ADD SWAP1 DUP2 MSTORE PUSH1 0x20 ADD PUSH0 KECCAK256 PUSH0 DUP4 DUP2 MSTORE PUSH1 0x20 ADD SWAP1 DUP2 MSTORE PUSH1 0x20 ADD PUSH0 KECCAK256 PUSH1 0x40 MLOAD DUP1 PUSH1 0xC0 ADD PUSH1 0x40 MSTORE SWAP1 DUP2 PUSH0 DUP3 ADD SLOAD DUP2 MSTORE PUSH1 0x20 ADD PUSH1 0x1 DUP3 ADD SLOAD DUP2 MSTORE PUSH1 0x20 ADD PUSH1 0x2 DUP3 ADD SLOAD DUP2 MSTORE PUSH1 0x20 ADD PUSH1 0x3 DUP3 ADD SLOAD DUP2 MSTORE PUSH1 0x20 ADD PUSH1 0x4 DUP3 ADD SLOAD DUP2 MSTORE PUSH1 0x20 ADD PUSH1 0x5 DUP3 ADD SLOAD DUP2 MSTORE POP POP SWAP1 POP SWAP3 SWAP2 POP POP JUMP JUMPDEST PUSH0 PUSH1 0x2 PUSH0 CALLER PUSH20 0xFFFFFFFFFFFFFFFFFFFFFFFFFFFFFFFFFFFFFFFF AND PUSH20 0xFFFFFFFFFFFFFFFFFFFFFFFFFFFFFFFFFFFFFFFF AND DUP2 MSTORE PUSH1 0x20 ADD SWAP1 DUP2 MSTORE PUSH1 0x20 ADD PUSH0 KECCAK256 PUSH0 SWAP1 SLOAD SWAP1 PUSH2 0x100 EXP SWAP1 DIV PUSH1 0xFF AND PUSH2 0x532 JUMPI PUSH1 0x40 MLOAD PUSH32 0x8C379A000000000000000000000000000000000000000000000000000000000 DUP2 MSTORE PUSH1 0x4 ADD PUSH2 0x529 SWAP1 PUSH2 0x16FE JUMP JUMPDEST PUSH1 0x40 MLOAD DUP1 SWAP2 SUB SWAP1 REVERT JUMPDEST PUSH1 0x1 PUSH1 0x4 PUSH0 DUP9 DUP2 MSTORE PUSH1 0x20 ADD SWAP1 DUP2 MSTORE PUSH1 0x20 ADD PUSH0 KECCAK256 SLOAD PUSH2 0x550 SWAP2 SWAP1 PUSH2 0x1749 JUMP JUMPDEST DUP6 EQ PUSH2 0x591 JUMPI PUSH1 0x40 MLOAD PUSH32 0x8C379A000000000000000000000000000000000000000000000000000000000 DUP2 MSTORE PUSH1 0x4 ADD PUSH2 0x588 SWAP1 PUSH2 0x17C6 JUMP JUMPDEST PUSH1 0x40 MLOAD DUP1 SWAP2 SUB SWAP1 REVERT JUMPDEST PUSH1 0x5 PUSH0 DUP8 DUP2 MSTORE PUSH1 0x20 ADD SWAP1 DUP2 MSTORE PUSH1 0x20 ADD PUSH0 KECCAK256 SLOAD DUP5 EQ PUSH2 0x5E4 JUMPI PUSH1 0x40 MLOAD PUSH32 0x8C379A000000000000000000000000000000000000000000000000000000000 DUP2 MSTORE PUSH1 0x4 ADD PUSH2 0x5DB SWAP1 PUSH2 0x182E JUMP JUMPDEST PUSH1 0x40 MLOAD DUP1 SWAP2 SUB SWAP1 REVERT JUMPDEST PUSH0 DUP7 DUP7 DUP7 DUP7 DUP7 PUSH1 0x40 MLOAD PUSH1 0x20 ADD PUSH2 0x5FE SWAP6 SWAP5 SWAP4 SWAP3 SWAP2 SWAP1 PUSH2 0x188C JUMP JUMPDEST PUSH1 0x40 MLOAD PUSH1 0x20 DUP2 DUP4 SUB SUB DUP2 MSTORE SWAP1 PUSH1 0x40 MSTORE DUP1 MLOAD SWAP1 PUSH1 0x20 ADD KECCAK256 SWAP1 POP PUSH1 0x9 PUSH0 DUP9 DUP2 MSTORE PUSH1 0x20 ADD SWAP1 DUP2 MSTORE PUSH1 0x20 ADD PUSH0 KECCAK256 PUSH0 DUP3 DUP2 MSTORE PUSH1 0x20 ADD SWAP1 DUP2 MSTORE PUSH1 0x20 ADD PUSH0 KECCAK256 PUSH0 SWAP1 SLOAD SWAP1 PUSH2 0x100 EXP SWAP1 DIV PUSH1 0xFF AND ISZERO PUSH2 0x683 JUMPI PUSH1 0x40 MLOAD PUSH32 0x8C379A000000000000000000000000000000000000000000000000000000000 DUP2 MSTORE PUSH1 0x4 ADD PUSH2 0x67A SWAP1 PUSH2 0x1934 JUMP JUMPDEST PUSH1 0x40 MLOAD DUP1 SWAP2 SUB SWAP1 REVERT JUMPDEST PUSH0 PUSH1 0x40 MLOAD DUP1 PUSH1 0xC0 ADD PUSH1 0x40 MSTORE DUP1 DUP9 DUP2 MSTORE PUSH1 0x20 ADD DUP8 DUP2 MSTORE PUSH1 0x20 ADD DUP7 DUP2 MSTORE PUSH1 0x20 ADD DUP6 DUP2 MSTORE PUSH1 0x20 ADD DUP4 DUP2 MSTORE PUSH1 0x20 ADD TIMESTAMP DUP2 MSTORE POP SWAP1 POP DUP1 PUSH1 0x8 PUSH0 DUP11 DUP2 MSTORE PUSH1 0x20 ADD SWAP1 DUP2 MSTORE PUSH1 0x20 ADD PUSH0 KECCAK256 PUSH0 DUP5 DUP2 MSTORE PUSH1 0x20 ADD SWAP1 DUP2 MSTORE PUSH1 0x20 ADD PUSH0 KECCAK256 PUSH0 DUP3 ADD MLOAD DUP2 PUSH0 ADD SSTORE PUSH1 0x20 DUP3 ADD MLOAD DUP2 PUSH1 0x1 ADD SSTORE PUSH1 0x40 DUP3 ADD MLOAD DUP2 PUSH1 0x2 ADD SSTORE PUSH1 0x60 DUP3 ADD MLOAD DUP2 PUSH1 0x3 ADD SSTORE PUSH1 0x80 DUP3 ADD MLOAD DUP2 PUSH1 0x4 ADD SSTORE PUSH1 0xA0 DUP3 ADD MLOAD DUP2 PUSH1 0x5 ADD SSTORE SWAP1 POP POP PUSH1 0x1 PUSH1 0x9 PUSH0 DUP11 DUP2 MSTORE PUSH1 0x20 ADD SWAP1 DUP2 MSTORE PUSH1 0x20 ADD PUSH0 KECCAK256 PUSH0 DUP5 DUP2 MSTORE PUSH1 0x20 ADD SWAP1 DUP2 MSTORE PUSH1 0x20 ADD PUSH0 KECCAK256 PUSH0 PUSH2 0x100 EXP DUP2 SLOAD DUP2 PUSH1 0xFF MUL NOT AND SWAP1 DUP4 ISZERO ISZERO MUL OR SWAP1 SSTORE POP PUSH32 0x51D7CC0EA5B00D3C1C1EFF0D06862630B4CA2795E9D1BE3CCCA63C417B48086D DUP9 DUP4 DUP10 DUP9 PUSH1 0x40 MLOAD PUSH2 0x77E SWAP5 SWAP4 SWAP3 SWAP2 SWAP1 PUSH2 0x1952 JUMP JUMPDEST PUSH1 0x40 MLOAD DUP1 SWAP2 SUB SWAP1 LOG1 PUSH2 0x790 DUP9 DUP4 PUSH2 0x102B JUMP JUMPDEST DUP2 SWAP3 POP POP POP SWAP6 SWAP5 POP POP POP POP POP JUMP JUMPDEST PUSH1 0x6 PUSH1 0x20 MSTORE DUP2 PUSH0 MSTORE PUSH1 0x40 PUSH0 KECCAK256 PUSH1 0x20 MSTORE DUP1 PUSH0 MSTORE PUSH1 0x40 PUSH0 KECCAK256 PUSH0 SWAP2 POP SWAP2 POP POP SLOAD DUP2 JUMP JUMPDEST PUSH0 PUSH0 SWAP1 SLOAD SWAP1 PUSH2 0x100 EXP SWAP1 DIV PUSH20 0xFFFFFFFFFFFFFFFFFFFFFFFFFFFFFFFFFFFFFFFF AND PUSH20 0xFFFFFFFFFFFFFFFFFFFFFFFFFFFFFFFFFFFFFFFF AND CALLER PUSH20 0xFFFFFFFFFFFFFFFFFFFFFFFFFFFFFFFFFFFFFFFF AND EQ PUSH2 0x84C JUMPI PUSH1 0x40 MLOAD PUSH32 0x8C379A000000000000000000000000000000000000000000000000000000000 DUP2 MSTORE PUSH1 0x4 ADD PUSH2 0x843 SWAP1 PUSH2 0x19DF JUMP JUMPDEST PUSH1 0x40 MLOAD DUP1 SWAP2 SUB SWAP1 REVERT JUMPDEST DUP1 PUSH1 0x2 PUSH0 DUP5 PUSH20 0xFFFFFFFFFFFFFFFFFFFFFFFFFFFFFFFFFFFFFFFF AND PUSH20 0xFFFFFFFFFFFFFFFFFFFFFFFFFFFFFFFFFFFFFFFF AND DUP2 MSTORE PUSH1 0x20 ADD SWAP1 DUP2 MSTORE PUSH1 0x20 ADD PUSH0 KECCAK256 PUSH0 PUSH2 0x100 EXP DUP2 SLOAD DUP2 PUSH1 0xFF MUL NOT AND SWAP1 DUP4 ISZERO ISZERO MUL OR SWAP1 SSTORE POP PUSH32 0x2594C7E2DC67DBA873B8FCC63BC8A5EE2C8B37FA772F132594CFC90BB82E0FE9 DUP3 DUP3 PUSH1 0x40 MLOAD PUSH2 0x8D1 SWAP3 SWAP2 SWAP1 PUSH2 0x19FD JUMP JUMPDEST PUSH1 0x40 MLOAD DUP1 SWAP2 SUB SWAP1 LOG1 POP POP JUMP JUMPDEST PUSH1 0x4 PUSH1 0x20 MSTORE DUP1 PUSH0 MSTORE PUSH1 0x40 PUSH0 KECCAK256 PUSH0 SWAP2 POP SWAP1 POP SLOAD DUP2 JUMP JUMPDEST PUSH0 PUSH0 PUSH1 0x4 PUSH0 DUP5 DUP2 MSTORE PUSH1 0x20 ADD SWAP1 DUP2 MSTORE PUSH1 0x20 ADD PUSH0 KECCAK256 SLOAD PUSH1 0x5 PUSH0 DUP6 DUP2 MSTORE PUSH1 0x20 ADD SWAP1 DUP2 MSTORE PUSH1 0x20 ADD PUSH0 KECCAK256 SLOAD SWAP2 POP SWAP2 POP SWAP2 POP SWAP2 JUMP JUMPDEST PUSH1 0x5 PUSH1 0x20 MSTORE DUP1 PUSH0 MSTORE PUSH1 0x40 PUSH0 KECCAK256 PUSH0 SWAP2 POP SWAP1 POP SLOAD DUP2 JUMP JUMPDEST PUSH1 0x7 PUSH1 0x20 MSTORE DUP3 PUSH0 MSTORE PUSH1 0x40 PUSH0 KECCAK256 PUSH1 0x20 MSTORE DUP2 PUSH0 MSTORE PUSH1 0x40 PUSH0 KECCAK256 PUSH1 0x20 MSTORE DUP1 PUSH0 MSTORE PUSH1 0x40 PUSH0 KECCAK256 PUSH0 SWAP3 POP SWAP3 POP POP SWAP1 SLOAD SWAP1 PUSH2 0x100 EXP SWAP1 DIV PUSH1 0xFF AND DUP2 JUMP JUMPDEST PUSH0 PUSH0 SWAP1 SLOAD SWAP1 PUSH2 0x100 EXP SWAP1 DIV PUSH20 0xFFFFFFFFFFFFFFFFFFFFFFFFFFFFFFFFFFFFFFFF AND PUSH20 0xFFFFFFFFFFFFFFFFFFFFFFFFFFFFFFFFFFFFFFFF AND CALLER PUSH20 0xFFFFFFFFFFFFFFFFFFFFFFFFFFFFFFFFFFFFFFFF AND EQ PUSH2 0x9F9 JUMPI PUSH1 0x40 MLOAD PUSH32 0x8C379A000000000000000000000000000000000000000000000000000000000 DUP2 MSTORE PUSH1 0x4 ADD PUSH2 0x9F0 SWAP1 PUSH2 0x19DF JUMP JUMPDEST PUSH1 0x40 MLOAD DUP1 SWAP2 SUB SWAP1 REVERT JUMPDEST PUSH1 0x1 DUP2 LT ISZERO PUSH2 0xA3D JUMPI PUSH1 0x40 MLOAD PUSH32 0x8C379A000000000000000000000000000000000000000000000000000000000 DUP2 MSTORE PUSH1 0x4 ADD PUSH2 0xA34 SWAP1 PUSH2 0x1A6E JUMP JUMPDEST PUSH1 0x40 MLOAD DUP1 SWAP2 SUB SWAP1 REVERT JUMPDEST DUP1 PUSH1 0x1 DUP2 SWAP1 SSTORE POP PUSH32 0xF18F88786AAE85A652AADB99A82462616489A33370C9BCC7B245906812EF7CD1 DUP2 PUSH1 0x40 MLOAD PUSH2 0xA73 SWAP2 SWAP1 PUSH2 0x12A7 JUMP JUMPDEST PUSH1 0x40 MLOAD DUP1 SWAP2 SUB SWAP1 LOG1 POP JUMP JUMPDEST PUSH1 0x3 PUSH1 0x20 MSTORE DUP2 PUSH0 MSTORE PUSH1 0x40 PUSH0 KECCAK256 PUSH1 0x20 MSTORE DUP1 PUSH0 MSTORE PUSH1 0x40 PUSH0 KECCAK256 PUSH0 SWAP2 POP SWAP2 POP POP DUP1 PUSH0 ADD SLOAD SWAP1 DUP1 PUSH1 0x1 ADD SLOAD SWAP1 DUP1 PUSH1 0x2 ADD SLOAD SWAP1 DUP1 PUSH1 0x3 ADD SLOAD SWAP1 DUP1 PUSH1 0x4 ADD SLOAD SWAP1 DUP1 PUSH1 0x5 ADD SLOAD SWAP1 POP DUP7 JUMP JUMPDEST PUSH1 0xA PUSH1 0x20 MSTORE DUP2 PUSH0 MSTORE PUSH1 0x40 PUSH0 KECCAK256 PUSH1 0x20 MSTORE DUP1 PUSH0 MSTORE PUSH1 0x40 PUSH0 KECCAK256 PUSH0 SWAP2 POP SWAP2 POP SWAP1 SLOAD SWAP1 PUSH2 0x100 EXP SWAP1 DIV PUSH1 0xFF AND DUP2 JUMP JUMPDEST PUSH1 0x9 PUSH1 0x20 MSTORE DUP2 PUSH0 MSTORE PUSH1 0x40 PUSH0 KECCAK256 PUSH1 0x20 MSTORE DUP1 PUSH0 MSTORE PUSH1 0x40 PUSH0 KECCAK256 PUSH0 SWAP2 POP SWAP2 POP SWAP1 SLOAD SWAP1 PUSH2 0x100 EXP SWAP1 DIV PUSH1 0xFF AND DUP2 JUMP JUMPDEST PUSH1 0x8 PUSH1 0x20 MSTORE DUP2 PUSH0 MSTORE PUSH1 0x40 PUSH0 KECCAK256 PUSH1 0x20 MSTORE DUP1 PUSH0 MSTORE PUSH1 0x40 PUSH0 KECCAK256 PUSH0 SWAP2 POP SWAP2 POP POP DUP1 PUSH0 ADD SLOAD SWAP1 DUP1 PUSH1 0x1 ADD SLOAD SWAP1 DUP1 PUSH1 0x2 ADD SLOAD SWAP1 DUP1 PUSH1 0x3 ADD SLOAD SWAP1 DUP1 PUSH1 0x4 ADD SLOAD SWAP1 DUP1 PUSH1 0x5 ADD SLOAD SWAP1 POP DUP7 JUMP JUMPDEST PUSH1 0x2 PUSH0 CALLER PUSH20 0xFFFFFFFFFFFFFFFFFFFFFFFFFFFFFFFFFFFFFFFF AND PUSH20 0xFFFFFFFFFFFFFFFFFFFFFFFFFFFFFFFFFFFFFFFF AND DUP2 MSTORE PUSH1 0x20 ADD SWAP1 DUP2 MSTORE PUSH1 0x20 ADD PUSH0 KECCAK256 PUSH0 SWAP1 SLOAD SWAP1 PUSH2 0x100 EXP SWAP1 DIV PUSH1 0xFF AND PUSH2 0xBE1 JUMPI PUSH1 0x40 MLOAD PUSH32 0x8C379A000000000000000000000000000000000000000000000000000000000 DUP2 MSTORE PUSH1 0x4 ADD PUSH2 0xBD8 SWAP1 PUSH2 0x16FE JUMP JUMPDEST PUSH1 0x40 MLOAD DUP1 SWAP2 SUB SWAP1 REVERT JUMPDEST PUSH1 0x9 PUSH0 DUP4 DUP2 MSTORE PUSH1 0x20 ADD SWAP1 DUP2 MSTORE PUSH1 0x20 ADD PUSH0 KECCAK256 PUSH0 DUP3 DUP2 MSTORE PUSH1 0x20 ADD SWAP1 DUP2 MSTORE PUSH1 0x20 ADD PUSH0 KECCAK256 PUSH0 SWAP1 SLOAD SWAP1 PUSH2 0x100 EXP SWAP1 DIV PUSH1 0xFF AND PUSH2 0xC4D JUMPI PUSH1 0x40 MLOAD PUSH32 0x8C379A000000000000000000000000000000000000000000000000000000000 DUP2 MSTORE PUSH1 0x4 ADD PUSH2 0xC44 SWAP1 PUSH2 0x1AD6 JUMP JUMPDEST PUSH1 0x40 MLOAD DUP1 SWAP2 SUB SWAP1 REVERT JUMPDEST PUSH1 0xA PUSH0 DUP4 DUP2 MSTORE PUSH1 0x20 ADD SWAP1 DUP2 MSTORE PUSH1 0x20 ADD PUSH0 KECCAK256 PUSH0 DUP3 DUP2 MSTORE PUSH1 0x20 ADD SWAP1 DUP2 MSTORE PUSH1 0x20 ADD PUSH0 KECCAK256 PUSH0 SWAP1 SLOAD SWAP1 PUSH2 0x100 EXP SWAP1 DIV PUSH1 0xFF AND ISZERO PUSH2 0xCBA JUMPI PUSH1 0x40 MLOAD PUSH32 0x8C379A000000000000000000000000000000000000000000000000000000000 DUP2 MSTORE PUSH1 0x4 ADD PUSH2 0xCB1 SWAP1 PUSH2 0x1B3E JUMP JUMPDEST PUSH1 0x40 MLOAD DUP1 SWAP2 SUB SWAP1 REVERT JUMPDEST PUSH1 0x1 SLOAD PUSH1 0x6 PUSH0 DUP5 DUP2 MSTORE PUSH1 0x20 ADD SWAP1 DUP2 MSTORE PUSH1 0x20 ADD PUSH0 KECCAK256 PUSH0 DUP4 DUP2 MSTORE PUSH1 0x20 ADD SWAP1 DUP2 MSTORE PUSH1 0x20 ADD PUSH0 KECCAK256 SLOAD LT ISZERO PUSH2 0xD1F JUMPI PUSH1 0x40 MLOAD PUSH32 0x8C379A000000000000000000000000000000000000000000000000000000000 DUP2 MSTORE PUSH1 0x4 ADD PUSH2 0xD16 SWAP1 PUSH2 0x1BA6 JUMP JUMPDEST PUSH1 0x40 MLOAD DUP1 SWAP2 SUB SWAP1 REVERT JUMPDEST PUSH0 PUSH1 0x8 PUSH0 DUP5 DUP2 MSTORE PUSH1 0x20 ADD SWAP1 DUP2 MSTORE PUSH1 0x20 ADD PUSH0 KECCAK256 PUSH0 DUP4 DUP2 MSTORE PUSH1 0x20 ADD SWAP1 DUP2 MSTORE PUSH1 0x20 ADD PUSH0 KECCAK256 PUSH1 0x40 MLOAD DUP1 PUSH1 0xC0 ADD PUSH1 0x40 MSTORE SWAP1 DUP2 PUSH0 DUP3 ADD SLOAD DUP2 MSTORE PUSH1 0x20 ADD PUSH1 0x1 DUP3 ADD SLOAD DUP2 MSTORE PUSH1 0x20 ADD PUSH1 0x2 DUP3 ADD SLOAD DUP2 MSTORE PUSH1 0x20 ADD PUSH1 0x3 DUP3 ADD SLOAD DUP2 MSTORE PUSH1 0x20 ADD PUSH1 0x4 DUP3 ADD SLOAD DUP2 MSTORE PUSH1 0x20 ADD PUSH1 0x5 DUP3 ADD SLOAD DUP2 MSTORE POP POP SWAP1 POP DUP1 PUSH1 0x3 PUSH0 DUP6 DUP2 MSTORE PUSH1 0x20 ADD SWAP1 DUP2 MSTORE PUSH1 0x20 ADD PUSH0 KECCAK256 PUSH0 DUP4 PUSH0 ADD MLOAD DUP2 MSTORE PUSH1 0x20 ADD SWAP1 DUP2 MSTORE PUSH1 0x20 ADD PUSH0 KECCAK256 PUSH0 DUP3 ADD MLOAD DUP2 PUSH0 ADD SSTORE PUSH1 0x20 DUP3 ADD MLOAD DUP2 PUSH1 0x1 ADD SSTORE PUSH1 0x40 DUP3 ADD MLOAD DUP2 PUSH1 0x2 ADD SSTORE PUSH1 0x60 DUP3 ADD MLOAD DUP2 PUSH1 0x3 ADD SSTORE PUSH1 0x80 DUP3 ADD MLOAD DUP2 PUSH1 0x4 ADD SSTORE PUSH1 0xA0 DUP3 ADD MLOAD DUP2 PUSH1 0x5 ADD SSTORE SWAP1 POP POP DUP1 PUSH0 ADD MLOAD PUSH1 0x4 PUSH0 DUP6 DUP2 MSTORE PUSH1 0x20 ADD SWAP1 DUP2 MSTORE PUSH1 0x20 ADD PUSH0 KECCAK256 DUP2 SWAP1 SSTORE POP DUP1 PUSH1 0x80 ADD MLOAD PUSH1 0x5 PUSH0 DUP6 DUP2 MSTORE PUSH1 0x20 ADD SWAP1 DUP2 MSTORE PUSH1 0x20 ADD PUSH0 KECCAK256 DUP2 SWAP1 SSTORE POP PUSH1 0x1 PUSH1 0xA PUSH0 DUP6 DUP2 MSTORE PUSH1 0x20 ADD SWAP1 DUP2 MSTORE PUSH1 0x20 ADD PUSH0 KECCAK256 PUSH0 DUP5 DUP2 MSTORE PUSH1 0x20 ADD SWAP1 DUP2 MSTORE PUSH1 0x20 ADD PUSH0 KECCAK256 PUSH0 PUSH2 0x100 EXP DUP2 SLOAD DUP2 PUSH1 0xFF MUL NOT AND SWAP1 DUP4 ISZERO ISZERO MUL OR SWAP1 SSTORE POP PUSH32 0xE87CA8B6E4C0C3D2C47E459BFE4AE13698BA00331EC65FD1088451C80E3A39E7 DUP4 DUP4 DUP4 PUSH0 ADD MLOAD PUSH1 0x40 MLOAD PUSH2 0xE8A SWAP4 SWAP3 SWAP2 SWAP1 PUSH2 0x1BC4 JUMP JUMPDEST PUSH1 0x40 MLOAD DUP1 SWAP2 SUB SWAP1 LOG1 POP POP POP JUMP JUMPDEST PUSH1 0x2 PUSH0 CALLER PUSH20 0xFFFFFFFFFFFFFFFFFFFFFFFFFFFFFFFFFFFFFFFF AND PUSH20 0xFFFFFFFFFFFFFFFFFFFFFFFFFFFFFFFFFFFFFFFF AND DUP2 MSTORE PUSH1 0x20 ADD SWAP1 DUP2 MSTORE PUSH1 0x20 ADD PUSH0 KECCAK256 PUSH0 SWAP1 SLOAD SWAP1 PUSH2 0x100 EXP SWAP1 DIV PUSH1 0xFF AND PUSH2 0xF20 JUMPI PUSH1 0x40 MLOAD PUSH32 0x8C379A000000000000000000000000000000000000000000000000000000000 DUP2 MSTORE PUSH1 0x4 ADD PUSH2 0xF17 SWAP1 PUSH2 0x16FE JUMP JUMPDEST PUSH1 0x40 MLOAD DUP1 SWAP2 SUB SWAP1 REVERT JUMPDEST PUSH1 0x9 PUSH0 DUP4 DUP2 MSTORE PUSH1 0x20 ADD SWAP1 DUP2 MSTORE PUSH1 0x20 ADD PUSH0 KECCAK256 PUSH0 DUP3 DUP2 MSTORE PUSH1 0x20 ADD SWAP1 DUP2 MSTORE PUSH1 0x20 ADD PUSH0 KECCAK256 PUSH0 SWAP1 SLOAD SWAP1 PUSH2 0x100 EXP SWAP1 DIV PUSH1 0xFF AND PUSH2 0xF8C JUMPI PUSH1 0x40 MLOAD PUSH32 0x8C379A000000000000000000000000000000000000000000000000000000000 DUP2 MSTORE PUSH1 0x4 ADD PUSH2 0xF83 SWAP1 PUSH2 0x1AD6 JUMP JUMPDEST PUSH1 0x40 MLOAD DUP1 SWAP2 SUB SWAP1 REVERT JUMPDEST PUSH1 0xA PUSH0 DUP4 DUP2 MSTORE PUSH1 0x20 ADD SWAP1 DUP2 MSTORE PUSH1 0x20 ADD PUSH0 KECCAK256 PUSH0 DUP3 DUP2 MSTORE PUSH1 0x20 ADD SWAP1 DUP2 MSTORE PUSH1 0x20 ADD PUSH0 KECCAK256 PUSH0 SWAP1 SLOAD SWAP1 PUSH2 0x100 EXP SWAP1 DIV PUSH1 0xFF AND ISZERO PUSH2 0xFF9 JUMPI PUSH1 0x40 MLOAD PUSH32 0x8C379A000000000000000000000000000000000000000000000000000000000 DUP2 MSTORE PUSH1 0x4 ADD PUSH2 0xFF0 SWAP1 PUSH2 0x1B3E JUMP JUMPDEST PUSH1 0x40 MLOAD DUP1 SWAP2 SUB SWAP1 REVERT JUMPDEST PUSH2 0x1003 DUP3 DUP3 PUSH2 0x102B JUMP JUMPDEST POP POP JUMP JUMPDEST PUSH0 PUSH0 SWAP1 SLOAD SWAP1 PUSH2 0x100 EXP SWAP1 DIV PUSH20 0xFFFFFFFFFFFFFFFFFFFFFFFFFFFFFFFFFFFFFFFF AND DUP2 JUMP JUMPDEST PUSH1 0x7 PUSH0 DUP4 DUP2 MSTORE PUSH1 0x20 ADD SWAP1 DUP2 MSTORE PUSH1 0x20 ADD PUSH0 KECCAK256 PUSH0 DUP3 DUP2 MSTORE PUSH1 0x20 ADD SWAP1 DUP2 MSTORE PUSH1 0x20 ADD PUSH0 KECCAK256 PUSH0 CALLER PUSH20 0xFFFFFFFFFFFFFFFFFFFFFFFFFFFFFFFFFFFFFFFF AND PUSH20 0xFFFFFFFFFFFFFFFFFFFFFFFFFFFFFFFFFFFFFFFF AND DUP2 MSTORE PUSH1 0x20 ADD SWAP1 DUP2 MSTORE PUSH1 0x20 ADD PUSH0 KECCAK256 PUSH0 SWAP1 SLOAD SWAP1 PUSH2 0x100 EXP SWAP1 DIV PUSH1 0xFF AND PUSH2 0x119F JUMPI PUSH1 0x1 PUSH1 0x7 PUSH0 DUP5 DUP2 MSTORE PUSH1 0x20 ADD SWAP1 DUP2 MSTORE PUSH1 0x20 ADD PUSH0 KECCAK256 PUSH0 DUP4 DUP2 MSTORE PUSH1 0x20 ADD SWAP1 DUP2 MSTORE PUSH1 0x20 ADD PUSH0 KECCAK256 PUSH0 CALLER PUSH20 0xFFFFFFFFFFFFFFFFFFFFFFFFFFFFFFFFFFFFFFFF AND PUSH20 0xFFFFFFFFFFFFFFFFFFFFFFFFFFFFFFFFFFFFFFFF AND DUP2 MSTORE PUSH1 0x20 ADD SWAP1 DUP2 MSTORE PUSH1 0x20 ADD PUSH0 KECCAK256 PUSH0 PUSH2 0x100 EXP DUP2 SLOAD DUP2 PUSH1 0xFF MUL NOT AND SWAP1 DUP4 ISZERO ISZERO MUL OR SWAP1 SSTORE POP PUSH1 0x1 PUSH1 0x6 PUSH0 DUP5 DUP2 MSTORE PUSH1 0x20 ADD SWAP1 DUP2 MSTORE PUSH1 0x20 ADD PUSH0 KECCAK256 PUSH0 DUP4 DUP2 MSTORE PUSH1 0x20 ADD SWAP1 DUP2 MSTORE PUSH1 0x20 ADD PUSH0 KECCAK256 PUSH0 DUP3 DUP3 SLOAD PUSH2 0x113A SWAP2 SWAP1 PUSH2 0x1749 JUMP JUMPDEST SWAP3 POP POP DUP2 SWAP1 SSTORE POP PUSH32 0xF79F4BADF9148332D9B98DBCB97180529BDAA7C60CBFF0ED66F78C43CF1555F DUP3 DUP3 CALLER PUSH1 0x6 PUSH0 DUP8 DUP2 MSTORE PUSH1 0x20 ADD SWAP1 DUP2 MSTORE PUSH1 0x20 ADD PUSH0 KECCAK256 PUSH0 DUP7 DUP2 MSTORE PUSH1 0x20 ADD SWAP1 DUP2 MSTORE PUSH1 0x20 ADD PUSH0 KECCAK256 SLOAD PUSH1 0x40 MLOAD PUSH2 0x1196 SWAP5 SWAP4 SWAP3 SWAP2 SWAP1 PUSH2 0x1BF9 JUMP JUMPDEST PUSH1 0x40 MLOAD DUP1 SWAP2 SUB SWAP1 LOG1 JUMPDEST POP POP JUMP JUMPDEST PUSH1 0x40 MLOAD DUP1 PUSH1 0xC0 ADD PUSH1 0x40 MSTORE DUP1 PUSH0 DUP2 MSTORE PUSH1 0x20 ADD PUSH0 DUP2 MSTORE PUSH1 0x20 ADD PUSH0 DUP2 MSTORE PUSH1 0x20 ADD PUSH0 DUP2 MSTORE PUSH1 0x20 ADD PUSH0 DUP2 MSTORE PUSH1 0x20 ADD PUSH0 DUP2 MSTORE POP SWAP1 JUMP JUMPDEST PUSH0 PUSH0 REVERT JUMPDEST PUSH0 PUSH20 0xFFFFFFFFFFFFFFFFFFFFFFFFFFFFFFFFFFFFFFFF DUP3 AND SWAP1 POP SWAP2 SWAP1 POP JUMP JUMPDEST PUSH0 PUSH2 0x1200 DUP3 PUSH2 0x11D7 JUMP JUMPDEST SWAP1 POP SWAP2 SWAP1 POP JUMP JUMPDEST PUSH2 0x1210 DUP2 PUSH2 0x11F6 JUMP JUMPDEST DUP2 EQ PUSH2 0x121A JUMPI PUSH0 PUSH0 REVERT JUMPDEST POP JUMP JUMPDEST PUSH0 DUP2 CALLDATALOAD SWAP1 POP PUSH2 0x122B DUP2 PUSH2 0x1207 JUMP JUMPDEST SWAP3 SWAP2 POP POP JUMP JUMPDEST PUSH0 PUSH1 0x20 DUP3 DUP5 SUB SLT ISZERO PUSH2 0x1246 JUMPI PUSH2 0x1245 PUSH2 0x11D3 JUMP JUMPDEST JUMPDEST PUSH0 PUSH2 0x1253 DUP5 DUP3 DUP6 ADD PUSH2 0x121D JUMP JUMPDEST SWAP2 POP POP SWAP3 SWAP2 POP POP JUMP JUMPDEST PUSH0 DUP2 ISZERO ISZERO SWAP1 POP SWAP2 SWAP1 POP JUMP JUMPDEST PUSH2 0x1270 DUP2 PUSH2 0x125C JUMP JUMPDEST DUP3 MSTORE POP POP JUMP JUMPDEST PUSH0 PUSH1 0x20 DUP3 ADD SWAP1 POP PUSH2 0x1289 PUSH0 DUP4 ADD DUP5 PUSH2 0x1267 JUMP JUMPDEST SWAP3 SWAP2 POP POP JUMP JUMPDEST PUSH0 DUP2 SWAP1 POP SWAP2 SWAP1 POP JUMP JUMPDEST PUSH2 0x12A1 DUP2 PUSH2 0x128F JUMP JUMPDEST DUP3 MSTORE POP POP JUMP JUMPDEST PUSH0 PUSH1 0x20 DUP3 ADD SWAP1 POP PUSH2 0x12BA PUSH0 DUP4 ADD DUP5 PUSH2 0x1298 JUMP JUMPDEST SWAP3 SWAP2 POP POP JUMP JUMPDEST PUSH0 DUP2 SWAP1 POP SWAP2 SWAP1 POP JUMP JUMPDEST PUSH2 0x12D2 DUP2 PUSH2 0x12C0 JUMP JUMPDEST DUP2 EQ PUSH2 0x12DC JUMPI PUSH0 PUSH0 REVERT JUMPDEST POP JUMP JUMPDEST PUSH0 DUP2 CALLDATALOAD SWAP1 POP PUSH2 0x12ED DUP2 PUSH2 0x12C9 JUMP JUMPDEST SWAP3 SWAP2 POP POP JUMP JUMPDEST PUSH2 0x12FC DUP2 PUSH2 0x128F JUMP JUMPDEST DUP2 EQ PUSH2 0x1306 JUMPI PUSH0 PUSH0 REVERT JUMPDEST POP JUMP JUMPDEST PUSH0 DUP2 CALLDATALOAD SWAP1 POP PUSH2 0x1317 DUP2 PUSH2 0x12F3 JUMP JUMPDEST SWAP3 SWAP2 POP POP JUMP JUMPDEST PUSH0 PUSH0 PUSH1 0x40 DUP4 DUP6 SUB SLT ISZERO PUSH2 0x1333 JUMPI PUSH2 0x1332 PUSH2 0x11D3 JUMP JUMPDEST JUMPDEST PUSH0 PUSH2 0x1340 DUP6 DUP3 DUP7 ADD PUSH2 0x12DF JUMP JUMPDEST SWAP3 POP POP PUSH1 0x20 PUSH2 0x1351 DUP6 DUP3 DUP7 ADD PUSH2 0x1309 JUMP JUMPDEST SWAP2 POP POP SWAP3 POP SWAP3 SWAP1 POP JUMP JUMPDEST PUSH2 0x1364 DUP2 PUSH2 0x128F JUMP JUMPDEST DUP3 MSTORE POP POP JUMP JUMPDEST PUSH2 0x1373 DUP2 PUSH2 0x12C0 JUMP JUMPDEST DUP3 MSTORE POP POP JUMP JUMPDEST PUSH1 0xC0 DUP3 ADD PUSH0 DUP3 ADD MLOAD PUSH2 0x138D PUSH0 DUP6 ADD DUP3 PUSH2 0x135B JUMP JUMPDEST POP PUSH1 0x20 DUP3 ADD MLOAD PUSH2 0x13A0 PUSH1 0x20 DUP6 ADD DUP3 PUSH2 0x136A JUMP JUMPDEST POP PUSH1 0x40 DUP3 ADD MLOAD PUSH2 0x13B3 PUSH1 0x40 DUP6 ADD DUP3 PUSH2 0x136A JUMP JUMPDEST POP PUSH1 0x60 DUP3 ADD MLOAD PUSH2 0x13C6 PUSH1 0x60 DUP6 ADD DUP3 PUSH2 0x135B JUMP JUMPDEST POP PUSH1 0x80 DUP3 ADD MLOAD PUSH2 0x13D9 PUSH1 0x80 DUP6 ADD DUP3 PUSH2 0x136A JUMP JUMPDEST POP PUSH1 0xA0 DUP3 ADD MLOAD PUSH2 0x13EC PUSH1 0xA0 DUP6 ADD DUP3 PUSH2 0x135B JUMP JUMPDEST POP POP POP POP JUMP JUMPDEST PUSH0 PUSH1 0xC0 DUP3 ADD SWAP1 POP PUSH2 0x1405 PUSH0 DUP4 ADD DUP5 PUSH2 0x1379 JUMP JUMPDEST SWAP3 SWAP2 POP POP JUMP JUMPDEST PUSH0 PUSH0 PUSH0 PUSH0 PUSH0 PUSH1 0xA0 DUP7 DUP9 SUB SLT ISZERO PUSH2 0x1424 JUMPI PUSH2 0x1423 PUSH2 0x11D3 JUMP JUMPDEST JUMPDEST PUSH0 PUSH2 0x1431 DUP9 DUP3 DUP10 ADD PUSH2 0x12DF JUMP JUMPDEST SWAP6 POP POP PUSH1 0x20 PUSH2 0x1442 DUP9 DUP3 DUP10 ADD PUSH2 0x1309 JUMP JUMPDEST SWAP5 POP POP PUSH1 0x40 PUSH2 0x1453 DUP9 DUP3 DUP10 ADD PUSH2 0x12DF JUMP JUMPDEST SWAP4 POP POP PUSH1 0x60 PUSH2 0x1464 DUP9 DUP3 DUP10 ADD PUSH2 0x12DF JUMP JUMPDEST SWAP3 POP POP PUSH1 0x80 PUSH2 0x1475 DUP9 DUP3 DUP10 ADD PUSH2 0x1309 JUMP JUMPDEST SWAP2 POP POP SWAP3 SWAP6 POP SWAP3 SWAP6 SWAP1 SWAP4 POP JUMP JUMPDEST PUSH2 0x148B DUP2 PUSH2 0x12C0 JUMP JUMPDEST DUP3 MSTORE POP POP JUMP JUMPDEST PUSH0 PUSH1 0x20 DUP3 ADD SWAP1 POP PUSH2 0x14A4 PUSH0 DUP4 ADD DUP5 PUSH2 0x1482 JUMP JUMPDEST SWAP3 SWAP2 POP POP JUMP JUMPDEST PUSH0 PUSH0 PUSH1 0x40 DUP4 DUP6 SUB SLT ISZERO PUSH2 0x14C0 JUMPI PUSH2 0x14BF PUSH2 0x11D3 JUMP JUMPDEST JUMPDEST PUSH0 PUSH2 0x14CD DUP6 DUP3 DUP7 ADD PUSH2 0x12DF JUMP JUMPDEST SWAP3 POP POP PUSH1 0x20 PUSH2 0x14DE DUP6 DUP3 DUP7 ADD PUSH2 0x12DF JUMP JUMPDEST SWAP2 POP POP SWAP3 POP SWAP3 SWAP1 POP JUMP JUMPDEST PUSH2 0x14F1 DUP2 PUSH2 0x125C JUMP JUMPDEST DUP2 EQ PUSH2 0x14FB JUMPI PUSH0 PUSH0 REVERT JUMPDEST POP JUMP JUMPDEST PUSH0 DUP2 CALLDATALOAD SWAP1 POP PUSH2 0x150C DUP2 PUSH2 0x14E8 JUMP JUMPDEST SWAP3 SWAP2 POP POP JUMP JUMPDEST PUSH0 PUSH0 PUSH1 0x40 DUP4 DUP6 SUB SLT ISZERO PUSH2 0x1528 JUMPI PUSH2 0x1527 PUSH2 0x11D3 JUMP JUMPDEST JUMPDEST PUSH0 PUSH2 0x1535 DUP6 DUP3 DUP7 ADD PUSH2 0x121D JUMP JUMPDEST SWAP3 POP POP PUSH1 0x20 PUSH2 0x1546 DUP6 DUP3 DUP7 ADD PUSH2 0x14FE JUMP JUMPDEST SWAP2 POP POP SWAP3 POP SWAP3 SWAP1 POP JUMP JUMPDEST PUSH0 PUSH1 0x20 DUP3 DUP5 SUB SLT ISZERO PUSH2 0x1565 JUMPI PUSH2 0x1564 PUSH2 0x11D3 JUMP JUMPDEST JUMPDEST PUSH0 PUSH2 0x1572 DUP5 DUP3 DUP6 ADD PUSH2 0x12DF JUMP JUMPDEST SWAP2 POP POP SWAP3 SWAP2 POP POP JUMP JUMPDEST PUSH0 PUSH1 0x40 DUP3 ADD SWAP1 POP PUSH2 0x158E PUSH0 DUP4 ADD DUP6 PUSH2 0x1298 JUMP JUMPDEST PUSH2 0x159B PUSH1 0x20 DUP4 ADD DUP5 PUSH2 0x1482 JUMP JUMPDEST SWAP4 SWAP3 POP POP POP JUMP JUMPDEST PUSH0 PUSH0 PUSH0 PUSH1 0x60 DUP5 DUP7 SUB SLT ISZERO PUSH2 0x15B9 JUMPI PUSH2 0x15B8 PUSH2 0x11D3 JUMP JUMPDEST JUMPDEST PUSH0 PUSH2 0x15C6 DUP7 DUP3 DUP8 ADD PUSH2 0x12DF JUMP JUMPDEST SWAP4 POP POP PUSH1 0x20 PUSH2 0x15D7 DUP7 DUP3 DUP8 ADD PUSH2 0x12DF JUMP JUMPDEST SWAP3 POP POP PUSH1 0x40 PUSH2 0x15E8 DUP7 DUP3 DUP8 ADD PUSH2 0x121D JUMP JUMPDEST SWAP2 POP POP SWAP3 POP SWAP3 POP SWAP3 JUMP JUMPDEST PUSH0 PUSH1 0x20 DUP3 DUP5 SUB SLT ISZERO PUSH2 0x1607 JUMPI PUSH2 0x1606 PUSH2 0x11D3 JUMP JUMPDEST JUMPDEST PUSH0 PUSH2 0x1614 DUP5 DUP3 DUP6 ADD PUSH2 0x1309 JUMP JUMPDEST SWAP2 POP POP SWAP3 SWAP2 POP POP JUMP JUMPDEST PUSH0 PUSH1 0xC0 DUP3 ADD SWAP1 POP PUSH2 0x1630 PUSH0 DUP4 ADD DUP10 PUSH2 0x1298 JUMP JUMPDEST PUSH2 0x163D PUSH1 0x20 DUP4 ADD DUP9 PUSH2 0x1482 JUMP JUMPDEST PUSH2 0x164A PUSH1 0x40 DUP4 ADD DUP8 PUSH2 0x1482 JUMP JUMPDEST PUSH2 0x1657 PUSH1 0x60 DUP4 ADD DUP7 PUSH2 0x1298 JUMP JUMPDEST PUSH2 0x1664 PUSH1 0x80 DUP4 ADD DUP6 PUSH2 0x1482 JUMP JUMPDEST PUSH2 0x1671 PUSH1 0xA0 DUP4 ADD DUP5 PUSH2 0x1298 JUMP JUMPDEST SWAP8 SWAP7 POP POP POP POP POP POP POP JUMP JUMPDEST PUSH2 0x1685 DUP2 PUSH2 0x11F6 JUMP JUMPDEST DUP3 MSTORE POP POP JUMP JUMPDEST PUSH0 PUSH1 0x20 DUP3 ADD SWAP1 POP PUSH2 0x169E PUSH0 DUP4 ADD DUP5 PUSH2 0x167C JUMP JUMPDEST SWAP3 SWAP2 POP POP JUMP JUMPDEST PUSH0 DUP3 DUP3 MSTORE PUSH1 0x20 DUP3 ADD SWAP1 POP SWAP3 SWAP2 POP POP JUMP JUMPDEST PUSH32 0x4E6F7420617574686F72697A6564206E6F646500000000000000000000000000 PUSH0 DUP3 ADD MSTORE POP JUMP JUMPDEST PUSH0 PUSH2 0x16E8 PUSH1 0x13 DUP4 PUSH2 0x16A4 JUMP JUMPDEST SWAP2 POP PUSH2 0x16F3 DUP3 PUSH2 0x16B4 JUMP JUMPDEST PUSH1 0x20 DUP3 ADD SWAP1 POP SWAP2 SWAP1 POP JUMP JUMPDEST PUSH0 PUSH1 0x20 DUP3 ADD SWAP1 POP DUP2 DUP2 SUB PUSH0 DUP4 ADD MSTORE PUSH2 0x1715 DUP2 PUSH2 0x16DC JUMP JUMPDEST SWAP1 POP SWAP2 SWAP1 POP JUMP JUMPDEST PUSH32 0x4E487B7100000000000000000000000000000000000000000000000000000000 PUSH0 MSTORE PUSH1 0x11 PUSH1 0x4 MSTORE PUSH1 0x24 PUSH0 REVERT JUMPDEST PUSH0 PUSH2 0x1753 DUP3 PUSH2 0x128F JUMP JUMPDEST SWAP2 POP PUSH2 0x175E DUP4 PUSH2 0x128F JUMP JUMPDEST SWAP3 POP DUP3 DUP3 ADD SWAP1 POP DUP1 DUP3 GT ISZERO PUSH2 0x1776 JUMPI PUSH2 0x1775 PUSH2 0x171C JUMP JUMPDEST JUMPDEST SWAP3 SWAP2 POP POP JUMP JUMPDEST PUSH32 0x4261642068656967687400000000000000000000000000000000000000000000 PUSH0 DUP3 ADD MSTORE POP JUMP JUMPDEST PUSH0 PUSH2 0x17B0 PUSH1 0xA DUP4 PUSH2 0x16A4 JUMP JUMPDEST SWAP2 POP PUSH2 0x17BB DUP3 PUSH2 0x177C JUMP JUMPDEST PUSH1 0x20 DUP3 ADD SWAP1 POP SWAP2 SWAP1 POP JUMP JUMPDEST PUSH0 PUSH1 0x20 DUP3 ADD SWAP1 POP DUP2 DUP2 SUB PUSH0 DUP4 ADD MSTORE PUSH2 0x17DD DUP2 PUSH2 0x17A4 JUMP JUMPDEST SWAP1 POP SWAP2 SWAP1 POP JUMP JUMPDEST PUSH32 0x4261642070726576206861736800000000000000000000000000000000000000 PUSH0 DUP3 ADD MSTORE POP JUMP JUMPDEST PUSH0 PUSH2 0x1818 PUSH1 0xD DUP4 PUSH2 0x16A4 JUMP JUMPDEST SWAP2 POP PUSH2 0x1823 DUP3 PUSH2 0x17E4 JUMP JUMPDEST PUSH1 0x20 DUP3 ADD SWAP1 POP SWAP2 SWAP1 POP JUMP JUMPDEST PUSH0 PUSH1 0x20 DUP3 ADD SWAP1 POP DUP2 DUP2 SUB PUSH0 DUP4 ADD MSTORE PUSH2 0x1845 DUP2 PUSH2 0x180C JUMP JUMPDEST SWAP1 POP SWAP2 SWAP1 POP JUMP JUMPDEST PUSH0 DUP2 SWAP1 POP SWAP2 SWAP1 POP JUMP JUMPDEST PUSH2 0x1866 PUSH2 0x1861 DUP3 PUSH2 0x12C0 JUMP JUMPDEST PUSH2 0x184C JUMP JUMPDEST DUP3 MSTORE POP POP JUMP JUMPDEST PUSH0 DUP2 SWAP1 POP SWAP2 SWAP1 POP JUMP JUMPDEST PUSH2 0x1886 PUSH2 0x1881 DUP3 PUSH2 0x128F JUMP JUMPDEST PUSH2 0x186C JUMP JUMPDEST DUP3 MSTORE POP POP JUMP JUMPDEST PUSH0 PUSH2 0x1897 DUP3 DUP9 PUSH2 0x1855 JUMP JUMPDEST PUSH1 0x20 DUP3 ADD SWAP2 POP PUSH2 0x18A7 DUP3 DUP8 PUSH2 0x1875 JUMP JUMPDEST PUSH1 0x20 DUP3 ADD SWAP2 POP PUSH2 0x18B7 DUP3 DUP7 PUSH2 0x1855 JUMP JUMPDEST PUSH1 0x20 DUP3 ADD SWAP2 POP PUSH2 0x18C7 DUP3 DUP6 PUSH2 0x1855 JUMP JUMPDEST PUSH1 0x20 DUP3 ADD SWAP2 POP PUSH2 0x18D7 DUP3 DUP5 PUSH2 0x1875 JUMP JUMPDEST PUSH1 0x20 DUP3 ADD SWAP2 POP DUP2 SWAP1 POP SWAP7 SWAP6 POP POP POP POP POP POP JUMP JUMPDEST PUSH32 0x416C72656164792070726F706F73656400000000000000000000000000000000 PUSH0 DUP3 ADD MSTORE POP JUMP JUMPDEST PUSH0 PUSH2 0x191E PUSH1 0x10 DUP4 PUSH2 0x16A4 JUMP JUMPDEST SWAP2 POP PUSH2 0x1929 DUP3 PUSH2 0x18EA JUMP JUMPDEST PUSH1 0x20 DUP3 ADD SWAP1 POP SWAP2 SWAP1 POP JUMP JUMPDEST PUSH0 PUSH1 0x20 DUP3 ADD SWAP1 POP DUP2 DUP2 SUB PUSH0 DUP4 ADD MSTORE PUSH2 0x194B DUP2 PUSH2 0x1912 JUMP JUMPDEST SWAP1 POP SWAP2 SWAP1 POP JUMP JUMPDEST PUSH0 PUSH1 0x80 DUP3 ADD SWAP1 POP PUSH2 0x1965 PUSH0 DUP4 ADD DUP8 PUSH2 0x1482 JUMP JUMPDEST PUSH2 0x1972 PUSH1 0x20 DUP4 ADD DUP7 PUSH2 0x1482 JUMP JUMPDEST PUSH2 0x197F PUSH1 0x40 DUP4 ADD DUP6 PUSH2 0x1298 JUMP JUMPDEST PUSH2 0x198C PUSH1 0x60 DUP4 ADD DUP5 PUSH2 0x1482 JUMP JUMPDEST SWAP6 SWAP5 POP POP POP POP POP JUMP JUMPDEST PUSH32 0x4E6F742061646D696E0000000000000000000000000000000000000000000000 PUSH0 DUP3 ADD MSTORE POP JUMP JUMPDEST PUSH0 PUSH2 0x19C9 PUSH1 0x9 DUP4 PUSH2 0x16A4 JUMP JUMPDEST SWAP2 POP PUSH2 0x19D4 DUP3 PUSH2 0x1995 JUMP JUMPDEST PUSH1 0x20 DUP3 ADD SWAP1 POP SWAP2 SWAP1 POP JUMP JUMPDEST PUSH0 PUSH1 0x20 DUP3 ADD SWAP1 POP DUP2 DUP2 SUB PUSH0 DUP4 ADD MSTORE PUSH2 0x19F6 DUP2 PUSH2 0x19BD JUMP JUMPDEST SWAP1 POP SWAP2 SWAP1 POP JUMP JUMPDEST PUSH0 PUSH1 0x40 DUP3 ADD SWAP1 POP PUSH2 0x1A10 PUSH0 DUP4 ADD DUP6 PUSH2 0x167C JUMP JUMPDEST PUSH2 0x1A1D PUSH1 0x20 DUP4 ADD DUP5 PUSH2 0x1267 JUMP JUMPDEST SWAP4 SWAP3 POP POP POP JUMP JUMPDEST PUSH32 0x71756F72756D20746F6F206C6F77000000000000000000000000000000000000 PUSH0 DUP3 ADD MSTORE POP JUMP JUMPDEST PUSH0 PUSH2 0x1A58 PUSH1 0xE DUP4 PUSH2 0x16A4 JUMP JUMPDEST SWAP2 POP PUSH2 0x1A63 DUP3 PUSH2 0x1A24 JUMP JUMPDEST PUSH1 0x20 DUP3 ADD SWAP1 POP SWAP2 SWAP1 POP JUMP JUMPDEST PUSH0 PUSH1 0x20 DUP3 ADD SWAP1 POP DUP2 DUP2 SUB PUSH0 DUP4 ADD MSTORE PUSH2 0x1A85 DUP2 PUSH2 0x1A4C JUMP JUMPDEST SWAP1 POP SWAP2 SWAP1 POP JUMP JUMPDEST PUSH32 0x4E6F20737563682070726F706F73616C00000000000000000000000000000000 PUSH0 DUP3 ADD MSTORE POP JUMP JUMPDEST PUSH0 PUSH2 0x1AC0 PUSH1 0x10 DUP4 PUSH2 0x16A4 JUMP JUMPDEST SWAP2 POP PUSH2 0x1ACB DUP3 PUSH2 0x1A8C JUMP JUMPDEST PUSH1 0x20 DUP3 ADD SWAP1 POP SWAP2 SWAP1 POP JUMP JUMPDEST PUSH0 PUSH1 0x20 DUP3 ADD SWAP1 POP DUP2 DUP2 SUB PUSH0 DUP4 ADD MSTORE PUSH2 0x1AED DUP2 PUSH2 0x1AB4 JUMP JUMPDEST SWAP1 POP SWAP2 SWAP1 POP JUMP JUMPDEST PUSH32 0x416C72656164792066696E616C697A6564000000000000000000000000000000 PUSH0 DUP3 ADD MSTORE POP JUMP JUMPDEST PUSH0 PUSH2 0x1B28 PUSH1 0x11 DUP4 PUSH2 0x16A4 JUMP JUMPDEST SWAP2 POP PUSH2 0x1B33 DUP3 PUSH2 0x1AF4 JUMP JUMPDEST PUSH1 0x20 DUP3 ADD SWAP1 POP SWAP2 SWAP1 POP JUMP JUMPDEST PUSH0 PUSH1 0x20 DUP3 ADD SWAP1 POP DUP2 DUP2 SUB PUSH0 DUP4 ADD MSTORE PUSH2 0x1B55 DUP2 PUSH2 0x1B1C JUMP JUMPDEST SWAP1 POP SWAP2 SWAP1 POP JUMP JUMPDEST PUSH32 0x4E6F7420656E6F75676820617070726F76616C73000000000000000000000000 PUSH0 DUP3 ADD MSTORE POP JUMP JUMPDEST PUSH0 PUSH2 0x1B90 PUSH1 0x14 DUP4 PUSH2 0x16A4 JUMP JUMPDEST SWAP2 POP PUSH2 0x1B9B DUP3 PUSH2 0x1B5C JUMP JUMPDEST PUSH1 0x20 DUP3 ADD SWAP1 POP SWAP2 SWAP1 POP JUMP JUMPDEST PUSH0 PUSH1 0x20 DUP3 ADD SWAP1 POP DUP2 DUP2 SUB PUSH0 DUP4 ADD MSTORE PUSH2 0x1BBD DUP2 PUSH2 0x1B84 JUMP JUMPDEST SWAP1 POP SWAP2 SWAP1 POP JUMP JUMPDEST PUSH0 PUSH1 0x60 DUP3 ADD SWAP1 POP PUSH2 0x1BD7 PUSH0 DUP4 ADD DUP7 PUSH2 0x1482 JUMP JUMPDEST PUSH2 0x1BE4 PUSH1 0x20 DUP4 ADD DUP6 PUSH2 0x1482 JUMP JUMPDEST PUSH2 0x1BF1 PUSH1 0x40 DUP4 ADD DUP5 PUSH2 0x1298 JUMP JUMPDEST SWAP5 SWAP4 POP POP POP POP JUMP JUMPDEST PUSH0 PUSH1 0x80 DUP3 ADD SWAP1 POP PUSH2 0x1C0C PUSH0 DUP4 ADD DUP8 PUSH2 0x1482 JUMP JUMPDEST PUSH2 0x1C19 PUSH1 0x20 DUP4 ADD DUP7 PUSH2 0x1482 JUMP JUMPDEST PUSH2 0x1C26 PUSH1 0x40 DUP4 ADD DUP6 PUSH2 0x167C JUMP JUMPDEST PUSH2 0x1C33 PUSH1 0x60 DUP4 ADD DUP5 PUSH2 0x1298 JUMP JUMPDEST SWAP6 SWAP5 POP POP POP POP POP JUMP INVALID LOG2 PUSH5 0x6970667358 0x22 SLT KECCAK256 0x25 0xCD DUP4 RETF PUSH21 0x1A3E43EFE38B83659661D1424DC0CE197C898FEDA0 BALANCE NUMBER PUSH30 0xFD066964736F6C634300081E003300000000000000000000000000000000 "
				},
				"gasEstimates": {
					"creation": {
						"codeDepositCost": "1456400",
						"executionCost": "infinite",
						"totalCost": "infinite"
					},
					"external": {
						"admin()": "2617",
						"approvalsCount(bytes32,bytes32)": "infinite",
						"approveBlock(bytes32,bytes32)": "infinite",
						"approvedBy(bytes32,bytes32,address)": "infinite",
						"blocks(bytes32,uint256)": "infinite",
						"finalizeBlock(bytes32,bytes32)": "infinite",
						"finalized(bytes32,bytes32)": "infinite",
						"getBlock(bytes32,uint256)": "infinite",
						"getTip(bytes32)": "infinite",
						"isNode(address)": "2857",
						"proposalExists(bytes32,bytes32)": "infinite",
						"proposals(bytes32,bytes32)": "infinite",
						"proposeBlock(bytes32,uint256,bytes32,bytes32,uint256)": "infinite",
						"quorum()": "2471",
						"setNode(address,bool)": "infinite",
						"setQuorum(uint256)": "infinite",
						"tipHash(bytes32)": "infinite",
						"tipHeight(bytes32)": "2821"
					},
					"internal": {
						"_approve(bytes32,bytes32)": "infinite"
					}
				},
				"methodIdentifiers": {
					"admin()": "f851a440",
					"approvalsCount(bytes32,bytes32)": "3e534788",
					"approveBlock(bytes32,bytes32)": "f59e292e",
					"approvedBy(bytes32,bytes32,address)": "8f4f5ddd",
					"blocks(bytes32,uint256)": "cf2b1531",
					"finalizeBlock(bytes32,bytes32)": "f04e4ca3",
					"finalized(bytes32,bytes32)": "d623be16",
					"getBlock(bytes32,uint256)": "1dc4bd6c",
					"getTip(bytes32)": "764addb0",
					"isNode(address)": "01750152",
					"proposalExists(bytes32,bytes32)": "dc791cc9",
					"proposals(bytes32,bytes32)": "dfb42fd1",
					"proposeBlock(bytes32,uint256,bytes32,bytes32,uint256)": "34ef78ef",
					"quorum()": "1703a018",
					"setNode(address,bool)": "41addb7b",
					"setQuorum(uint256)": "c1ba4e59",
					"tipHash(bytes32)": "8b104b44",
					"tipHeight(bytes32)": "5af2f431"
				}
			},
			"storageLayout": {
				"storage": [
					{
						"astId": 4,
						"contract": "blockchain/contracts/VoteLedger.sol:VoteLedger",
						"label": "admin",
						"offset": 0,
						"slot": "0",
						"type": "t_address"
					},
					{
						"astId": 6,
						"contract": "blockchain/contracts/VoteLedger.sol:VoteLedger",
						"label": "quorum",
						"offset": 0,
						"slot": "1",
						"type": "t_uint256"
					},
					{
						"astId": 10,
						"contract": "blockchain/contracts/VoteLedger.sol:VoteLedger",
						"label": "isNode",
						"offset": 0,
						"slot": "2",
						"type": "t_mapping(t_address,t_bool)"
					},
					{
						"astId": 30,
						"contract": "blockchain/contracts/VoteLedger.sol:VoteLedger",
						"label": "blocks",
						"offset": 0,
						"slot": "3",
						"type": "t_mapping(t_bytes32,t_mapping(t_uint256,t_struct(BlockHeader)23_storage))"
					},
					{
						"astId": 34,
						"contract": "blockchain/contracts/VoteLedger.sol:VoteLedger",
						"label": "tipHeight",
						"offset": 0,
						"slot": "4",
						"type": "t_mapping(t_bytes32,t_uint256)"
					},
					{
						"astId": 38,
						"contract": "blockchain/contracts/VoteLedger.sol:VoteLedger",
						"label": "tipHash",
						"offset": 0,
						"slot": "5",
						"type": "t_mapping(t_bytes32,t_bytes32)"
					},
					{
						"astId": 44,
						"contract": "blockchain/contracts/VoteLedger.sol:VoteLedger",
						"label": "approvalsCount",
						"offset": 0,
						"slot": "6",
						"type": "t_mapping(t_bytes32,t_mapping(t_bytes32,t_uint256))"
					},
					{
						"astId": 52,
						"contract": "blockchain/contracts/VoteLedger.sol:VoteLedger",
						"label": "approvedBy",
						"offset": 0,
						"slot": "7",
						"type": "t_mapping(t_bytes32,t_mapping(t_bytes32,t_mapping(t_address,t_bool)))"
					},
					{
						"astId": 59,
						"contract": "blockchain/contracts/VoteLedger.sol:VoteLedger",
						"label": "proposals",
						"offset": 0,
						"slot": "8",
						"type": "t_mapping(t_bytes32,t_mapping(t_bytes32,t_struct(BlockHeader)23_storage))"
					},
					{
						"astId": 65,
						"contract": "blockchain/contracts/VoteLedger.sol:VoteLedger",
						"label": "proposalExists",
						"offset": 0,
						"slot": "9",
						"type": "t_mapping(t_bytes32,t_mapping(t_bytes32,t_bool))"
					},
					{
						"astId": 71,
						"contract": "blockchain/contracts/VoteLedger.sol:VoteLedger",
						"label": "finalized",
						"offset": 0,
						"slot": "10",
						"type": "t_mapping(t_bytes32,t_mapping(t_bytes32,t_bool))"
					}
				],
				"types": {
					"t_address": {
						"encoding": "inplace",
						"label": "address",
						"numberOfBytes": "20"
					},
					"t_bool": {
						"encoding": "inplace",
						"label": "bool",
						"numberOfBytes": "1"
					},
					"t_bytes32": {
						"encoding": "inplace",
						"label": "bytes32",
						"numberOfBytes": "32"
					},
					"t_mapping(t_address,t_bool)": {
						"encoding": "mapping",
						"key": "t_address",
						"label": "mapping(address => bool)",
						"numberOfBytes": "32",
						"value": "t_bool"
					},
					"t_mapping(t_bytes32,t_bool)": {
						"encoding": "mapping",
						"key": "t_bytes32",
						"label": "mapping(bytes32 => bool)",
						"numberOfBytes": "32",
						"value": "t_bool"
					},
					"t_mapping(t_bytes32,t_bytes32)": {
						"encoding": "mapping",
						"key": "t_bytes32",
						"label": "mapping(bytes32 => bytes32)",
						"numberOfBytes": "32",
						"value": "t_bytes32"
					},
					"t_mapping(t_bytes32,t_mapping(t_address,t_bool))": {
						"encoding": "mapping",
						"key": "t_bytes32",
						"label": "mapping(bytes32 => mapping(address => bool))",
						"numberOfBytes": "32",
						"value": "t_mapping(t_address,t_bool)"
					},
					"t_mapping(t_bytes32,t_mapping(t_bytes32,t_bool))": {
						"encoding": "mapping",
						"key": "t_bytes32",
						"label": "mapping(bytes32 => mapping(bytes32 => bool))",
						"numberOfBytes": "32",
						"value": "t_mapping(t_bytes32,t_bool)"
					},
					"t_mapping(t_bytes32,t_mapping(t_bytes32,t_mapping(t_address,t_bool)))": {
						"encoding": "mapping",
						"key": "t_bytes32",
						"label": "mapping(bytes32 => mapping(bytes32 => mapping(address => bool)))",
						"numberOfBytes": "32",
						"value": "t_mapping(t_bytes32,t_mapping(t_address,t_bool))"
					},
					"t_mapping(t_bytes32,t_mapping(t_bytes32,t_struct(BlockHeader)23_storage))": {
						"encoding": "mapping",
						"key": "t_bytes32",
						"label": "mapping(bytes32 => mapping(bytes32 => struct VoteLedger.BlockHeader))",
						"numberOfBytes": "32",
						"value": "t_mapping(t_bytes32,t_struct(BlockHeader)23_storage)"
					},
					"t_mapping(t_bytes32,t_mapping(t_bytes32,t_uint256))": {
						"encoding": "mapping",
						"key": "t_bytes32",
						"label": "mapping(bytes32 => mapping(bytes32 => uint256))",
						"numberOfBytes": "32",
						"value": "t_mapping(t_bytes32,t_uint256)"
					},
					"t_mapping(t_bytes32,t_mapping(t_uint256,t_struct(BlockHeader)23_storage))": {
						"encoding": "mapping",
						"key": "t_bytes32",
						"label": "mapping(bytes32 => mapping(uint256 => struct VoteLedger.BlockHeader))",
						"numberOfBytes": "32",
						"value": "t_mapping(t_uint256,t_struct(BlockHeader)23_storage)"
					},
					"t_mapping(t_bytes32,t_struct(BlockHeader)23_storage)": {
						"encoding": "mapping",
						"key": "t_bytes32",
						"label": "mapping(bytes32 => struct VoteLedger.BlockHeader)",
						"numberOfBytes": "32",
						"value": "t_struct(BlockHeader)23_storage"
					},
					"t_mapping(t_bytes32,t_uint256)": {
						"encoding": "mapping",
						"key": "t_bytes32",
						"label": "mapping(bytes32 => uint256)",
						"numberOfBytes": "32",
						"value": "t_uint256"
					},
					"t_mapping(t_uint256,t_struct(BlockHeader)23_storage)": {
						"encoding": "mapping",
						"key": "t_uint256",
						"label": "mapping(uint256 => struct VoteLedger.BlockHeader)",
						"numberOfBytes": "32",
						"value": "t_struct(BlockHeader)23_storage"
					},
					"t_struct(BlockHeader)23_storage": {
						"encoding": "inplace",
						"label": "struct VoteLedger.BlockHeader",
						"members": [
							{
								"astId": 12,
								"contract": "blockchain/contracts/VoteLedger.sol:VoteLedger",
								"label": "height",
								"offset": 0,
								"slot": "0",
								"type": "t_uint256"
							},
							{
								"astId": 14,
								"contract": "blockchain/contracts/VoteLedger.sol:VoteLedger",
								"label": "prevHash",
								"offset": 0,
								"slot": "1",
								"type": "t_bytes32"
							},
							{
								"astId": 16,
								"contract": "blockchain/contracts/VoteLedger.sol:VoteLedger",
								"label": "merkleRoot",
								"offset": 0,
								"slot": "2",
								"type": "t_bytes32"
							},
							{
								"astId": 18,
								"contract": "blockchain/contracts/VoteLedger.sol:VoteLedger",
								"label": "entryCount",
								"offset": 0,
								"slot": "3",
								"type": "t_uint256"
							},
							{
								"astId": 20,
								"contract": "blockchain/contracts/VoteLedger.sol:VoteLedger",
								"label": "blockHash",
								"offset": 0,
								"slot": "4",
								"type": "t_bytes32"
							},
							{
								"astId": 22,
								"contract": "blockchain/contracts/VoteLedger.sol:VoteLedger",
								"label": "timestamp",
								"offset": 0,
								"slot": "5",
								"type": "t_uint256"
							}
						],
						"numberOfBytes": "192"
					},
					"t_uint256": {
						"encoding": "inplace",
						"label": "uint256",
						"numberOfBytes": "32"
					}
				}
			},
			"userdoc": {
				"kind": "user",
				"methods": {},
				"notice": "EPIC 3 - Immutable Vote Ledger (Permissioned) Stores ONLY hashes + Merkle roots (no plaintext votes). Simulates BFT-style commit via quorum approvals.",
				"version": 1
			}
		}
	}
}