{
	"VoteLedger.sol": {
		"VoteLedger": {
			"abi": [
				{
					"inputs": [
						{
							"internalType": "uint256",
							"name": "_quorum",
							"type": "uint256"
						}
					],
					"stateMutability": "nonpayable",
					"type": "constructor"
				},
				{
					"anonymous": false,
					"inputs": [
						{
							"indexed": true,
							"internalType": "bytes32",
							"name": "headerHash",
							"type": "bytes32"
						},
						{
							"indexed": true,
							"internalType": "address",
							"name": "writer",
							"type": "address"
						},
						{
							"indexed": false,
							"internalType": "uint256",
							"name": "approvals",
							"type": "uint256"
						}
					],
					"name": "BlockApproved",
					"type": "event"
				},
				{
					"anonymous": false,
					"inputs": [
						{
							"indexed": false,
							"internalType": "uint256",
							"name": "height",
							"type": "uint256"
						},
						{
							"indexed": false,
							"internalType": "bytes32",
							"name": "blockHash",
							"type": "bytes32"
						},
						{
							"indexed": false,
							"internalType": "bytes32",
							"name": "merkleRoot",
							"type": "bytes32"
						}
					],
					"name": "BlockFinalized",
					"type": "event"
				},
				{
					"anonymous": false,
					"inputs": [
						{
							"indexed": true,
							"internalType": "bytes32",
							"name": "headerHash",
							"type": "bytes32"
						},
						{
							"indexed": false,
							"internalType": "uint256",
							"name": "height",
							"type": "uint256"
						},
						{
							"indexed": false,
							"internalType": "bytes32",
							"name": "prevHash",
							"type": "bytes32"
						},
						{
							"indexed": false,
							"internalType": "bytes32",
							"name": "merkleRoot",
							"type": "bytes32"
						},
						{
							"indexed": false,
							"internalType": "bytes32",
							"name": "blockHash",
							"type": "bytes32"
						}
					],
					"name": "BlockProposed",
					"type": "event"
				},
				{
					"anonymous": false,
					"inputs": [
						{
							"indexed": false,
							"internalType": "uint256",
							"name": "quorum",
							"type": "uint256"
						}
					],
					"name": "QuorumUpdated",
					"type": "event"
				},
				{
					"anonymous": false,
					"inputs": [
						{
							"indexed": true,
							"internalType": "address",
							"name": "writer",
							"type": "address"
						},
						{
							"indexed": false,
							"internalType": "bool",
							"name": "allowed",
							"type": "bool"
						}
					],
					"name": "WriterUpdated",
					"type": "event"
				},
				{
					"inputs": [],
					"name": "admin",
					"outputs": [
						{
							"internalType": "address",
							"name": "",
							"type": "address"
						}
					],
					"stateMutability": "view",
					"type": "function"
				},
				{
					"inputs": [
						{
							"internalType": "bytes32",
							"name": "headerHash",
							"type": "bytes32"
						}
					],
					"name": "approveBlock",
					"outputs": [],
					"stateMutability": "nonpayable",
					"type": "function"
				},
				{
					"inputs": [
						{
							"internalType": "uint256",
							"name": "",
							"type": "uint256"
						}
					],
					"name": "blocks",
					"outputs": [
						{
							"internalType": "uint256",
							"name": "height",
							"type": "uint256"
						},
						{
							"internalType": "bytes32",
							"name": "prevHash",
							"type": "bytes32"
						},
						{
							"internalType": "bytes32",
							"name": "merkleRoot",
							"type": "bytes32"
						},
						{
							"internalType": "bytes32",
							"name": "blockHash",
							"type": "bytes32"
						},
						{
							"internalType": "uint256",
							"name": "timestamp",
							"type": "uint256"
						}
					],
					"stateMutability": "view",
					"type": "function"
				},
				{
					"inputs": [
						{
							"components": [
								{
									"internalType": "uint256",
									"name": "height",
									"type": "uint256"
								},
								{
									"internalType": "bytes32",
									"name": "prevHash",
									"type": "bytes32"
								},
								{
									"internalType": "bytes32",
									"name": "merkleRoot",
									"type": "bytes32"
								},
								{
									"internalType": "bytes32",
									"name": "blockHash",
									"type": "bytes32"
								},
								{
									"internalType": "uint256",
									"name": "timestamp",
									"type": "uint256"
								}
							],
							"internalType": "struct VoteLedger.BlockHeader",
							"name": "h",
							"type": "tuple"
						}
					],
					"name": "computeHeaderHash",
					"outputs": [
						{
							"internalType": "bytes32",
							"name": "",
							"type": "bytes32"
						}
					],
					"stateMutability": "pure",
					"type": "function"
				},
				{
					"inputs": [
						{
							"internalType": "bytes32",
							"name": "headerHash",
							"type": "bytes32"
						}
					],
					"name": "finalizeBlock",
					"outputs": [],
					"stateMutability": "nonpayable",
					"type": "function"
				},
				{
					"inputs": [
						{
							"internalType": "uint256",
							"name": "height",
							"type": "uint256"
						}
					],
					"name": "getBlock",
					"outputs": [
						{
							"components": [
								{
									"internalType": "uint256",
									"name": "height",
									"type": "uint256"
								},
								{
									"internalType": "bytes32",
									"name": "prevHash",
									"type": "bytes32"
								},
								{
									"internalType": "bytes32",
									"name": "merkleRoot",
									"type": "bytes32"
								},
								{
									"internalType": "bytes32",
									"name": "blockHash",
									"type": "bytes32"
								},
								{
									"internalType": "uint256",
									"name": "timestamp",
									"type": "uint256"
								}
							],
							"internalType": "struct VoteLedger.BlockHeader",
							"name": "",
							"type": "tuple"
						}
					],
					"stateMutability": "view",
					"type": "function"
				},
				{
					"inputs": [
						{
							"internalType": "bytes32",
							"name": "",
							"type": "bytes32"
						},
						{
							"internalType": "address",
							"name": "",
							"type": "address"
						}
					],
					"name": "hasApproved",
					"outputs": [
						{
							"internalType": "bool",
							"name": "",
							"type": "bool"
						}
					],
					"stateMutability": "view",
					"type": "function"
				},
				{
					"inputs": [
						{
							"internalType": "address",
							"name": "",
							"type": "address"
						}
					],
					"name": "isWriter",
					"outputs": [
						{
							"internalType": "bool",
							"name": "",
							"type": "bool"
						}
					],
					"stateMutability": "view",
					"type": "function"
				},
				{
					"inputs": [
						{
							"internalType": "bytes32",
							"name": "",
							"type": "bytes32"
						}
					],
					"name": "proposals",
					"outputs": [
						{
							"components": [
								{
									"internalType": "uint256",
									"name": "height",
									"type": "uint256"
								},
								{
									"internalType": "bytes32",
									"name": "prevHash",
									"type": "bytes32"
								},
								{
									"internalType": "bytes32",
									"name": "merkleRoot",
									"type": "bytes32"
								},
								{
									"internalType": "bytes32",
									"name": "blockHash",
									"type": "bytes32"
								},
								{
									"internalType": "uint256",
									"name": "timestamp",
									"type": "uint256"
								}
							],
							"internalType": "struct VoteLedger.BlockHeader",
							"name": "header",
							"type": "tuple"
						},
						{
							"internalType": "uint256",
							"name": "approvals",
							"type": "uint256"
						},
						{
							"internalType": "bool",
							"name": "exists",
							"type": "bool"
						},
						{
							"internalType": "bool",
							"name": "finalized",
							"type": "bool"
						}
					],
					"stateMutability": "view",
					"type": "function"
				},
				{
					"inputs": [
						{
							"internalType": "uint256",
							"name": "height",
							"type": "uint256"
						},
						{
							"internalType": "bytes32",
							"name": "prevHash",
							"type": "bytes32"
						},
						{
							"internalType": "bytes32",
							"name": "merkleRoot",
							"type": "bytes32"
						},
						{
							"internalType": "bytes32",
							"name": "blockHash",
							"type": "bytes32"
						},
						{
							"internalType": "uint256",
							"name": "timestamp",
							"type": "uint256"
						}
					],
					"name": "proposeBlock",
					"outputs": [
						{
							"internalType": "bytes32",
							"name": "headerHash",
							"type": "bytes32"
						}
					],
					"stateMutability": "nonpayable",
					"type": "function"
				},
				{
					"inputs": [],
					"name": "quorum",
					"outputs": [
						{
							"internalType": "uint256",
							"name": "",
							"type": "uint256"
						}
					],
					"stateMutability": "view",
					"type": "function"
				},
				{
					"inputs": [
						{
							"internalType": "uint256",
							"name": "_quorum",
							"type": "uint256"
						}
					],
					"name": "setQuorum",
					"outputs": [],
					"stateMutability": "nonpayable",
					"type": "function"
				},
				{
					"inputs": [
						{
							"internalType": "address",
							"name": "writer",
							"type": "address"
						},
						{
							"internalType": "bool",
							"name": "allowed",
							"type": "bool"
						}
					],
					"name": "setWriter",
					"outputs": [],
					"stateMutability": "nonpayable",
					"type": "function"
				},
				{
					"inputs": [],
					"name": "tipHash",
					"outputs": [
						{
							"internalType": "bytes32",
							"name": "",
							"type": "bytes32"
						}
					],
					"stateMutability": "view",
					"type": "function"
				},
				{
					"inputs": [],
					"name": "tipHeight",
					"outputs": [
						{
							"internalType": "uint256",
							"name": "",
							"type": "uint256"
						}
					],
					"stateMutability": "view",
					"type": "function"
				}
			],
			"devdoc": {
				"kind": "dev",
				"methods": {},
				"version": 1
			},
			"evm": {
				"assembly": "    /* \"VoteLedger.sol\":267:4893  contract VoteLedger {... */\n  mstore(0x40, 0x80)\n    /* \"VoteLedger.sol\":1722:1971  constructor(uint256 _quorum) {... */\n  callvalue\n  dup1\n  iszero\n  tag_1\n  jumpi\n  revert(0x00, 0x00)\ntag_1:\n  pop\n  mload(0x40)\n  sub(codesize, bytecodeSize)\n  dup1\n  bytecodeSize\n  dup4\n  codecopy\n  dup2\n  dup2\n  add\n  0x40\n  mstore\n  dup2\n  add\n  swap1\n  tag_2\n  swap2\n  swap1\n  tag_3\n  jump\t// in\ntag_2:\n    /* \"VoteLedger.sol\":1770:1780  msg.sender */\n  caller\n    /* \"VoteLedger.sol\":1762:1767  admin */\n  0x00\n  0x00\n    /* \"VoteLedger.sol\":1762:1780  admin = msg.sender */\n  0x0100\n  exp\n  dup2\n  sload\n  dup2\n  0xffffffffffffffffffffffffffffffffffffffff\n  mul\n  not\n  and\n  swap1\n  dup4\n  0xffffffffffffffffffffffffffffffffffffffff\n  and\n  mul\n  or\n  swap1\n  sstore\n  pop\n    /* \"VoteLedger.sol\":1800:1807  _quorum */\n  dup1\n    /* \"VoteLedger.sol\":1791:1797  quorum */\n  0x01\n    /* \"VoteLedger.sol\":1791:1807  quorum = _quorum */\n  dup2\n  swap1\n  sstore\n  pop\n    /* \"VoteLedger.sol\":1841:1845  true */\n  0x01\n    /* \"VoteLedger.sol\":1818:1826  isWriter */\n  0x05\n    /* \"VoteLedger.sol\":1818:1838  isWriter[msg.sender] */\n  0x00\n    /* \"VoteLedger.sol\":1827:1837  msg.sender */\n  caller\n    /* \"VoteLedger.sol\":1818:1838  isWriter[msg.sender] */\n  0xffffffffffffffffffffffffffffffffffffffff\n  and\n  0xffffffffffffffffffffffffffffffffffffffff\n  and\n  dup2\n  mstore\n  0x20\n  add\n  swap1\n  dup2\n  mstore\n  0x20\n  add\n  0x00\n  keccak256\n  0x00\n    /* \"VoteLedger.sol\":1818:1845  isWriter[msg.sender] = true */\n  0x0100\n  exp\n  dup2\n  sload\n  dup2\n  0xff\n  mul\n  not\n  and\n  swap1\n  dup4\n  iszero\n  iszero\n  mul\n  or\n  swap1\n  sstore\n  pop\n    /* \"VoteLedger.sol\":1908:1918  msg.sender */\n  caller\n    /* \"VoteLedger.sol\":1894:1925  WriterUpdated(msg.sender, true) */\n  0xffffffffffffffffffffffffffffffffffffffff\n  and\n  0x7500d470ca795448d4f0b796ac1d4562fd0d46302770ff16ee8aa96db044c93f\n    /* \"VoteLedger.sol\":1920:1924  true */\n  0x01\n    /* \"VoteLedger.sol\":1894:1925  WriterUpdated(msg.sender, true) */\n  mload(0x40)\n  tag_6\n  swap2\n  swap1\n  tag_7\n  jump\t// in\ntag_6:\n  mload(0x40)\n  dup1\n  swap2\n  sub\n  swap1\n  log2\n    /* \"VoteLedger.sol\":1941:1963  QuorumUpdated(_quorum) */\n  0xf18f88786aae85a652aadb99a82462616489a33370c9bcc7b245906812ef7cd1\n    /* \"VoteLedger.sol\":1955:1962  _quorum */\n  dup2\n    /* \"VoteLedger.sol\":1941:1963  QuorumUpdated(_quorum) */\n  mload(0x40)\n  tag_8\n  swap2\n  swap1\n  tag_9\n  jump\t// in\ntag_8:\n  mload(0x40)\n  dup1\n  swap2\n  sub\n  swap1\n  log1\n    /* \"VoteLedger.sol\":1722:1971  constructor(uint256 _quorum) {... */\n  pop\n    /* \"VoteLedger.sol\":267:4893  contract VoteLedger {... */\n  jump(tag_10)\n    /* \"#utility.yul\":88:205   */\ntag_12:\n    /* \"#utility.yul\":197:198   */\n  0x00\n    /* \"#utility.yul\":194:195   */\n  0x00\n    /* \"#utility.yul\":187:199   */\n  revert\n    /* \"#utility.yul\":334:411   */\ntag_14:\n    /* \"#utility.yul\":371:378   */\n  0x00\n    /* \"#utility.yul\":400:405   */\n  dup2\n    /* \"#utility.yul\":389:405   */\n  swap1\n  pop\n    /* \"#utility.yul\":334:411   */\n  swap2\n  swap1\n  pop\n  jump\t// out\n    /* \"#utility.yul\":417:539   */\ntag_15:\n    /* \"#utility.yul\":490:514   */\n  tag_26\n    /* \"#utility.yul\":508:513   */\n  dup2\n    /* \"#utility.yul\":490:514   */\n  tag_14\n  jump\t// in\ntag_26:\n    /* \"#utility.yul\":483:488   */\n  dup2\n    /* \"#utility.yul\":480:515   */\n  eq\n    /* \"#utility.yul\":470:533   */\n  tag_27\n  jumpi\n    /* \"#utility.yul\":529:530   */\n  0x00\n    /* \"#utility.yul\":526:527   */\n  0x00\n    /* \"#utility.yul\":519:531   */\n  revert\n    /* \"#utility.yul\":470:533   */\ntag_27:\n    /* \"#utility.yul\":417:539   */\n  pop\n  jump\t// out\n    /* \"#utility.yul\":545:688   */\ntag_16:\n    /* \"#utility.yul\":602:607   */\n  0x00\n    /* \"#utility.yul\":633:639   */\n  dup2\n    /* \"#utility.yul\":627:640   */\n  mload\n    /* \"#utility.yul\":618:640   */\n  swap1\n  pop\n    /* \"#utility.yul\":649:682   */\n  tag_29\n    /* \"#utility.yul\":676:681   */\n  dup2\n    /* \"#utility.yul\":649:682   */\n  tag_15\n  jump\t// in\ntag_29:\n    /* \"#utility.yul\":545:688   */\n  swap3\n  swap2\n  pop\n  pop\n  jump\t// out\n    /* \"#utility.yul\":694:1045   */\ntag_3:\n    /* \"#utility.yul\":764:770   */\n  0x00\n    /* \"#utility.yul\":813:815   */\n  0x20\n    /* \"#utility.yul\":801:810   */\n  dup3\n    /* \"#utility.yul\":792:799   */\n  dup5\n    /* \"#utility.yul\":788:811   */\n  sub\n    /* \"#utility.yul\":784:816   */\n  slt\n    /* \"#utility.yul\":781:900   */\n  iszero\n  tag_31\n  jumpi\n    /* \"#utility.yul\":819:898   */\n  tag_32\n  tag_12\n  jump\t// in\ntag_32:\n    /* \"#utility.yul\":781:900   */\ntag_31:\n    /* \"#utility.yul\":939:940   */\n  0x00\n    /* \"#utility.yul\":964:1028   */\n  tag_33\n    /* \"#utility.yul\":1020:1027   */\n  dup5\n    /* \"#utility.yul\":1011:1017   */\n  dup3\n    /* \"#utility.yul\":1000:1009   */\n  dup6\n    /* \"#utility.yul\":996:1018   */\n  add\n    /* \"#utility.yul\":964:1028   */\n  tag_16\n  jump\t// in\ntag_33:\n    /* \"#utility.yul\":954:1028   */\n  swap2\n  pop\n    /* \"#utility.yul\":910:1038   */\n  pop\n    /* \"#utility.yul\":694:1045   */\n  swap3\n  swap2\n  pop\n  pop\n  jump\t// out\n    /* \"#utility.yul\":1051:1141   */\ntag_17:\n    /* \"#utility.yul\":1085:1092   */\n  0x00\n    /* \"#utility.yul\":1128:1133   */\n  dup2\n    /* \"#utility.yul\":1121:1134   */\n  iszero\n    /* \"#utility.yul\":1114:1135   */\n  iszero\n    /* \"#utility.yul\":1103:1135   */\n  swap1\n  pop\n    /* \"#utility.yul\":1051:1141   */\n  swap2\n  swap1\n  pop\n  jump\t// out\n    /* \"#utility.yul\":1147:1256   */\ntag_18:\n    /* \"#utility.yul\":1228:1249   */\n  tag_36\n    /* \"#utility.yul\":1243:1248   */\n  dup2\n    /* \"#utility.yul\":1228:1249   */\n  tag_17\n  jump\t// in\ntag_36:\n    /* \"#utility.yul\":1223:1226   */\n  dup3\n    /* \"#utility.yul\":1216:1250   */\n  mstore\n    /* \"#utility.yul\":1147:1256   */\n  pop\n  pop\n  jump\t// out\n    /* \"#utility.yul\":1262:1472   */\ntag_7:\n    /* \"#utility.yul\":1349:1353   */\n  0x00\n    /* \"#utility.yul\":1387:1389   */\n  0x20\n    /* \"#utility.yul\":1376:1385   */\n  dup3\n    /* \"#utility.yul\":1372:1390   */\n  add\n    /* \"#utility.yul\":1364:1390   */\n  swap1\n  pop\n    /* \"#utility.yul\":1400:1465   */\n  tag_38\n    /* \"#utility.yul\":1462:1463   */\n  0x00\n    /* \"#utility.yul\":1451:1460   */\n  dup4\n    /* \"#utility.yul\":1447:1464   */\n  add\n    /* \"#utility.yul\":1438:1444   */\n  dup5\n    /* \"#utility.yul\":1400:1465   */\n  tag_18\n  jump\t// in\ntag_38:\n    /* \"#utility.yul\":1262:1472   */\n  swap3\n  swap2\n  pop\n  pop\n  jump\t// out\n    /* \"#utility.yul\":1478:1596   */\ntag_19:\n    /* \"#utility.yul\":1565:1589   */\n  tag_40\n    /* \"#utility.yul\":1583:1588   */\n  dup2\n    /* \"#utility.yul\":1565:1589   */\n  tag_14\n  jump\t// in\ntag_40:\n    /* \"#utility.yul\":1560:1563   */\n  dup3\n    /* \"#utility.yul\":1553:1590   */\n  mstore\n    /* \"#utility.yul\":1478:1596   */\n  pop\n  pop\n  jump\t// out\n    /* \"#utility.yul\":1602:1824   */\ntag_9:\n    /* \"#utility.yul\":1695:1699   */\n  0x00\n    /* \"#utility.yul\":1733:1735   */\n  0x20\n    /* \"#utility.yul\":1722:1731   */\n  dup3\n    /* \"#utility.yul\":1718:1736   */\n  add\n    /* \"#utility.yul\":1710:1736   */\n  swap1\n  pop\n    /* \"#utility.yul\":1746:1817   */\n  tag_42\n    /* \"#utility.yul\":1814:1815   */\n  0x00\n    /* \"#utility.yul\":1803:1812   */\n  dup4\n    /* \"#utility.yul\":1799:1816   */\n  add\n    /* \"#utility.yul\":1790:1796   */\n  dup5\n    /* \"#utility.yul\":1746:1817   */\n  tag_19\n  jump\t// in\ntag_42:\n    /* \"#utility.yul\":1602:1824   */\n  swap3\n  swap2\n  pop\n  pop\n  jump\t// out\n    /* \"VoteLedger.sol\":267:4893  contract VoteLedger {... */\ntag_10:\n  dataSize(sub_0)\n  dup1\n  dataOffset(sub_0)\n  0x00\n  codecopy\n  0x00\n  return\nstop\n\nsub_0: assembly {\n        /* \"VoteLedger.sol\":267:4893  contract VoteLedger {... */\n      mstore(0x40, 0x80)\n      callvalue\n      dup1\n      iszero\n      tag_1\n      jumpi\n      revert(0x00, 0x00)\n    tag_1:\n      pop\n      jumpi(tag_2, lt(calldatasize, 0x04))\n      shr(0xe0, calldataload(0x00))\n      dup1\n      0x674e96e4\n      gt\n      tag_18\n      jumpi\n      dup1\n      0xc9da00a6\n      gt\n      tag_19\n      jumpi\n      dup1\n      0xc9da00a6\n      eq\n      tag_14\n      jumpi\n      dup1\n      0xed3e46ae\n      eq\n      tag_15\n      jumpi\n      dup1\n      0xf25b3f99\n      eq\n      tag_16\n      jumpi\n      dup1\n      0xf851a440\n      eq\n      tag_17\n      jumpi\n      jump(tag_2)\n    tag_19:\n      dup1\n      0x674e96e4\n      eq\n      tag_10\n      jumpi\n      dup1\n      0x9b998002\n      eq\n      tag_11\n      jumpi\n      dup1\n      0xa0cafb9c\n      eq\n      tag_12\n      jumpi\n      dup1\n      0xc1ba4e59\n      eq\n      tag_13\n      jumpi\n      jump(tag_2)\n    tag_18:\n      dup1\n      0x1fd4827a\n      gt\n      tag_20\n      jumpi\n      dup1\n      0x1fd4827a\n      eq\n      tag_6\n      jumpi\n      dup1\n      0x23cdc3f1\n      eq\n      tag_7\n      jumpi\n      dup1\n      0x2b29ba23\n      eq\n      tag_8\n      jumpi\n      dup1\n      0x32ed5b12\n      eq\n      tag_9\n      jumpi\n      jump(tag_2)\n    tag_20:\n      dup1\n      0x04c07569\n      eq\n      tag_3\n      jumpi\n      dup1\n      0x1703a018\n      eq\n      tag_4\n      jumpi\n      dup1\n      0x1f91b39f\n      eq\n      tag_5\n      jumpi\n    tag_2:\n      revert(0x00, 0x00)\n        /* \"VoteLedger.sol\":4773:4890  function getBlock(uint256 height) external view returns (BlockHeader memory) {... */\n    tag_3:\n      tag_21\n      0x04\n      dup1\n      calldatasize\n      sub\n      dup2\n      add\n      swap1\n      tag_22\n      swap2\n      swap1\n      tag_23\n      jump\t// in\n    tag_22:\n      tag_24\n      jump\t// in\n    tag_21:\n      mload(0x40)\n      tag_25\n      swap2\n      swap1\n      tag_26\n      jump\t// in\n    tag_25:\n      mload(0x40)\n      dup1\n      swap2\n      sub\n      swap1\n      return\n        /* \"VoteLedger.sol\":321:342  uint256 public quorum */\n    tag_4:\n      tag_27\n      tag_28\n      jump\t// in\n    tag_27:\n      mload(0x40)\n      tag_29\n      swap2\n      swap1\n      tag_30\n      jump\t// in\n    tag_29:\n      mload(0x40)\n      dup1\n      swap2\n      sub\n      swap1\n      return\n        /* \"VoteLedger.sol\":1979:2138  function setWriter(address writer, bool allowed) external onlyAdmin {... */\n    tag_5:\n      tag_31\n      0x04\n      dup1\n      calldatasize\n      sub\n      dup2\n      add\n      swap1\n      tag_32\n      swap2\n      swap1\n      tag_33\n      jump\t// in\n    tag_32:\n      tag_34\n      jump\t// in\n    tag_31:\n      stop\n        /* \"VoteLedger.sol\":633:657  uint256 public tipHeight */\n    tag_6:\n      tag_35\n      tag_36\n      jump\t// in\n    tag_35:\n      mload(0x40)\n      tag_37\n      swap2\n      swap1\n      tag_30\n      jump\t// in\n    tag_37:\n      mload(0x40)\n      dup1\n      swap2\n      sub\n      swap1\n      return\n        /* \"VoteLedger.sol\":1029:1092  mapping(bytes32 => mapping(address => bool)) public hasApproved */\n    tag_7:\n      tag_38\n      0x04\n      dup1\n      calldatasize\n      sub\n      dup2\n      add\n      swap1\n      tag_39\n      swap2\n      swap1\n      tag_40\n      jump\t// in\n    tag_39:\n      tag_41\n      jump\t// in\n    tag_38:\n      mload(0x40)\n      tag_42\n      swap2\n      swap1\n      tag_43\n      jump\t// in\n    tag_42:\n      mload(0x40)\n      dup1\n      swap2\n      sub\n      swap1\n      return\n        /* \"VoteLedger.sol\":752:792  mapping(address => bool) public isWriter */\n    tag_8:\n      tag_44\n      0x04\n      dup1\n      calldatasize\n      sub\n      dup2\n      add\n      swap1\n      tag_45\n      swap2\n      swap1\n      tag_46\n      jump\t// in\n    tag_45:\n      tag_47\n      jump\t// in\n    tag_44:\n      mload(0x40)\n      tag_48\n      swap2\n      swap1\n      tag_43\n      jump\t// in\n    tag_48:\n      mload(0x40)\n      dup1\n      swap2\n      sub\n      swap1\n      return\n        /* \"VoteLedger.sol\":977:1022  mapping(bytes32 => Proposal) public proposals */\n    tag_9:\n      tag_49\n      0x04\n      dup1\n      calldatasize\n      sub\n      dup2\n      add\n      swap1\n      tag_50\n      swap2\n      swap1\n      tag_51\n      jump\t// in\n    tag_50:\n      tag_52\n      jump\t// in\n    tag_49:\n      mload(0x40)\n      tag_53\n      swap5\n      swap4\n      swap3\n      swap2\n      swap1\n      tag_54\n      jump\t// in\n    tag_53:\n      mload(0x40)\n      dup1\n      swap2\n      sub\n      swap1\n      return\n        /* \"VoteLedger.sol\":2580:3492  function proposeBlock(... */\n    tag_10:\n      tag_55\n      0x04\n      dup1\n      calldatasize\n      sub\n      dup2\n      add\n      swap1\n      tag_56\n      swap2\n      swap1\n      tag_57\n      jump\t// in\n    tag_56:\n      tag_58\n      jump\t// in\n    tag_55:\n      mload(0x40)\n      tag_59\n      swap2\n      swap1\n      tag_60\n      jump\t// in\n    tag_59:\n      mload(0x40)\n      dup1\n      swap2\n      sub\n      swap1\n      return\n        /* \"VoteLedger.sol\":3500:3613  function approveBlock(bytes32 headerHash) external onlyWriter {... */\n    tag_11:\n      tag_61\n      0x04\n      dup1\n      calldatasize\n      sub\n      dup2\n      add\n      swap1\n      tag_62\n      swap2\n      swap1\n      tag_51\n      jump\t// in\n    tag_62:\n      tag_63\n      jump\t// in\n    tag_61:\n      stop\n        /* \"VoteLedger.sol\":2336:2572  function computeHeaderHash(BlockHeader memory h) public pure returns (bytes32) {... */\n    tag_12:\n      tag_64\n      0x04\n      dup1\n      calldatasize\n      sub\n      dup2\n      add\n      swap1\n      tag_65\n      swap2\n      swap1\n      tag_66\n      jump\t// in\n    tag_65:\n      tag_67\n      jump\t// in\n    tag_64:\n      mload(0x40)\n      tag_68\n      swap2\n      swap1\n      tag_60\n      jump\t// in\n    tag_68:\n      mload(0x40)\n      dup1\n      swap2\n      sub\n      swap1\n      return\n        /* \"VoteLedger.sol\":2146:2328  function setQuorum(uint256 _quorum) external onlyAdmin {... */\n    tag_13:\n      tag_69\n      0x04\n      dup1\n      calldatasize\n      sub\n      dup2\n      add\n      swap1\n      tag_70\n      swap2\n      swap1\n      tag_23\n      jump\t// in\n    tag_70:\n      tag_71\n      jump\t// in\n    tag_69:\n      stop\n        /* \"VoteLedger.sol\":4068:4765  function finalizeBlock(bytes32 headerHash) external onlyWriter {... */\n    tag_14:\n      tag_72\n      0x04\n      dup1\n      calldatasize\n      sub\n      dup2\n      add\n      swap1\n      tag_73\n      swap2\n      swap1\n      tag_51\n      jump\t// in\n    tag_73:\n      tag_74\n      jump\t// in\n    tag_72:\n      stop\n        /* \"VoteLedger.sol\":664:686  bytes32 public tipHash */\n    tag_15:\n      tag_75\n      tag_76\n      jump\t// in\n    tag_75:\n      mload(0x40)\n      tag_77\n      swap2\n      swap1\n      tag_60\n      jump\t// in\n    tag_77:\n      mload(0x40)\n      dup1\n      swap2\n      sub\n      swap1\n      return\n        /* \"VoteLedger.sol\":581:626  mapping(uint256 => BlockHeader) public blocks */\n    tag_16:\n      tag_78\n      0x04\n      dup1\n      calldatasize\n      sub\n      dup2\n      add\n      swap1\n      tag_79\n      swap2\n      swap1\n      tag_23\n      jump\t// in\n    tag_79:\n      tag_80\n      jump\t// in\n    tag_78:\n      mload(0x40)\n      tag_81\n      swap6\n      swap5\n      swap4\n      swap3\n      swap2\n      swap1\n      tag_82\n      jump\t// in\n    tag_81:\n      mload(0x40)\n      dup1\n      swap2\n      sub\n      swap1\n      return\n        /* \"VoteLedger.sol\":294:314  address public admin */\n    tag_17:\n      tag_83\n      tag_84\n      jump\t// in\n    tag_83:\n      mload(0x40)\n      tag_85\n      swap2\n      swap1\n      tag_86\n      jump\t// in\n    tag_85:\n      mload(0x40)\n      dup1\n      swap2\n      sub\n      swap1\n      return\n        /* \"VoteLedger.sol\":4773:4890  function getBlock(uint256 height) external view returns (BlockHeader memory) {... */\n    tag_24:\n        /* \"VoteLedger.sol\":4830:4848  BlockHeader memory */\n      tag_87\n      tag_88\n      jump\t// in\n    tag_87:\n        /* \"VoteLedger.sol\":4868:4874  blocks */\n      0x02\n        /* \"VoteLedger.sol\":4868:4882  blocks[height] */\n      0x00\n        /* \"VoteLedger.sol\":4875:4881  height */\n      dup4\n        /* \"VoteLedger.sol\":4868:4882  blocks[height] */\n      dup2\n      mstore\n      0x20\n      add\n      swap1\n      dup2\n      mstore\n      0x20\n      add\n      0x00\n      keccak256\n        /* \"VoteLedger.sol\":4861:4882  return blocks[height] */\n      mload(0x40)\n      dup1\n      0xa0\n      add\n      0x40\n      mstore\n      swap1\n      dup2\n      0x00\n      dup3\n      add\n      sload\n      dup2\n      mstore\n      0x20\n      add\n      0x01\n      dup3\n      add\n      sload\n      dup2\n      mstore\n      0x20\n      add\n      0x02\n      dup3\n      add\n      sload\n      dup2\n      mstore\n      0x20\n      add\n      0x03\n      dup3\n      add\n      sload\n      dup2\n      mstore\n      0x20\n      add\n      0x04\n      dup3\n      add\n      sload\n      dup2\n      mstore\n      pop\n      pop\n      swap1\n      pop\n        /* \"VoteLedger.sol\":4773:4890  function getBlock(uint256 height) external view returns (BlockHeader memory) {... */\n      swap2\n      swap1\n      pop\n      jump\t// out\n        /* \"VoteLedger.sol\":321:342  uint256 public quorum */\n    tag_28:\n      sload(0x01)\n      dup2\n      jump\t// out\n        /* \"VoteLedger.sol\":1979:2138  function setWriter(address writer, bool allowed) external onlyAdmin {... */\n    tag_34:\n        /* \"VoteLedger.sol\":1571:1576  admin */\n      0x00\n      0x00\n      swap1\n      sload\n      swap1\n      0x0100\n      exp\n      swap1\n      div\n      0xffffffffffffffffffffffffffffffffffffffff\n      and\n        /* \"VoteLedger.sol\":1557:1576  msg.sender == admin */\n      0xffffffffffffffffffffffffffffffffffffffff\n      and\n        /* \"VoteLedger.sol\":1557:1567  msg.sender */\n      caller\n        /* \"VoteLedger.sol\":1557:1576  msg.sender == admin */\n      0xffffffffffffffffffffffffffffffffffffffff\n      and\n      eq\n        /* \"VoteLedger.sol\":1549:1590  require(msg.sender == admin, \"not admin\") */\n      tag_91\n      jumpi\n      mload(0x40)\n      0x08c379a000000000000000000000000000000000000000000000000000000000\n      dup2\n      mstore\n      0x04\n      add\n      tag_92\n      swap1\n      tag_93\n      jump\t// in\n    tag_92:\n      mload(0x40)\n      dup1\n      swap2\n      sub\n      swap1\n      revert\n    tag_91:\n        /* \"VoteLedger.sol\":2077:2084  allowed */\n      dup1\n        /* \"VoteLedger.sol\":2058:2066  isWriter */\n      0x05\n        /* \"VoteLedger.sol\":2058:2074  isWriter[writer] */\n      0x00\n        /* \"VoteLedger.sol\":2067:2073  writer */\n      dup5\n        /* \"VoteLedger.sol\":2058:2074  isWriter[writer] */\n      0xffffffffffffffffffffffffffffffffffffffff\n      and\n      0xffffffffffffffffffffffffffffffffffffffff\n      and\n      dup2\n      mstore\n      0x20\n      add\n      swap1\n      dup2\n      mstore\n      0x20\n      add\n      0x00\n      keccak256\n      0x00\n        /* \"VoteLedger.sol\":2058:2084  isWriter[writer] = allowed */\n      0x0100\n      exp\n      dup2\n      sload\n      dup2\n      0xff\n      mul\n      not\n      and\n      swap1\n      dup4\n      iszero\n      iszero\n      mul\n      or\n      swap1\n      sstore\n      pop\n        /* \"VoteLedger.sol\":2114:2120  writer */\n      dup2\n        /* \"VoteLedger.sol\":2100:2130  WriterUpdated(writer, allowed) */\n      0xffffffffffffffffffffffffffffffffffffffff\n      and\n      0x7500d470ca795448d4f0b796ac1d4562fd0d46302770ff16ee8aa96db044c93f\n        /* \"VoteLedger.sol\":2122:2129  allowed */\n      dup3\n        /* \"VoteLedger.sol\":2100:2130  WriterUpdated(writer, allowed) */\n      mload(0x40)\n      tag_95\n      swap2\n      swap1\n      tag_43\n      jump\t// in\n    tag_95:\n      mload(0x40)\n      dup1\n      swap2\n      sub\n      swap1\n      log2\n        /* \"VoteLedger.sol\":1979:2138  function setWriter(address writer, bool allowed) external onlyAdmin {... */\n      pop\n      pop\n      jump\t// out\n        /* \"VoteLedger.sol\":633:657  uint256 public tipHeight */\n    tag_36:\n      sload(0x03)\n      dup2\n      jump\t// out\n        /* \"VoteLedger.sol\":1029:1092  mapping(bytes32 => mapping(address => bool)) public hasApproved */\n    tag_41:\n      mstore(0x20, 0x07)\n      dup2\n      0x00\n      mstore\n      mstore(0x20, keccak256(0x00, 0x40))\n      dup1\n      0x00\n      mstore\n      keccak256(0x00, 0x40)\n      0x00\n      swap2\n      pop\n      swap2\n      pop\n      swap1\n      sload\n      swap1\n      0x0100\n      exp\n      swap1\n      div\n      0xff\n      and\n      dup2\n      jump\t// out\n        /* \"VoteLedger.sol\":752:792  mapping(address => bool) public isWriter */\n    tag_47:\n      mstore(0x20, 0x05)\n      dup1\n      0x00\n      mstore\n      keccak256(0x00, 0x40)\n      0x00\n      swap2\n      pop\n      sload\n      swap1\n      0x0100\n      exp\n      swap1\n      div\n      0xff\n      and\n      dup2\n      jump\t// out\n        /* \"VoteLedger.sol\":977:1022  mapping(bytes32 => Proposal) public proposals */\n    tag_52:\n      mstore(0x20, 0x06)\n      dup1\n      0x00\n      mstore\n      keccak256(0x00, 0x40)\n      0x00\n      swap2\n      pop\n      swap1\n      pop\n      dup1\n      0x00\n      add\n      mload(0x40)\n      dup1\n      0xa0\n      add\n      0x40\n      mstore\n      swap1\n      dup2\n      0x00\n      dup3\n      add\n      sload\n      dup2\n      mstore\n      0x20\n      add\n      0x01\n      dup3\n      add\n      sload\n      dup2\n      mstore\n      0x20\n      add\n      0x02\n      dup3\n      add\n      sload\n      dup2\n      mstore\n      0x20\n      add\n      0x03\n      dup3\n      add\n      sload\n      dup2\n      mstore\n      0x20\n      add\n      0x04\n      dup3\n      add\n      sload\n      dup2\n      mstore\n      pop\n      pop\n      swap1\n      dup1\n      0x05\n      add\n      sload\n      swap1\n      dup1\n      0x06\n      add\n      0x00\n      swap1\n      sload\n      swap1\n      0x0100\n      exp\n      swap1\n      div\n      0xff\n      and\n      swap1\n      dup1\n      0x06\n      add\n      0x01\n      swap1\n      sload\n      swap1\n      0x0100\n      exp\n      swap1\n      div\n      0xff\n      and\n      swap1\n      pop\n      dup5\n      jump\t// out\n        /* \"VoteLedger.sol\":2580:3492  function proposeBlock(... */\n    tag_58:\n        /* \"VoteLedger.sol\":2775:2793  bytes32 headerHash */\n      0x00\n        /* \"VoteLedger.sol\":1659:1667  isWriter */\n      0x05\n        /* \"VoteLedger.sol\":1659:1679  isWriter[msg.sender] */\n      0x00\n        /* \"VoteLedger.sol\":1668:1678  msg.sender */\n      caller\n        /* \"VoteLedger.sol\":1659:1679  isWriter[msg.sender] */\n      0xffffffffffffffffffffffffffffffffffffffff\n      and\n      0xffffffffffffffffffffffffffffffffffffffff\n      and\n      dup2\n      mstore\n      0x20\n      add\n      swap1\n      dup2\n      mstore\n      0x20\n      add\n      0x00\n      keccak256\n      0x00\n      swap1\n      sload\n      swap1\n      0x0100\n      exp\n      swap1\n      div\n      0xff\n      and\n        /* \"VoteLedger.sol\":1651:1694  require(isWriter[msg.sender], \"not writer\") */\n      tag_97\n      jumpi\n      mload(0x40)\n      0x08c379a000000000000000000000000000000000000000000000000000000000\n      dup2\n      mstore\n      0x04\n      add\n      tag_98\n      swap1\n      tag_99\n      jump\t// in\n    tag_98:\n      mload(0x40)\n      dup1\n      swap2\n      sub\n      swap1\n      revert\n    tag_97:\n        /* \"VoteLedger.sol\":2836:2837  1 */\n      0x01\n        /* \"VoteLedger.sol\":2824:2833  tipHeight */\n      sload(0x03)\n        /* \"VoteLedger.sol\":2824:2837  tipHeight + 1 */\n      tag_101\n      swap2\n      swap1\n      tag_102\n      jump\t// in\n    tag_101:\n        /* \"VoteLedger.sol\":2814:2820  height */\n      dup7\n        /* \"VoteLedger.sol\":2814:2837  height == tipHeight + 1 */\n      eq\n        /* \"VoteLedger.sol\":2806:2852  require(height == tipHeight + 1, \"bad height\") */\n      tag_103\n      jumpi\n      mload(0x40)\n      0x08c379a000000000000000000000000000000000000000000000000000000000\n      dup2\n      mstore\n      0x04\n      add\n      tag_104\n      swap1\n      tag_105\n      jump\t// in\n    tag_104:\n      mload(0x40)\n      dup1\n      swap2\n      sub\n      swap1\n      revert\n    tag_103:\n        /* \"VoteLedger.sol\":2883:2890  tipHash */\n      sload(0x04)\n        /* \"VoteLedger.sol\":2871:2879  prevHash */\n      dup6\n        /* \"VoteLedger.sol\":2871:2890  prevHash == tipHash */\n      eq\n        /* \"VoteLedger.sol\":2863:2908  require(prevHash == tipHash, \"prev mismatch\") */\n      tag_106\n      jumpi\n      mload(0x40)\n      0x08c379a000000000000000000000000000000000000000000000000000000000\n      dup2\n      mstore\n      0x04\n      add\n      tag_107\n      swap1\n      tag_108\n      jump\t// in\n    tag_107:\n      mload(0x40)\n      dup1\n      swap2\n      sub\n      swap1\n      revert\n    tag_106:\n        /* \"VoteLedger.sol\":2921:2941  BlockHeader memory h */\n      0x00\n        /* \"VoteLedger.sol\":2944:3007  BlockHeader(height, prevHash, merkleRoot, blockHash, timestamp) */\n      mload(0x40)\n      dup1\n      0xa0\n      add\n      0x40\n      mstore\n      dup1\n        /* \"VoteLedger.sol\":2956:2962  height */\n      dup9\n        /* \"VoteLedger.sol\":2944:3007  BlockHeader(height, prevHash, merkleRoot, blockHash, timestamp) */\n      dup2\n      mstore\n      0x20\n      add\n        /* \"VoteLedger.sol\":2964:2972  prevHash */\n      dup8\n        /* \"VoteLedger.sol\":2944:3007  BlockHeader(height, prevHash, merkleRoot, blockHash, timestamp) */\n      dup2\n      mstore\n      0x20\n      add\n        /* \"VoteLedger.sol\":2974:2984  merkleRoot */\n      dup7\n        /* \"VoteLedger.sol\":2944:3007  BlockHeader(height, prevHash, merkleRoot, blockHash, timestamp) */\n      dup2\n      mstore\n      0x20\n      add\n        /* \"VoteLedger.sol\":2986:2995  blockHash */\n      dup6\n        /* \"VoteLedger.sol\":2944:3007  BlockHeader(height, prevHash, merkleRoot, blockHash, timestamp) */\n      dup2\n      mstore\n      0x20\n      add\n        /* \"VoteLedger.sol\":2997:3006  timestamp */\n      dup5\n        /* \"VoteLedger.sol\":2944:3007  BlockHeader(height, prevHash, merkleRoot, blockHash, timestamp) */\n      dup2\n      mstore\n      pop\n        /* \"VoteLedger.sol\":2921:3007  BlockHeader memory h = BlockHeader(height, prevHash, merkleRoot, blockHash, timestamp) */\n      swap1\n      pop\n        /* \"VoteLedger.sol\":3031:3051  computeHeaderHash(h) */\n      tag_109\n        /* \"VoteLedger.sol\":3049:3050  h */\n      dup2\n        /* \"VoteLedger.sol\":3031:3048  computeHeaderHash */\n      tag_67\n        /* \"VoteLedger.sol\":3031:3051  computeHeaderHash(h) */\n      jump\t// in\n    tag_109:\n        /* \"VoteLedger.sol\":3018:3051  headerHash = computeHeaderHash(h) */\n      swap2\n      pop\n        /* \"VoteLedger.sol\":3064:3082  Proposal storage p */\n      0x00\n        /* \"VoteLedger.sol\":3085:3094  proposals */\n      0x06\n        /* \"VoteLedger.sol\":3085:3106  proposals[headerHash] */\n      0x00\n        /* \"VoteLedger.sol\":3095:3105  headerHash */\n      dup5\n        /* \"VoteLedger.sol\":3085:3106  proposals[headerHash] */\n      dup2\n      mstore\n      0x20\n      add\n      swap1\n      dup2\n      mstore\n      0x20\n      add\n      0x00\n      keccak256\n        /* \"VoteLedger.sol\":3064:3106  Proposal storage p = proposals[headerHash] */\n      swap1\n      pop\n        /* \"VoteLedger.sol\":3126:3127  p */\n      dup1\n        /* \"VoteLedger.sol\":3126:3134  p.exists */\n      0x06\n      add\n      0x00\n      swap1\n      sload\n      swap1\n      0x0100\n      exp\n      swap1\n      div\n      0xff\n      and\n        /* \"VoteLedger.sol\":3125:3134  !p.exists */\n      iszero\n        /* \"VoteLedger.sol\":3117:3154  require(!p.exists, \"proposal exists\") */\n      tag_110\n      jumpi\n      mload(0x40)\n      0x08c379a000000000000000000000000000000000000000000000000000000000\n      dup2\n      mstore\n      0x04\n      add\n      tag_111\n      swap1\n      tag_112\n      jump\t// in\n    tag_111:\n      mload(0x40)\n      dup1\n      swap2\n      sub\n      swap1\n      revert\n    tag_110:\n        /* \"VoteLedger.sol\":3191:3321  Proposal({... */\n      mload(0x40)\n      dup1\n      0x80\n      add\n      0x40\n      mstore\n      dup1\n        /* \"VoteLedger.sol\":3223:3224  h */\n      dup4\n        /* \"VoteLedger.sol\":3191:3321  Proposal({... */\n      dup2\n      mstore\n      0x20\n      add\n        /* \"VoteLedger.sol\":3250:3251  0 */\n      0x00\n        /* \"VoteLedger.sol\":3191:3321  Proposal({... */\n      dup2\n      mstore\n      0x20\n      add\n        /* \"VoteLedger.sol\":3274:3278  true */\n      0x01\n        /* \"VoteLedger.sol\":3191:3321  Proposal({... */\n      iszero\n      iszero\n      dup2\n      mstore\n      0x20\n      add\n        /* \"VoteLedger.sol\":3304:3309  false */\n      0x00\n        /* \"VoteLedger.sol\":3191:3321  Proposal({... */\n      iszero\n      iszero\n      dup2\n      mstore\n      pop\n        /* \"VoteLedger.sol\":3167:3176  proposals */\n      0x06\n        /* \"VoteLedger.sol\":3167:3188  proposals[headerHash] */\n      0x00\n        /* \"VoteLedger.sol\":3177:3187  headerHash */\n      dup6\n        /* \"VoteLedger.sol\":3167:3188  proposals[headerHash] */\n      dup2\n      mstore\n      0x20\n      add\n      swap1\n      dup2\n      mstore\n      0x20\n      add\n      0x00\n      keccak256\n        /* \"VoteLedger.sol\":3167:3321  proposals[headerHash] = Proposal({... */\n      0x00\n      dup3\n      add\n      mload\n      dup2\n      0x00\n      add\n      0x00\n      dup3\n      add\n      mload\n      dup2\n      0x00\n      add\n      sstore\n      0x20\n      dup3\n      add\n      mload\n      dup2\n      0x01\n      add\n      sstore\n      0x40\n      dup3\n      add\n      mload\n      dup2\n      0x02\n      add\n      sstore\n      0x60\n      dup3\n      add\n      mload\n      dup2\n      0x03\n      add\n      sstore\n      0x80\n      dup3\n      add\n      mload\n      dup2\n      0x04\n      add\n      sstore\n      pop\n      pop\n      0x20\n      dup3\n      add\n      mload\n      dup2\n      0x05\n      add\n      sstore\n      0x40\n      dup3\n      add\n      mload\n      dup2\n      0x06\n      add\n      exp(0x0100, 0x00)\n      dup2\n      sload\n      dup2\n      0xff\n      mul\n      not\n      and\n      swap1\n      dup4\n      iszero\n      iszero\n      mul\n      or\n      swap1\n      sstore\n      pop\n      0x60\n      dup3\n      add\n      mload\n      dup2\n      0x06\n      add\n      exp(0x0100, 0x01)\n      dup2\n      sload\n      dup2\n      0xff\n      mul\n      not\n      and\n      swap1\n      dup4\n      iszero\n      iszero\n      mul\n      or\n      swap1\n      sstore\n      pop\n      swap1\n      pop\n      pop\n        /* \"VoteLedger.sol\":3353:3363  headerHash */\n      dup3\n        /* \"VoteLedger.sol\":3339:3405  BlockProposed(headerHash, height, prevHash, merkleRoot, blockHash) */\n      0x19393050bb77565830b6ba1ebb68c23298bce5c84948a6a106aeb7b9b6c19149\n        /* \"VoteLedger.sol\":3365:3371  height */\n      dup10\n        /* \"VoteLedger.sol\":3373:3381  prevHash */\n      dup10\n        /* \"VoteLedger.sol\":3383:3393  merkleRoot */\n      dup10\n        /* \"VoteLedger.sol\":3395:3404  blockHash */\n      dup10\n        /* \"VoteLedger.sol\":3339:3405  BlockProposed(headerHash, height, prevHash, merkleRoot, blockHash) */\n      mload(0x40)\n      tag_113\n      swap5\n      swap4\n      swap3\n      swap2\n      swap1\n      tag_114\n      jump\t// in\n    tag_113:\n      mload(0x40)\n      dup1\n      swap2\n      sub\n      swap1\n      log2\n        /* \"VoteLedger.sol\":3452:3484  _approve(headerHash, msg.sender) */\n      tag_115\n        /* \"VoteLedger.sol\":3461:3471  headerHash */\n      dup4\n        /* \"VoteLedger.sol\":3473:3483  msg.sender */\n      caller\n        /* \"VoteLedger.sol\":3452:3460  _approve */\n      tag_116\n        /* \"VoteLedger.sol\":3452:3484  _approve(headerHash, msg.sender) */\n      jump\t// in\n    tag_115:\n        /* \"VoteLedger.sol\":2795:3492  {... */\n      pop\n      pop\n        /* \"VoteLedger.sol\":2580:3492  function proposeBlock(... */\n      swap6\n      swap5\n      pop\n      pop\n      pop\n      pop\n      pop\n      jump\t// out\n        /* \"VoteLedger.sol\":3500:3613  function approveBlock(bytes32 headerHash) external onlyWriter {... */\n    tag_63:\n        /* \"VoteLedger.sol\":1659:1667  isWriter */\n      0x05\n        /* \"VoteLedger.sol\":1659:1679  isWriter[msg.sender] */\n      0x00\n        /* \"VoteLedger.sol\":1668:1678  msg.sender */\n      caller\n        /* \"VoteLedger.sol\":1659:1679  isWriter[msg.sender] */\n      0xffffffffffffffffffffffffffffffffffffffff\n      and\n      0xffffffffffffffffffffffffffffffffffffffff\n      and\n      dup2\n      mstore\n      0x20\n      add\n      swap1\n      dup2\n      mstore\n      0x20\n      add\n      0x00\n      keccak256\n      0x00\n      swap1\n      sload\n      swap1\n      0x0100\n      exp\n      swap1\n      div\n      0xff\n      and\n        /* \"VoteLedger.sol\":1651:1694  require(isWriter[msg.sender], \"not writer\") */\n      tag_118\n      jumpi\n      mload(0x40)\n      0x08c379a000000000000000000000000000000000000000000000000000000000\n      dup2\n      mstore\n      0x04\n      add\n      tag_119\n      swap1\n      tag_99\n      jump\t// in\n    tag_119:\n      mload(0x40)\n      dup1\n      swap2\n      sub\n      swap1\n      revert\n    tag_118:\n        /* \"VoteLedger.sol\":3573:3605  _approve(headerHash, msg.sender) */\n      tag_121\n        /* \"VoteLedger.sol\":3582:3592  headerHash */\n      dup2\n        /* \"VoteLedger.sol\":3594:3604  msg.sender */\n      caller\n        /* \"VoteLedger.sol\":3573:3581  _approve */\n      tag_116\n        /* \"VoteLedger.sol\":3573:3605  _approve(headerHash, msg.sender) */\n      jump\t// in\n    tag_121:\n        /* \"VoteLedger.sol\":3500:3613  function approveBlock(bytes32 headerHash) external onlyWriter {... */\n      pop\n      jump\t// out\n        /* \"VoteLedger.sol\":2336:2572  function computeHeaderHash(BlockHeader memory h) public pure returns (bytes32) {... */\n    tag_67:\n        /* \"VoteLedger.sol\":2406:2413  bytes32 */\n      0x00\n        /* \"VoteLedger.sol\":2502:2503  h */\n      dup2\n        /* \"VoteLedger.sol\":2502:2510  h.height */\n      0x00\n      add\n      mload\n        /* \"VoteLedger.sol\":2512:2513  h */\n      dup3\n        /* \"VoteLedger.sol\":2512:2522  h.prevHash */\n      0x20\n      add\n      mload\n        /* \"VoteLedger.sol\":2524:2525  h */\n      dup4\n        /* \"VoteLedger.sol\":2524:2536  h.merkleRoot */\n      0x40\n      add\n      mload\n        /* \"VoteLedger.sol\":2538:2539  h */\n      dup5\n        /* \"VoteLedger.sol\":2538:2549  h.blockHash */\n      0x60\n      add\n      mload\n        /* \"VoteLedger.sol\":2551:2552  h */\n      dup6\n        /* \"VoteLedger.sol\":2551:2562  h.timestamp */\n      0x80\n      add\n      mload\n        /* \"VoteLedger.sol\":2491:2563  abi.encode(h.height, h.prevHash, h.merkleRoot, h.blockHash, h.timestamp) */\n      add(0x20, mload(0x40))\n      tag_123\n      swap6\n      swap5\n      swap4\n      swap3\n      swap2\n      swap1\n      tag_82\n      jump\t// in\n    tag_123:\n      mload(0x40)\n      0x20\n      dup2\n      dup4\n      sub\n      sub\n      dup2\n      mstore\n      swap1\n      0x40\n      mstore\n        /* \"VoteLedger.sol\":2481:2564  keccak256(abi.encode(h.height, h.prevHash, h.merkleRoot, h.blockHash, h.timestamp)) */\n      dup1\n      mload\n      swap1\n      0x20\n      add\n      keccak256\n        /* \"VoteLedger.sol\":2474:2564  return keccak256(abi.encode(h.height, h.prevHash, h.merkleRoot, h.blockHash, h.timestamp)) */\n      swap1\n      pop\n        /* \"VoteLedger.sol\":2336:2572  function computeHeaderHash(BlockHeader memory h) public pure returns (bytes32) {... */\n      swap2\n      swap1\n      pop\n      jump\t// out\n        /* \"VoteLedger.sol\":2146:2328  function setQuorum(uint256 _quorum) external onlyAdmin {... */\n    tag_71:\n        /* \"VoteLedger.sol\":1571:1576  admin */\n      0x00\n      0x00\n      swap1\n      sload\n      swap1\n      0x0100\n      exp\n      swap1\n      div\n      0xffffffffffffffffffffffffffffffffffffffff\n      and\n        /* \"VoteLedger.sol\":1557:1576  msg.sender == admin */\n      0xffffffffffffffffffffffffffffffffffffffff\n      and\n        /* \"VoteLedger.sol\":1557:1567  msg.sender */\n      caller\n        /* \"VoteLedger.sol\":1557:1576  msg.sender == admin */\n      0xffffffffffffffffffffffffffffffffffffffff\n      and\n      eq\n        /* \"VoteLedger.sol\":1549:1590  require(msg.sender == admin, \"not admin\") */\n      tag_125\n      jumpi\n      mload(0x40)\n      0x08c379a000000000000000000000000000000000000000000000000000000000\n      dup2\n      mstore\n      0x04\n      add\n      tag_126\n      swap1\n      tag_93\n      jump\t// in\n    tag_126:\n      mload(0x40)\n      dup1\n      swap2\n      sub\n      swap1\n      revert\n    tag_125:\n        /* \"VoteLedger.sol\":2231:2232  1 */\n      0x01\n        /* \"VoteLedger.sol\":2220:2227  _quorum */\n      dup2\n        /* \"VoteLedger.sol\":2220:2232  _quorum >= 1 */\n      lt\n      iszero\n        /* \"VoteLedger.sol\":2212:2255  require(_quorum >= 1, \"quorum must be >=1\") */\n      tag_128\n      jumpi\n      mload(0x40)\n      0x08c379a000000000000000000000000000000000000000000000000000000000\n      dup2\n      mstore\n      0x04\n      add\n      tag_129\n      swap1\n      tag_130\n      jump\t// in\n    tag_129:\n      mload(0x40)\n      dup1\n      swap2\n      sub\n      swap1\n      revert\n    tag_128:\n        /* \"VoteLedger.sol\":2275:2282  _quorum */\n      dup1\n        /* \"VoteLedger.sol\":2266:2272  quorum */\n      0x01\n        /* \"VoteLedger.sol\":2266:2282  quorum = _quorum */\n      dup2\n      swap1\n      sstore\n      pop\n        /* \"VoteLedger.sol\":2298:2320  QuorumUpdated(_quorum) */\n      0xf18f88786aae85a652aadb99a82462616489a33370c9bcc7b245906812ef7cd1\n        /* \"VoteLedger.sol\":2312:2319  _quorum */\n      dup2\n        /* \"VoteLedger.sol\":2298:2320  QuorumUpdated(_quorum) */\n      mload(0x40)\n      tag_131\n      swap2\n      swap1\n      tag_30\n      jump\t// in\n    tag_131:\n      mload(0x40)\n      dup1\n      swap2\n      sub\n      swap1\n      log1\n        /* \"VoteLedger.sol\":2146:2328  function setQuorum(uint256 _quorum) external onlyAdmin {... */\n      pop\n      jump\t// out\n        /* \"VoteLedger.sol\":4068:4765  function finalizeBlock(bytes32 headerHash) external onlyWriter {... */\n    tag_74:\n        /* \"VoteLedger.sol\":1659:1667  isWriter */\n      0x05\n        /* \"VoteLedger.sol\":1659:1679  isWriter[msg.sender] */\n      0x00\n        /* \"VoteLedger.sol\":1668:1678  msg.sender */\n      caller\n        /* \"VoteLedger.sol\":1659:1679  isWriter[msg.sender] */\n      0xffffffffffffffffffffffffffffffffffffffff\n      and\n      0xffffffffffffffffffffffffffffffffffffffff\n      and\n      dup2\n      mstore\n      0x20\n      add\n      swap1\n      dup2\n      mstore\n      0x20\n      add\n      0x00\n      keccak256\n      0x00\n      swap1\n      sload\n      swap1\n      0x0100\n      exp\n      swap1\n      div\n      0xff\n      and\n        /* \"VoteLedger.sol\":1651:1694  require(isWriter[msg.sender], \"not writer\") */\n      tag_133\n      jumpi\n      mload(0x40)\n      0x08c379a000000000000000000000000000000000000000000000000000000000\n      dup2\n      mstore\n      0x04\n      add\n      tag_134\n      swap1\n      tag_99\n      jump\t// in\n    tag_134:\n      mload(0x40)\n      dup1\n      swap2\n      sub\n      swap1\n      revert\n    tag_133:\n        /* \"VoteLedger.sol\":4142:4160  Proposal storage p */\n      0x00\n        /* \"VoteLedger.sol\":4163:4172  proposals */\n      0x06\n        /* \"VoteLedger.sol\":4163:4184  proposals[headerHash] */\n      0x00\n        /* \"VoteLedger.sol\":4173:4183  headerHash */\n      dup4\n        /* \"VoteLedger.sol\":4163:4184  proposals[headerHash] */\n      dup2\n      mstore\n      0x20\n      add\n      swap1\n      dup2\n      mstore\n      0x20\n      add\n      0x00\n      keccak256\n        /* \"VoteLedger.sol\":4142:4184  Proposal storage p = proposals[headerHash] */\n      swap1\n      pop\n        /* \"VoteLedger.sol\":4203:4204  p */\n      dup1\n        /* \"VoteLedger.sol\":4203:4211  p.exists */\n      0x06\n      add\n      0x00\n      swap1\n      sload\n      swap1\n      0x0100\n      exp\n      swap1\n      div\n      0xff\n      and\n        /* \"VoteLedger.sol\":4195:4232  require(p.exists, \"unknown proposal\") */\n      tag_136\n      jumpi\n      mload(0x40)\n      0x08c379a000000000000000000000000000000000000000000000000000000000\n      dup2\n      mstore\n      0x04\n      add\n      tag_137\n      swap1\n      tag_138\n      jump\t// in\n    tag_137:\n      mload(0x40)\n      dup1\n      swap2\n      sub\n      swap1\n      revert\n    tag_136:\n        /* \"VoteLedger.sol\":4252:4253  p */\n      dup1\n        /* \"VoteLedger.sol\":4252:4263  p.finalized */\n      0x06\n      add\n      0x01\n      swap1\n      sload\n      swap1\n      0x0100\n      exp\n      swap1\n      div\n      0xff\n      and\n        /* \"VoteLedger.sol\":4251:4263  !p.finalized */\n      iszero\n        /* \"VoteLedger.sol\":4243:4285  require(!p.finalized, \"already finalized\") */\n      tag_139\n      jumpi\n      mload(0x40)\n      0x08c379a000000000000000000000000000000000000000000000000000000000\n      dup2\n      mstore\n      0x04\n      add\n      tag_140\n      swap1\n      tag_141\n      jump\t// in\n    tag_140:\n      mload(0x40)\n      dup1\n      swap2\n      sub\n      swap1\n      revert\n    tag_139:\n        /* \"VoteLedger.sol\":4319:4325  quorum */\n      sload(0x01)\n        /* \"VoteLedger.sol\":4304:4305  p */\n      dup2\n        /* \"VoteLedger.sol\":4304:4315  p.approvals */\n      0x05\n      add\n      sload\n        /* \"VoteLedger.sol\":4304:4325  p.approvals >= quorum */\n      lt\n      iszero\n        /* \"VoteLedger.sol\":4296:4350  require(p.approvals >= quorum, \"not enough approvals\") */\n      tag_142\n      jumpi\n      mload(0x40)\n      0x08c379a000000000000000000000000000000000000000000000000000000000\n      dup2\n      mstore\n      0x04\n      add\n      tag_143\n      swap1\n      tag_144\n      jump\t// in\n    tag_143:\n      mload(0x40)\n      dup1\n      swap2\n      sub\n      swap1\n      revert\n    tag_142:\n        /* \"VoteLedger.sol\":4430:4431  1 */\n      0x01\n        /* \"VoteLedger.sol\":4418:4427  tipHeight */\n      sload(0x03)\n        /* \"VoteLedger.sol\":4418:4431  tipHeight + 1 */\n      tag_145\n      swap2\n      swap1\n      tag_102\n      jump\t// in\n    tag_145:\n        /* \"VoteLedger.sol\":4399:4400  p */\n      dup2\n        /* \"VoteLedger.sol\":4399:4407  p.header */\n      0x00\n      add\n        /* \"VoteLedger.sol\":4399:4414  p.header.height */\n      0x00\n      add\n      sload\n        /* \"VoteLedger.sol\":4399:4431  p.header.height == tipHeight + 1 */\n      eq\n        /* \"VoteLedger.sol\":4391:4450  require(p.header.height == tipHeight + 1, \"height changed\") */\n      tag_146\n      jumpi\n      mload(0x40)\n      0x08c379a000000000000000000000000000000000000000000000000000000000\n      dup2\n      mstore\n      0x04\n      add\n      tag_147\n      swap1\n      tag_148\n      jump\t// in\n    tag_147:\n      mload(0x40)\n      dup1\n      swap2\n      sub\n      swap1\n      revert\n    tag_146:\n        /* \"VoteLedger.sol\":4490:4497  tipHash */\n      sload(0x04)\n        /* \"VoteLedger.sol\":4469:4470  p */\n      dup2\n        /* \"VoteLedger.sol\":4469:4477  p.header */\n      0x00\n      add\n        /* \"VoteLedger.sol\":4469:4486  p.header.prevHash */\n      0x01\n      add\n      sload\n        /* \"VoteLedger.sol\":4469:4497  p.header.prevHash == tipHash */\n      eq\n        /* \"VoteLedger.sol\":4461:4514  require(p.header.prevHash == tipHash, \"prev changed\") */\n      tag_149\n      jumpi\n      mload(0x40)\n      0x08c379a000000000000000000000000000000000000000000000000000000000\n      dup2\n      mstore\n      0x04\n      add\n      tag_150\n      swap1\n      tag_151\n      jump\t// in\n    tag_150:\n      mload(0x40)\n      dup1\n      swap2\n      sub\n      swap1\n      revert\n    tag_149:\n        /* \"VoteLedger.sol\":4553:4554  p */\n      dup1\n        /* \"VoteLedger.sol\":4553:4561  p.header */\n      0x00\n      add\n        /* \"VoteLedger.sol\":4527:4533  blocks */\n      0x02\n        /* \"VoteLedger.sol\":4527:4550  blocks[p.header.height] */\n      0x00\n        /* \"VoteLedger.sol\":4534:4535  p */\n      dup4\n        /* \"VoteLedger.sol\":4534:4542  p.header */\n      0x00\n      add\n        /* \"VoteLedger.sol\":4534:4549  p.header.height */\n      0x00\n      add\n      sload\n        /* \"VoteLedger.sol\":4527:4550  blocks[p.header.height] */\n      dup2\n      mstore\n      0x20\n      add\n      swap1\n      dup2\n      mstore\n      0x20\n      add\n      0x00\n      keccak256\n        /* \"VoteLedger.sol\":4527:4561  blocks[p.header.height] = p.header */\n      0x00\n      dup3\n      add\n      sload\n      dup2\n      0x00\n      add\n      sstore\n      0x01\n      dup3\n      add\n      sload\n      dup2\n      0x01\n      add\n      sstore\n      0x02\n      dup3\n      add\n      sload\n      dup2\n      0x02\n      add\n      sstore\n      0x03\n      dup3\n      add\n      sload\n      dup2\n      0x03\n      add\n      sstore\n      0x04\n      dup3\n      add\n      sload\n      dup2\n      0x04\n      add\n      sstore\n      swap1\n      pop\n      pop\n        /* \"VoteLedger.sol\":4584:4585  p */\n      dup1\n        /* \"VoteLedger.sol\":4584:4592  p.header */\n      0x00\n      add\n        /* \"VoteLedger.sol\":4584:4599  p.header.height */\n      0x00\n      add\n      sload\n        /* \"VoteLedger.sol\":4572:4581  tipHeight */\n      0x03\n        /* \"VoteLedger.sol\":4572:4599  tipHeight = p.header.height */\n      dup2\n      swap1\n      sstore\n      pop\n        /* \"VoteLedger.sol\":4620:4621  p */\n      dup1\n        /* \"VoteLedger.sol\":4620:4628  p.header */\n      0x00\n      add\n        /* \"VoteLedger.sol\":4620:4638  p.header.blockHash */\n      0x03\n      add\n      sload\n        /* \"VoteLedger.sol\":4610:4617  tipHash */\n      0x04\n        /* \"VoteLedger.sol\":4610:4638  tipHash = p.header.blockHash */\n      dup2\n      swap1\n      sstore\n      pop\n        /* \"VoteLedger.sol\":4663:4667  true */\n      0x01\n        /* \"VoteLedger.sol\":4649:4650  p */\n      dup2\n        /* \"VoteLedger.sol\":4649:4660  p.finalized */\n      0x06\n      add\n      0x01\n        /* \"VoteLedger.sol\":4649:4667  p.finalized = true */\n      0x0100\n      exp\n      dup2\n      sload\n      dup2\n      0xff\n      mul\n      not\n      and\n      swap1\n      dup4\n      iszero\n      iszero\n      mul\n      or\n      swap1\n      sstore\n      pop\n        /* \"VoteLedger.sol\":4685:4757  BlockFinalized(p.header.height, p.header.blockHash, p.header.merkleRoot) */\n      0x72e70d00b52f2137c272201ff3b9065627b309dee61a7afc651bcfc4e5b1f0b3\n        /* \"VoteLedger.sol\":4700:4701  p */\n      dup2\n        /* \"VoteLedger.sol\":4700:4708  p.header */\n      0x00\n      add\n        /* \"VoteLedger.sol\":4700:4715  p.header.height */\n      0x00\n      add\n      sload\n        /* \"VoteLedger.sol\":4717:4718  p */\n      dup3\n        /* \"VoteLedger.sol\":4717:4725  p.header */\n      0x00\n      add\n        /* \"VoteLedger.sol\":4717:4735  p.header.blockHash */\n      0x03\n      add\n      sload\n        /* \"VoteLedger.sol\":4737:4738  p */\n      dup4\n        /* \"VoteLedger.sol\":4737:4745  p.header */\n      0x00\n      add\n        /* \"VoteLedger.sol\":4737:4756  p.header.merkleRoot */\n      0x02\n      add\n      sload\n        /* \"VoteLedger.sol\":4685:4757  BlockFinalized(p.header.height, p.header.blockHash, p.header.merkleRoot) */\n      mload(0x40)\n      tag_152\n      swap4\n      swap3\n      swap2\n      swap1\n      tag_153\n      jump\t// in\n    tag_152:\n      mload(0x40)\n      dup1\n      swap2\n      sub\n      swap1\n      log1\n        /* \"VoteLedger.sol\":4131:4765  {... */\n      pop\n        /* \"VoteLedger.sol\":4068:4765  function finalizeBlock(bytes32 headerHash) external onlyWriter {... */\n      pop\n      jump\t// out\n        /* \"VoteLedger.sol\":664:686  bytes32 public tipHash */\n    tag_76:\n      sload(0x04)\n      dup2\n      jump\t// out\n        /* \"VoteLedger.sol\":581:626  mapping(uint256 => BlockHeader) public blocks */\n    tag_80:\n      mstore(0x20, 0x02)\n      dup1\n      0x00\n      mstore\n      keccak256(0x00, 0x40)\n      0x00\n      swap2\n      pop\n      swap1\n      pop\n      dup1\n      0x00\n      add\n      sload\n      swap1\n      dup1\n      0x01\n      add\n      sload\n      swap1\n      dup1\n      0x02\n      add\n      sload\n      swap1\n      dup1\n      0x03\n      add\n      sload\n      swap1\n      dup1\n      0x04\n      add\n      sload\n      swap1\n      pop\n      dup6\n      jump\t// out\n        /* \"VoteLedger.sol\":294:314  address public admin */\n    tag_84:\n      0x00\n      0x00\n      swap1\n      sload\n      swap1\n      0x0100\n      exp\n      swap1\n      div\n      0xffffffffffffffffffffffffffffffffffffffff\n      and\n      dup2\n      jump\t// out\n        /* \"VoteLedger.sol\":3621:4060  function _approve(bytes32 headerHash, address writer) internal {... */\n    tag_116:\n        /* \"VoteLedger.sol\":3695:3713  Proposal storage p */\n      0x00\n        /* \"VoteLedger.sol\":3716:3725  proposals */\n      0x06\n        /* \"VoteLedger.sol\":3716:3737  proposals[headerHash] */\n      0x00\n        /* \"VoteLedger.sol\":3726:3736  headerHash */\n      dup5\n        /* \"VoteLedger.sol\":3716:3737  proposals[headerHash] */\n      dup2\n      mstore\n      0x20\n      add\n      swap1\n      dup2\n      mstore\n      0x20\n      add\n      0x00\n      keccak256\n        /* \"VoteLedger.sol\":3695:3737  Proposal storage p = proposals[headerHash] */\n      swap1\n      pop\n        /* \"VoteLedger.sol\":3756:3757  p */\n      dup1\n        /* \"VoteLedger.sol\":3756:3764  p.exists */\n      0x06\n      add\n      0x00\n      swap1\n      sload\n      swap1\n      0x0100\n      exp\n      swap1\n      div\n      0xff\n      and\n        /* \"VoteLedger.sol\":3748:3785  require(p.exists, \"unknown proposal\") */\n      tag_155\n      jumpi\n      mload(0x40)\n      0x08c379a000000000000000000000000000000000000000000000000000000000\n      dup2\n      mstore\n      0x04\n      add\n      tag_156\n      swap1\n      tag_138\n      jump\t// in\n    tag_156:\n      mload(0x40)\n      dup1\n      swap2\n      sub\n      swap1\n      revert\n    tag_155:\n        /* \"VoteLedger.sol\":3805:3806  p */\n      dup1\n        /* \"VoteLedger.sol\":3805:3816  p.finalized */\n      0x06\n      add\n      0x01\n      swap1\n      sload\n      swap1\n      0x0100\n      exp\n      swap1\n      div\n      0xff\n      and\n        /* \"VoteLedger.sol\":3804:3816  !p.finalized */\n      iszero\n        /* \"VoteLedger.sol\":3796:3838  require(!p.finalized, \"already finalized\") */\n      tag_157\n      jumpi\n      mload(0x40)\n      0x08c379a000000000000000000000000000000000000000000000000000000000\n      dup2\n      mstore\n      0x04\n      add\n      tag_158\n      swap1\n      tag_141\n      jump\t// in\n    tag_158:\n      mload(0x40)\n      dup1\n      swap2\n      sub\n      swap1\n      revert\n    tag_157:\n        /* \"VoteLedger.sol\":3858:3869  hasApproved */\n      0x07\n        /* \"VoteLedger.sol\":3858:3881  hasApproved[headerHash] */\n      0x00\n        /* \"VoteLedger.sol\":3870:3880  headerHash */\n      dup5\n        /* \"VoteLedger.sol\":3858:3881  hasApproved[headerHash] */\n      dup2\n      mstore\n      0x20\n      add\n      swap1\n      dup2\n      mstore\n      0x20\n      add\n      0x00\n      keccak256\n        /* \"VoteLedger.sol\":3858:3889  hasApproved[headerHash][writer] */\n      0x00\n        /* \"VoteLedger.sol\":3882:3888  writer */\n      dup4\n        /* \"VoteLedger.sol\":3858:3889  hasApproved[headerHash][writer] */\n      0xffffffffffffffffffffffffffffffffffffffff\n      and\n      0xffffffffffffffffffffffffffffffffffffffff\n      and\n      dup2\n      mstore\n      0x20\n      add\n      swap1\n      dup2\n      mstore\n      0x20\n      add\n      0x00\n      keccak256\n      0x00\n      swap1\n      sload\n      swap1\n      0x0100\n      exp\n      swap1\n      div\n      0xff\n      and\n        /* \"VoteLedger.sol\":3857:3889  !hasApproved[headerHash][writer] */\n      iszero\n        /* \"VoteLedger.sol\":3849:3910  require(!hasApproved[headerHash][writer], \"already approved\") */\n      tag_159\n      jumpi\n      mload(0x40)\n      0x08c379a000000000000000000000000000000000000000000000000000000000\n      dup2\n      mstore\n      0x04\n      add\n      tag_160\n      swap1\n      tag_161\n      jump\t// in\n    tag_160:\n      mload(0x40)\n      dup1\n      swap2\n      sub\n      swap1\n      revert\n    tag_159:\n        /* \"VoteLedger.sol\":3957:3961  true */\n      0x01\n        /* \"VoteLedger.sol\":3923:3934  hasApproved */\n      0x07\n        /* \"VoteLedger.sol\":3923:3946  hasApproved[headerHash] */\n      0x00\n        /* \"VoteLedger.sol\":3935:3945  headerHash */\n      dup6\n        /* \"VoteLedger.sol\":3923:3946  hasApproved[headerHash] */\n      dup2\n      mstore\n      0x20\n      add\n      swap1\n      dup2\n      mstore\n      0x20\n      add\n      0x00\n      keccak256\n        /* \"VoteLedger.sol\":3923:3954  hasApproved[headerHash][writer] */\n      0x00\n        /* \"VoteLedger.sol\":3947:3953  writer */\n      dup5\n        /* \"VoteLedger.sol\":3923:3954  hasApproved[headerHash][writer] */\n      0xffffffffffffffffffffffffffffffffffffffff\n      and\n      0xffffffffffffffffffffffffffffffffffffffff\n      and\n      dup2\n      mstore\n      0x20\n      add\n      swap1\n      dup2\n      mstore\n      0x20\n      add\n      0x00\n      keccak256\n      0x00\n        /* \"VoteLedger.sol\":3923:3961  hasApproved[headerHash][writer] = true */\n      0x0100\n      exp\n      dup2\n      sload\n      dup2\n      0xff\n      mul\n      not\n      and\n      swap1\n      dup4\n      iszero\n      iszero\n      mul\n      or\n      swap1\n      sstore\n      pop\n        /* \"VoteLedger.sol\":3987:3988  1 */\n      0x01\n        /* \"VoteLedger.sol\":3972:3973  p */\n      dup2\n        /* \"VoteLedger.sol\":3972:3983  p.approvals */\n      0x05\n      add\n      0x00\n        /* \"VoteLedger.sol\":3972:3988  p.approvals += 1 */\n      dup3\n      dup3\n      sload\n      tag_162\n      swap2\n      swap1\n      tag_102\n      jump\t// in\n    tag_162:\n      swap3\n      pop\n      pop\n      dup2\n      swap1\n      sstore\n      pop\n        /* \"VoteLedger.sol\":4032:4038  writer */\n      dup2\n        /* \"VoteLedger.sol\":4006:4052  BlockApproved(headerHash, writer, p.approvals) */\n      0xffffffffffffffffffffffffffffffffffffffff\n      and\n        /* \"VoteLedger.sol\":4020:4030  headerHash */\n      dup4\n        /* \"VoteLedger.sol\":4006:4052  BlockApproved(headerHash, writer, p.approvals) */\n      0xd948b9db73a0766459b5fe42ae9d463028e942027d4d6a38e76a798bc8a3f09e\n        /* \"VoteLedger.sol\":4040:4041  p */\n      dup4\n        /* \"VoteLedger.sol\":4040:4051  p.approvals */\n      0x05\n      add\n      sload\n        /* \"VoteLedger.sol\":4006:4052  BlockApproved(headerHash, writer, p.approvals) */\n      mload(0x40)\n      tag_163\n      swap2\n      swap1\n      tag_30\n      jump\t// in\n    tag_163:\n      mload(0x40)\n      dup1\n      swap2\n      sub\n      swap1\n      log3\n        /* \"VoteLedger.sol\":3684:4060  {... */\n      pop\n        /* \"VoteLedger.sol\":3621:4060  function _approve(bytes32 headerHash, address writer) internal {... */\n      pop\n      pop\n      jump\t// out\n    tag_88:\n      mload(0x40)\n      dup1\n      0xa0\n      add\n      0x40\n      mstore\n      dup1\n      0x00\n      dup2\n      mstore\n      0x20\n      add\n      0x00\n      dup2\n      mstore\n      0x20\n      add\n      0x00\n      dup2\n      mstore\n      0x20\n      add\n      0x00\n      dup2\n      mstore\n      0x20\n      add\n      0x00\n      dup2\n      mstore\n      pop\n      swap1\n      jump\t// out\n        /* \"#utility.yul\":7:82   */\n    tag_164:\n        /* \"#utility.yul\":40:46   */\n      0x00\n        /* \"#utility.yul\":73:75   */\n      0x40\n        /* \"#utility.yul\":67:76   */\n      mload\n        /* \"#utility.yul\":57:76   */\n      swap1\n      pop\n        /* \"#utility.yul\":7:82   */\n      swap1\n      jump\t// out\n        /* \"#utility.yul\":88:205   */\n    tag_165:\n        /* \"#utility.yul\":197:198   */\n      0x00\n        /* \"#utility.yul\":194:195   */\n      0x00\n        /* \"#utility.yul\":187:199   */\n      revert\n        /* \"#utility.yul\":334:411   */\n    tag_167:\n        /* \"#utility.yul\":371:378   */\n      0x00\n        /* \"#utility.yul\":400:405   */\n      dup2\n        /* \"#utility.yul\":389:405   */\n      swap1\n      pop\n        /* \"#utility.yul\":334:411   */\n      swap2\n      swap1\n      pop\n      jump\t// out\n        /* \"#utility.yul\":417:539   */\n    tag_168:\n        /* \"#utility.yul\":490:514   */\n      tag_226\n        /* \"#utility.yul\":508:513   */\n      dup2\n        /* \"#utility.yul\":490:514   */\n      tag_167\n      jump\t// in\n    tag_226:\n        /* \"#utility.yul\":483:488   */\n      dup2\n        /* \"#utility.yul\":480:515   */\n      eq\n        /* \"#utility.yul\":470:533   */\n      tag_227\n      jumpi\n        /* \"#utility.yul\":529:530   */\n      0x00\n        /* \"#utility.yul\":526:527   */\n      0x00\n        /* \"#utility.yul\":519:531   */\n      revert\n        /* \"#utility.yul\":470:533   */\n    tag_227:\n        /* \"#utility.yul\":417:539   */\n      pop\n      jump\t// out\n        /* \"#utility.yul\":545:684   */\n    tag_169:\n        /* \"#utility.yul\":591:596   */\n      0x00\n        /* \"#utility.yul\":629:635   */\n      dup2\n        /* \"#utility.yul\":616:636   */\n      calldataload\n        /* \"#utility.yul\":607:636   */\n      swap1\n      pop\n        /* \"#utility.yul\":645:678   */\n      tag_229\n        /* \"#utility.yul\":672:677   */\n      dup2\n        /* \"#utility.yul\":645:678   */\n      tag_168\n      jump\t// in\n    tag_229:\n        /* \"#utility.yul\":545:684   */\n      swap3\n      swap2\n      pop\n      pop\n      jump\t// out\n        /* \"#utility.yul\":690:1019   */\n    tag_23:\n        /* \"#utility.yul\":749:755   */\n      0x00\n        /* \"#utility.yul\":798:800   */\n      0x20\n        /* \"#utility.yul\":786:795   */\n      dup3\n        /* \"#utility.yul\":777:784   */\n      dup5\n        /* \"#utility.yul\":773:796   */\n      sub\n        /* \"#utility.yul\":769:801   */\n      slt\n        /* \"#utility.yul\":766:885   */\n      iszero\n      tag_231\n      jumpi\n        /* \"#utility.yul\":804:883   */\n      tag_232\n      tag_165\n      jump\t// in\n    tag_232:\n        /* \"#utility.yul\":766:885   */\n    tag_231:\n        /* \"#utility.yul\":924:925   */\n      0x00\n        /* \"#utility.yul\":949:1002   */\n      tag_233\n        /* \"#utility.yul\":994:1001   */\n      dup5\n        /* \"#utility.yul\":985:991   */\n      dup3\n        /* \"#utility.yul\":974:983   */\n      dup6\n        /* \"#utility.yul\":970:992   */\n      add\n        /* \"#utility.yul\":949:1002   */\n      tag_169\n      jump\t// in\n    tag_233:\n        /* \"#utility.yul\":939:1002   */\n      swap2\n      pop\n        /* \"#utility.yul\":895:1012   */\n      pop\n        /* \"#utility.yul\":690:1019   */\n      swap3\n      swap2\n      pop\n      pop\n      jump\t// out\n        /* \"#utility.yul\":1025:1133   */\n    tag_170:\n        /* \"#utility.yul\":1102:1126   */\n      tag_235\n        /* \"#utility.yul\":1120:1125   */\n      dup2\n        /* \"#utility.yul\":1102:1126   */\n      tag_167\n      jump\t// in\n    tag_235:\n        /* \"#utility.yul\":1097:1100   */\n      dup3\n        /* \"#utility.yul\":1090:1127   */\n      mstore\n        /* \"#utility.yul\":1025:1133   */\n      pop\n      pop\n      jump\t// out\n        /* \"#utility.yul\":1139:1216   */\n    tag_171:\n        /* \"#utility.yul\":1176:1183   */\n      0x00\n        /* \"#utility.yul\":1205:1210   */\n      dup2\n        /* \"#utility.yul\":1194:1210   */\n      swap1\n      pop\n        /* \"#utility.yul\":1139:1216   */\n      swap2\n      swap1\n      pop\n      jump\t// out\n        /* \"#utility.yul\":1222:1330   */\n    tag_172:\n        /* \"#utility.yul\":1299:1323   */\n      tag_238\n        /* \"#utility.yul\":1317:1322   */\n      dup2\n        /* \"#utility.yul\":1299:1323   */\n      tag_171\n      jump\t// in\n    tag_238:\n        /* \"#utility.yul\":1294:1297   */\n      dup3\n        /* \"#utility.yul\":1287:1324   */\n      mstore\n        /* \"#utility.yul\":1222:1330   */\n      pop\n      pop\n      jump\t// out\n        /* \"#utility.yul\":1406:2461   */\n    tag_173:\n        /* \"#utility.yul\":1557:1561   */\n      0xa0\n        /* \"#utility.yul\":1552:1555   */\n      dup3\n        /* \"#utility.yul\":1548:1562   */\n      add\n        /* \"#utility.yul\":1646:1650   */\n      0x00\n        /* \"#utility.yul\":1639:1644   */\n      dup3\n        /* \"#utility.yul\":1635:1651   */\n      add\n        /* \"#utility.yul\":1629:1652   */\n      mload\n        /* \"#utility.yul\":1665:1728   */\n      tag_240\n        /* \"#utility.yul\":1722:1726   */\n      0x00\n        /* \"#utility.yul\":1717:1720   */\n      dup6\n        /* \"#utility.yul\":1713:1727   */\n      add\n        /* \"#utility.yul\":1699:1711   */\n      dup3\n        /* \"#utility.yul\":1665:1728   */\n      tag_170\n      jump\t// in\n    tag_240:\n        /* \"#utility.yul\":1572:1738   */\n      pop\n        /* \"#utility.yul\":1824:1828   */\n      0x20\n        /* \"#utility.yul\":1817:1822   */\n      dup3\n        /* \"#utility.yul\":1813:1829   */\n      add\n        /* \"#utility.yul\":1807:1830   */\n      mload\n        /* \"#utility.yul\":1843:1906   */\n      tag_241\n        /* \"#utility.yul\":1900:1904   */\n      0x20\n        /* \"#utility.yul\":1895:1898   */\n      dup6\n        /* \"#utility.yul\":1891:1905   */\n      add\n        /* \"#utility.yul\":1877:1889   */\n      dup3\n        /* \"#utility.yul\":1843:1906   */\n      tag_172\n      jump\t// in\n    tag_241:\n        /* \"#utility.yul\":1748:1916   */\n      pop\n        /* \"#utility.yul\":2004:2008   */\n      0x40\n        /* \"#utility.yul\":1997:2002   */\n      dup3\n        /* \"#utility.yul\":1993:2009   */\n      add\n        /* \"#utility.yul\":1987:2010   */\n      mload\n        /* \"#utility.yul\":2023:2086   */\n      tag_242\n        /* \"#utility.yul\":2080:2084   */\n      0x40\n        /* \"#utility.yul\":2075:2078   */\n      dup6\n        /* \"#utility.yul\":2071:2085   */\n      add\n        /* \"#utility.yul\":2057:2069   */\n      dup3\n        /* \"#utility.yul\":2023:2086   */\n      tag_172\n      jump\t// in\n    tag_242:\n        /* \"#utility.yul\":1926:2096   */\n      pop\n        /* \"#utility.yul\":2183:2187   */\n      0x60\n        /* \"#utility.yul\":2176:2181   */\n      dup3\n        /* \"#utility.yul\":2172:2188   */\n      add\n        /* \"#utility.yul\":2166:2189   */\n      mload\n        /* \"#utility.yul\":2202:2265   */\n      tag_243\n        /* \"#utility.yul\":2259:2263   */\n      0x60\n        /* \"#utility.yul\":2254:2257   */\n      dup6\n        /* \"#utility.yul\":2250:2264   */\n      add\n        /* \"#utility.yul\":2236:2248   */\n      dup3\n        /* \"#utility.yul\":2202:2265   */\n      tag_172\n      jump\t// in\n    tag_243:\n        /* \"#utility.yul\":2106:2275   */\n      pop\n        /* \"#utility.yul\":2362:2366   */\n      0x80\n        /* \"#utility.yul\":2355:2360   */\n      dup3\n        /* \"#utility.yul\":2351:2367   */\n      add\n        /* \"#utility.yul\":2345:2368   */\n      mload\n        /* \"#utility.yul\":2381:2444   */\n      tag_244\n        /* \"#utility.yul\":2438:2442   */\n      0x80\n        /* \"#utility.yul\":2433:2436   */\n      dup6\n        /* \"#utility.yul\":2429:2443   */\n      add\n        /* \"#utility.yul\":2415:2427   */\n      dup3\n        /* \"#utility.yul\":2381:2444   */\n      tag_170\n      jump\t// in\n    tag_244:\n        /* \"#utility.yul\":2285:2454   */\n      pop\n        /* \"#utility.yul\":1526:2461   */\n      pop\n        /* \"#utility.yul\":1406:2461   */\n      pop\n      pop\n      jump\t// out\n        /* \"#utility.yul\":2467:2798   */\n    tag_26:\n        /* \"#utility.yul\":2614:2618   */\n      0x00\n        /* \"#utility.yul\":2652:2655   */\n      0xa0\n        /* \"#utility.yul\":2641:2650   */\n      dup3\n        /* \"#utility.yul\":2637:2656   */\n      add\n        /* \"#utility.yul\":2629:2656   */\n      swap1\n      pop\n        /* \"#utility.yul\":2666:2791   */\n      tag_246\n        /* \"#utility.yul\":2788:2789   */\n      0x00\n        /* \"#utility.yul\":2777:2786   */\n      dup4\n        /* \"#utility.yul\":2773:2790   */\n      add\n        /* \"#utility.yul\":2764:2770   */\n      dup5\n        /* \"#utility.yul\":2666:2791   */\n      tag_173\n      jump\t// in\n    tag_246:\n        /* \"#utility.yul\":2467:2798   */\n      swap3\n      swap2\n      pop\n      pop\n      jump\t// out\n        /* \"#utility.yul\":2804:2922   */\n    tag_174:\n        /* \"#utility.yul\":2891:2915   */\n      tag_248\n        /* \"#utility.yul\":2909:2914   */\n      dup2\n        /* \"#utility.yul\":2891:2915   */\n      tag_167\n      jump\t// in\n    tag_248:\n        /* \"#utility.yul\":2886:2889   */\n      dup3\n        /* \"#utility.yul\":2879:2916   */\n      mstore\n        /* \"#utility.yul\":2804:2922   */\n      pop\n      pop\n      jump\t// out\n        /* \"#utility.yul\":2928:3150   */\n    tag_30:\n        /* \"#utility.yul\":3021:3025   */\n      0x00\n        /* \"#utility.yul\":3059:3061   */\n      0x20\n        /* \"#utility.yul\":3048:3057   */\n      dup3\n        /* \"#utility.yul\":3044:3062   */\n      add\n        /* \"#utility.yul\":3036:3062   */\n      swap1\n      pop\n        /* \"#utility.yul\":3072:3143   */\n      tag_250\n        /* \"#utility.yul\":3140:3141   */\n      0x00\n        /* \"#utility.yul\":3129:3138   */\n      dup4\n        /* \"#utility.yul\":3125:3142   */\n      add\n        /* \"#utility.yul\":3116:3122   */\n      dup5\n        /* \"#utility.yul\":3072:3143   */\n      tag_174\n      jump\t// in\n    tag_250:\n        /* \"#utility.yul\":2928:3150   */\n      swap3\n      swap2\n      pop\n      pop\n      jump\t// out\n        /* \"#utility.yul\":3156:3282   */\n    tag_175:\n        /* \"#utility.yul\":3193:3200   */\n      0x00\n        /* \"#utility.yul\":3233:3275   */\n      0xffffffffffffffffffffffffffffffffffffffff\n        /* \"#utility.yul\":3226:3231   */\n      dup3\n        /* \"#utility.yul\":3222:3276   */\n      and\n        /* \"#utility.yul\":3211:3276   */\n      swap1\n      pop\n        /* \"#utility.yul\":3156:3282   */\n      swap2\n      swap1\n      pop\n      jump\t// out\n        /* \"#utility.yul\":3288:3384   */\n    tag_176:\n        /* \"#utility.yul\":3325:3332   */\n      0x00\n        /* \"#utility.yul\":3354:3378   */\n      tag_253\n        /* \"#utility.yul\":3372:3377   */\n      dup3\n        /* \"#utility.yul\":3354:3378   */\n      tag_175\n      jump\t// in\n    tag_253:\n        /* \"#utility.yul\":3343:3378   */\n      swap1\n      pop\n        /* \"#utility.yul\":3288:3384   */\n      swap2\n      swap1\n      pop\n      jump\t// out\n        /* \"#utility.yul\":3390:3512   */\n    tag_177:\n        /* \"#utility.yul\":3463:3487   */\n      tag_255\n        /* \"#utility.yul\":3481:3486   */\n      dup2\n        /* \"#utility.yul\":3463:3487   */\n      tag_176\n      jump\t// in\n    tag_255:\n        /* \"#utility.yul\":3456:3461   */\n      dup2\n        /* \"#utility.yul\":3453:3488   */\n      eq\n        /* \"#utility.yul\":3443:3506   */\n      tag_256\n      jumpi\n        /* \"#utility.yul\":3502:3503   */\n      0x00\n        /* \"#utility.yul\":3499:3500   */\n      0x00\n        /* \"#utility.yul\":3492:3504   */\n      revert\n        /* \"#utility.yul\":3443:3506   */\n    tag_256:\n        /* \"#utility.yul\":3390:3512   */\n      pop\n      jump\t// out\n        /* \"#utility.yul\":3518:3657   */\n    tag_178:\n        /* \"#utility.yul\":3564:3569   */\n      0x00\n        /* \"#utility.yul\":3602:3608   */\n      dup2\n        /* \"#utility.yul\":3589:3609   */\n      calldataload\n        /* \"#utility.yul\":3580:3609   */\n      swap1\n      pop\n        /* \"#utility.yul\":3618:3651   */\n      tag_258\n        /* \"#utility.yul\":3645:3650   */\n      dup2\n        /* \"#utility.yul\":3618:3651   */\n      tag_177\n      jump\t// in\n    tag_258:\n        /* \"#utility.yul\":3518:3657   */\n      swap3\n      swap2\n      pop\n      pop\n      jump\t// out\n        /* \"#utility.yul\":3663:3753   */\n    tag_179:\n        /* \"#utility.yul\":3697:3704   */\n      0x00\n        /* \"#utility.yul\":3740:3745   */\n      dup2\n        /* \"#utility.yul\":3733:3746   */\n      iszero\n        /* \"#utility.yul\":3726:3747   */\n      iszero\n        /* \"#utility.yul\":3715:3747   */\n      swap1\n      pop\n        /* \"#utility.yul\":3663:3753   */\n      swap2\n      swap1\n      pop\n      jump\t// out\n        /* \"#utility.yul\":3759:3875   */\n    tag_180:\n        /* \"#utility.yul\":3829:3850   */\n      tag_261\n        /* \"#utility.yul\":3844:3849   */\n      dup2\n        /* \"#utility.yul\":3829:3850   */\n      tag_179\n      jump\t// in\n    tag_261:\n        /* \"#utility.yul\":3822:3827   */\n      dup2\n        /* \"#utility.yul\":3819:3851   */\n      eq\n        /* \"#utility.yul\":3809:3869   */\n      tag_262\n      jumpi\n        /* \"#utility.yul\":3865:3866   */\n      0x00\n        /* \"#utility.yul\":3862:3863   */\n      0x00\n        /* \"#utility.yul\":3855:3867   */\n      revert\n        /* \"#utility.yul\":3809:3869   */\n    tag_262:\n        /* \"#utility.yul\":3759:3875   */\n      pop\n      jump\t// out\n        /* \"#utility.yul\":3881:4014   */\n    tag_181:\n        /* \"#utility.yul\":3924:3929   */\n      0x00\n        /* \"#utility.yul\":3962:3968   */\n      dup2\n        /* \"#utility.yul\":3949:3969   */\n      calldataload\n        /* \"#utility.yul\":3940:3969   */\n      swap1\n      pop\n        /* \"#utility.yul\":3978:4008   */\n      tag_264\n        /* \"#utility.yul\":4002:4007   */\n      dup2\n        /* \"#utility.yul\":3978:4008   */\n      tag_180\n      jump\t// in\n    tag_264:\n        /* \"#utility.yul\":3881:4014   */\n      swap3\n      swap2\n      pop\n      pop\n      jump\t// out\n        /* \"#utility.yul\":4020:4488   */\n    tag_33:\n        /* \"#utility.yul\":4085:4091   */\n      0x00\n        /* \"#utility.yul\":4093:4099   */\n      0x00\n        /* \"#utility.yul\":4142:4144   */\n      0x40\n        /* \"#utility.yul\":4130:4139   */\n      dup4\n        /* \"#utility.yul\":4121:4128   */\n      dup6\n        /* \"#utility.yul\":4117:4140   */\n      sub\n        /* \"#utility.yul\":4113:4145   */\n      slt\n        /* \"#utility.yul\":4110:4229   */\n      iszero\n      tag_266\n      jumpi\n        /* \"#utility.yul\":4148:4227   */\n      tag_267\n      tag_165\n      jump\t// in\n    tag_267:\n        /* \"#utility.yul\":4110:4229   */\n    tag_266:\n        /* \"#utility.yul\":4268:4269   */\n      0x00\n        /* \"#utility.yul\":4293:4346   */\n      tag_268\n        /* \"#utility.yul\":4338:4345   */\n      dup6\n        /* \"#utility.yul\":4329:4335   */\n      dup3\n        /* \"#utility.yul\":4318:4327   */\n      dup7\n        /* \"#utility.yul\":4314:4336   */\n      add\n        /* \"#utility.yul\":4293:4346   */\n      tag_178\n      jump\t// in\n    tag_268:\n        /* \"#utility.yul\":4283:4346   */\n      swap3\n      pop\n        /* \"#utility.yul\":4239:4356   */\n      pop\n        /* \"#utility.yul\":4395:4397   */\n      0x20\n        /* \"#utility.yul\":4421:4471   */\n      tag_269\n        /* \"#utility.yul\":4463:4470   */\n      dup6\n        /* \"#utility.yul\":4454:4460   */\n      dup3\n        /* \"#utility.yul\":4443:4452   */\n      dup7\n        /* \"#utility.yul\":4439:4461   */\n      add\n        /* \"#utility.yul\":4421:4471   */\n      tag_181\n      jump\t// in\n    tag_269:\n        /* \"#utility.yul\":4411:4471   */\n      swap2\n      pop\n        /* \"#utility.yul\":4366:4481   */\n      pop\n        /* \"#utility.yul\":4020:4488   */\n      swap3\n      pop\n      swap3\n      swap1\n      pop\n      jump\t// out\n        /* \"#utility.yul\":4494:4616   */\n    tag_182:\n        /* \"#utility.yul\":4567:4591   */\n      tag_271\n        /* \"#utility.yul\":4585:4590   */\n      dup2\n        /* \"#utility.yul\":4567:4591   */\n      tag_171\n      jump\t// in\n    tag_271:\n        /* \"#utility.yul\":4560:4565   */\n      dup2\n        /* \"#utility.yul\":4557:4592   */\n      eq\n        /* \"#utility.yul\":4547:4610   */\n      tag_272\n      jumpi\n        /* \"#utility.yul\":4606:4607   */\n      0x00\n        /* \"#utility.yul\":4603:4604   */\n      0x00\n        /* \"#utility.yul\":4596:4608   */\n      revert\n        /* \"#utility.yul\":4547:4610   */\n    tag_272:\n        /* \"#utility.yul\":4494:4616   */\n      pop\n      jump\t// out\n        /* \"#utility.yul\":4622:4761   */\n    tag_183:\n        /* \"#utility.yul\":4668:4673   */\n      0x00\n        /* \"#utility.yul\":4706:4712   */\n      dup2\n        /* \"#utility.yul\":4693:4713   */\n      calldataload\n        /* \"#utility.yul\":4684:4713   */\n      swap1\n      pop\n        /* \"#utility.yul\":4722:4755   */\n      tag_274\n        /* \"#utility.yul\":4749:4754   */\n      dup2\n        /* \"#utility.yul\":4722:4755   */\n      tag_182\n      jump\t// in\n    tag_274:\n        /* \"#utility.yul\":4622:4761   */\n      swap3\n      swap2\n      pop\n      pop\n      jump\t// out\n        /* \"#utility.yul\":4767:5241   */\n    tag_40:\n        /* \"#utility.yul\":4835:4841   */\n      0x00\n        /* \"#utility.yul\":4843:4849   */\n      0x00\n        /* \"#utility.yul\":4892:4894   */\n      0x40\n        /* \"#utility.yul\":4880:4889   */\n      dup4\n        /* \"#utility.yul\":4871:4878   */\n      dup6\n        /* \"#utility.yul\":4867:4890   */\n      sub\n        /* \"#utility.yul\":4863:4895   */\n      slt\n        /* \"#utility.yul\":4860:4979   */\n      iszero\n      tag_276\n      jumpi\n        /* \"#utility.yul\":4898:4977   */\n      tag_277\n      tag_165\n      jump\t// in\n    tag_277:\n        /* \"#utility.yul\":4860:4979   */\n    tag_276:\n        /* \"#utility.yul\":5018:5019   */\n      0x00\n        /* \"#utility.yul\":5043:5096   */\n      tag_278\n        /* \"#utility.yul\":5088:5095   */\n      dup6\n        /* \"#utility.yul\":5079:5085   */\n      dup3\n        /* \"#utility.yul\":5068:5077   */\n      dup7\n        /* \"#utility.yul\":5064:5086   */\n      add\n        /* \"#utility.yul\":5043:5096   */\n      tag_183\n      jump\t// in\n    tag_278:\n        /* \"#utility.yul\":5033:5096   */\n      swap3\n      pop\n        /* \"#utility.yul\":4989:5106   */\n      pop\n        /* \"#utility.yul\":5145:5147   */\n      0x20\n        /* \"#utility.yul\":5171:5224   */\n      tag_279\n        /* \"#utility.yul\":5216:5223   */\n      dup6\n        /* \"#utility.yul\":5207:5213   */\n      dup3\n        /* \"#utility.yul\":5196:5205   */\n      dup7\n        /* \"#utility.yul\":5192:5214   */\n      add\n        /* \"#utility.yul\":5171:5224   */\n      tag_178\n      jump\t// in\n    tag_279:\n        /* \"#utility.yul\":5161:5224   */\n      swap2\n      pop\n        /* \"#utility.yul\":5116:5234   */\n      pop\n        /* \"#utility.yul\":4767:5241   */\n      swap3\n      pop\n      swap3\n      swap1\n      pop\n      jump\t// out\n        /* \"#utility.yul\":5247:5356   */\n    tag_184:\n        /* \"#utility.yul\":5328:5349   */\n      tag_281\n        /* \"#utility.yul\":5343:5348   */\n      dup2\n        /* \"#utility.yul\":5328:5349   */\n      tag_179\n      jump\t// in\n    tag_281:\n        /* \"#utility.yul\":5323:5326   */\n      dup3\n        /* \"#utility.yul\":5316:5350   */\n      mstore\n        /* \"#utility.yul\":5247:5356   */\n      pop\n      pop\n      jump\t// out\n        /* \"#utility.yul\":5362:5572   */\n    tag_43:\n        /* \"#utility.yul\":5449:5453   */\n      0x00\n        /* \"#utility.yul\":5487:5489   */\n      0x20\n        /* \"#utility.yul\":5476:5485   */\n      dup3\n        /* \"#utility.yul\":5472:5490   */\n      add\n        /* \"#utility.yul\":5464:5490   */\n      swap1\n      pop\n        /* \"#utility.yul\":5500:5565   */\n      tag_283\n        /* \"#utility.yul\":5562:5563   */\n      0x00\n        /* \"#utility.yul\":5551:5560   */\n      dup4\n        /* \"#utility.yul\":5547:5564   */\n      add\n        /* \"#utility.yul\":5538:5544   */\n      dup5\n        /* \"#utility.yul\":5500:5565   */\n      tag_184\n      jump\t// in\n    tag_283:\n        /* \"#utility.yul\":5362:5572   */\n      swap3\n      swap2\n      pop\n      pop\n      jump\t// out\n        /* \"#utility.yul\":5578:5907   */\n    tag_46:\n        /* \"#utility.yul\":5637:5643   */\n      0x00\n        /* \"#utility.yul\":5686:5688   */\n      0x20\n        /* \"#utility.yul\":5674:5683   */\n      dup3\n        /* \"#utility.yul\":5665:5672   */\n      dup5\n        /* \"#utility.yul\":5661:5684   */\n      sub\n        /* \"#utility.yul\":5657:5689   */\n      slt\n        /* \"#utility.yul\":5654:5773   */\n      iszero\n      tag_285\n      jumpi\n        /* \"#utility.yul\":5692:5771   */\n      tag_286\n      tag_165\n      jump\t// in\n    tag_286:\n        /* \"#utility.yul\":5654:5773   */\n    tag_285:\n        /* \"#utility.yul\":5812:5813   */\n      0x00\n        /* \"#utility.yul\":5837:5890   */\n      tag_287\n        /* \"#utility.yul\":5882:5889   */\n      dup5\n        /* \"#utility.yul\":5873:5879   */\n      dup3\n        /* \"#utility.yul\":5862:5871   */\n      dup6\n        /* \"#utility.yul\":5858:5880   */\n      add\n        /* \"#utility.yul\":5837:5890   */\n      tag_178\n      jump\t// in\n    tag_287:\n        /* \"#utility.yul\":5827:5890   */\n      swap2\n      pop\n        /* \"#utility.yul\":5783:5900   */\n      pop\n        /* \"#utility.yul\":5578:5907   */\n      swap3\n      swap2\n      pop\n      pop\n      jump\t// out\n        /* \"#utility.yul\":5913:6242   */\n    tag_51:\n        /* \"#utility.yul\":5972:5978   */\n      0x00\n        /* \"#utility.yul\":6021:6023   */\n      0x20\n        /* \"#utility.yul\":6009:6018   */\n      dup3\n        /* \"#utility.yul\":6000:6007   */\n      dup5\n        /* \"#utility.yul\":5996:6019   */\n      sub\n        /* \"#utility.yul\":5992:6024   */\n      slt\n        /* \"#utility.yul\":5989:6108   */\n      iszero\n      tag_289\n      jumpi\n        /* \"#utility.yul\":6027:6106   */\n      tag_290\n      tag_165\n      jump\t// in\n    tag_290:\n        /* \"#utility.yul\":5989:6108   */\n    tag_289:\n        /* \"#utility.yul\":6147:6148   */\n      0x00\n        /* \"#utility.yul\":6172:6225   */\n      tag_291\n        /* \"#utility.yul\":6217:6224   */\n      dup5\n        /* \"#utility.yul\":6208:6214   */\n      dup3\n        /* \"#utility.yul\":6197:6206   */\n      dup6\n        /* \"#utility.yul\":6193:6215   */\n      add\n        /* \"#utility.yul\":6172:6225   */\n      tag_183\n      jump\t// in\n    tag_291:\n        /* \"#utility.yul\":6162:6225   */\n      swap2\n      pop\n        /* \"#utility.yul\":6118:6235   */\n      pop\n        /* \"#utility.yul\":5913:6242   */\n      swap3\n      swap2\n      pop\n      pop\n      jump\t// out\n        /* \"#utility.yul\":6248:6888   */\n    tag_54:\n        /* \"#utility.yul\":6467:6471   */\n      0x00\n        /* \"#utility.yul\":6505:6508   */\n      0x0100\n        /* \"#utility.yul\":6494:6503   */\n      dup3\n        /* \"#utility.yul\":6490:6509   */\n      add\n        /* \"#utility.yul\":6482:6509   */\n      swap1\n      pop\n        /* \"#utility.yul\":6519:6644   */\n      tag_293\n        /* \"#utility.yul\":6641:6642   */\n      0x00\n        /* \"#utility.yul\":6630:6639   */\n      dup4\n        /* \"#utility.yul\":6626:6643   */\n      add\n        /* \"#utility.yul\":6617:6623   */\n      dup8\n        /* \"#utility.yul\":6519:6644   */\n      tag_173\n      jump\t// in\n    tag_293:\n        /* \"#utility.yul\":6654:6727   */\n      tag_294\n        /* \"#utility.yul\":6722:6725   */\n      0xa0\n        /* \"#utility.yul\":6711:6720   */\n      dup4\n        /* \"#utility.yul\":6707:6726   */\n      add\n        /* \"#utility.yul\":6698:6704   */\n      dup7\n        /* \"#utility.yul\":6654:6727   */\n      tag_174\n      jump\t// in\n    tag_294:\n        /* \"#utility.yul\":6737:6804   */\n      tag_295\n        /* \"#utility.yul\":6799:6802   */\n      0xc0\n        /* \"#utility.yul\":6788:6797   */\n      dup4\n        /* \"#utility.yul\":6784:6803   */\n      add\n        /* \"#utility.yul\":6775:6781   */\n      dup6\n        /* \"#utility.yul\":6737:6804   */\n      tag_184\n      jump\t// in\n    tag_295:\n        /* \"#utility.yul\":6814:6881   */\n      tag_296\n        /* \"#utility.yul\":6876:6879   */\n      0xe0\n        /* \"#utility.yul\":6865:6874   */\n      dup4\n        /* \"#utility.yul\":6861:6880   */\n      add\n        /* \"#utility.yul\":6852:6858   */\n      dup5\n        /* \"#utility.yul\":6814:6881   */\n      tag_184\n      jump\t// in\n    tag_296:\n        /* \"#utility.yul\":6248:6888   */\n      swap6\n      swap5\n      pop\n      pop\n      pop\n      pop\n      pop\n      jump\t// out\n        /* \"#utility.yul\":6894:7805   */\n    tag_57:\n        /* \"#utility.yul\":6989:6995   */\n      0x00\n        /* \"#utility.yul\":6997:7003   */\n      0x00\n        /* \"#utility.yul\":7005:7011   */\n      0x00\n        /* \"#utility.yul\":7013:7019   */\n      0x00\n        /* \"#utility.yul\":7021:7027   */\n      0x00\n        /* \"#utility.yul\":7070:7073   */\n      0xa0\n        /* \"#utility.yul\":7058:7067   */\n      dup7\n        /* \"#utility.yul\":7049:7056   */\n      dup9\n        /* \"#utility.yul\":7045:7068   */\n      sub\n        /* \"#utility.yul\":7041:7074   */\n      slt\n        /* \"#utility.yul\":7038:7158   */\n      iszero\n      tag_298\n      jumpi\n        /* \"#utility.yul\":7077:7156   */\n      tag_299\n      tag_165\n      jump\t// in\n    tag_299:\n        /* \"#utility.yul\":7038:7158   */\n    tag_298:\n        /* \"#utility.yul\":7197:7198   */\n      0x00\n        /* \"#utility.yul\":7222:7275   */\n      tag_300\n        /* \"#utility.yul\":7267:7274   */\n      dup9\n        /* \"#utility.yul\":7258:7264   */\n      dup3\n        /* \"#utility.yul\":7247:7256   */\n      dup10\n        /* \"#utility.yul\":7243:7265   */\n      add\n        /* \"#utility.yul\":7222:7275   */\n      tag_169\n      jump\t// in\n    tag_300:\n        /* \"#utility.yul\":7212:7275   */\n      swap6\n      pop\n        /* \"#utility.yul\":7168:7285   */\n      pop\n        /* \"#utility.yul\":7324:7326   */\n      0x20\n        /* \"#utility.yul\":7350:7403   */\n      tag_301\n        /* \"#utility.yul\":7395:7402   */\n      dup9\n        /* \"#utility.yul\":7386:7392   */\n      dup3\n        /* \"#utility.yul\":7375:7384   */\n      dup10\n        /* \"#utility.yul\":7371:7393   */\n      add\n        /* \"#utility.yul\":7350:7403   */\n      tag_183\n      jump\t// in\n    tag_301:\n        /* \"#utility.yul\":7340:7403   */\n      swap5\n      pop\n        /* \"#utility.yul\":7295:7413   */\n      pop\n        /* \"#utility.yul\":7452:7454   */\n      0x40\n        /* \"#utility.yul\":7478:7531   */\n      tag_302\n        /* \"#utility.yul\":7523:7530   */\n      dup9\n        /* \"#utility.yul\":7514:7520   */\n      dup3\n        /* \"#utility.yul\":7503:7512   */\n      dup10\n        /* \"#utility.yul\":7499:7521   */\n      add\n        /* \"#utility.yul\":7478:7531   */\n      tag_183\n      jump\t// in\n    tag_302:\n        /* \"#utility.yul\":7468:7531   */\n      swap4\n      pop\n        /* \"#utility.yul\":7423:7541   */\n      pop\n        /* \"#utility.yul\":7580:7582   */\n      0x60\n        /* \"#utility.yul\":7606:7659   */\n      tag_303\n        /* \"#utility.yul\":7651:7658   */\n      dup9\n        /* \"#utility.yul\":7642:7648   */\n      dup3\n        /* \"#utility.yul\":7631:7640   */\n      dup10\n        /* \"#utility.yul\":7627:7649   */\n      add\n        /* \"#utility.yul\":7606:7659   */\n      tag_183\n      jump\t// in\n    tag_303:\n        /* \"#utility.yul\":7596:7659   */\n      swap3\n      pop\n        /* \"#utility.yul\":7551:7669   */\n      pop\n        /* \"#utility.yul\":7708:7711   */\n      0x80\n        /* \"#utility.yul\":7735:7788   */\n      tag_304\n        /* \"#utility.yul\":7780:7787   */\n      dup9\n        /* \"#utility.yul\":7771:7777   */\n      dup3\n        /* \"#utility.yul\":7760:7769   */\n      dup10\n        /* \"#utility.yul\":7756:7778   */\n      add\n        /* \"#utility.yul\":7735:7788   */\n      tag_169\n      jump\t// in\n    tag_304:\n        /* \"#utility.yul\":7725:7788   */\n      swap2\n      pop\n        /* \"#utility.yul\":7679:7798   */\n      pop\n        /* \"#utility.yul\":6894:7805   */\n      swap3\n      swap6\n      pop\n      swap3\n      swap6\n      swap1\n      swap4\n      pop\n      jump\t// out\n        /* \"#utility.yul\":7811:7929   */\n    tag_185:\n        /* \"#utility.yul\":7898:7922   */\n      tag_306\n        /* \"#utility.yul\":7916:7921   */\n      dup2\n        /* \"#utility.yul\":7898:7922   */\n      tag_171\n      jump\t// in\n    tag_306:\n        /* \"#utility.yul\":7893:7896   */\n      dup3\n        /* \"#utility.yul\":7886:7923   */\n      mstore\n        /* \"#utility.yul\":7811:7929   */\n      pop\n      pop\n      jump\t// out\n        /* \"#utility.yul\":7935:8157   */\n    tag_60:\n        /* \"#utility.yul\":8028:8032   */\n      0x00\n        /* \"#utility.yul\":8066:8068   */\n      0x20\n        /* \"#utility.yul\":8055:8064   */\n      dup3\n        /* \"#utility.yul\":8051:8069   */\n      add\n        /* \"#utility.yul\":8043:8069   */\n      swap1\n      pop\n        /* \"#utility.yul\":8079:8150   */\n      tag_308\n        /* \"#utility.yul\":8147:8148   */\n      0x00\n        /* \"#utility.yul\":8136:8145   */\n      dup4\n        /* \"#utility.yul\":8132:8149   */\n      add\n        /* \"#utility.yul\":8123:8129   */\n      dup5\n        /* \"#utility.yul\":8079:8150   */\n      tag_185\n      jump\t// in\n    tag_308:\n        /* \"#utility.yul\":7935:8157   */\n      swap3\n      swap2\n      pop\n      pop\n      jump\t// out\n        /* \"#utility.yul\":8163:8280   */\n    tag_186:\n        /* \"#utility.yul\":8272:8273   */\n      0x00\n        /* \"#utility.yul\":8269:8270   */\n      0x00\n        /* \"#utility.yul\":8262:8274   */\n      revert\n        /* \"#utility.yul\":8286:8388   */\n    tag_187:\n        /* \"#utility.yul\":8327:8333   */\n      0x00\n        /* \"#utility.yul\":8378:8380   */\n      0x1f\n        /* \"#utility.yul\":8374:8381   */\n      not\n        /* \"#utility.yul\":8369:8371   */\n      0x1f\n        /* \"#utility.yul\":8362:8367   */\n      dup4\n        /* \"#utility.yul\":8358:8372   */\n      add\n        /* \"#utility.yul\":8354:8382   */\n      and\n        /* \"#utility.yul\":8344:8382   */\n      swap1\n      pop\n        /* \"#utility.yul\":8286:8388   */\n      swap2\n      swap1\n      pop\n      jump\t// out\n        /* \"#utility.yul\":8394:8574   */\n    tag_188:\n        /* \"#utility.yul\":8442:8519   */\n      0x4e487b7100000000000000000000000000000000000000000000000000000000\n        /* \"#utility.yul\":8439:8440   */\n      0x00\n        /* \"#utility.yul\":8432:8520   */\n      mstore\n        /* \"#utility.yul\":8539:8543   */\n      0x41\n        /* \"#utility.yul\":8536:8537   */\n      0x04\n        /* \"#utility.yul\":8529:8544   */\n      mstore\n        /* \"#utility.yul\":8563:8567   */\n      0x24\n        /* \"#utility.yul\":8560:8561   */\n      0x00\n        /* \"#utility.yul\":8553:8568   */\n      revert\n        /* \"#utility.yul\":8580:8861   */\n    tag_189:\n        /* \"#utility.yul\":8663:8690   */\n      tag_313\n        /* \"#utility.yul\":8685:8689   */\n      dup3\n        /* \"#utility.yul\":8663:8690   */\n      tag_187\n      jump\t// in\n    tag_313:\n        /* \"#utility.yul\":8655:8661   */\n      dup2\n        /* \"#utility.yul\":8651:8691   */\n      add\n        /* \"#utility.yul\":8793:8799   */\n      dup2\n        /* \"#utility.yul\":8781:8791   */\n      dup2\n        /* \"#utility.yul\":8778:8800   */\n      lt\n        /* \"#utility.yul\":8757:8775   */\n      0xffffffffffffffff\n        /* \"#utility.yul\":8745:8755   */\n      dup3\n        /* \"#utility.yul\":8742:8776   */\n      gt\n        /* \"#utility.yul\":8739:8801   */\n      or\n        /* \"#utility.yul\":8736:8824   */\n      iszero\n      tag_314\n      jumpi\n        /* \"#utility.yul\":8804:8822   */\n      tag_315\n      tag_188\n      jump\t// in\n    tag_315:\n        /* \"#utility.yul\":8736:8824   */\n    tag_314:\n        /* \"#utility.yul\":8844:8854   */\n      dup1\n        /* \"#utility.yul\":8840:8842   */\n      0x40\n        /* \"#utility.yul\":8833:8855   */\n      mstore\n        /* \"#utility.yul\":8623:8861   */\n      pop\n        /* \"#utility.yul\":8580:8861   */\n      pop\n      pop\n      jump\t// out\n        /* \"#utility.yul\":8867:8996   */\n    tag_190:\n        /* \"#utility.yul\":8901:8907   */\n      0x00\n        /* \"#utility.yul\":8928:8948   */\n      tag_317\n      tag_164\n      jump\t// in\n    tag_317:\n        /* \"#utility.yul\":8918:8948   */\n      swap1\n      pop\n        /* \"#utility.yul\":8957:8990   */\n      tag_318\n        /* \"#utility.yul\":8985:8989   */\n      dup3\n        /* \"#utility.yul\":8977:8983   */\n      dup3\n        /* \"#utility.yul\":8957:8990   */\n      tag_189\n      jump\t// in\n    tag_318:\n        /* \"#utility.yul\":8867:8996   */\n      swap2\n      swap1\n      pop\n      jump\t// out\n        /* \"#utility.yul\":9162:10244   */\n    tag_192:\n        /* \"#utility.yul\":9238:9243   */\n      0x00\n        /* \"#utility.yul\":9282:9286   */\n      0xa0\n        /* \"#utility.yul\":9270:9279   */\n      dup3\n        /* \"#utility.yul\":9265:9268   */\n      dup5\n        /* \"#utility.yul\":9261:9280   */\n      sub\n        /* \"#utility.yul\":9257:9287   */\n      slt\n        /* \"#utility.yul\":9254:9371   */\n      iszero\n      tag_321\n      jumpi\n        /* \"#utility.yul\":9290:9369   */\n      tag_322\n      tag_186\n      jump\t// in\n    tag_322:\n        /* \"#utility.yul\":9254:9371   */\n    tag_321:\n        /* \"#utility.yul\":9389:9410   */\n      tag_323\n        /* \"#utility.yul\":9405:9409   */\n      0xa0\n        /* \"#utility.yul\":9389:9410   */\n      tag_190\n      jump\t// in\n    tag_323:\n        /* \"#utility.yul\":9380:9410   */\n      swap1\n      pop\n        /* \"#utility.yul\":9471:9472   */\n      0x00\n        /* \"#utility.yul\":9511:9560   */\n      tag_324\n        /* \"#utility.yul\":9556:9559   */\n      dup5\n        /* \"#utility.yul\":9547:9553   */\n      dup3\n        /* \"#utility.yul\":9536:9545   */\n      dup6\n        /* \"#utility.yul\":9532:9554   */\n      add\n        /* \"#utility.yul\":9511:9560   */\n      tag_169\n      jump\t// in\n    tag_324:\n        /* \"#utility.yul\":9504:9508   */\n      0x00\n        /* \"#utility.yul\":9497:9502   */\n      dup4\n        /* \"#utility.yul\":9493:9509   */\n      add\n        /* \"#utility.yul\":9486:9561   */\n      mstore\n        /* \"#utility.yul\":9420:9572   */\n      pop\n        /* \"#utility.yul\":9635:9637   */\n      0x20\n        /* \"#utility.yul\":9676:9725   */\n      tag_325\n        /* \"#utility.yul\":9721:9724   */\n      dup5\n        /* \"#utility.yul\":9712:9718   */\n      dup3\n        /* \"#utility.yul\":9701:9710   */\n      dup6\n        /* \"#utility.yul\":9697:9719   */\n      add\n        /* \"#utility.yul\":9676:9725   */\n      tag_183\n      jump\t// in\n    tag_325:\n        /* \"#utility.yul\":9669:9673   */\n      0x20\n        /* \"#utility.yul\":9662:9667   */\n      dup4\n        /* \"#utility.yul\":9658:9674   */\n      add\n        /* \"#utility.yul\":9651:9726   */\n      mstore\n        /* \"#utility.yul\":9582:9737   */\n      pop\n        /* \"#utility.yul\":9802:9804   */\n      0x40\n        /* \"#utility.yul\":9843:9892   */\n      tag_326\n        /* \"#utility.yul\":9888:9891   */\n      dup5\n        /* \"#utility.yul\":9879:9885   */\n      dup3\n        /* \"#utility.yul\":9868:9877   */\n      dup6\n        /* \"#utility.yul\":9864:9886   */\n      add\n        /* \"#utility.yul\":9843:9892   */\n      tag_183\n      jump\t// in\n    tag_326:\n        /* \"#utility.yul\":9836:9840   */\n      0x40\n        /* \"#utility.yul\":9829:9834   */\n      dup4\n        /* \"#utility.yul\":9825:9841   */\n      add\n        /* \"#utility.yul\":9818:9893   */\n      mstore\n        /* \"#utility.yul\":9747:9904   */\n      pop\n        /* \"#utility.yul\":9968:9970   */\n      0x60\n        /* \"#utility.yul\":10009:10058   */\n      tag_327\n        /* \"#utility.yul\":10054:10057   */\n      dup5\n        /* \"#utility.yul\":10045:10051   */\n      dup3\n        /* \"#utility.yul\":10034:10043   */\n      dup6\n        /* \"#utility.yul\":10030:10052   */\n      add\n        /* \"#utility.yul\":10009:10058   */\n      tag_183\n      jump\t// in\n    tag_327:\n        /* \"#utility.yul\":10002:10006   */\n      0x60\n        /* \"#utility.yul\":9995:10000   */\n      dup4\n        /* \"#utility.yul\":9991:10007   */\n      add\n        /* \"#utility.yul\":9984:10059   */\n      mstore\n        /* \"#utility.yul\":9914:10070   */\n      pop\n        /* \"#utility.yul\":10134:10137   */\n      0x80\n        /* \"#utility.yul\":10176:10225   */\n      tag_328\n        /* \"#utility.yul\":10221:10224   */\n      dup5\n        /* \"#utility.yul\":10212:10218   */\n      dup3\n        /* \"#utility.yul\":10201:10210   */\n      dup6\n        /* \"#utility.yul\":10197:10219   */\n      add\n        /* \"#utility.yul\":10176:10225   */\n      tag_169\n      jump\t// in\n    tag_328:\n        /* \"#utility.yul\":10169:10173   */\n      0x80\n        /* \"#utility.yul\":10162:10167   */\n      dup4\n        /* \"#utility.yul\":10158:10174   */\n      add\n        /* \"#utility.yul\":10151:10226   */\n      mstore\n        /* \"#utility.yul\":10080:10237   */\n      pop\n        /* \"#utility.yul\":9162:10244   */\n      swap3\n      swap2\n      pop\n      pop\n      jump\t// out\n        /* \"#utility.yul\":10250:10634   */\n    tag_66:\n        /* \"#utility.yul\":10336:10342   */\n      0x00\n        /* \"#utility.yul\":10385:10388   */\n      0xa0\n        /* \"#utility.yul\":10373:10382   */\n      dup3\n        /* \"#utility.yul\":10364:10371   */\n      dup5\n        /* \"#utility.yul\":10360:10383   */\n      sub\n        /* \"#utility.yul\":10356:10389   */\n      slt\n        /* \"#utility.yul\":10353:10473   */\n      iszero\n      tag_330\n      jumpi\n        /* \"#utility.yul\":10392:10471   */\n      tag_331\n      tag_165\n      jump\t// in\n    tag_331:\n        /* \"#utility.yul\":10353:10473   */\n    tag_330:\n        /* \"#utility.yul\":10512:10513   */\n      0x00\n        /* \"#utility.yul\":10537:10617   */\n      tag_332\n        /* \"#utility.yul\":10609:10616   */\n      dup5\n        /* \"#utility.yul\":10600:10606   */\n      dup3\n        /* \"#utility.yul\":10589:10598   */\n      dup6\n        /* \"#utility.yul\":10585:10607   */\n      add\n        /* \"#utility.yul\":10537:10617   */\n      tag_192\n      jump\t// in\n    tag_332:\n        /* \"#utility.yul\":10527:10617   */\n      swap2\n      pop\n        /* \"#utility.yul\":10483:10627   */\n      pop\n        /* \"#utility.yul\":10250:10634   */\n      swap3\n      swap2\n      pop\n      pop\n      jump\t// out\n        /* \"#utility.yul\":10640:11304   */\n    tag_82:\n        /* \"#utility.yul\":10845:10849   */\n      0x00\n        /* \"#utility.yul\":10883:10886   */\n      0xa0\n        /* \"#utility.yul\":10872:10881   */\n      dup3\n        /* \"#utility.yul\":10868:10887   */\n      add\n        /* \"#utility.yul\":10860:10887   */\n      swap1\n      pop\n        /* \"#utility.yul\":10897:10968   */\n      tag_334\n        /* \"#utility.yul\":10965:10966   */\n      0x00\n        /* \"#utility.yul\":10954:10963   */\n      dup4\n        /* \"#utility.yul\":10950:10967   */\n      add\n        /* \"#utility.yul\":10941:10947   */\n      dup9\n        /* \"#utility.yul\":10897:10968   */\n      tag_174\n      jump\t// in\n    tag_334:\n        /* \"#utility.yul\":10978:11050   */\n      tag_335\n        /* \"#utility.yul\":11046:11048   */\n      0x20\n        /* \"#utility.yul\":11035:11044   */\n      dup4\n        /* \"#utility.yul\":11031:11049   */\n      add\n        /* \"#utility.yul\":11022:11028   */\n      dup8\n        /* \"#utility.yul\":10978:11050   */\n      tag_185\n      jump\t// in\n    tag_335:\n        /* \"#utility.yul\":11060:11132   */\n      tag_336\n        /* \"#utility.yul\":11128:11130   */\n      0x40\n        /* \"#utility.yul\":11117:11126   */\n      dup4\n        /* \"#utility.yul\":11113:11131   */\n      add\n        /* \"#utility.yul\":11104:11110   */\n      dup7\n        /* \"#utility.yul\":11060:11132   */\n      tag_185\n      jump\t// in\n    tag_336:\n        /* \"#utility.yul\":11142:11214   */\n      tag_337\n        /* \"#utility.yul\":11210:11212   */\n      0x60\n        /* \"#utility.yul\":11199:11208   */\n      dup4\n        /* \"#utility.yul\":11195:11213   */\n      add\n        /* \"#utility.yul\":11186:11192   */\n      dup6\n        /* \"#utility.yul\":11142:11214   */\n      tag_185\n      jump\t// in\n    tag_337:\n        /* \"#utility.yul\":11224:11297   */\n      tag_338\n        /* \"#utility.yul\":11292:11295   */\n      0x80\n        /* \"#utility.yul\":11281:11290   */\n      dup4\n        /* \"#utility.yul\":11277:11296   */\n      add\n        /* \"#utility.yul\":11268:11274   */\n      dup5\n        /* \"#utility.yul\":11224:11297   */\n      tag_174\n      jump\t// in\n    tag_338:\n        /* \"#utility.yul\":10640:11304   */\n      swap7\n      swap6\n      pop\n      pop\n      pop\n      pop\n      pop\n      pop\n      jump\t// out\n        /* \"#utility.yul\":11310:11428   */\n    tag_193:\n        /* \"#utility.yul\":11397:11421   */\n      tag_340\n        /* \"#utility.yul\":11415:11420   */\n      dup2\n        /* \"#utility.yul\":11397:11421   */\n      tag_176\n      jump\t// in\n    tag_340:\n        /* \"#utility.yul\":11392:11395   */\n      dup3\n        /* \"#utility.yul\":11385:11422   */\n      mstore\n        /* \"#utility.yul\":11310:11428   */\n      pop\n      pop\n      jump\t// out\n        /* \"#utility.yul\":11434:11656   */\n    tag_86:\n        /* \"#utility.yul\":11527:11531   */\n      0x00\n        /* \"#utility.yul\":11565:11567   */\n      0x20\n        /* \"#utility.yul\":11554:11563   */\n      dup3\n        /* \"#utility.yul\":11550:11568   */\n      add\n        /* \"#utility.yul\":11542:11568   */\n      swap1\n      pop\n        /* \"#utility.yul\":11578:11649   */\n      tag_342\n        /* \"#utility.yul\":11646:11647   */\n      0x00\n        /* \"#utility.yul\":11635:11644   */\n      dup4\n        /* \"#utility.yul\":11631:11648   */\n      add\n        /* \"#utility.yul\":11622:11628   */\n      dup5\n        /* \"#utility.yul\":11578:11649   */\n      tag_193\n      jump\t// in\n    tag_342:\n        /* \"#utility.yul\":11434:11656   */\n      swap3\n      swap2\n      pop\n      pop\n      jump\t// out\n        /* \"#utility.yul\":11662:11831   */\n    tag_194:\n        /* \"#utility.yul\":11746:11757   */\n      0x00\n        /* \"#utility.yul\":11780:11786   */\n      dup3\n        /* \"#utility.yul\":11775:11778   */\n      dup3\n        /* \"#utility.yul\":11768:11787   */\n      mstore\n        /* \"#utility.yul\":11820:11824   */\n      0x20\n        /* \"#utility.yul\":11815:11818   */\n      dup3\n        /* \"#utility.yul\":11811:11825   */\n      add\n        /* \"#utility.yul\":11796:11825   */\n      swap1\n      pop\n        /* \"#utility.yul\":11662:11831   */\n      swap3\n      swap2\n      pop\n      pop\n      jump\t// out\n        /* \"#utility.yul\":11837:11996   */\n    tag_195:\n        /* \"#utility.yul\":11977:11988   */\n      0x6e6f742061646d696e0000000000000000000000000000000000000000000000\n        /* \"#utility.yul\":11973:11974   */\n      0x00\n        /* \"#utility.yul\":11965:11971   */\n      dup3\n        /* \"#utility.yul\":11961:11975   */\n      add\n        /* \"#utility.yul\":11954:11989   */\n      mstore\n        /* \"#utility.yul\":11837:11996   */\n      pop\n      jump\t// out\n        /* \"#utility.yul\":12002:12367   */\n    tag_196:\n        /* \"#utility.yul\":12144:12147   */\n      0x00\n        /* \"#utility.yul\":12165:12231   */\n      tag_346\n        /* \"#utility.yul\":12229:12230   */\n      0x09\n        /* \"#utility.yul\":12224:12227   */\n      dup4\n        /* \"#utility.yul\":12165:12231   */\n      tag_194\n      jump\t// in\n    tag_346:\n        /* \"#utility.yul\":12158:12231   */\n      swap2\n      pop\n        /* \"#utility.yul\":12240:12333   */\n      tag_347\n        /* \"#utility.yul\":12329:12332   */\n      dup3\n        /* \"#utility.yul\":12240:12333   */\n      tag_195\n      jump\t// in\n    tag_347:\n        /* \"#utility.yul\":12358:12360   */\n      0x20\n        /* \"#utility.yul\":12353:12356   */\n      dup3\n        /* \"#utility.yul\":12349:12361   */\n      add\n        /* \"#utility.yul\":12342:12361   */\n      swap1\n      pop\n        /* \"#utility.yul\":12002:12367   */\n      swap2\n      swap1\n      pop\n      jump\t// out\n        /* \"#utility.yul\":12373:12792   */\n    tag_93:\n        /* \"#utility.yul\":12539:12543   */\n      0x00\n        /* \"#utility.yul\":12577:12579   */\n      0x20\n        /* \"#utility.yul\":12566:12575   */\n      dup3\n        /* \"#utility.yul\":12562:12580   */\n      add\n        /* \"#utility.yul\":12554:12580   */\n      swap1\n      pop\n        /* \"#utility.yul\":12626:12635   */\n      dup2\n        /* \"#utility.yul\":12620:12624   */\n      dup2\n        /* \"#utility.yul\":12616:12636   */\n      sub\n        /* \"#utility.yul\":12612:12613   */\n      0x00\n        /* \"#utility.yul\":12601:12610   */\n      dup4\n        /* \"#utility.yul\":12597:12614   */\n      add\n        /* \"#utility.yul\":12590:12637   */\n      mstore\n        /* \"#utility.yul\":12654:12785   */\n      tag_349\n        /* \"#utility.yul\":12780:12784   */\n      dup2\n        /* \"#utility.yul\":12654:12785   */\n      tag_196\n      jump\t// in\n    tag_349:\n        /* \"#utility.yul\":12646:12785   */\n      swap1\n      pop\n        /* \"#utility.yul\":12373:12792   */\n      swap2\n      swap1\n      pop\n      jump\t// out\n        /* \"#utility.yul\":12798:12958   */\n    tag_197:\n        /* \"#utility.yul\":12938:12950   */\n      0x6e6f742077726974657200000000000000000000000000000000000000000000\n        /* \"#utility.yul\":12934:12935   */\n      0x00\n        /* \"#utility.yul\":12926:12932   */\n      dup3\n        /* \"#utility.yul\":12922:12936   */\n      add\n        /* \"#utility.yul\":12915:12951   */\n      mstore\n        /* \"#utility.yul\":12798:12958   */\n      pop\n      jump\t// out\n        /* \"#utility.yul\":12964:13330   */\n    tag_198:\n        /* \"#utility.yul\":13106:13109   */\n      0x00\n        /* \"#utility.yul\":13127:13194   */\n      tag_352\n        /* \"#utility.yul\":13191:13193   */\n      0x0a\n        /* \"#utility.yul\":13186:13189   */\n      dup4\n        /* \"#utility.yul\":13127:13194   */\n      tag_194\n      jump\t// in\n    tag_352:\n        /* \"#utility.yul\":13120:13194   */\n      swap2\n      pop\n        /* \"#utility.yul\":13203:13296   */\n      tag_353\n        /* \"#utility.yul\":13292:13295   */\n      dup3\n        /* \"#utility.yul\":13203:13296   */\n      tag_197\n      jump\t// in\n    tag_353:\n        /* \"#utility.yul\":13321:13323   */\n      0x20\n        /* \"#utility.yul\":13316:13319   */\n      dup3\n        /* \"#utility.yul\":13312:13324   */\n      add\n        /* \"#utility.yul\":13305:13324   */\n      swap1\n      pop\n        /* \"#utility.yul\":12964:13330   */\n      swap2\n      swap1\n      pop\n      jump\t// out\n        /* \"#utility.yul\":13336:13755   */\n    tag_99:\n        /* \"#utility.yul\":13502:13506   */\n      0x00\n        /* \"#utility.yul\":13540:13542   */\n      0x20\n        /* \"#utility.yul\":13529:13538   */\n      dup3\n        /* \"#utility.yul\":13525:13543   */\n      add\n        /* \"#utility.yul\":13517:13543   */\n      swap1\n      pop\n        /* \"#utility.yul\":13589:13598   */\n      dup2\n        /* \"#utility.yul\":13583:13587   */\n      dup2\n        /* \"#utility.yul\":13579:13599   */\n      sub\n        /* \"#utility.yul\":13575:13576   */\n      0x00\n        /* \"#utility.yul\":13564:13573   */\n      dup4\n        /* \"#utility.yul\":13560:13577   */\n      add\n        /* \"#utility.yul\":13553:13600   */\n      mstore\n        /* \"#utility.yul\":13617:13748   */\n      tag_355\n        /* \"#utility.yul\":13743:13747   */\n      dup2\n        /* \"#utility.yul\":13617:13748   */\n      tag_198\n      jump\t// in\n    tag_355:\n        /* \"#utility.yul\":13609:13748   */\n      swap1\n      pop\n        /* \"#utility.yul\":13336:13755   */\n      swap2\n      swap1\n      pop\n      jump\t// out\n        /* \"#utility.yul\":13761:13941   */\n    tag_199:\n        /* \"#utility.yul\":13809:13886   */\n      0x4e487b7100000000000000000000000000000000000000000000000000000000\n        /* \"#utility.yul\":13806:13807   */\n      0x00\n        /* \"#utility.yul\":13799:13887   */\n      mstore\n        /* \"#utility.yul\":13906:13910   */\n      0x11\n        /* \"#utility.yul\":13903:13904   */\n      0x04\n        /* \"#utility.yul\":13896:13911   */\n      mstore\n        /* \"#utility.yul\":13930:13934   */\n      0x24\n        /* \"#utility.yul\":13927:13928   */\n      0x00\n        /* \"#utility.yul\":13920:13935   */\n      revert\n        /* \"#utility.yul\":13947:14138   */\n    tag_102:\n        /* \"#utility.yul\":13987:13990   */\n      0x00\n        /* \"#utility.yul\":14006:14026   */\n      tag_358\n        /* \"#utility.yul\":14024:14025   */\n      dup3\n        /* \"#utility.yul\":14006:14026   */\n      tag_167\n      jump\t// in\n    tag_358:\n        /* \"#utility.yul\":14001:14026   */\n      swap2\n      pop\n        /* \"#utility.yul\":14040:14060   */\n      tag_359\n        /* \"#utility.yul\":14058:14059   */\n      dup4\n        /* \"#utility.yul\":14040:14060   */\n      tag_167\n      jump\t// in\n    tag_359:\n        /* \"#utility.yul\":14035:14060   */\n      swap3\n      pop\n        /* \"#utility.yul\":14083:14084   */\n      dup3\n        /* \"#utility.yul\":14080:14081   */\n      dup3\n        /* \"#utility.yul\":14076:14085   */\n      add\n        /* \"#utility.yul\":14069:14085   */\n      swap1\n      pop\n        /* \"#utility.yul\":14104:14107   */\n      dup1\n        /* \"#utility.yul\":14101:14102   */\n      dup3\n        /* \"#utility.yul\":14098:14108   */\n      gt\n        /* \"#utility.yul\":14095:14131   */\n      iszero\n      tag_360\n      jumpi\n        /* \"#utility.yul\":14111:14129   */\n      tag_361\n      tag_199\n      jump\t// in\n    tag_361:\n        /* \"#utility.yul\":14095:14131   */\n    tag_360:\n        /* \"#utility.yul\":13947:14138   */\n      swap3\n      swap2\n      pop\n      pop\n      jump\t// out\n        /* \"#utility.yul\":14144:14304   */\n    tag_200:\n        /* \"#utility.yul\":14284:14296   */\n      0x6261642068656967687400000000000000000000000000000000000000000000\n        /* \"#utility.yul\":14280:14281   */\n      0x00\n        /* \"#utility.yul\":14272:14278   */\n      dup3\n        /* \"#utility.yul\":14268:14282   */\n      add\n        /* \"#utility.yul\":14261:14297   */\n      mstore\n        /* \"#utility.yul\":14144:14304   */\n      pop\n      jump\t// out\n        /* \"#utility.yul\":14310:14676   */\n    tag_201:\n        /* \"#utility.yul\":14452:14455   */\n      0x00\n        /* \"#utility.yul\":14473:14540   */\n      tag_364\n        /* \"#utility.yul\":14537:14539   */\n      0x0a\n        /* \"#utility.yul\":14532:14535   */\n      dup4\n        /* \"#utility.yul\":14473:14540   */\n      tag_194\n      jump\t// in\n    tag_364:\n        /* \"#utility.yul\":14466:14540   */\n      swap2\n      pop\n        /* \"#utility.yul\":14549:14642   */\n      tag_365\n        /* \"#utility.yul\":14638:14641   */\n      dup3\n        /* \"#utility.yul\":14549:14642   */\n      tag_200\n      jump\t// in\n    tag_365:\n        /* \"#utility.yul\":14667:14669   */\n      0x20\n        /* \"#utility.yul\":14662:14665   */\n      dup3\n        /* \"#utility.yul\":14658:14670   */\n      add\n        /* \"#utility.yul\":14651:14670   */\n      swap1\n      pop\n        /* \"#utility.yul\":14310:14676   */\n      swap2\n      swap1\n      pop\n      jump\t// out\n        /* \"#utility.yul\":14682:15101   */\n    tag_105:\n        /* \"#utility.yul\":14848:14852   */\n      0x00\n        /* \"#utility.yul\":14886:14888   */\n      0x20\n        /* \"#utility.yul\":14875:14884   */\n      dup3\n        /* \"#utility.yul\":14871:14889   */\n      add\n        /* \"#utility.yul\":14863:14889   */\n      swap1\n      pop\n        /* \"#utility.yul\":14935:14944   */\n      dup2\n        /* \"#utility.yul\":14929:14933   */\n      dup2\n        /* \"#utility.yul\":14925:14945   */\n      sub\n        /* \"#utility.yul\":14921:14922   */\n      0x00\n        /* \"#utility.yul\":14910:14919   */\n      dup4\n        /* \"#utility.yul\":14906:14923   */\n      add\n        /* \"#utility.yul\":14899:14946   */\n      mstore\n        /* \"#utility.yul\":14963:15094   */\n      tag_367\n        /* \"#utility.yul\":15089:15093   */\n      dup2\n        /* \"#utility.yul\":14963:15094   */\n      tag_201\n      jump\t// in\n    tag_367:\n        /* \"#utility.yul\":14955:15094   */\n      swap1\n      pop\n        /* \"#utility.yul\":14682:15101   */\n      swap2\n      swap1\n      pop\n      jump\t// out\n        /* \"#utility.yul\":15107:15270   */\n    tag_202:\n        /* \"#utility.yul\":15247:15262   */\n      0x70726576206d69736d6174636800000000000000000000000000000000000000\n        /* \"#utility.yul\":15243:15244   */\n      0x00\n        /* \"#utility.yul\":15235:15241   */\n      dup3\n        /* \"#utility.yul\":15231:15245   */\n      add\n        /* \"#utility.yul\":15224:15263   */\n      mstore\n        /* \"#utility.yul\":15107:15270   */\n      pop\n      jump\t// out\n        /* \"#utility.yul\":15276:15642   */\n    tag_203:\n        /* \"#utility.yul\":15418:15421   */\n      0x00\n        /* \"#utility.yul\":15439:15506   */\n      tag_370\n        /* \"#utility.yul\":15503:15505   */\n      0x0d\n        /* \"#utility.yul\":15498:15501   */\n      dup4\n        /* \"#utility.yul\":15439:15506   */\n      tag_194\n      jump\t// in\n    tag_370:\n        /* \"#utility.yul\":15432:15506   */\n      swap2\n      pop\n        /* \"#utility.yul\":15515:15608   */\n      tag_371\n        /* \"#utility.yul\":15604:15607   */\n      dup3\n        /* \"#utility.yul\":15515:15608   */\n      tag_202\n      jump\t// in\n    tag_371:\n        /* \"#utility.yul\":15633:15635   */\n      0x20\n        /* \"#utility.yul\":15628:15631   */\n      dup3\n        /* \"#utility.yul\":15624:15636   */\n      add\n        /* \"#utility.yul\":15617:15636   */\n      swap1\n      pop\n        /* \"#utility.yul\":15276:15642   */\n      swap2\n      swap1\n      pop\n      jump\t// out\n        /* \"#utility.yul\":15648:16067   */\n    tag_108:\n        /* \"#utility.yul\":15814:15818   */\n      0x00\n        /* \"#utility.yul\":15852:15854   */\n      0x20\n        /* \"#utility.yul\":15841:15850   */\n      dup3\n        /* \"#utility.yul\":15837:15855   */\n      add\n        /* \"#utility.yul\":15829:15855   */\n      swap1\n      pop\n        /* \"#utility.yul\":15901:15910   */\n      dup2\n        /* \"#utility.yul\":15895:15899   */\n      dup2\n        /* \"#utility.yul\":15891:15911   */\n      sub\n        /* \"#utility.yul\":15887:15888   */\n      0x00\n        /* \"#utility.yul\":15876:15885   */\n      dup4\n        /* \"#utility.yul\":15872:15889   */\n      add\n        /* \"#utility.yul\":15865:15912   */\n      mstore\n        /* \"#utility.yul\":15929:16060   */\n      tag_373\n        /* \"#utility.yul\":16055:16059   */\n      dup2\n        /* \"#utility.yul\":15929:16060   */\n      tag_203\n      jump\t// in\n    tag_373:\n        /* \"#utility.yul\":15921:16060   */\n      swap1\n      pop\n        /* \"#utility.yul\":15648:16067   */\n      swap2\n      swap1\n      pop\n      jump\t// out\n        /* \"#utility.yul\":16073:16238   */\n    tag_204:\n        /* \"#utility.yul\":16213:16230   */\n      0x70726f706f73616c206578697374730000000000000000000000000000000000\n        /* \"#utility.yul\":16209:16210   */\n      0x00\n        /* \"#utility.yul\":16201:16207   */\n      dup3\n        /* \"#utility.yul\":16197:16211   */\n      add\n        /* \"#utility.yul\":16190:16231   */\n      mstore\n        /* \"#utility.yul\":16073:16238   */\n      pop\n      jump\t// out\n        /* \"#utility.yul\":16244:16610   */\n    tag_205:\n        /* \"#utility.yul\":16386:16389   */\n      0x00\n        /* \"#utility.yul\":16407:16474   */\n      tag_376\n        /* \"#utility.yul\":16471:16473   */\n      0x0f\n        /* \"#utility.yul\":16466:16469   */\n      dup4\n        /* \"#utility.yul\":16407:16474   */\n      tag_194\n      jump\t// in\n    tag_376:\n        /* \"#utility.yul\":16400:16474   */\n      swap2\n      pop\n        /* \"#utility.yul\":16483:16576   */\n      tag_377\n        /* \"#utility.yul\":16572:16575   */\n      dup3\n        /* \"#utility.yul\":16483:16576   */\n      tag_204\n      jump\t// in\n    tag_377:\n        /* \"#utility.yul\":16601:16603   */\n      0x20\n        /* \"#utility.yul\":16596:16599   */\n      dup3\n        /* \"#utility.yul\":16592:16604   */\n      add\n        /* \"#utility.yul\":16585:16604   */\n      swap1\n      pop\n        /* \"#utility.yul\":16244:16610   */\n      swap2\n      swap1\n      pop\n      jump\t// out\n        /* \"#utility.yul\":16616:17035   */\n    tag_112:\n        /* \"#utility.yul\":16782:16786   */\n      0x00\n        /* \"#utility.yul\":16820:16822   */\n      0x20\n        /* \"#utility.yul\":16809:16818   */\n      dup3\n        /* \"#utility.yul\":16805:16823   */\n      add\n        /* \"#utility.yul\":16797:16823   */\n      swap1\n      pop\n        /* \"#utility.yul\":16869:16878   */\n      dup2\n        /* \"#utility.yul\":16863:16867   */\n      dup2\n        /* \"#utility.yul\":16859:16879   */\n      sub\n        /* \"#utility.yul\":16855:16856   */\n      0x00\n        /* \"#utility.yul\":16844:16853   */\n      dup4\n        /* \"#utility.yul\":16840:16857   */\n      add\n        /* \"#utility.yul\":16833:16880   */\n      mstore\n        /* \"#utility.yul\":16897:17028   */\n      tag_379\n        /* \"#utility.yul\":17023:17027   */\n      dup2\n        /* \"#utility.yul\":16897:17028   */\n      tag_205\n      jump\t// in\n    tag_379:\n        /* \"#utility.yul\":16889:17028   */\n      swap1\n      pop\n        /* \"#utility.yul\":16616:17035   */\n      swap2\n      swap1\n      pop\n      jump\t// out\n        /* \"#utility.yul\":17041:17594   */\n    tag_114:\n        /* \"#utility.yul\":17218:17222   */\n      0x00\n        /* \"#utility.yul\":17256:17259   */\n      0x80\n        /* \"#utility.yul\":17245:17254   */\n      dup3\n        /* \"#utility.yul\":17241:17260   */\n      add\n        /* \"#utility.yul\":17233:17260   */\n      swap1\n      pop\n        /* \"#utility.yul\":17270:17341   */\n      tag_381\n        /* \"#utility.yul\":17338:17339   */\n      0x00\n        /* \"#utility.yul\":17327:17336   */\n      dup4\n        /* \"#utility.yul\":17323:17340   */\n      add\n        /* \"#utility.yul\":17314:17320   */\n      dup8\n        /* \"#utility.yul\":17270:17341   */\n      tag_174\n      jump\t// in\n    tag_381:\n        /* \"#utility.yul\":17351:17423   */\n      tag_382\n        /* \"#utility.yul\":17419:17421   */\n      0x20\n        /* \"#utility.yul\":17408:17417   */\n      dup4\n        /* \"#utility.yul\":17404:17422   */\n      add\n        /* \"#utility.yul\":17395:17401   */\n      dup7\n        /* \"#utility.yul\":17351:17423   */\n      tag_185\n      jump\t// in\n    tag_382:\n        /* \"#utility.yul\":17433:17505   */\n      tag_383\n        /* \"#utility.yul\":17501:17503   */\n      0x40\n        /* \"#utility.yul\":17490:17499   */\n      dup4\n        /* \"#utility.yul\":17486:17504   */\n      add\n        /* \"#utility.yul\":17477:17483   */\n      dup6\n        /* \"#utility.yul\":17433:17505   */\n      tag_185\n      jump\t// in\n    tag_383:\n        /* \"#utility.yul\":17515:17587   */\n      tag_384\n        /* \"#utility.yul\":17583:17585   */\n      0x60\n        /* \"#utility.yul\":17572:17581   */\n      dup4\n        /* \"#utility.yul\":17568:17586   */\n      add\n        /* \"#utility.yul\":17559:17565   */\n      dup5\n        /* \"#utility.yul\":17515:17587   */\n      tag_185\n      jump\t// in\n    tag_384:\n        /* \"#utility.yul\":17041:17594   */\n      swap6\n      swap5\n      pop\n      pop\n      pop\n      pop\n      pop\n      jump\t// out\n        /* \"#utility.yul\":17600:17768   */\n    tag_206:\n        /* \"#utility.yul\":17740:17760   */\n      0x71756f72756d206d757374206265203e3d310000000000000000000000000000\n        /* \"#utility.yul\":17736:17737   */\n      0x00\n        /* \"#utility.yul\":17728:17734   */\n      dup3\n        /* \"#utility.yul\":17724:17738   */\n      add\n        /* \"#utility.yul\":17717:17761   */\n      mstore\n        /* \"#utility.yul\":17600:17768   */\n      pop\n      jump\t// out\n        /* \"#utility.yul\":17774:18140   */\n    tag_207:\n        /* \"#utility.yul\":17916:17919   */\n      0x00\n        /* \"#utility.yul\":17937:18004   */\n      tag_387\n        /* \"#utility.yul\":18001:18003   */\n      0x12\n        /* \"#utility.yul\":17996:17999   */\n      dup4\n        /* \"#utility.yul\":17937:18004   */\n      tag_194\n      jump\t// in\n    tag_387:\n        /* \"#utility.yul\":17930:18004   */\n      swap2\n      pop\n        /* \"#utility.yul\":18013:18106   */\n      tag_388\n        /* \"#utility.yul\":18102:18105   */\n      dup3\n        /* \"#utility.yul\":18013:18106   */\n      tag_206\n      jump\t// in\n    tag_388:\n        /* \"#utility.yul\":18131:18133   */\n      0x20\n        /* \"#utility.yul\":18126:18129   */\n      dup3\n        /* \"#utility.yul\":18122:18134   */\n      add\n        /* \"#utility.yul\":18115:18134   */\n      swap1\n      pop\n        /* \"#utility.yul\":17774:18140   */\n      swap2\n      swap1\n      pop\n      jump\t// out\n        /* \"#utility.yul\":18146:18565   */\n    tag_130:\n        /* \"#utility.yul\":18312:18316   */\n      0x00\n        /* \"#utility.yul\":18350:18352   */\n      0x20\n        /* \"#utility.yul\":18339:18348   */\n      dup3\n        /* \"#utility.yul\":18335:18353   */\n      add\n        /* \"#utility.yul\":18327:18353   */\n      swap1\n      pop\n        /* \"#utility.yul\":18399:18408   */\n      dup2\n        /* \"#utility.yul\":18393:18397   */\n      dup2\n        /* \"#utility.yul\":18389:18409   */\n      sub\n        /* \"#utility.yul\":18385:18386   */\n      0x00\n        /* \"#utility.yul\":18374:18383   */\n      dup4\n        /* \"#utility.yul\":18370:18387   */\n      add\n        /* \"#utility.yul\":18363:18410   */\n      mstore\n        /* \"#utility.yul\":18427:18558   */\n      tag_390\n        /* \"#utility.yul\":18553:18557   */\n      dup2\n        /* \"#utility.yul\":18427:18558   */\n      tag_207\n      jump\t// in\n    tag_390:\n        /* \"#utility.yul\":18419:18558   */\n      swap1\n      pop\n        /* \"#utility.yul\":18146:18565   */\n      swap2\n      swap1\n      pop\n      jump\t// out\n        /* \"#utility.yul\":18571:18737   */\n    tag_208:\n        /* \"#utility.yul\":18711:18729   */\n      0x756e6b6e6f776e2070726f706f73616c00000000000000000000000000000000\n        /* \"#utility.yul\":18707:18708   */\n      0x00\n        /* \"#utility.yul\":18699:18705   */\n      dup3\n        /* \"#utility.yul\":18695:18709   */\n      add\n        /* \"#utility.yul\":18688:18730   */\n      mstore\n        /* \"#utility.yul\":18571:18737   */\n      pop\n      jump\t// out\n        /* \"#utility.yul\":18743:19109   */\n    tag_209:\n        /* \"#utility.yul\":18885:18888   */\n      0x00\n        /* \"#utility.yul\":18906:18973   */\n      tag_393\n        /* \"#utility.yul\":18970:18972   */\n      0x10\n        /* \"#utility.yul\":18965:18968   */\n      dup4\n        /* \"#utility.yul\":18906:18973   */\n      tag_194\n      jump\t// in\n    tag_393:\n        /* \"#utility.yul\":18899:18973   */\n      swap2\n      pop\n        /* \"#utility.yul\":18982:19075   */\n      tag_394\n        /* \"#utility.yul\":19071:19074   */\n      dup3\n        /* \"#utility.yul\":18982:19075   */\n      tag_208\n      jump\t// in\n    tag_394:\n        /* \"#utility.yul\":19100:19102   */\n      0x20\n        /* \"#utility.yul\":19095:19098   */\n      dup3\n        /* \"#utility.yul\":19091:19103   */\n      add\n        /* \"#utility.yul\":19084:19103   */\n      swap1\n      pop\n        /* \"#utility.yul\":18743:19109   */\n      swap2\n      swap1\n      pop\n      jump\t// out\n        /* \"#utility.yul\":19115:19534   */\n    tag_138:\n        /* \"#utility.yul\":19281:19285   */\n      0x00\n        /* \"#utility.yul\":19319:19321   */\n      0x20\n        /* \"#utility.yul\":19308:19317   */\n      dup3\n        /* \"#utility.yul\":19304:19322   */\n      add\n        /* \"#utility.yul\":19296:19322   */\n      swap1\n      pop\n        /* \"#utility.yul\":19368:19377   */\n      dup2\n        /* \"#utility.yul\":19362:19366   */\n      dup2\n        /* \"#utility.yul\":19358:19378   */\n      sub\n        /* \"#utility.yul\":19354:19355   */\n      0x00\n        /* \"#utility.yul\":19343:19352   */\n      dup4\n        /* \"#utility.yul\":19339:19356   */\n      add\n        /* \"#utility.yul\":19332:19379   */\n      mstore\n        /* \"#utility.yul\":19396:19527   */\n      tag_396\n        /* \"#utility.yul\":19522:19526   */\n      dup2\n        /* \"#utility.yul\":19396:19527   */\n      tag_209\n      jump\t// in\n    tag_396:\n        /* \"#utility.yul\":19388:19527   */\n      swap1\n      pop\n        /* \"#utility.yul\":19115:19534   */\n      swap2\n      swap1\n      pop\n      jump\t// out\n        /* \"#utility.yul\":19540:19707   */\n    tag_210:\n        /* \"#utility.yul\":19680:19699   */\n      0x616c72656164792066696e616c697a6564000000000000000000000000000000\n        /* \"#utility.yul\":19676:19677   */\n      0x00\n        /* \"#utility.yul\":19668:19674   */\n      dup3\n        /* \"#utility.yul\":19664:19678   */\n      add\n        /* \"#utility.yul\":19657:19700   */\n      mstore\n        /* \"#utility.yul\":19540:19707   */\n      pop\n      jump\t// out\n        /* \"#utility.yul\":19713:20079   */\n    tag_211:\n        /* \"#utility.yul\":19855:19858   */\n      0x00\n        /* \"#utility.yul\":19876:19943   */\n      tag_399\n        /* \"#utility.yul\":19940:19942   */\n      0x11\n        /* \"#utility.yul\":19935:19938   */\n      dup4\n        /* \"#utility.yul\":19876:19943   */\n      tag_194\n      jump\t// in\n    tag_399:\n        /* \"#utility.yul\":19869:19943   */\n      swap2\n      pop\n        /* \"#utility.yul\":19952:20045   */\n      tag_400\n        /* \"#utility.yul\":20041:20044   */\n      dup3\n        /* \"#utility.yul\":19952:20045   */\n      tag_210\n      jump\t// in\n    tag_400:\n        /* \"#utility.yul\":20070:20072   */\n      0x20\n        /* \"#utility.yul\":20065:20068   */\n      dup3\n        /* \"#utility.yul\":20061:20073   */\n      add\n        /* \"#utility.yul\":20054:20073   */\n      swap1\n      pop\n        /* \"#utility.yul\":19713:20079   */\n      swap2\n      swap1\n      pop\n      jump\t// out\n        /* \"#utility.yul\":20085:20504   */\n    tag_141:\n        /* \"#utility.yul\":20251:20255   */\n      0x00\n        /* \"#utility.yul\":20289:20291   */\n      0x20\n        /* \"#utility.yul\":20278:20287   */\n      dup3\n        /* \"#utility.yul\":20274:20292   */\n      add\n        /* \"#utility.yul\":20266:20292   */\n      swap1\n      pop\n        /* \"#utility.yul\":20338:20347   */\n      dup2\n        /* \"#utility.yul\":20332:20336   */\n      dup2\n        /* \"#utility.yul\":20328:20348   */\n      sub\n        /* \"#utility.yul\":20324:20325   */\n      0x00\n        /* \"#utility.yul\":20313:20322   */\n      dup4\n        /* \"#utility.yul\":20309:20326   */\n      add\n        /* \"#utility.yul\":20302:20349   */\n      mstore\n        /* \"#utility.yul\":20366:20497   */\n      tag_402\n        /* \"#utility.yul\":20492:20496   */\n      dup2\n        /* \"#utility.yul\":20366:20497   */\n      tag_211\n      jump\t// in\n    tag_402:\n        /* \"#utility.yul\":20358:20497   */\n      swap1\n      pop\n        /* \"#utility.yul\":20085:20504   */\n      swap2\n      swap1\n      pop\n      jump\t// out\n        /* \"#utility.yul\":20510:20680   */\n    tag_212:\n        /* \"#utility.yul\":20650:20672   */\n      0x6e6f7420656e6f75676820617070726f76616c73000000000000000000000000\n        /* \"#utility.yul\":20646:20647   */\n      0x00\n        /* \"#utility.yul\":20638:20644   */\n      dup3\n        /* \"#utility.yul\":20634:20648   */\n      add\n        /* \"#utility.yul\":20627:20673   */\n      mstore\n        /* \"#utility.yul\":20510:20680   */\n      pop\n      jump\t// out\n        /* \"#utility.yul\":20686:21052   */\n    tag_213:\n        /* \"#utility.yul\":20828:20831   */\n      0x00\n        /* \"#utility.yul\":20849:20916   */\n      tag_405\n        /* \"#utility.yul\":20913:20915   */\n      0x14\n        /* \"#utility.yul\":20908:20911   */\n      dup4\n        /* \"#utility.yul\":20849:20916   */\n      tag_194\n      jump\t// in\n    tag_405:\n        /* \"#utility.yul\":20842:20916   */\n      swap2\n      pop\n        /* \"#utility.yul\":20925:21018   */\n      tag_406\n        /* \"#utility.yul\":21014:21017   */\n      dup3\n        /* \"#utility.yul\":20925:21018   */\n      tag_212\n      jump\t// in\n    tag_406:\n        /* \"#utility.yul\":21043:21045   */\n      0x20\n        /* \"#utility.yul\":21038:21041   */\n      dup3\n        /* \"#utility.yul\":21034:21046   */\n      add\n        /* \"#utility.yul\":21027:21046   */\n      swap1\n      pop\n        /* \"#utility.yul\":20686:21052   */\n      swap2\n      swap1\n      pop\n      jump\t// out\n        /* \"#utility.yul\":21058:21477   */\n    tag_144:\n        /* \"#utility.yul\":21224:21228   */\n      0x00\n        /* \"#utility.yul\":21262:21264   */\n      0x20\n        /* \"#utility.yul\":21251:21260   */\n      dup3\n        /* \"#utility.yul\":21247:21265   */\n      add\n        /* \"#utility.yul\":21239:21265   */\n      swap1\n      pop\n        /* \"#utility.yul\":21311:21320   */\n      dup2\n        /* \"#utility.yul\":21305:21309   */\n      dup2\n        /* \"#utility.yul\":21301:21321   */\n      sub\n        /* \"#utility.yul\":21297:21298   */\n      0x00\n        /* \"#utility.yul\":21286:21295   */\n      dup4\n        /* \"#utility.yul\":21282:21299   */\n      add\n        /* \"#utility.yul\":21275:21322   */\n      mstore\n        /* \"#utility.yul\":21339:21470   */\n      tag_408\n        /* \"#utility.yul\":21465:21469   */\n      dup2\n        /* \"#utility.yul\":21339:21470   */\n      tag_213\n      jump\t// in\n    tag_408:\n        /* \"#utility.yul\":21331:21470   */\n      swap1\n      pop\n        /* \"#utility.yul\":21058:21477   */\n      swap2\n      swap1\n      pop\n      jump\t// out\n        /* \"#utility.yul\":21483:21647   */\n    tag_214:\n        /* \"#utility.yul\":21623:21639   */\n      0x686569676874206368616e676564000000000000000000000000000000000000\n        /* \"#utility.yul\":21619:21620   */\n      0x00\n        /* \"#utility.yul\":21611:21617   */\n      dup3\n        /* \"#utility.yul\":21607:21621   */\n      add\n        /* \"#utility.yul\":21600:21640   */\n      mstore\n        /* \"#utility.yul\":21483:21647   */\n      pop\n      jump\t// out\n        /* \"#utility.yul\":21653:22019   */\n    tag_215:\n        /* \"#utility.yul\":21795:21798   */\n      0x00\n        /* \"#utility.yul\":21816:21883   */\n      tag_411\n        /* \"#utility.yul\":21880:21882   */\n      0x0e\n        /* \"#utility.yul\":21875:21878   */\n      dup4\n        /* \"#utility.yul\":21816:21883   */\n      tag_194\n      jump\t// in\n    tag_411:\n        /* \"#utility.yul\":21809:21883   */\n      swap2\n      pop\n        /* \"#utility.yul\":21892:21985   */\n      tag_412\n        /* \"#utility.yul\":21981:21984   */\n      dup3\n        /* \"#utility.yul\":21892:21985   */\n      tag_214\n      jump\t// in\n    tag_412:\n        /* \"#utility.yul\":22010:22012   */\n      0x20\n        /* \"#utility.yul\":22005:22008   */\n      dup3\n        /* \"#utility.yul\":22001:22013   */\n      add\n        /* \"#utility.yul\":21994:22013   */\n      swap1\n      pop\n        /* \"#utility.yul\":21653:22019   */\n      swap2\n      swap1\n      pop\n      jump\t// out\n        /* \"#utility.yul\":22025:22444   */\n    tag_148:\n        /* \"#utility.yul\":22191:22195   */\n      0x00\n        /* \"#utility.yul\":22229:22231   */\n      0x20\n        /* \"#utility.yul\":22218:22227   */\n      dup3\n        /* \"#utility.yul\":22214:22232   */\n      add\n        /* \"#utility.yul\":22206:22232   */\n      swap1\n      pop\n        /* \"#utility.yul\":22278:22287   */\n      dup2\n        /* \"#utility.yul\":22272:22276   */\n      dup2\n        /* \"#utility.yul\":22268:22288   */\n      sub\n        /* \"#utility.yul\":22264:22265   */\n      0x00\n        /* \"#utility.yul\":22253:22262   */\n      dup4\n        /* \"#utility.yul\":22249:22266   */\n      add\n        /* \"#utility.yul\":22242:22289   */\n      mstore\n        /* \"#utility.yul\":22306:22437   */\n      tag_414\n        /* \"#utility.yul\":22432:22436   */\n      dup2\n        /* \"#utility.yul\":22306:22437   */\n      tag_215\n      jump\t// in\n    tag_414:\n        /* \"#utility.yul\":22298:22437   */\n      swap1\n      pop\n        /* \"#utility.yul\":22025:22444   */\n      swap2\n      swap1\n      pop\n      jump\t// out\n        /* \"#utility.yul\":22450:22612   */\n    tag_216:\n        /* \"#utility.yul\":22590:22604   */\n      0x70726576206368616e6765640000000000000000000000000000000000000000\n        /* \"#utility.yul\":22586:22587   */\n      0x00\n        /* \"#utility.yul\":22578:22584   */\n      dup3\n        /* \"#utility.yul\":22574:22588   */\n      add\n        /* \"#utility.yul\":22567:22605   */\n      mstore\n        /* \"#utility.yul\":22450:22612   */\n      pop\n      jump\t// out\n        /* \"#utility.yul\":22618:22984   */\n    tag_217:\n        /* \"#utility.yul\":22760:22763   */\n      0x00\n        /* \"#utility.yul\":22781:22848   */\n      tag_417\n        /* \"#utility.yul\":22845:22847   */\n      0x0c\n        /* \"#utility.yul\":22840:22843   */\n      dup4\n        /* \"#utility.yul\":22781:22848   */\n      tag_194\n      jump\t// in\n    tag_417:\n        /* \"#utility.yul\":22774:22848   */\n      swap2\n      pop\n        /* \"#utility.yul\":22857:22950   */\n      tag_418\n        /* \"#utility.yul\":22946:22949   */\n      dup3\n        /* \"#utility.yul\":22857:22950   */\n      tag_216\n      jump\t// in\n    tag_418:\n        /* \"#utility.yul\":22975:22977   */\n      0x20\n        /* \"#utility.yul\":22970:22973   */\n      dup3\n        /* \"#utility.yul\":22966:22978   */\n      add\n        /* \"#utility.yul\":22959:22978   */\n      swap1\n      pop\n        /* \"#utility.yul\":22618:22984   */\n      swap2\n      swap1\n      pop\n      jump\t// out\n        /* \"#utility.yul\":22990:23409   */\n    tag_151:\n        /* \"#utility.yul\":23156:23160   */\n      0x00\n        /* \"#utility.yul\":23194:23196   */\n      0x20\n        /* \"#utility.yul\":23183:23192   */\n      dup3\n        /* \"#utility.yul\":23179:23197   */\n      add\n        /* \"#utility.yul\":23171:23197   */\n      swap1\n      pop\n        /* \"#utility.yul\":23243:23252   */\n      dup2\n        /* \"#utility.yul\":23237:23241   */\n      dup2\n        /* \"#utility.yul\":23233:23253   */\n      sub\n        /* \"#utility.yul\":23229:23230   */\n      0x00\n        /* \"#utility.yul\":23218:23227   */\n      dup4\n        /* \"#utility.yul\":23214:23231   */\n      add\n        /* \"#utility.yul\":23207:23254   */\n      mstore\n        /* \"#utility.yul\":23271:23402   */\n      tag_420\n        /* \"#utility.yul\":23397:23401   */\n      dup2\n        /* \"#utility.yul\":23271:23402   */\n      tag_217\n      jump\t// in\n    tag_420:\n        /* \"#utility.yul\":23263:23402   */\n      swap1\n      pop\n        /* \"#utility.yul\":22990:23409   */\n      swap2\n      swap1\n      pop\n      jump\t// out\n        /* \"#utility.yul\":23415:23857   */\n    tag_153:\n        /* \"#utility.yul\":23564:23568   */\n      0x00\n        /* \"#utility.yul\":23602:23604   */\n      0x60\n        /* \"#utility.yul\":23591:23600   */\n      dup3\n        /* \"#utility.yul\":23587:23605   */\n      add\n        /* \"#utility.yul\":23579:23605   */\n      swap1\n      pop\n        /* \"#utility.yul\":23615:23686   */\n      tag_422\n        /* \"#utility.yul\":23683:23684   */\n      0x00\n        /* \"#utility.yul\":23672:23681   */\n      dup4\n        /* \"#utility.yul\":23668:23685   */\n      add\n        /* \"#utility.yul\":23659:23665   */\n      dup7\n        /* \"#utility.yul\":23615:23686   */\n      tag_174\n      jump\t// in\n    tag_422:\n        /* \"#utility.yul\":23696:23768   */\n      tag_423\n        /* \"#utility.yul\":23764:23766   */\n      0x20\n        /* \"#utility.yul\":23753:23762   */\n      dup4\n        /* \"#utility.yul\":23749:23767   */\n      add\n        /* \"#utility.yul\":23740:23746   */\n      dup6\n        /* \"#utility.yul\":23696:23768   */\n      tag_185\n      jump\t// in\n    tag_423:\n        /* \"#utility.yul\":23778:23850   */\n      tag_424\n        /* \"#utility.yul\":23846:23848   */\n      0x40\n        /* \"#utility.yul\":23835:23844   */\n      dup4\n        /* \"#utility.yul\":23831:23849   */\n      add\n        /* \"#utility.yul\":23822:23828   */\n      dup5\n        /* \"#utility.yul\":23778:23850   */\n      tag_185\n      jump\t// in\n    tag_424:\n        /* \"#utility.yul\":23415:23857   */\n      swap5\n      swap4\n      pop\n      pop\n      pop\n      pop\n      jump\t// out\n        /* \"#utility.yul\":23863:24029   */\n    tag_218:\n        /* \"#utility.yul\":24003:24021   */\n      0x616c726561647920617070726f76656400000000000000000000000000000000\n        /* \"#utility.yul\":23999:24000   */\n      0x00\n        /* \"#utility.yul\":23991:23997   */\n      dup3\n        /* \"#utility.yul\":23987:24001   */\n      add\n        /* \"#utility.yul\":23980:24022   */\n      mstore\n        /* \"#utility.yul\":23863:24029   */\n      pop\n      jump\t// out\n        /* \"#utility.yul\":24035:24401   */\n    tag_219:\n        /* \"#utility.yul\":24177:24180   */\n      0x00\n        /* \"#utility.yul\":24198:24265   */\n      tag_427\n        /* \"#utility.yul\":24262:24264   */\n      0x10\n        /* \"#utility.yul\":24257:24260   */\n      dup4\n        /* \"#utility.yul\":24198:24265   */\n      tag_194\n      jump\t// in\n    tag_427:\n        /* \"#utility.yul\":24191:24265   */\n      swap2\n      pop\n        /* \"#utility.yul\":24274:24367   */\n      tag_428\n        /* \"#utility.yul\":24363:24366   */\n      dup3\n        /* \"#utility.yul\":24274:24367   */\n      tag_218\n      jump\t// in\n    tag_428:\n        /* \"#utility.yul\":24392:24394   */\n      0x20\n        /* \"#utility.yul\":24387:24390   */\n      dup3\n        /* \"#utility.yul\":24383:24395   */\n      add\n        /* \"#utility.yul\":24376:24395   */\n      swap1\n      pop\n        /* \"#utility.yul\":24035:24401   */\n      swap2\n      swap1\n      pop\n      jump\t// out\n        /* \"#utility.yul\":24407:24826   */\n    tag_161:\n        /* \"#utility.yul\":24573:24577   */\n      0x00\n        /* \"#utility.yul\":24611:24613   */\n      0x20\n        /* \"#utility.yul\":24600:24609   */\n      dup3\n        /* \"#utility.yul\":24596:24614   */\n      add\n        /* \"#utility.yul\":24588:24614   */\n      swap1\n      pop\n        /* \"#utility.yul\":24660:24669   */\n      dup2\n        /* \"#utility.yul\":24654:24658   */\n      dup2\n        /* \"#utility.yul\":24650:24670   */\n      sub\n        /* \"#utility.yul\":24646:24647   */\n      0x00\n        /* \"#utility.yul\":24635:24644   */\n      dup4\n        /* \"#utility.yul\":24631:24648   */\n      add\n        /* \"#utility.yul\":24624:24671   */\n      mstore\n        /* \"#utility.yul\":24688:24819   */\n      tag_430\n        /* \"#utility.yul\":24814:24818   */\n      dup2\n        /* \"#utility.yul\":24688:24819   */\n      tag_219\n      jump\t// in\n    tag_430:\n        /* \"#utility.yul\":24680:24819   */\n      swap1\n      pop\n        /* \"#utility.yul\":24407:24826   */\n      swap2\n      swap1\n      pop\n      jump\t// out\n\n    auxdata: 0xa26469706673582212202bfa56eff9d8f411a7f7567aca004d51c481be3705a21e0095c215ec393cf5d164736f6c634300081e0033\n}\n",
				"bytecode": {
					"linkReferences": {},
					"object": "608060405234801561000f575f5ffd5b50604051611da0380380611da08339818101604052810190610031919061018f565b335f5f6101000a81548173ffffffffffffffffffffffffffffffffffffffff021916908373ffffffffffffffffffffffffffffffffffffffff16021790555080600181905550600160055f3373ffffffffffffffffffffffffffffffffffffffff1673ffffffffffffffffffffffffffffffffffffffff1681526020019081526020015f205f6101000a81548160ff0219169083151502179055503373ffffffffffffffffffffffffffffffffffffffff167f7500d470ca795448d4f0b796ac1d4562fd0d46302770ff16ee8aa96db044c93f600160405161011391906101d4565b60405180910390a27ff18f88786aae85a652aadb99a82462616489a33370c9bcc7b245906812ef7cd18160405161014a91906101fc565b60405180910390a150610215565b5f5ffd5b5f819050919050565b61016e8161015c565b8114610178575f5ffd5b50565b5f8151905061018981610165565b92915050565b5f602082840312156101a4576101a3610158565b5b5f6101b18482850161017b565b91505092915050565b5f8115159050919050565b6101ce816101ba565b82525050565b5f6020820190506101e75f8301846101c5565b92915050565b6101f68161015c565b82525050565b5f60208201905061020f5f8301846101ed565b92915050565b611b7e806102225f395ff3fe608060405234801561000f575f5ffd5b50600436106100f3575f3560e01c8063674e96e411610095578063c9da00a611610064578063c9da00a6146102aa578063ed3e46ae146102c6578063f25b3f99146102e4578063f851a44014610318576100f3565b8063674e96e4146102125780639b99800214610242578063a0cafb9c1461025e578063c1ba4e591461028e576100f3565b80631fd4827a116100d15780631fd4827a1461016157806323cdc3f11461017f5780632b29ba23146101af57806332ed5b12146101df576100f3565b806304c07569146100f75780631703a018146101275780631f91b39f14610145575b5f5ffd5b610111600480360381019061010c9190611038565b610336565b60405161011e91906110f0565b60405180910390f35b61012f610392565b60405161013c9190611118565b60405180910390f35b61015f600480360381019061015a91906111c0565b610398565b005b6101696104cc565b6040516101769190611118565b60405180910390f35b61019960048036038101906101949190611228565b6104d2565b6040516101a69190611275565b60405180910390f35b6101c960048036038101906101c4919061128e565b6104fc565b6040516101d69190611275565b60405180910390f35b6101f960048036038101906101f491906112b9565b610519565b60405161020994939291906112e4565b60405180910390f35b61022c60048036038101906102279190611328565b610599565b60405161023991906113ae565b60405180910390f35b61025c600480360381019061025791906112b9565b610860565b005b610278600480360381019061027391906114dc565b6108f6565b60405161028591906113ae565b60405180910390f35b6102a860048036038101906102a39190611038565b610940565b005b6102c460048036038101906102bf91906112b9565b610a53565b005b6102ce610d4c565b6040516102db91906113ae565b60405180910390f35b6102fe60048036038101906102f99190611038565b610d52565b60405161030f959493929190611507565b60405180910390f35b610320610d84565b60405161032d9190611567565b60405180910390f35b61033e610fce565b60025f8381526020019081526020015f206040518060a00160405290815f82015481526020016001820154815260200160028201548152602001600382015481526020016004820154815250509050919050565b60015481565b5f5f9054906101000a900473ffffffffffffffffffffffffffffffffffffffff1673ffffffffffffffffffffffffffffffffffffffff163373ffffffffffffffffffffffffffffffffffffffff1614610426576040517f08c379a000000000000000000000000000000000000000000000000000000000815260040161041d906115da565b60405180910390fd5b8060055f8473ffffffffffffffffffffffffffffffffffffffff1673ffffffffffffffffffffffffffffffffffffffff1681526020019081526020015f205f6101000a81548160ff0219169083151502179055508173ffffffffffffffffffffffffffffffffffffffff167f7500d470ca795448d4f0b796ac1d4562fd0d46302770ff16ee8aa96db044c93f826040516104c09190611275565b60405180910390a25050565b60035481565b6007602052815f5260405f20602052805f5260405f205f915091509054906101000a900460ff1681565b6005602052805f5260405f205f915054906101000a900460ff1681565b6006602052805f5260405f205f91509050805f016040518060a00160405290815f820154815260200160018201548152602001600282015481526020016003820154815260200160048201548152505090806005015490806006015f9054906101000a900460ff16908060060160019054906101000a900460ff16905084565b5f60055f3373ffffffffffffffffffffffffffffffffffffffff1673ffffffffffffffffffffffffffffffffffffffff1681526020019081526020015f205f9054906101000a900460ff16610623576040517f08c379a000000000000000000000000000000000000000000000000000000000815260040161061a90611642565b60405180910390fd5b6001600354610632919061168d565b8614610673576040517f08c379a000000000000000000000000000000000000000000000000000000000815260040161066a9061170a565b60405180910390fd5b60045485146106b7576040517f08c379a00000000000000000000000000000000000000000000000000000000081526004016106ae90611772565b60405180910390fd5b5f6040518060a001604052808881526020018781526020018681526020018581526020018481525090506106ea816108f6565b91505f60065f8481526020019081526020015f209050806006015f9054906101000a900460ff1615610751576040517f08c379a0000000000000000000000000000000000000000000000000000000008152600401610748906117da565b60405180910390fd5b60405180608001604052808381526020015f81526020016001151581526020015f151581525060065f8581526020019081526020015f205f820151815f015f820151815f0155602082015181600101556040820151816002015560608201518160030155608082015181600401555050602082015181600501556040820151816006015f6101000a81548160ff02191690831515021790555060608201518160060160016101000a81548160ff021916908315150217905550905050827f19393050bb77565830b6ba1ebb68c23298bce5c84948a6a106aeb7b9b6c191498989898960405161084394939291906117f8565b60405180910390a26108558333610da8565b505095945050505050565b60055f3373ffffffffffffffffffffffffffffffffffffffff1673ffffffffffffffffffffffffffffffffffffffff1681526020019081526020015f205f9054906101000a900460ff166108e9576040517f08c379a00000000000000000000000000000000000000000000000000000000081526004016108e090611642565b60405180910390fd5b6108f38133610da8565b50565b5f815f01518260200151836040015184606001518560800151604051602001610923959493929190611507565b604051602081830303815290604052805190602001209050919050565b5f5f9054906101000a900473ffffffffffffffffffffffffffffffffffffffff1673ffffffffffffffffffffffffffffffffffffffff163373ffffffffffffffffffffffffffffffffffffffff16146109ce576040517f08c379a00000000000000000000000000000000000000000000000000000000081526004016109c5906115da565b60405180910390fd5b6001811015610a12576040517f08c379a0000000000000000000000000000000000000000000000000000000008152600401610a0990611885565b60405180910390fd5b806001819055507ff18f88786aae85a652aadb99a82462616489a33370c9bcc7b245906812ef7cd181604051610a489190611118565b60405180910390a150565b60055f3373ffffffffffffffffffffffffffffffffffffffff1673ffffffffffffffffffffffffffffffffffffffff1681526020019081526020015f205f9054906101000a900460ff16610adc576040517f08c379a0000000000000000000000000000000000000000000000000000000008152600401610ad390611642565b60405180910390fd5b5f60065f8381526020019081526020015f209050806006015f9054906101000a900460ff16610b40576040517f08c379a0000000000000000000000000000000000000000000000000000000008152600401610b37906118ed565b60405180910390fd5b8060060160019054906101000a900460ff1615610b92576040517f08c379a0000000000000000000000000000000000000000000000000000000008152600401610b8990611955565b60405180910390fd5b60015481600501541015610bdb576040517f08c379a0000000000000000000000000000000000000000000000000000000008152600401610bd2906119bd565b60405180910390fd5b6001600354610bea919061168d565b815f015f015414610c30576040517f08c379a0000000000000000000000000000000000000000000000000000000008152600401610c2790611a25565b60405180910390fd5b600454815f016001015414610c7a576040517f08c379a0000000000000000000000000000000000000000000000000000000008152600401610c7190611a8d565b60405180910390fd5b805f0160025f835f015f015481526020019081526020015f205f820154815f015560018201548160010155600282015481600201556003820154816003015560048201548160040155905050805f015f0154600381905550805f016003015460048190555060018160060160016101000a81548160ff0219169083151502179055507f72e70d00b52f2137c272201ff3b9065627b309dee61a7afc651bcfc4e5b1f0b3815f015f0154825f0160030154835f0160020154604051610d4093929190611aab565b60405180910390a15050565b60045481565b6002602052805f5260405f205f91509050805f0154908060010154908060020154908060030154908060040154905085565b5f5f9054906101000a900473ffffffffffffffffffffffffffffffffffffffff1681565b5f60065f8481526020019081526020015f209050806006015f9054906101000a900460ff16610e0c576040517f08c379a0000000000000000000000000000000000000000000000000000000008152600401610e03906118ed565b60405180910390fd5b8060060160019054906101000a900460ff1615610e5e576040517f08c379a0000000000000000000000000000000000000000000000000000000008152600401610e5590611955565b60405180910390fd5b60075f8481526020019081526020015f205f8373ffffffffffffffffffffffffffffffffffffffff1673ffffffffffffffffffffffffffffffffffffffff1681526020019081526020015f205f9054906101000a900460ff1615610ef7576040517f08c379a0000000000000000000000000000000000000000000000000000000008152600401610eee90611b2a565b60405180910390fd5b600160075f8581526020019081526020015f205f8473ffffffffffffffffffffffffffffffffffffffff1673ffffffffffffffffffffffffffffffffffffffff1681526020019081526020015f205f6101000a81548160ff0219169083151502179055506001816005015f828254610f6f919061168d565b925050819055508173ffffffffffffffffffffffffffffffffffffffff16837fd948b9db73a0766459b5fe42ae9d463028e942027d4d6a38e76a798bc8a3f09e8360050154604051610fc19190611118565b60405180910390a3505050565b6040518060a001604052805f81526020015f81526020015f81526020015f81526020015f81525090565b5f604051905090565b5f5ffd5b5f819050919050565b61101781611005565b8114611021575f5ffd5b50565b5f813590506110328161100e565b92915050565b5f6020828403121561104d5761104c611001565b5b5f61105a84828501611024565b91505092915050565b61106c81611005565b82525050565b5f819050919050565b61108481611072565b82525050565b60a082015f82015161109e5f850182611063565b5060208201516110b1602085018261107b565b5060408201516110c4604085018261107b565b5060608201516110d7606085018261107b565b5060808201516110ea6080850182611063565b50505050565b5f60a0820190506111035f83018461108a565b92915050565b61111281611005565b82525050565b5f60208201905061112b5f830184611109565b92915050565b5f73ffffffffffffffffffffffffffffffffffffffff82169050919050565b5f61115a82611131565b9050919050565b61116a81611150565b8114611174575f5ffd5b50565b5f8135905061118581611161565b92915050565b5f8115159050919050565b61119f8161118b565b81146111a9575f5ffd5b50565b5f813590506111ba81611196565b92915050565b5f5f604083850312156111d6576111d5611001565b5b5f6111e385828601611177565b92505060206111f4858286016111ac565b9150509250929050565b61120781611072565b8114611211575f5ffd5b50565b5f81359050611222816111fe565b92915050565b5f5f6040838503121561123e5761123d611001565b5b5f61124b85828601611214565b925050602061125c85828601611177565b9150509250929050565b61126f8161118b565b82525050565b5f6020820190506112885f830184611266565b92915050565b5f602082840312156112a3576112a2611001565b5b5f6112b084828501611177565b91505092915050565b5f602082840312156112ce576112cd611001565b5b5f6112db84828501611214565b91505092915050565b5f610100820190506112f85f83018761108a565b61130560a0830186611109565b61131260c0830185611266565b61131f60e0830184611266565b95945050505050565b5f5f5f5f5f60a0868803121561134157611340611001565b5b5f61134e88828901611024565b955050602061135f88828901611214565b945050604061137088828901611214565b935050606061138188828901611214565b925050608061139288828901611024565b9150509295509295909350565b6113a881611072565b82525050565b5f6020820190506113c15f83018461139f565b92915050565b5f5ffd5b5f601f19601f8301169050919050565b7f4e487b71000000000000000000000000000000000000000000000000000000005f52604160045260245ffd5b611411826113cb565b810181811067ffffffffffffffff821117156114305761142f6113db565b5b80604052505050565b5f611442610ff8565b905061144e8282611408565b919050565b5f60a08284031215611468576114676113c7565b5b61147260a0611439565b90505f61148184828501611024565b5f83015250602061149484828501611214565b60208301525060406114a884828501611214565b60408301525060606114bc84828501611214565b60608301525060806114d084828501611024565b60808301525092915050565b5f60a082840312156114f1576114f0611001565b5b5f6114fe84828501611453565b91505092915050565b5f60a08201905061151a5f830188611109565b611527602083018761139f565b611534604083018661139f565b611541606083018561139f565b61154e6080830184611109565b9695505050505050565b61156181611150565b82525050565b5f60208201905061157a5f830184611558565b92915050565b5f82825260208201905092915050565b7f6e6f742061646d696e00000000000000000000000000000000000000000000005f82015250565b5f6115c4600983611580565b91506115cf82611590565b602082019050919050565b5f6020820190508181035f8301526115f1816115b8565b9050919050565b7f6e6f7420777269746572000000000000000000000000000000000000000000005f82015250565b5f61162c600a83611580565b9150611637826115f8565b602082019050919050565b5f6020820190508181035f83015261165981611620565b9050919050565b7f4e487b71000000000000000000000000000000000000000000000000000000005f52601160045260245ffd5b5f61169782611005565b91506116a283611005565b92508282019050808211156116ba576116b9611660565b5b92915050565b7f62616420686569676874000000000000000000000000000000000000000000005f82015250565b5f6116f4600a83611580565b91506116ff826116c0565b602082019050919050565b5f6020820190508181035f830152611721816116e8565b9050919050565b7f70726576206d69736d61746368000000000000000000000000000000000000005f82015250565b5f61175c600d83611580565b915061176782611728565b602082019050919050565b5f6020820190508181035f83015261178981611750565b9050919050565b7f70726f706f73616c2065786973747300000000000000000000000000000000005f82015250565b5f6117c4600f83611580565b91506117cf82611790565b602082019050919050565b5f6020820190508181035f8301526117f1816117b8565b9050919050565b5f60808201905061180b5f830187611109565b611818602083018661139f565b611825604083018561139f565b611832606083018461139f565b95945050505050565b7f71756f72756d206d757374206265203e3d3100000000000000000000000000005f82015250565b5f61186f601283611580565b915061187a8261183b565b602082019050919050565b5f6020820190508181035f83015261189c81611863565b9050919050565b7f756e6b6e6f776e2070726f706f73616c000000000000000000000000000000005f82015250565b5f6118d7601083611580565b91506118e2826118a3565b602082019050919050565b5f6020820190508181035f830152611904816118cb565b9050919050565b7f616c72656164792066696e616c697a65640000000000000000000000000000005f82015250565b5f61193f601183611580565b915061194a8261190b565b602082019050919050565b5f6020820190508181035f83015261196c81611933565b9050919050565b7f6e6f7420656e6f75676820617070726f76616c730000000000000000000000005f82015250565b5f6119a7601483611580565b91506119b282611973565b602082019050919050565b5f6020820190508181035f8301526119d48161199b565b9050919050565b7f686569676874206368616e6765640000000000000000000000000000000000005f82015250565b5f611a0f600e83611580565b9150611a1a826119db565b602082019050919050565b5f6020820190508181035f830152611a3c81611a03565b9050919050565b7f70726576206368616e67656400000000000000000000000000000000000000005f82015250565b5f611a77600c83611580565b9150611a8282611a43565b602082019050919050565b5f6020820190508181035f830152611aa481611a6b565b9050919050565b5f606082019050611abe5f830186611109565b611acb602083018561139f565b611ad8604083018461139f565b949350505050565b7f616c726561647920617070726f766564000000000000000000000000000000005f82015250565b5f611b14601083611580565b9150611b1f82611ae0565b602082019050919050565b5f6020820190508181035f830152611b4181611b08565b905091905056fea26469706673582212202bfa56eff9d8f411a7f7567aca004d51c481be3705a21e0095c215ec393cf5d164736f6c634300081e0033",
					"opcodes": "PUSH1 0x80 PUSH1 0x40 MSTORE CALLVALUE DUP1 ISZERO PUSH2 0xF JUMPI PUSH0 PUSH0 REVERT JUMPDEST POP PUSH1 0x40 MLOAD PUSH2 0x1DA0 CODESIZE SUB DUP1 PUSH2 0x1DA0 DUP4 CODECOPY DUP2 DUP2 ADD PUSH1 0x40 MSTORE DUP2 ADD SWAP1 PUSH2 0x31 SWAP2 SWAP1 PUSH2 0x18F JUMP JUMPDEST CALLER PUSH0 PUSH0 PUSH2 0x100 EXP DUP2 SLOAD DUP2 PUSH20 0xFFFFFFFFFFFFFFFFFFFFFFFFFFFFFFFFFFFFFFFF MUL NOT AND SWAP1 DUP4 PUSH20 0xFFFFFFFFFFFFFFFFFFFFFFFFFFFFFFFFFFFFFFFF AND MUL OR SWAP1 SSTORE POP DUP1 PUSH1 0x1 DUP2 SWAP1 SSTORE POP PUSH1 0x1 PUSH1 0x5 PUSH0 CALLER PUSH20 0xFFFFFFFFFFFFFFFFFFFFFFFFFFFFFFFFFFFFFFFF AND PUSH20 0xFFFFFFFFFFFFFFFFFFFFFFFFFFFFFFFFFFFFFFFF AND DUP2 MSTORE PUSH1 0x20 ADD SWAP1 DUP2 MSTORE PUSH1 0x20 ADD PUSH0 KECCAK256 PUSH0 PUSH2 0x100 EXP DUP2 SLOAD DUP2 PUSH1 0xFF MUL NOT AND SWAP1 DUP4 ISZERO ISZERO MUL OR SWAP1 SSTORE POP CALLER PUSH20 0xFFFFFFFFFFFFFFFFFFFFFFFFFFFFFFFFFFFFFFFF AND PUSH32 0x7500D470CA795448D4F0B796AC1D4562FD0D46302770FF16EE8AA96DB044C93F PUSH1 0x1 PUSH1 0x40 MLOAD PUSH2 0x113 SWAP2 SWAP1 PUSH2 0x1D4 JUMP JUMPDEST PUSH1 0x40 MLOAD DUP1 SWAP2 SUB SWAP1 LOG2 PUSH32 0xF18F88786AAE85A652AADB99A82462616489A33370C9BCC7B245906812EF7CD1 DUP2 PUSH1 0x40 MLOAD PUSH2 0x14A SWAP2 SWAP1 PUSH2 0x1FC JUMP JUMPDEST PUSH1 0x40 MLOAD DUP1 SWAP2 SUB SWAP1 LOG1 POP PUSH2 0x215 JUMP JUMPDEST PUSH0 PUSH0 REVERT JUMPDEST PUSH0 DUP2 SWAP1 POP SWAP2 SWAP1 POP JUMP JUMPDEST PUSH2 0x16E DUP2 PUSH2 0x15C JUMP JUMPDEST DUP2 EQ PUSH2 0x178 JUMPI PUSH0 PUSH0 REVERT JUMPDEST POP JUMP JUMPDEST PUSH0 DUP2 MLOAD SWAP1 POP PUSH2 0x189 DUP2 PUSH2 0x165 JUMP JUMPDEST SWAP3 SWAP2 POP POP JUMP JUMPDEST PUSH0 PUSH1 0x20 DUP3 DUP5 SUB SLT ISZERO PUSH2 0x1A4 JUMPI PUSH2 0x1A3 PUSH2 0x158 JUMP JUMPDEST JUMPDEST PUSH0 PUSH2 0x1B1 DUP5 DUP3 DUP6 ADD PUSH2 0x17B JUMP JUMPDEST SWAP2 POP POP SWAP3 SWAP2 POP POP JUMP JUMPDEST PUSH0 DUP2 ISZERO ISZERO SWAP1 POP SWAP2 SWAP1 POP JUMP JUMPDEST PUSH2 0x1CE DUP2 PUSH2 0x1BA JUMP JUMPDEST DUP3 MSTORE POP POP JUMP JUMPDEST PUSH0 PUSH1 0x20 DUP3 ADD SWAP1 POP PUSH2 0x1E7 PUSH0 DUP4 ADD DUP5 PUSH2 0x1C5 JUMP JUMPDEST SWAP3 SWAP2 POP POP JUMP JUMPDEST PUSH2 0x1F6 DUP2 PUSH2 0x15C JUMP JUMPDEST DUP3 MSTORE POP POP JUMP JUMPDEST PUSH0 PUSH1 0x20 DUP3 ADD SWAP1 POP PUSH2 0x20F PUSH0 DUP4 ADD DUP5 PUSH2 0x1ED JUMP JUMPDEST SWAP3 SWAP2 POP POP JUMP JUMPDEST PUSH2 0x1B7E DUP1 PUSH2 0x222 PUSH0 CODECOPY PUSH0 RETURN INVALID PUSH1 0x80 PUSH1 0x40 MSTORE CALLVALUE DUP1 ISZERO PUSH2 0xF JUMPI PUSH0 PUSH0 REVERT JUMPDEST POP PUSH1 0x4 CALLDATASIZE LT PUSH2 0xF3 JUMPI PUSH0 CALLDATALOAD PUSH1 0xE0 SHR DUP1 PUSH4 0x674E96E4 GT PUSH2 0x95 JUMPI DUP1 PUSH4 0xC9DA00A6 GT PUSH2 0x64 JUMPI DUP1 PUSH4 0xC9DA00A6 EQ PUSH2 0x2AA JUMPI DUP1 PUSH4 0xED3E46AE EQ PUSH2 0x2C6 JUMPI DUP1 PUSH4 0xF25B3F99 EQ PUSH2 0x2E4 JUMPI DUP1 PUSH4 0xF851A440 EQ PUSH2 0x318 JUMPI PUSH2 0xF3 JUMP JUMPDEST DUP1 PUSH4 0x674E96E4 EQ PUSH2 0x212 JUMPI DUP1 PUSH4 0x9B998002 EQ PUSH2 0x242 JUMPI DUP1 PUSH4 0xA0CAFB9C EQ PUSH2 0x25E JUMPI DUP1 PUSH4 0xC1BA4E59 EQ PUSH2 0x28E JUMPI PUSH2 0xF3 JUMP JUMPDEST DUP1 PUSH4 0x1FD4827A GT PUSH2 0xD1 JUMPI DUP1 PUSH4 0x1FD4827A EQ PUSH2 0x161 JUMPI DUP1 PUSH4 0x23CDC3F1 EQ PUSH2 0x17F JUMPI DUP1 PUSH4 0x2B29BA23 EQ PUSH2 0x1AF JUMPI DUP1 PUSH4 0x32ED5B12 EQ PUSH2 0x1DF JUMPI PUSH2 0xF3 JUMP JUMPDEST DUP1 PUSH4 0x4C07569 EQ PUSH2 0xF7 JUMPI DUP1 PUSH4 0x1703A018 EQ PUSH2 0x127 JUMPI DUP1 PUSH4 0x1F91B39F EQ PUSH2 0x145 JUMPI JUMPDEST PUSH0 PUSH0 REVERT JUMPDEST PUSH2 0x111 PUSH1 0x4 DUP1 CALLDATASIZE SUB DUP2 ADD SWAP1 PUSH2 0x10C SWAP2 SWAP1 PUSH2 0x1038 JUMP JUMPDEST PUSH2 0x336 JUMP JUMPDEST PUSH1 0x40 MLOAD PUSH2 0x11E SWAP2 SWAP1 PUSH2 0x10F0 JUMP JUMPDEST PUSH1 0x40 MLOAD DUP1 SWAP2 SUB SWAP1 RETURN JUMPDEST PUSH2 0x12F PUSH2 0x392 JUMP JUMPDEST PUSH1 0x40 MLOAD PUSH2 0x13C SWAP2 SWAP1 PUSH2 0x1118 JUMP JUMPDEST PUSH1 0x40 MLOAD DUP1 SWAP2 SUB SWAP1 RETURN JUMPDEST PUSH2 0x15F PUSH1 0x4 DUP1 CALLDATASIZE SUB DUP2 ADD SWAP1 PUSH2 0x15A SWAP2 SWAP1 PUSH2 0x11C0 JUMP JUMPDEST PUSH2 0x398 JUMP JUMPDEST STOP JUMPDEST PUSH2 0x169 PUSH2 0x4CC JUMP JUMPDEST PUSH1 0x40 MLOAD PUSH2 0x176 SWAP2 SWAP1 PUSH2 0x1118 JUMP JUMPDEST PUSH1 0x40 MLOAD DUP1 SWAP2 SUB SWAP1 RETURN JUMPDEST PUSH2 0x199 PUSH1 0x4 DUP1 CALLDATASIZE SUB DUP2 ADD SWAP1 PUSH2 0x194 SWAP2 SWAP1 PUSH2 0x1228 JUMP JUMPDEST PUSH2 0x4D2 JUMP JUMPDEST PUSH1 0x40 MLOAD PUSH2 0x1A6 SWAP2 SWAP1 PUSH2 0x1275 JUMP JUMPDEST PUSH1 0x40 MLOAD DUP1 SWAP2 SUB SWAP1 RETURN JUMPDEST PUSH2 0x1C9 PUSH1 0x4 DUP1 CALLDATASIZE SUB DUP2 ADD SWAP1 PUSH2 0x1C4 SWAP2 SWAP1 PUSH2 0x128E JUMP JUMPDEST PUSH2 0x4FC JUMP JUMPDEST PUSH1 0x40 MLOAD PUSH2 0x1D6 SWAP2 SWAP1 PUSH2 0x1275 JUMP JUMPDEST PUSH1 0x40 MLOAD DUP1 SWAP2 SUB SWAP1 RETURN JUMPDEST PUSH2 0x1F9 PUSH1 0x4 DUP1 CALLDATASIZE SUB DUP2 ADD SWAP1 PUSH2 0x1F4 SWAP2 SWAP1 PUSH2 0x12B9 JUMP JUMPDEST PUSH2 0x519 JUMP JUMPDEST PUSH1 0x40 MLOAD PUSH2 0x209 SWAP5 SWAP4 SWAP3 SWAP2 SWAP1 PUSH2 0x12E4 JUMP JUMPDEST PUSH1 0x40 MLOAD DUP1 SWAP2 SUB SWAP1 RETURN JUMPDEST PUSH2 0x22C PUSH1 0x4 DUP1 CALLDATASIZE SUB DUP2 ADD SWAP1 PUSH2 0x227 SWAP2 SWAP1 PUSH2 0x1328 JUMP JUMPDEST PUSH2 0x599 JUMP JUMPDEST PUSH1 0x40 MLOAD PUSH2 0x239 SWAP2 SWAP1 PUSH2 0x13AE JUMP JUMPDEST PUSH1 0x40 MLOAD DUP1 SWAP2 SUB SWAP1 RETURN JUMPDEST PUSH2 0x25C PUSH1 0x4 DUP1 CALLDATASIZE SUB DUP2 ADD SWAP1 PUSH2 0x257 SWAP2 SWAP1 PUSH2 0x12B9 JUMP JUMPDEST PUSH2 0x860 JUMP JUMPDEST STOP JUMPDEST PUSH2 0x278 PUSH1 0x4 DUP1 CALLDATASIZE SUB DUP2 ADD SWAP1 PUSH2 0x273 SWAP2 SWAP1 PUSH2 0x14DC JUMP JUMPDEST PUSH2 0x8F6 JUMP JUMPDEST PUSH1 0x40 MLOAD PUSH2 0x285 SWAP2 SWAP1 PUSH2 0x13AE JUMP JUMPDEST PUSH1 0x40 MLOAD DUP1 SWAP2 SUB SWAP1 RETURN JUMPDEST PUSH2 0x2A8 PUSH1 0x4 DUP1 CALLDATASIZE SUB DUP2 ADD SWAP1 PUSH2 0x2A3 SWAP2 SWAP1 PUSH2 0x1038 JUMP JUMPDEST PUSH2 0x940 JUMP JUMPDEST STOP JUMPDEST PUSH2 0x2C4 PUSH1 0x4 DUP1 CALLDATASIZE SUB DUP2 ADD SWAP1 PUSH2 0x2BF SWAP2 SWAP1 PUSH2 0x12B9 JUMP JUMPDEST PUSH2 0xA53 JUMP JUMPDEST STOP JUMPDEST PUSH2 0x2CE PUSH2 0xD4C JUMP JUMPDEST PUSH1 0x40 MLOAD PUSH2 0x2DB SWAP2 SWAP1 PUSH2 0x13AE JUMP JUMPDEST PUSH1 0x40 MLOAD DUP1 SWAP2 SUB SWAP1 RETURN JUMPDEST PUSH2 0x2FE PUSH1 0x4 DUP1 CALLDATASIZE SUB DUP2 ADD SWAP1 PUSH2 0x2F9 SWAP2 SWAP1 PUSH2 0x1038 JUMP JUMPDEST PUSH2 0xD52 JUMP JUMPDEST PUSH1 0x40 MLOAD PUSH2 0x30F SWAP6 SWAP5 SWAP4 SWAP3 SWAP2 SWAP1 PUSH2 0x1507 JUMP JUMPDEST PUSH1 0x40 MLOAD DUP1 SWAP2 SUB SWAP1 RETURN JUMPDEST PUSH2 0x320 PUSH2 0xD84 JUMP JUMPDEST PUSH1 0x40 MLOAD PUSH2 0x32D SWAP2 SWAP1 PUSH2 0x1567 JUMP JUMPDEST PUSH1 0x40 MLOAD DUP1 SWAP2 SUB SWAP1 RETURN JUMPDEST PUSH2 0x33E PUSH2 0xFCE JUMP JUMPDEST PUSH1 0x2 PUSH0 DUP4 DUP2 MSTORE PUSH1 0x20 ADD SWAP1 DUP2 MSTORE PUSH1 0x20 ADD PUSH0 KECCAK256 PUSH1 0x40 MLOAD DUP1 PUSH1 0xA0 ADD PUSH1 0x40 MSTORE SWAP1 DUP2 PUSH0 DUP3 ADD SLOAD DUP2 MSTORE PUSH1 0x20 ADD PUSH1 0x1 DUP3 ADD SLOAD DUP2 MSTORE PUSH1 0x20 ADD PUSH1 0x2 DUP3 ADD SLOAD DUP2 MSTORE PUSH1 0x20 ADD PUSH1 0x3 DUP3 ADD SLOAD DUP2 MSTORE PUSH1 0x20 ADD PUSH1 0x4 DUP3 ADD SLOAD DUP2 MSTORE POP POP SWAP1 POP SWAP2 SWAP1 POP JUMP JUMPDEST PUSH1 0x1 SLOAD DUP2 JUMP JUMPDEST PUSH0 PUSH0 SWAP1 SLOAD SWAP1 PUSH2 0x100 EXP SWAP1 DIV PUSH20 0xFFFFFFFFFFFFFFFFFFFFFFFFFFFFFFFFFFFFFFFF AND PUSH20 0xFFFFFFFFFFFFFFFFFFFFFFFFFFFFFFFFFFFFFFFF AND CALLER PUSH20 0xFFFFFFFFFFFFFFFFFFFFFFFFFFFFFFFFFFFFFFFF AND EQ PUSH2 0x426 JUMPI PUSH1 0x40 MLOAD PUSH32 0x8C379A000000000000000000000000000000000000000000000000000000000 DUP2 MSTORE PUSH1 0x4 ADD PUSH2 0x41D SWAP1 PUSH2 0x15DA JUMP JUMPDEST PUSH1 0x40 MLOAD DUP1 SWAP2 SUB SWAP1 REVERT JUMPDEST DUP1 PUSH1 0x5 PUSH0 DUP5 PUSH20 0xFFFFFFFFFFFFFFFFFFFFFFFFFFFFFFFFFFFFFFFF AND PUSH20 0xFFFFFFFFFFFFFFFFFFFFFFFFFFFFFFFFFFFFFFFF AND DUP2 MSTORE PUSH1 0x20 ADD SWAP1 DUP2 MSTORE PUSH1 0x20 ADD PUSH0 KECCAK256 PUSH0 PUSH2 0x100 EXP DUP2 SLOAD DUP2 PUSH1 0xFF MUL NOT AND SWAP1 DUP4 ISZERO ISZERO MUL OR SWAP1 SSTORE POP DUP2 PUSH20 0xFFFFFFFFFFFFFFFFFFFFFFFFFFFFFFFFFFFFFFFF AND PUSH32 0x7500D470CA795448D4F0B796AC1D4562FD0D46302770FF16EE8AA96DB044C93F DUP3 PUSH1 0x40 MLOAD PUSH2 0x4C0 SWAP2 SWAP1 PUSH2 0x1275 JUMP JUMPDEST PUSH1 0x40 MLOAD DUP1 SWAP2 SUB SWAP1 LOG2 POP POP JUMP JUMPDEST PUSH1 0x3 SLOAD DUP2 JUMP JUMPDEST PUSH1 0x7 PUSH1 0x20 MSTORE DUP2 PUSH0 MSTORE PUSH1 0x40 PUSH0 KECCAK256 PUSH1 0x20 MSTORE DUP1 PUSH0 MSTORE PUSH1 0x40 PUSH0 KECCAK256 PUSH0 SWAP2 POP SWAP2 POP SWAP1 SLOAD SWAP1 PUSH2 0x100 EXP SWAP1 DIV PUSH1 0xFF AND DUP2 JUMP JUMPDEST PUSH1 0x5 PUSH1 0x20 MSTORE DUP1 PUSH0 MSTORE PUSH1 0x40 PUSH0 KECCAK256 PUSH0 SWAP2 POP SLOAD SWAP1 PUSH2 0x100 EXP SWAP1 DIV PUSH1 0xFF AND DUP2 JUMP JUMPDEST PUSH1 0x6 PUSH1 0x20 MSTORE DUP1 PUSH0 MSTORE PUSH1 0x40 PUSH0 KECCAK256 PUSH0 SWAP2 POP SWAP1 POP DUP1 PUSH0 ADD PUSH1 0x40 MLOAD DUP1 PUSH1 0xA0 ADD PUSH1 0x40 MSTORE SWAP1 DUP2 PUSH0 DUP3 ADD SLOAD DUP2 MSTORE PUSH1 0x20 ADD PUSH1 0x1 DUP3 ADD SLOAD DUP2 MSTORE PUSH1 0x20 ADD PUSH1 0x2 DUP3 ADD SLOAD DUP2 MSTORE PUSH1 0x20 ADD PUSH1 0x3 DUP3 ADD SLOAD DUP2 MSTORE PUSH1 0x20 ADD PUSH1 0x4 DUP3 ADD SLOAD DUP2 MSTORE POP POP SWAP1 DUP1 PUSH1 0x5 ADD SLOAD SWAP1 DUP1 PUSH1 0x6 ADD PUSH0 SWAP1 SLOAD SWAP1 PUSH2 0x100 EXP SWAP1 DIV PUSH1 0xFF AND SWAP1 DUP1 PUSH1 0x6 ADD PUSH1 0x1 SWAP1 SLOAD SWAP1 PUSH2 0x100 EXP SWAP1 DIV PUSH1 0xFF AND SWAP1 POP DUP5 JUMP JUMPDEST PUSH0 PUSH1 0x5 PUSH0 CALLER PUSH20 0xFFFFFFFFFFFFFFFFFFFFFFFFFFFFFFFFFFFFFFFF AND PUSH20 0xFFFFFFFFFFFFFFFFFFFFFFFFFFFFFFFFFFFFFFFF AND DUP2 MSTORE PUSH1 0x20 ADD SWAP1 DUP2 MSTORE PUSH1 0x20 ADD PUSH0 KECCAK256 PUSH0 SWAP1 SLOAD SWAP1 PUSH2 0x100 EXP SWAP1 DIV PUSH1 0xFF AND PUSH2 0x623 JUMPI PUSH1 0x40 MLOAD PUSH32 0x8C379A000000000000000000000000000000000000000000000000000000000 DUP2 MSTORE PUSH1 0x4 ADD PUSH2 0x61A SWAP1 PUSH2 0x1642 JUMP JUMPDEST PUSH1 0x40 MLOAD DUP1 SWAP2 SUB SWAP1 REVERT JUMPDEST PUSH1 0x1 PUSH1 0x3 SLOAD PUSH2 0x632 SWAP2 SWAP1 PUSH2 0x168D JUMP JUMPDEST DUP7 EQ PUSH2 0x673 JUMPI PUSH1 0x40 MLOAD PUSH32 0x8C379A000000000000000000000000000000000000000000000000000000000 DUP2 MSTORE PUSH1 0x4 ADD PUSH2 0x66A SWAP1 PUSH2 0x170A JUMP JUMPDEST PUSH1 0x40 MLOAD DUP1 SWAP2 SUB SWAP1 REVERT JUMPDEST PUSH1 0x4 SLOAD DUP6 EQ PUSH2 0x6B7 JUMPI PUSH1 0x40 MLOAD PUSH32 0x8C379A000000000000000000000000000000000000000000000000000000000 DUP2 MSTORE PUSH1 0x4 ADD PUSH2 0x6AE SWAP1 PUSH2 0x1772 JUMP JUMPDEST PUSH1 0x40 MLOAD DUP1 SWAP2 SUB SWAP1 REVERT JUMPDEST PUSH0 PUSH1 0x40 MLOAD DUP1 PUSH1 0xA0 ADD PUSH1 0x40 MSTORE DUP1 DUP9 DUP2 MSTORE PUSH1 0x20 ADD DUP8 DUP2 MSTORE PUSH1 0x20 ADD DUP7 DUP2 MSTORE PUSH1 0x20 ADD DUP6 DUP2 MSTORE PUSH1 0x20 ADD DUP5 DUP2 MSTORE POP SWAP1 POP PUSH2 0x6EA DUP2 PUSH2 0x8F6 JUMP JUMPDEST SWAP2 POP PUSH0 PUSH1 0x6 PUSH0 DUP5 DUP2 MSTORE PUSH1 0x20 ADD SWAP1 DUP2 MSTORE PUSH1 0x20 ADD PUSH0 KECCAK256 SWAP1 POP DUP1 PUSH1 0x6 ADD PUSH0 SWAP1 SLOAD SWAP1 PUSH2 0x100 EXP SWAP1 DIV PUSH1 0xFF AND ISZERO PUSH2 0x751 JUMPI PUSH1 0x40 MLOAD PUSH32 0x8C379A000000000000000000000000000000000000000000000000000000000 DUP2 MSTORE PUSH1 0x4 ADD PUSH2 0x748 SWAP1 PUSH2 0x17DA JUMP JUMPDEST PUSH1 0x40 MLOAD DUP1 SWAP2 SUB SWAP1 REVERT JUMPDEST PUSH1 0x40 MLOAD DUP1 PUSH1 0x80 ADD PUSH1 0x40 MSTORE DUP1 DUP4 DUP2 MSTORE PUSH1 0x20 ADD PUSH0 DUP2 MSTORE PUSH1 0x20 ADD PUSH1 0x1 ISZERO ISZERO DUP2 MSTORE PUSH1 0x20 ADD PUSH0 ISZERO ISZERO DUP2 MSTORE POP PUSH1 0x6 PUSH0 DUP6 DUP2 MSTORE PUSH1 0x20 ADD SWAP1 DUP2 MSTORE PUSH1 0x20 ADD PUSH0 KECCAK256 PUSH0 DUP3 ADD MLOAD DUP2 PUSH0 ADD PUSH0 DUP3 ADD MLOAD DUP2 PUSH0 ADD SSTORE PUSH1 0x20 DUP3 ADD MLOAD DUP2 PUSH1 0x1 ADD SSTORE PUSH1 0x40 DUP3 ADD MLOAD DUP2 PUSH1 0x2 ADD SSTORE PUSH1 0x60 DUP3 ADD MLOAD DUP2 PUSH1 0x3 ADD SSTORE PUSH1 0x80 DUP3 ADD MLOAD DUP2 PUSH1 0x4 ADD SSTORE POP POP PUSH1 0x20 DUP3 ADD MLOAD DUP2 PUSH1 0x5 ADD SSTORE PUSH1 0x40 DUP3 ADD MLOAD DUP2 PUSH1 0x6 ADD PUSH0 PUSH2 0x100 EXP DUP2 SLOAD DUP2 PUSH1 0xFF MUL NOT AND SWAP1 DUP4 ISZERO ISZERO MUL OR SWAP1 SSTORE POP PUSH1 0x60 DUP3 ADD MLOAD DUP2 PUSH1 0x6 ADD PUSH1 0x1 PUSH2 0x100 EXP DUP2 SLOAD DUP2 PUSH1 0xFF MUL NOT AND SWAP1 DUP4 ISZERO ISZERO MUL OR SWAP1 SSTORE POP SWAP1 POP POP DUP3 PUSH32 0x19393050BB77565830B6BA1EBB68C23298BCE5C84948A6A106AEB7B9B6C19149 DUP10 DUP10 DUP10 DUP10 PUSH1 0x40 MLOAD PUSH2 0x843 SWAP5 SWAP4 SWAP3 SWAP2 SWAP1 PUSH2 0x17F8 JUMP JUMPDEST PUSH1 0x40 MLOAD DUP1 SWAP2 SUB SWAP1 LOG2 PUSH2 0x855 DUP4 CALLER PUSH2 0xDA8 JUMP JUMPDEST POP POP SWAP6 SWAP5 POP POP POP POP POP JUMP JUMPDEST PUSH1 0x5 PUSH0 CALLER PUSH20 0xFFFFFFFFFFFFFFFFFFFFFFFFFFFFFFFFFFFFFFFF AND PUSH20 0xFFFFFFFFFFFFFFFFFFFFFFFFFFFFFFFFFFFFFFFF AND DUP2 MSTORE PUSH1 0x20 ADD SWAP1 DUP2 MSTORE PUSH1 0x20 ADD PUSH0 KECCAK256 PUSH0 SWAP1 SLOAD SWAP1 PUSH2 0x100 EXP SWAP1 DIV PUSH1 0xFF AND PUSH2 0x8E9 JUMPI PUSH1 0x40 MLOAD PUSH32 0x8C379A000000000000000000000000000000000000000000000000000000000 DUP2 MSTORE PUSH1 0x4 ADD PUSH2 0x8E0 SWAP1 PUSH2 0x1642 JUMP JUMPDEST PUSH1 0x40 MLOAD DUP1 SWAP2 SUB SWAP1 REVERT JUMPDEST PUSH2 0x8F3 DUP2 CALLER PUSH2 0xDA8 JUMP JUMPDEST POP JUMP JUMPDEST PUSH0 DUP2 PUSH0 ADD MLOAD DUP3 PUSH1 0x20 ADD MLOAD DUP4 PUSH1 0x40 ADD MLOAD DUP5 PUSH1 0x60 ADD MLOAD DUP6 PUSH1 0x80 ADD MLOAD PUSH1 0x40 MLOAD PUSH1 0x20 ADD PUSH2 0x923 SWAP6 SWAP5 SWAP4 SWAP3 SWAP2 SWAP1 PUSH2 0x1507 JUMP JUMPDEST PUSH1 0x40 MLOAD PUSH1 0x20 DUP2 DUP4 SUB SUB DUP2 MSTORE SWAP1 PUSH1 0x40 MSTORE DUP1 MLOAD SWAP1 PUSH1 0x20 ADD KECCAK256 SWAP1 POP SWAP2 SWAP1 POP JUMP JUMPDEST PUSH0 PUSH0 SWAP1 SLOAD SWAP1 PUSH2 0x100 EXP SWAP1 DIV PUSH20 0xFFFFFFFFFFFFFFFFFFFFFFFFFFFFFFFFFFFFFFFF AND PUSH20 0xFFFFFFFFFFFFFFFFFFFFFFFFFFFFFFFFFFFFFFFF AND CALLER PUSH20 0xFFFFFFFFFFFFFFFFFFFFFFFFFFFFFFFFFFFFFFFF AND EQ PUSH2 0x9CE JUMPI PUSH1 0x40 MLOAD PUSH32 0x8C379A000000000000000000000000000000000000000000000000000000000 DUP2 MSTORE PUSH1 0x4 ADD PUSH2 0x9C5 SWAP1 PUSH2 0x15DA JUMP JUMPDEST PUSH1 0x40 MLOAD DUP1 SWAP2 SUB SWAP1 REVERT JUMPDEST PUSH1 0x1 DUP2 LT ISZERO PUSH2 0xA12 JUMPI PUSH1 0x40 MLOAD PUSH32 0x8C379A000000000000000000000000000000000000000000000000000000000 DUP2 MSTORE PUSH1 0x4 ADD PUSH2 0xA09 SWAP1 PUSH2 0x1885 JUMP JUMPDEST PUSH1 0x40 MLOAD DUP1 SWAP2 SUB SWAP1 REVERT JUMPDEST DUP1 PUSH1 0x1 DUP2 SWAP1 SSTORE POP PUSH32 0xF18F88786AAE85A652AADB99A82462616489A33370C9BCC7B245906812EF7CD1 DUP2 PUSH1 0x40 MLOAD PUSH2 0xA48 SWAP2 SWAP1 PUSH2 0x1118 JUMP JUMPDEST PUSH1 0x40 MLOAD DUP1 SWAP2 SUB SWAP1 LOG1 POP JUMP JUMPDEST PUSH1 0x5 PUSH0 CALLER PUSH20 0xFFFFFFFFFFFFFFFFFFFFFFFFFFFFFFFFFFFFFFFF AND PUSH20 0xFFFFFFFFFFFFFFFFFFFFFFFFFFFFFFFFFFFFFFFF AND DUP2 MSTORE PUSH1 0x20 ADD SWAP1 DUP2 MSTORE PUSH1 0x20 ADD PUSH0 KECCAK256 PUSH0 SWAP1 SLOAD SWAP1 PUSH2 0x100 EXP SWAP1 DIV PUSH1 0xFF AND PUSH2 0xADC JUMPI PUSH1 0x40 MLOAD PUSH32 0x8C379A000000000000000000000000000000000000000000000000000000000 DUP2 MSTORE PUSH1 0x4 ADD PUSH2 0xAD3 SWAP1 PUSH2 0x1642 JUMP JUMPDEST PUSH1 0x40 MLOAD DUP1 SWAP2 SUB SWAP1 REVERT JUMPDEST PUSH0 PUSH1 0x6 PUSH0 DUP4 DUP2 MSTORE PUSH1 0x20 ADD SWAP1 DUP2 MSTORE PUSH1 0x20 ADD PUSH0 KECCAK256 SWAP1 POP DUP1 PUSH1 0x6 ADD PUSH0 SWAP1 SLOAD SWAP1 PUSH2 0x100 EXP SWAP1 DIV PUSH1 0xFF AND PUSH2 0xB40 JUMPI PUSH1 0x40 MLOAD PUSH32 0x8C379A000000000000000000000000000000000000000000000000000000000 DUP2 MSTORE PUSH1 0x4 ADD PUSH2 0xB37 SWAP1 PUSH2 0x18ED JUMP JUMPDEST PUSH1 0x40 MLOAD DUP1 SWAP2 SUB SWAP1 REVERT JUMPDEST DUP1 PUSH1 0x6 ADD PUSH1 0x1 SWAP1 SLOAD SWAP1 PUSH2 0x100 EXP SWAP1 DIV PUSH1 0xFF AND ISZERO PUSH2 0xB92 JUMPI PUSH1 0x40 MLOAD PUSH32 0x8C379A000000000000000000000000000000000000000000000000000000000 DUP2 MSTORE PUSH1 0x4 ADD PUSH2 0xB89 SWAP1 PUSH2 0x1955 JUMP JUMPDEST PUSH1 0x40 MLOAD DUP1 SWAP2 SUB SWAP1 REVERT JUMPDEST PUSH1 0x1 SLOAD DUP2 PUSH1 0x5 ADD SLOAD LT ISZERO PUSH2 0xBDB JUMPI PUSH1 0x40 MLOAD PUSH32 0x8C379A000000000000000000000000000000000000000000000000000000000 DUP2 MSTORE PUSH1 0x4 ADD PUSH2 0xBD2 SWAP1 PUSH2 0x19BD JUMP JUMPDEST PUSH1 0x40 MLOAD DUP1 SWAP2 SUB SWAP1 REVERT JUMPDEST PUSH1 0x1 PUSH1 0x3 SLOAD PUSH2 0xBEA SWAP2 SWAP1 PUSH2 0x168D JUMP JUMPDEST DUP2 PUSH0 ADD PUSH0 ADD SLOAD EQ PUSH2 0xC30 JUMPI PUSH1 0x40 MLOAD PUSH32 0x8C379A000000000000000000000000000000000000000000000000000000000 DUP2 MSTORE PUSH1 0x4 ADD PUSH2 0xC27 SWAP1 PUSH2 0x1A25 JUMP JUMPDEST PUSH1 0x40 MLOAD DUP1 SWAP2 SUB SWAP1 REVERT JUMPDEST PUSH1 0x4 SLOAD DUP2 PUSH0 ADD PUSH1 0x1 ADD SLOAD EQ PUSH2 0xC7A JUMPI PUSH1 0x40 MLOAD PUSH32 0x8C379A000000000000000000000000000000000000000000000000000000000 DUP2 MSTORE PUSH1 0x4 ADD PUSH2 0xC71 SWAP1 PUSH2 0x1A8D JUMP JUMPDEST PUSH1 0x40 MLOAD DUP1 SWAP2 SUB SWAP1 REVERT JUMPDEST DUP1 PUSH0 ADD PUSH1 0x2 PUSH0 DUP4 PUSH0 ADD PUSH0 ADD SLOAD DUP2 MSTORE PUSH1 0x20 ADD SWAP1 DUP2 MSTORE PUSH1 0x20 ADD PUSH0 KECCAK256 PUSH0 DUP3 ADD SLOAD DUP2 PUSH0 ADD SSTORE PUSH1 0x1 DUP3 ADD SLOAD DUP2 PUSH1 0x1 ADD SSTORE PUSH1 0x2 DUP3 ADD SLOAD DUP2 PUSH1 0x2 ADD SSTORE PUSH1 0x3 DUP3 ADD SLOAD DUP2 PUSH1 0x3 ADD SSTORE PUSH1 0x4 DUP3 ADD SLOAD DUP2 PUSH1 0x4 ADD SSTORE SWAP1 POP POP DUP1 PUSH0 ADD PUSH0 ADD SLOAD PUSH1 0x3 DUP2 SWAP1 SSTORE POP DUP1 PUSH0 ADD PUSH1 0x3 ADD SLOAD PUSH1 0x4 DUP2 SWAP1 SSTORE POP PUSH1 0x1 DUP2 PUSH1 0x6 ADD PUSH1 0x1 PUSH2 0x100 EXP DUP2 SLOAD DUP2 PUSH1 0xFF MUL NOT AND SWAP1 DUP4 ISZERO ISZERO MUL OR SWAP1 SSTORE POP PUSH32 0x72E70D00B52F2137C272201FF3B9065627B309DEE61A7AFC651BCFC4E5B1F0B3 DUP2 PUSH0 ADD PUSH0 ADD SLOAD DUP3 PUSH0 ADD PUSH1 0x3 ADD SLOAD DUP4 PUSH0 ADD PUSH1 0x2 ADD SLOAD PUSH1 0x40 MLOAD PUSH2 0xD40 SWAP4 SWAP3 SWAP2 SWAP1 PUSH2 0x1AAB JUMP JUMPDEST PUSH1 0x40 MLOAD DUP1 SWAP2 SUB SWAP1 LOG1 POP POP JUMP JUMPDEST PUSH1 0x4 SLOAD DUP2 JUMP JUMPDEST PUSH1 0x2 PUSH1 0x20 MSTORE DUP1 PUSH0 MSTORE PUSH1 0x40 PUSH0 KECCAK256 PUSH0 SWAP2 POP SWAP1 POP DUP1 PUSH0 ADD SLOAD SWAP1 DUP1 PUSH1 0x1 ADD SLOAD SWAP1 DUP1 PUSH1 0x2 ADD SLOAD SWAP1 DUP1 PUSH1 0x3 ADD SLOAD SWAP1 DUP1 PUSH1 0x4 ADD SLOAD SWAP1 POP DUP6 JUMP JUMPDEST PUSH0 PUSH0 SWAP1 SLOAD SWAP1 PUSH2 0x100 EXP SWAP1 DIV PUSH20 0xFFFFFFFFFFFFFFFFFFFFFFFFFFFFFFFFFFFFFFFF AND DUP2 JUMP JUMPDEST PUSH0 PUSH1 0x6 PUSH0 DUP5 DUP2 MSTORE PUSH1 0x20 ADD SWAP1 DUP2 MSTORE PUSH1 0x20 ADD PUSH0 KECCAK256 SWAP1 POP DUP1 PUSH1 0x6 ADD PUSH0 SWAP1 SLOAD SWAP1 PUSH2 0x100 EXP SWAP1 DIV PUSH1 0xFF AND PUSH2 0xE0C JUMPI PUSH1 0x40 MLOAD PUSH32 0x8C379A000000000000000000000000000000000000000000000000000000000 DUP2 MSTORE PUSH1 0x4 ADD PUSH2 0xE03 SWAP1 PUSH2 0x18ED JUMP JUMPDEST PUSH1 0x40 MLOAD DUP1 SWAP2 SUB SWAP1 REVERT JUMPDEST DUP1 PUSH1 0x6 ADD PUSH1 0x1 SWAP1 SLOAD SWAP1 PUSH2 0x100 EXP SWAP1 DIV PUSH1 0xFF AND ISZERO PUSH2 0xE5E JUMPI PUSH1 0x40 MLOAD PUSH32 0x8C379A000000000000000000000000000000000000000000000000000000000 DUP2 MSTORE PUSH1 0x4 ADD PUSH2 0xE55 SWAP1 PUSH2 0x1955 JUMP JUMPDEST PUSH1 0x40 MLOAD DUP1 SWAP2 SUB SWAP1 REVERT JUMPDEST PUSH1 0x7 PUSH0 DUP5 DUP2 MSTORE PUSH1 0x20 ADD SWAP1 DUP2 MSTORE PUSH1 0x20 ADD PUSH0 KECCAK256 PUSH0 DUP4 PUSH20 0xFFFFFFFFFFFFFFFFFFFFFFFFFFFFFFFFFFFFFFFF AND PUSH20 0xFFFFFFFFFFFFFFFFFFFFFFFFFFFFFFFFFFFFFFFF AND DUP2 MSTORE PUSH1 0x20 ADD SWAP1 DUP2 MSTORE PUSH1 0x20 ADD PUSH0 KECCAK256 PUSH0 SWAP1 SLOAD SWAP1 PUSH2 0x100 EXP SWAP1 DIV PUSH1 0xFF AND ISZERO PUSH2 0xEF7 JUMPI PUSH1 0x40 MLOAD PUSH32 0x8C379A000000000000000000000000000000000000000000000000000000000 DUP2 MSTORE PUSH1 0x4 ADD PUSH2 0xEEE SWAP1 PUSH2 0x1B2A JUMP JUMPDEST PUSH1 0x40 MLOAD DUP1 SWAP2 SUB SWAP1 REVERT JUMPDEST PUSH1 0x1 PUSH1 0x7 PUSH0 DUP6 DUP2 MSTORE PUSH1 0x20 ADD SWAP1 DUP2 MSTORE PUSH1 0x20 ADD PUSH0 KECCAK256 PUSH0 DUP5 PUSH20 0xFFFFFFFFFFFFFFFFFFFFFFFFFFFFFFFFFFFFFFFF AND PUSH20 0xFFFFFFFFFFFFFFFFFFFFFFFFFFFFFFFFFFFFFFFF AND DUP2 MSTORE PUSH1 0x20 ADD SWAP1 DUP2 MSTORE PUSH1 0x20 ADD PUSH0 KECCAK256 PUSH0 PUSH2 0x100 EXP DUP2 SLOAD DUP2 PUSH1 0xFF MUL NOT AND SWAP1 DUP4 ISZERO ISZERO MUL OR SWAP1 SSTORE POP PUSH1 0x1 DUP2 PUSH1 0x5 ADD PUSH0 DUP3 DUP3 SLOAD PUSH2 0xF6F SWAP2 SWAP1 PUSH2 0x168D JUMP JUMPDEST SWAP3 POP POP DUP2 SWAP1 SSTORE POP DUP2 PUSH20 0xFFFFFFFFFFFFFFFFFFFFFFFFFFFFFFFFFFFFFFFF AND DUP4 PUSH32 0xD948B9DB73A0766459B5FE42AE9D463028E942027D4D6A38E76A798BC8A3F09E DUP4 PUSH1 0x5 ADD SLOAD PUSH1 0x40 MLOAD PUSH2 0xFC1 SWAP2 SWAP1 PUSH2 0x1118 JUMP JUMPDEST PUSH1 0x40 MLOAD DUP1 SWAP2 SUB SWAP1 LOG3 POP POP POP JUMP JUMPDEST PUSH1 0x40 MLOAD DUP1 PUSH1 0xA0 ADD PUSH1 0x40 MSTORE DUP1 PUSH0 DUP2 MSTORE PUSH1 0x20 ADD PUSH0 DUP2 MSTORE PUSH1 0x20 ADD PUSH0 DUP2 MSTORE PUSH1 0x20 ADD PUSH0 DUP2 MSTORE PUSH1 0x20 ADD PUSH0 DUP2 MSTORE POP SWAP1 JUMP JUMPDEST PUSH0 PUSH1 0x40 MLOAD SWAP1 POP SWAP1 JUMP JUMPDEST PUSH0 PUSH0 REVERT JUMPDEST PUSH0 DUP2 SWAP1 POP SWAP2 SWAP1 POP JUMP JUMPDEST PUSH2 0x1017 DUP2 PUSH2 0x1005 JUMP JUMPDEST DUP2 EQ PUSH2 0x1021 JUMPI PUSH0 PUSH0 REVERT JUMPDEST POP JUMP JUMPDEST PUSH0 DUP2 CALLDATALOAD SWAP1 POP PUSH2 0x1032 DUP2 PUSH2 0x100E JUMP JUMPDEST SWAP3 SWAP2 POP POP JUMP JUMPDEST PUSH0 PUSH1 0x20 DUP3 DUP5 SUB SLT ISZERO PUSH2 0x104D JUMPI PUSH2 0x104C PUSH2 0x1001 JUMP JUMPDEST JUMPDEST PUSH0 PUSH2 0x105A DUP5 DUP3 DUP6 ADD PUSH2 0x1024 JUMP JUMPDEST SWAP2 POP POP SWAP3 SWAP2 POP POP JUMP JUMPDEST PUSH2 0x106C DUP2 PUSH2 0x1005 JUMP JUMPDEST DUP3 MSTORE POP POP JUMP JUMPDEST PUSH0 DUP2 SWAP1 POP SWAP2 SWAP1 POP JUMP JUMPDEST PUSH2 0x1084 DUP2 PUSH2 0x1072 JUMP JUMPDEST DUP3 MSTORE POP POP JUMP JUMPDEST PUSH1 0xA0 DUP3 ADD PUSH0 DUP3 ADD MLOAD PUSH2 0x109E PUSH0 DUP6 ADD DUP3 PUSH2 0x1063 JUMP JUMPDEST POP PUSH1 0x20 DUP3 ADD MLOAD PUSH2 0x10B1 PUSH1 0x20 DUP6 ADD DUP3 PUSH2 0x107B JUMP JUMPDEST POP PUSH1 0x40 DUP3 ADD MLOAD PUSH2 0x10C4 PUSH1 0x40 DUP6 ADD DUP3 PUSH2 0x107B JUMP JUMPDEST POP PUSH1 0x60 DUP3 ADD MLOAD PUSH2 0x10D7 PUSH1 0x60 DUP6 ADD DUP3 PUSH2 0x107B JUMP JUMPDEST POP PUSH1 0x80 DUP3 ADD MLOAD PUSH2 0x10EA PUSH1 0x80 DUP6 ADD DUP3 PUSH2 0x1063 JUMP JUMPDEST POP POP POP POP JUMP JUMPDEST PUSH0 PUSH1 0xA0 DUP3 ADD SWAP1 POP PUSH2 0x1103 PUSH0 DUP4 ADD DUP5 PUSH2 0x108A JUMP JUMPDEST SWAP3 SWAP2 POP POP JUMP JUMPDEST PUSH2 0x1112 DUP2 PUSH2 0x1005 JUMP JUMPDEST DUP3 MSTORE POP POP JUMP JUMPDEST PUSH0 PUSH1 0x20 DUP3 ADD SWAP1 POP PUSH2 0x112B PUSH0 DUP4 ADD DUP5 PUSH2 0x1109 JUMP JUMPDEST SWAP3 SWAP2 POP POP JUMP JUMPDEST PUSH0 PUSH20 0xFFFFFFFFFFFFFFFFFFFFFFFFFFFFFFFFFFFFFFFF DUP3 AND SWAP1 POP SWAP2 SWAP1 POP JUMP JUMPDEST PUSH0 PUSH2 0x115A DUP3 PUSH2 0x1131 JUMP JUMPDEST SWAP1 POP SWAP2 SWAP1 POP JUMP JUMPDEST PUSH2 0x116A DUP2 PUSH2 0x1150 JUMP JUMPDEST DUP2 EQ PUSH2 0x1174 JUMPI PUSH0 PUSH0 REVERT JUMPDEST POP JUMP JUMPDEST PUSH0 DUP2 CALLDATALOAD SWAP1 POP PUSH2 0x1185 DUP2 PUSH2 0x1161 JUMP JUMPDEST SWAP3 SWAP2 POP POP JUMP JUMPDEST PUSH0 DUP2 ISZERO ISZERO SWAP1 POP SWAP2 SWAP1 POP JUMP JUMPDEST PUSH2 0x119F DUP2 PUSH2 0x118B JUMP JUMPDEST DUP2 EQ PUSH2 0x11A9 JUMPI PUSH0 PUSH0 REVERT JUMPDEST POP JUMP JUMPDEST PUSH0 DUP2 CALLDATALOAD SWAP1 POP PUSH2 0x11BA DUP2 PUSH2 0x1196 JUMP JUMPDEST SWAP3 SWAP2 POP POP JUMP JUMPDEST PUSH0 PUSH0 PUSH1 0x40 DUP4 DUP6 SUB SLT ISZERO PUSH2 0x11D6 JUMPI PUSH2 0x11D5 PUSH2 0x1001 JUMP JUMPDEST JUMPDEST PUSH0 PUSH2 0x11E3 DUP6 DUP3 DUP7 ADD PUSH2 0x1177 JUMP JUMPDEST SWAP3 POP POP PUSH1 0x20 PUSH2 0x11F4 DUP6 DUP3 DUP7 ADD PUSH2 0x11AC JUMP JUMPDEST SWAP2 POP POP SWAP3 POP SWAP3 SWAP1 POP JUMP JUMPDEST PUSH2 0x1207 DUP2 PUSH2 0x1072 JUMP JUMPDEST DUP2 EQ PUSH2 0x1211 JUMPI PUSH0 PUSH0 REVERT JUMPDEST POP JUMP JUMPDEST PUSH0 DUP2 CALLDATALOAD SWAP1 POP PUSH2 0x1222 DUP2 PUSH2 0x11FE JUMP JUMPDEST SWAP3 SWAP2 POP POP JUMP JUMPDEST PUSH0 PUSH0 PUSH1 0x40 DUP4 DUP6 SUB SLT ISZERO PUSH2 0x123E JUMPI PUSH2 0x123D PUSH2 0x1001 JUMP JUMPDEST JUMPDEST PUSH0 PUSH2 0x124B DUP6 DUP3 DUP7 ADD PUSH2 0x1214 JUMP JUMPDEST SWAP3 POP POP PUSH1 0x20 PUSH2 0x125C DUP6 DUP3 DUP7 ADD PUSH2 0x1177 JUMP JUMPDEST SWAP2 POP POP SWAP3 POP SWAP3 SWAP1 POP JUMP JUMPDEST PUSH2 0x126F DUP2 PUSH2 0x118B JUMP JUMPDEST DUP3 MSTORE POP POP JUMP JUMPDEST PUSH0 PUSH1 0x20 DUP3 ADD SWAP1 POP PUSH2 0x1288 PUSH0 DUP4 ADD DUP5 PUSH2 0x1266 JUMP JUMPDEST SWAP3 SWAP2 POP POP JUMP JUMPDEST PUSH0 PUSH1 0x20 DUP3 DUP5 SUB SLT ISZERO PUSH2 0x12A3 JUMPI PUSH2 0x12A2 PUSH2 0x1001 JUMP JUMPDEST JUMPDEST PUSH0 PUSH2 0x12B0 DUP5 DUP3 DUP6 ADD PUSH2 0x1177 JUMP JUMPDEST SWAP2 POP POP SWAP3 SWAP2 POP POP JUMP JUMPDEST PUSH0 PUSH1 0x20 DUP3 DUP5 SUB SLT ISZERO PUSH2 0x12CE JUMPI PUSH2 0x12CD PUSH2 0x1001 JUMP JUMPDEST JUMPDEST PUSH0 PUSH2 0x12DB DUP5 DUP3 DUP6 ADD PUSH2 0x1214 JUMP JUMPDEST SWAP2 POP POP SWAP3 SWAP2 POP POP JUMP JUMPDEST PUSH0 PUSH2 0x100 DUP3 ADD SWAP1 POP PUSH2 0x12F8 PUSH0 DUP4 ADD DUP8 PUSH2 0x108A JUMP JUMPDEST PUSH2 0x1305 PUSH1 0xA0 DUP4 ADD DUP7 PUSH2 0x1109 JUMP JUMPDEST PUSH2 0x1312 PUSH1 0xC0 DUP4 ADD DUP6 PUSH2 0x1266 JUMP JUMPDEST PUSH2 0x131F PUSH1 0xE0 DUP4 ADD DUP5 PUSH2 0x1266 JUMP JUMPDEST SWAP6 SWAP5 POP POP POP POP POP JUMP JUMPDEST PUSH0 PUSH0 PUSH0 PUSH0 PUSH0 PUSH1 0xA0 DUP7 DUP9 SUB SLT ISZERO PUSH2 0x1341 JUMPI PUSH2 0x1340 PUSH2 0x1001 JUMP JUMPDEST JUMPDEST PUSH0 PUSH2 0x134E DUP9 DUP3 DUP10 ADD PUSH2 0x1024 JUMP JUMPDEST SWAP6 POP POP PUSH1 0x20 PUSH2 0x135F DUP9 DUP3 DUP10 ADD PUSH2 0x1214 JUMP JUMPDEST SWAP5 POP POP PUSH1 0x40 PUSH2 0x1370 DUP9 DUP3 DUP10 ADD PUSH2 0x1214 JUMP JUMPDEST SWAP4 POP POP PUSH1 0x60 PUSH2 0x1381 DUP9 DUP3 DUP10 ADD PUSH2 0x1214 JUMP JUMPDEST SWAP3 POP POP PUSH1 0x80 PUSH2 0x1392 DUP9 DUP3 DUP10 ADD PUSH2 0x1024 JUMP JUMPDEST SWAP2 POP POP SWAP3 SWAP6 POP SWAP3 SWAP6 SWAP1 SWAP4 POP JUMP JUMPDEST PUSH2 0x13A8 DUP2 PUSH2 0x1072 JUMP JUMPDEST DUP3 MSTORE POP POP JUMP JUMPDEST PUSH0 PUSH1 0x20 DUP3 ADD SWAP1 POP PUSH2 0x13C1 PUSH0 DUP4 ADD DUP5 PUSH2 0x139F JUMP JUMPDEST SWAP3 SWAP2 POP POP JUMP JUMPDEST PUSH0 PUSH0 REVERT JUMPDEST PUSH0 PUSH1 0x1F NOT PUSH1 0x1F DUP4 ADD AND SWAP1 POP SWAP2 SWAP1 POP JUMP JUMPDEST PUSH32 0x4E487B7100000000000000000000000000000000000000000000000000000000 PUSH0 MSTORE PUSH1 0x41 PUSH1 0x4 MSTORE PUSH1 0x24 PUSH0 REVERT JUMPDEST PUSH2 0x1411 DUP3 PUSH2 0x13CB JUMP JUMPDEST DUP2 ADD DUP2 DUP2 LT PUSH8 0xFFFFFFFFFFFFFFFF DUP3 GT OR ISZERO PUSH2 0x1430 JUMPI PUSH2 0x142F PUSH2 0x13DB JUMP JUMPDEST JUMPDEST DUP1 PUSH1 0x40 MSTORE POP POP POP JUMP JUMPDEST PUSH0 PUSH2 0x1442 PUSH2 0xFF8 JUMP JUMPDEST SWAP1 POP PUSH2 0x144E DUP3 DUP3 PUSH2 0x1408 JUMP JUMPDEST SWAP2 SWAP1 POP JUMP JUMPDEST PUSH0 PUSH1 0xA0 DUP3 DUP5 SUB SLT ISZERO PUSH2 0x1468 JUMPI PUSH2 0x1467 PUSH2 0x13C7 JUMP JUMPDEST JUMPDEST PUSH2 0x1472 PUSH1 0xA0 PUSH2 0x1439 JUMP JUMPDEST SWAP1 POP PUSH0 PUSH2 0x1481 DUP5 DUP3 DUP6 ADD PUSH2 0x1024 JUMP JUMPDEST PUSH0 DUP4 ADD MSTORE POP PUSH1 0x20 PUSH2 0x1494 DUP5 DUP3 DUP6 ADD PUSH2 0x1214 JUMP JUMPDEST PUSH1 0x20 DUP4 ADD MSTORE POP PUSH1 0x40 PUSH2 0x14A8 DUP5 DUP3 DUP6 ADD PUSH2 0x1214 JUMP JUMPDEST PUSH1 0x40 DUP4 ADD MSTORE POP PUSH1 0x60 PUSH2 0x14BC DUP5 DUP3 DUP6 ADD PUSH2 0x1214 JUMP JUMPDEST PUSH1 0x60 DUP4 ADD MSTORE POP PUSH1 0x80 PUSH2 0x14D0 DUP5 DUP3 DUP6 ADD PUSH2 0x1024 JUMP JUMPDEST PUSH1 0x80 DUP4 ADD MSTORE POP SWAP3 SWAP2 POP POP JUMP JUMPDEST PUSH0 PUSH1 0xA0 DUP3 DUP5 SUB SLT ISZERO PUSH2 0x14F1 JUMPI PUSH2 0x14F0 PUSH2 0x1001 JUMP JUMPDEST JUMPDEST PUSH0 PUSH2 0x14FE DUP5 DUP3 DUP6 ADD PUSH2 0x1453 JUMP JUMPDEST SWAP2 POP POP SWAP3 SWAP2 POP POP JUMP JUMPDEST PUSH0 PUSH1 0xA0 DUP3 ADD SWAP1 POP PUSH2 0x151A PUSH0 DUP4 ADD DUP9 PUSH2 0x1109 JUMP JUMPDEST PUSH2 0x1527 PUSH1 0x20 DUP4 ADD DUP8 PUSH2 0x139F JUMP JUMPDEST PUSH2 0x1534 PUSH1 0x40 DUP4 ADD DUP7 PUSH2 0x139F JUMP JUMPDEST PUSH2 0x1541 PUSH1 0x60 DUP4 ADD DUP6 PUSH2 0x139F JUMP JUMPDEST PUSH2 0x154E PUSH1 0x80 DUP4 ADD DUP5 PUSH2 0x1109 JUMP JUMPDEST SWAP7 SWAP6 POP POP POP POP POP POP JUMP JUMPDEST PUSH2 0x1561 DUP2 PUSH2 0x1150 JUMP JUMPDEST DUP3 MSTORE POP POP JUMP JUMPDEST PUSH0 PUSH1 0x20 DUP3 ADD SWAP1 POP PUSH2 0x157A PUSH0 DUP4 ADD DUP5 PUSH2 0x1558 JUMP JUMPDEST SWAP3 SWAP2 POP POP JUMP JUMPDEST PUSH0 DUP3 DUP3 MSTORE PUSH1 0x20 DUP3 ADD SWAP1 POP SWAP3 SWAP2 POP POP JUMP JUMPDEST PUSH32 0x6E6F742061646D696E0000000000000000000000000000000000000000000000 PUSH0 DUP3 ADD MSTORE POP JUMP JUMPDEST PUSH0 PUSH2 0x15C4 PUSH1 0x9 DUP4 PUSH2 0x1580 JUMP JUMPDEST SWAP2 POP PUSH2 0x15CF DUP3 PUSH2 0x1590 JUMP JUMPDEST PUSH1 0x20 DUP3 ADD SWAP1 POP SWAP2 SWAP1 POP JUMP JUMPDEST PUSH0 PUSH1 0x20 DUP3 ADD SWAP1 POP DUP2 DUP2 SUB PUSH0 DUP4 ADD MSTORE PUSH2 0x15F1 DUP2 PUSH2 0x15B8 JUMP JUMPDEST SWAP1 POP SWAP2 SWAP1 POP JUMP JUMPDEST PUSH32 0x6E6F742077726974657200000000000000000000000000000000000000000000 PUSH0 DUP3 ADD MSTORE POP JUMP JUMPDEST PUSH0 PUSH2 0x162C PUSH1 0xA DUP4 PUSH2 0x1580 JUMP JUMPDEST SWAP2 POP PUSH2 0x1637 DUP3 PUSH2 0x15F8 JUMP JUMPDEST PUSH1 0x20 DUP3 ADD SWAP1 POP SWAP2 SWAP1 POP JUMP JUMPDEST PUSH0 PUSH1 0x20 DUP3 ADD SWAP1 POP DUP2 DUP2 SUB PUSH0 DUP4 ADD MSTORE PUSH2 0x1659 DUP2 PUSH2 0x1620 JUMP JUMPDEST SWAP1 POP SWAP2 SWAP1 POP JUMP JUMPDEST PUSH32 0x4E487B7100000000000000000000000000000000000000000000000000000000 PUSH0 MSTORE PUSH1 0x11 PUSH1 0x4 MSTORE PUSH1 0x24 PUSH0 REVERT JUMPDEST PUSH0 PUSH2 0x1697 DUP3 PUSH2 0x1005 JUMP JUMPDEST SWAP2 POP PUSH2 0x16A2 DUP4 PUSH2 0x1005 JUMP JUMPDEST SWAP3 POP DUP3 DUP3 ADD SWAP1 POP DUP1 DUP3 GT ISZERO PUSH2 0x16BA JUMPI PUSH2 0x16B9 PUSH2 0x1660 JUMP JUMPDEST JUMPDEST SWAP3 SWAP2 POP POP JUMP JUMPDEST PUSH32 0x6261642068656967687400000000000000000000000000000000000000000000 PUSH0 DUP3 ADD MSTORE POP JUMP JUMPDEST PUSH0 PUSH2 0x16F4 PUSH1 0xA DUP4 PUSH2 0x1580 JUMP JUMPDEST SWAP2 POP PUSH2 0x16FF DUP3 PUSH2 0x16C0 JUMP JUMPDEST PUSH1 0x20 DUP3 ADD SWAP1 POP SWAP2 SWAP1 POP JUMP JUMPDEST PUSH0 PUSH1 0x20 DUP3 ADD SWAP1 POP DUP2 DUP2 SUB PUSH0 DUP4 ADD MSTORE PUSH2 0x1721 DUP2 PUSH2 0x16E8 JUMP JUMPDEST SWAP1 POP SWAP2 SWAP1 POP JUMP JUMPDEST PUSH32 0x70726576206D69736D6174636800000000000000000000000000000000000000 PUSH0 DUP3 ADD MSTORE POP JUMP JUMPDEST PUSH0 PUSH2 0x175C PUSH1 0xD DUP4 PUSH2 0x1580 JUMP JUMPDEST SWAP2 POP PUSH2 0x1767 DUP3 PUSH2 0x1728 JUMP JUMPDEST PUSH1 0x20 DUP3 ADD SWAP1 POP SWAP2 SWAP1 POP JUMP JUMPDEST PUSH0 PUSH1 0x20 DUP3 ADD SWAP1 POP DUP2 DUP2 SUB PUSH0 DUP4 ADD MSTORE PUSH2 0x1789 DUP2 PUSH2 0x1750 JUMP JUMPDEST SWAP1 POP SWAP2 SWAP1 POP JUMP JUMPDEST PUSH32 0x70726F706F73616C206578697374730000000000000000000000000000000000 PUSH0 DUP3 ADD MSTORE POP JUMP JUMPDEST PUSH0 PUSH2 0x17C4 PUSH1 0xF DUP4 PUSH2 0x1580 JUMP JUMPDEST SWAP2 POP PUSH2 0x17CF DUP3 PUSH2 0x1790 JUMP JUMPDEST PUSH1 0x20 DUP3 ADD SWAP1 POP SWAP2 SWAP1 POP JUMP JUMPDEST PUSH0 PUSH1 0x20 DUP3 ADD SWAP1 POP DUP2 DUP2 SUB PUSH0 DUP4 ADD MSTORE PUSH2 0x17F1 DUP2 PUSH2 0x17B8 JUMP JUMPDEST SWAP1 POP SWAP2 SWAP1 POP JUMP JUMPDEST PUSH0 PUSH1 0x80 DUP3 ADD SWAP1 POP PUSH2 0x180B PUSH0 DUP4 ADD DUP8 PUSH2 0x1109 JUMP JUMPDEST PUSH2 0x1818 PUSH1 0x20 DUP4 ADD DUP7 PUSH2 0x139F JUMP JUMPDEST PUSH2 0x1825 PUSH1 0x40 DUP4 ADD DUP6 PUSH2 0x139F JUMP JUMPDEST PUSH2 0x1832 PUSH1 0x60 DUP4 ADD DUP5 PUSH2 0x139F JUMP JUMPDEST SWAP6 SWAP5 POP POP POP POP POP JUMP JUMPDEST PUSH32 0x71756F72756D206D757374206265203E3D310000000000000000000000000000 PUSH0 DUP3 ADD MSTORE POP JUMP JUMPDEST PUSH0 PUSH2 0x186F PUSH1 0x12 DUP4 PUSH2 0x1580 JUMP JUMPDEST SWAP2 POP PUSH2 0x187A DUP3 PUSH2 0x183B JUMP JUMPDEST PUSH1 0x20 DUP3 ADD SWAP1 POP SWAP2 SWAP1 POP JUMP JUMPDEST PUSH0 PUSH1 0x20 DUP3 ADD SWAP1 POP DUP2 DUP2 SUB PUSH0 DUP4 ADD MSTORE PUSH2 0x189C DUP2 PUSH2 0x1863 JUMP JUMPDEST SWAP1 POP SWAP2 SWAP1 POP JUMP JUMPDEST PUSH32 0x756E6B6E6F776E2070726F706F73616C00000000000000000000000000000000 PUSH0 DUP3 ADD MSTORE POP JUMP JUMPDEST PUSH0 PUSH2 0x18D7 PUSH1 0x10 DUP4 PUSH2 0x1580 JUMP JUMPDEST SWAP2 POP PUSH2 0x18E2 DUP3 PUSH2 0x18A3 JUMP JUMPDEST PUSH1 0x20 DUP3 ADD SWAP1 POP SWAP2 SWAP1 POP JUMP JUMPDEST PUSH0 PUSH1 0x20 DUP3 ADD SWAP1 POP DUP2 DUP2 SUB PUSH0 DUP4 ADD MSTORE PUSH2 0x1904 DUP2 PUSH2 0x18CB JUMP JUMPDEST SWAP1 POP SWAP2 SWAP1 POP JUMP JUMPDEST PUSH32 0x616C72656164792066696E616C697A6564000000000000000000000000000000 PUSH0 DUP3 ADD MSTORE POP JUMP JUMPDEST PUSH0 PUSH2 0x193F PUSH1 0x11 DUP4 PUSH2 0x1580 JUMP JUMPDEST SWAP2 POP PUSH2 0x194A DUP3 PUSH2 0x190B JUMP JUMPDEST PUSH1 0x20 DUP3 ADD SWAP1 POP SWAP2 SWAP1 POP JUMP JUMPDEST PUSH0 PUSH1 0x20 DUP3 ADD SWAP1 POP DUP2 DUP2 SUB PUSH0 DUP4 ADD MSTORE PUSH2 0x196C DUP2 PUSH2 0x1933 JUMP JUMPDEST SWAP1 POP SWAP2 SWAP1 POP JUMP JUMPDEST PUSH32 0x6E6F7420656E6F75676820617070726F76616C73000000000000000000000000 PUSH0 DUP3 ADD MSTORE POP JUMP JUMPDEST PUSH0 PUSH2 0x19A7 PUSH1 0x14 DUP4 PUSH2 0x1580 JUMP JUMPDEST SWAP2 POP PUSH2 0x19B2 DUP3 PUSH2 0x1973 JUMP JUMPDEST PUSH1 0x20 DUP3 ADD SWAP1 POP SWAP2 SWAP1 POP JUMP JUMPDEST PUSH0 PUSH1 0x20 DUP3 ADD SWAP1 POP DUP2 DUP2 SUB PUSH0 DUP4 ADD MSTORE PUSH2 0x19D4 DUP2 PUSH2 0x199B JUMP JUMPDEST SWAP1 POP SWAP2 SWAP1 POP JUMP JUMPDEST PUSH32 0x686569676874206368616E676564000000000000000000000000000000000000 PUSH0 DUP3 ADD MSTORE POP JUMP JUMPDEST PUSH0 PUSH2 0x1A0F PUSH1 0xE DUP4 PUSH2 0x1580 JUMP JUMPDEST SWAP2 POP PUSH2 0x1A1A DUP3 PUSH2 0x19DB JUMP JUMPDEST PUSH1 0x20 DUP3 ADD SWAP1 POP SWAP2 SWAP1 POP JUMP JUMPDEST PUSH0 PUSH1 0x20 DUP3 ADD SWAP1 POP DUP2 DUP2 SUB PUSH0 DUP4 ADD MSTORE PUSH2 0x1A3C DUP2 PUSH2 0x1A03 JUMP JUMPDEST SWAP1 POP SWAP2 SWAP1 POP JUMP JUMPDEST PUSH32 0x70726576206368616E6765640000000000000000000000000000000000000000 PUSH0 DUP3 ADD MSTORE POP JUMP JUMPDEST PUSH0 PUSH2 0x1A77 PUSH1 0xC DUP4 PUSH2 0x1580 JUMP JUMPDEST SWAP2 POP PUSH2 0x1A82 DUP3 PUSH2 0x1A43 JUMP JUMPDEST PUSH1 0x20 DUP3 ADD SWAP1 POP SWAP2 SWAP1 POP JUMP JUMPDEST PUSH0 PUSH1 0x20 DUP3 ADD SWAP1 POP DUP2 DUP2 SUB PUSH0 DUP4 ADD MSTORE PUSH2 0x1AA4 DUP2 PUSH2 0x1A6B JUMP JUMPDEST SWAP1 POP SWAP2 SWAP1 POP JUMP JUMPDEST PUSH0 PUSH1 0x60 DUP3 ADD SWAP1 POP PUSH2 0x1ABE PUSH0 DUP4 ADD DUP7 PUSH2 0x1109 JUMP JUMPDEST PUSH2 0x1ACB PUSH1 0x20 DUP4 ADD DUP6 PUSH2 0x139F JUMP JUMPDEST PUSH2 0x1AD8 PUSH1 0x40 DUP4 ADD DUP5 PUSH2 0x139F JUMP JUMPDEST SWAP5 SWAP4 POP POP POP POP JUMP JUMPDEST PUSH32 0x616C726561647920617070726F76656400000000000000000000000000000000 PUSH0 DUP3 ADD MSTORE POP JUMP JUMPDEST PUSH0 PUSH2 0x1B14 PUSH1 0x10 DUP4 PUSH2 0x1580 JUMP JUMPDEST SWAP2 POP PUSH2 0x1B1F DUP3 PUSH2 0x1AE0 JUMP JUMPDEST PUSH1 0x20 DUP3 ADD SWAP1 POP SWAP2 SWAP1 POP JUMP JUMPDEST PUSH0 PUSH1 0x20 DUP3 ADD SWAP1 POP DUP2 DUP2 SUB PUSH0 DUP4 ADD MSTORE PUSH2 0x1B41 DUP2 PUSH2 0x1B08 JUMP JUMPDEST SWAP1 POP SWAP2 SWAP1 POP JUMP INVALID LOG2 PUSH5 0x6970667358 0x22 SLT KECCAK256 0x2B STATICCALL JUMP 0xEF EXTDELEGATECALL 0xD8 DELEGATECALL GT 0xA7 0xF7 JUMP PUSH27 0xCA004D51C481BE3705A21E0095C215EC393CF5D164736F6C634300 ADDMOD 0x1E STOP CALLER "
				},
				"gasEstimates": {
					"creation": {
						"codeDepositCost": "1407600",
						"executionCost": "infinite",
						"totalCost": "infinite"
					},
					"external": {
						"admin()": "2595",
						"approveBlock(bytes32)": "infinite",
						"blocks(uint256)": "infinite",
						"computeHeaderHash((uint256,bytes32,bytes32,bytes32,uint256))": "infinite",
						"finalizeBlock(bytes32)": "infinite",
						"getBlock(uint256)": "infinite",
						"hasApproved(bytes32,address)": "3115",
						"isWriter(address)": "2900",
						"proposals(bytes32)": "infinite",
						"proposeBlock(uint256,bytes32,bytes32,bytes32,uint256)": "infinite",
						"quorum()": "2471",
						"setQuorum(uint256)": "infinite",
						"setWriter(address,bool)": "infinite",
						"tipHash()": "2469",
						"tipHeight()": "2448"
					},
					"internal": {
						"_approve(bytes32,address)": "infinite"
					}
				},
				"methodIdentifiers": {
					"admin()": "f851a440",
					"approveBlock(bytes32)": "9b998002",
					"blocks(uint256)": "f25b3f99",
					"computeHeaderHash((uint256,bytes32,bytes32,bytes32,uint256))": "a0cafb9c",
					"finalizeBlock(bytes32)": "c9da00a6",
					"getBlock(uint256)": "04c07569",
					"hasApproved(bytes32,address)": "23cdc3f1",
					"isWriter(address)": "2b29ba23",
					"proposals(bytes32)": "32ed5b12",
					"proposeBlock(uint256,bytes32,bytes32,bytes32,uint256)": "674e96e4",
					"quorum()": "1703a018",
					"setQuorum(uint256)": "c1ba4e59",
					"setWriter(address,bool)": "1f91b39f",
					"tipHash()": "ed3e46ae",
					"tipHeight()": "1fd4827a"
				}
			},
			"storageLayout": {
				"storage": [
					{
						"astId": 4,
						"contract": "VoteLedger.sol:VoteLedger",
						"label": "admin",
						"offset": 0,
						"slot": "0",
						"type": "t_address"
					},
					{
						"astId": 6,
						"contract": "VoteLedger.sol:VoteLedger",
						"label": "quorum",
						"offset": 0,
						"slot": "1",
						"type": "t_uint256"
					},
					{
						"astId": 22,
						"contract": "VoteLedger.sol:VoteLedger",
						"label": "blocks",
						"offset": 0,
						"slot": "2",
						"type": "t_mapping(t_uint256,t_struct(BlockHeader)17_storage)"
					},
					{
						"astId": 24,
						"contract": "VoteLedger.sol:VoteLedger",
						"label": "tipHeight",
						"offset": 0,
						"slot": "3",
						"type": "t_uint256"
					},
					{
						"astId": 26,
						"contract": "VoteLedger.sol:VoteLedger",
						"label": "tipHash",
						"offset": 0,
						"slot": "4",
						"type": "t_bytes32"
					},
					{
						"astId": 30,
						"contract": "VoteLedger.sol:VoteLedger",
						"label": "isWriter",
						"offset": 0,
						"slot": "5",
						"type": "t_mapping(t_address,t_bool)"
					},
					{
						"astId": 45,
						"contract": "VoteLedger.sol:VoteLedger",
						"label": "proposals",
						"offset": 0,
						"slot": "6",
						"type": "t_mapping(t_bytes32,t_struct(Proposal)40_storage)"
					},
					{
						"astId": 51,
						"contract": "VoteLedger.sol:VoteLedger",
						"label": "hasApproved",
						"offset": 0,
						"slot": "7",
						"type": "t_mapping(t_bytes32,t_mapping(t_address,t_bool))"
					}
				],
				"types": {
					"t_address": {
						"encoding": "inplace",
						"label": "address",
						"numberOfBytes": "20"
					},
					"t_bool": {
						"encoding": "inplace",
						"label": "bool",
						"numberOfBytes": "1"
					},
					"t_bytes32": {
						"encoding": "inplace",
						"label": "bytes32",
						"numberOfBytes": "32"
					},
					"t_mapping(t_address,t_bool)": {
						"encoding": "mapping",
						"key": "t_address",
						"label": "mapping(address => bool)",
						"numberOfBytes": "32",
						"value": "t_bool"
					},
					"t_mapping(t_bytes32,t_mapping(t_address,t_bool))": {
						"encoding": "mapping",
						"key": "t_bytes32",
						"label": "mapping(bytes32 => mapping(address => bool))",
						"numberOfBytes": "32",
						"value": "t_mapping(t_address,t_bool)"
					},
					"t_mapping(t_bytes32,t_struct(Proposal)40_storage)": {
						"encoding": "mapping",
						"key": "t_bytes32",
						"label": "mapping(bytes32 => struct VoteLedger.Proposal)",
						"numberOfBytes": "32",
						"value": "t_struct(Proposal)40_storage"
					},
					"t_mapping(t_uint256,t_struct(BlockHeader)17_storage)": {
						"encoding": "mapping",
						"key": "t_uint256",
						"label": "mapping(uint256 => struct VoteLedger.BlockHeader)",
						"numberOfBytes": "32",
						"value": "t_struct(BlockHeader)17_storage"
					},
					"t_struct(BlockHeader)17_storage": {
						"encoding": "inplace",
						"label": "struct VoteLedger.BlockHeader",
						"members": [
							{
								"astId": 8,
								"contract": "VoteLedger.sol:VoteLedger",
								"label": "height",
								"offset": 0,
								"slot": "0",
								"type": "t_uint256"
							},
							{
								"astId": 10,
								"contract": "VoteLedger.sol:VoteLedger",
								"label": "prevHash",
								"offset": 0,
								"slot": "1",
								"type": "t_bytes32"
							},
							{
								"astId": 12,
								"contract": "VoteLedger.sol:VoteLedger",
								"label": "merkleRoot",
								"offset": 0,
								"slot": "2",
								"type": "t_bytes32"
							},
							{
								"astId": 14,
								"contract": "VoteLedger.sol:VoteLedger",
								"label": "blockHash",
								"offset": 0,
								"slot": "3",
								"type": "t_bytes32"
							},
							{
								"astId": 16,
								"contract": "VoteLedger.sol:VoteLedger",
								"label": "timestamp",
								"offset": 0,
								"slot": "4",
								"type": "t_uint256"
							}
						],
						"numberOfBytes": "160"
					},
					"t_struct(Proposal)40_storage": {
						"encoding": "inplace",
						"label": "struct VoteLedger.Proposal",
						"members": [
							{
								"astId": 33,
								"contract": "VoteLedger.sol:VoteLedger",
								"label": "header",
								"offset": 0,
								"slot": "0",
								"type": "t_struct(BlockHeader)17_storage"
							},
							{
								"astId": 35,
								"contract": "VoteLedger.sol:VoteLedger",
								"label": "approvals",
								"offset": 0,
								"slot": "5",
								"type": "t_uint256"
							},
							{
								"astId": 37,
								"contract": "VoteLedger.sol:VoteLedger",
								"label": "exists",
								"offset": 0,
								"slot": "6",
								"type": "t_bool"
							},
							{
								"astId": 39,
								"contract": "VoteLedger.sol:VoteLedger",
								"label": "finalized",
								"offset": 1,
								"slot": "6",
								"type": "t_bool"
							}
						],
						"numberOfBytes": "224"
					},
					"t_uint256": {
						"encoding": "inplace",
						"label": "uint256",
						"numberOfBytes": "32"
					}
				}
			},
			"userdoc": {
				"kind": "user",
				"methods": {},
				"notice": "EPIC 3: Immutable Vote Ledger (header anchoring) - Permissioned writers - Append-only blocks - Hash-linked blocks (prevHash) - Optional write-quorum (propose/approve/finalize)",
				"version": 1
			}
		}
	}
}