{
	"data": {
		"bytecode": {
			"linkReferences": {},
			"object": "608060405234801561000f575f5ffd5b50604051611ecc380380611ecc8339818101604052810190610031919061017a565b335f5f6101000a81548173ffffffffffffffffffffffffffffffffffffffff021916908373ffffffffffffffffffffffffffffffffffffffff16021790555080600181905550600160025f3373ffffffffffffffffffffffffffffffffffffffff1673ffffffffffffffffffffffffffffffffffffffff1681526020019081526020015f205f6101000a81548160ff0219169083151502179055507f2594c7e2dc67dba873b8fcc63bc8a5ee2c8b37fa772f132594cfc90bb82e0fe93360016040516100fe9291906101fe565b60405180910390a17ff18f88786aae85a652aadb99a82462616489a33370c9bcc7b245906812ef7cd1816040516101359190610234565b60405180910390a15061024d565b5f5ffd5b5f819050919050565b61015981610147565b8114610163575f5ffd5b50565b5f8151905061017481610150565b92915050565b5f6020828403121561018f5761018e610143565b5b5f61019c84828501610166565b91505092915050565b5f73ffffffffffffffffffffffffffffffffffffffff82169050919050565b5f6101ce826101a5565b9050919050565b6101de816101c4565b82525050565b5f8115159050919050565b6101f8816101e4565b82525050565b5f6040820190506102115f8301856101d5565b61021e60208301846101ef565b9392505050565b61022e81610147565b82525050565b5f6020820190506102475f830184610225565b92915050565b611c728061025a5f395ff3fe608060405234801561000f575f5ffd5b5060043610610114575f3560e01c80638f4f5ddd116100a0578063dc791cc91161006f578063dc791cc914610354578063dfb42fd114610384578063f04e4ca3146103b9578063f59e292e146103d5578063f851a440146103f157610114565b80638f4f5ddd146102a3578063c1ba4e59146102d3578063cf2b1531146102ef578063d623be161461032457610114565b80633e534788116100e75780633e534788146101c657806341addb7b146101f65780635af2f43114610212578063764addb0146102425780638b104b441461027357610114565b806301750152146101185780631703a018146101485780631dc4bd6c1461016657806334ef78ef14610196575b5f5ffd5b610132600480360381019061012d9190611231565b61040f565b60405161013f9190611276565b60405180910390f35b61015061042c565b60405161015d91906112a7565b60405180910390f35b610180600480360381019061017b919061131d565b610432565b60405161018d91906113f2565b60405180910390f35b6101b060048036038101906101ab919061140b565b6104a8565b6040516101bd9190611491565b60405180910390f35b6101e060048036038101906101db91906114aa565b61079e565b6040516101ed91906112a7565b60405180910390f35b610210600480360381019061020b9190611512565b6107be565b005b61022c60048036038101906102279190611550565b6108dd565b60405161023991906112a7565b60405180910390f35b61025c60048036038101906102579190611550565b6108f2565b60405161026a92919061157b565b60405180910390f35b61028d60048036038101906102889190611550565b610921565b60405161029a9190611491565b60405180910390f35b6102bd60048036038101906102b891906115a2565b610936565b6040516102ca9190611276565b60405180910390f35b6102ed60048036038101906102e891906115f2565b61096b565b005b6103096004803603810190610304919061131d565b610a7e565b60405161031b9695949392919061161d565b60405180910390f35b61033e600480360381019061033991906114aa565b610ac1565b60405161034b9190611276565b60405180910390f35b61036e600480360381019061036991906114aa565b610aeb565b60405161037b9190611276565b60405180910390f35b61039e600480360381019061039991906114aa565b610b15565b6040516103b09695949392919061161d565b60405180910390f35b6103d360048036038101906103ce91906114aa565b610b58565b005b6103ef60048036038101906103ea91906114aa565b610e97565b005b6103f9611007565b604051610406919061168b565b60405180910390f35b6002602052805f5260405f205f915054906101000a900460ff1681565b60015481565b61043a6111a3565b60035f8481526020019081526020015f205f8381526020019081526020015f206040518060c00160405290815f820154815260200160018201548152602001600282015481526020016003820154815260200160048201548152602001600582015481525050905092915050565b5f60025f3373ffffffffffffffffffffffffffffffffffffffff1673ffffffffffffffffffffffffffffffffffffffff1681526020019081526020015f205f9054906101000a900460ff16610532576040517f08c379a0000000000000000000000000000000000000000000000000000000008152600401610529906116fe565b60405180910390fd5b600160045f8881526020019081526020015f20546105509190611749565b8514610591576040517f08c379a0000000000000000000000000000000000000000000000000000000008152600401610588906117c6565b60405180910390fd5b60055f8781526020019081526020015f205484146105e4576040517f08c379a00000000000000000000000000000000000000000000000000000000081526004016105db9061182e565b60405180910390fd5b5f86868686866040516020016105fe95949392919061188c565b60405160208183030381529060405280519060200120905060095f8881526020019081526020015f205f8281526020019081526020015f205f9054906101000a900460ff1615610683576040517f08c379a000000000000000000000000000000000000000000000000000000000815260040161067a90611934565b60405180910390fd5b5f6040518060c001604052808881526020018781526020018681526020018581526020018381526020014281525090508060085f8a81526020019081526020015f205f8481526020019081526020015f205f820151815f01556020820151816001015560408201518160020155606082015181600301556080820151816004015560a08201518160050155905050600160095f8a81526020019081526020015f205f8481526020019081526020015f205f6101000a81548160ff0219169083151502179055507f51d7cc0ea5b00d3c1c1eff0d06862630b4ca2795e9d1be3ccca63c417b48086d8883898860405161077e9493929190611952565b60405180910390a1610790888361102b565b819250505095945050505050565b6006602052815f5260405f20602052805f5260405f205f91509150505481565b5f5f9054906101000a900473ffffffffffffffffffffffffffffffffffffffff1673ffffffffffffffffffffffffffffffffffffffff163373ffffffffffffffffffffffffffffffffffffffff161461084c576040517f08c379a0000000000000000000000000000000000000000000000000000000008152600401610843906119df565b60405180910390fd5b8060025f8473ffffffffffffffffffffffffffffffffffffffff1673ffffffffffffffffffffffffffffffffffffffff1681526020019081526020015f205f6101000a81548160ff0219169083151502179055507f2594c7e2dc67dba873b8fcc63bc8a5ee2c8b37fa772f132594cfc90bb82e0fe982826040516108d19291906119fd565b60405180910390a15050565b6004602052805f5260405f205f915090505481565b5f5f60045f8481526020019081526020015f205460055f8581526020019081526020015f205491509150915091565b6005602052805f5260405f205f915090505481565b6007602052825f5260405f20602052815f5260405f20602052805f5260405f205f92509250509054906101000a900460ff1681565b5f5f9054906101000a900473ffffffffffffffffffffffffffffffffffffffff1673ffffffffffffffffffffffffffffffffffffffff163373ffffffffffffffffffffffffffffffffffffffff16146109f9576040517f08c379a00000000000000000000000000000000000000000000000000000000081526004016109f0906119df565b60405180910390fd5b6001811015610a3d576040517f08c379a0000000000000000000000000000000000000000000000000000000008152600401610a3490611a6e565b60405180910390fd5b806001819055507ff18f88786aae85a652aadb99a82462616489a33370c9bcc7b245906812ef7cd181604051610a7391906112a7565b60405180910390a150565b6003602052815f5260405f20602052805f5260405f205f9150915050805f0154908060010154908060020154908060030154908060040154908060050154905086565b600a602052815f5260405f20602052805f5260405f205f915091509054906101000a900460ff1681565b6009602052815f5260405f20602052805f5260405f205f915091509054906101000a900460ff1681565b6008602052815f5260405f20602052805f5260405f205f9150915050805f0154908060010154908060020154908060030154908060040154908060050154905086565b60025f3373ffffffffffffffffffffffffffffffffffffffff1673ffffffffffffffffffffffffffffffffffffffff1681526020019081526020015f205f9054906101000a900460ff16610be1576040517f08c379a0000000000000000000000000000000000000000000000000000000008152600401610bd8906116fe565b60405180910390fd5b60095f8381526020019081526020015f205f8281526020019081526020015f205f9054906101000a900460ff16610c4d576040517f08c379a0000000000000000000000000000000000000000000000000000000008152600401610c4490611ad6565b60405180910390fd5b600a5f8381526020019081526020015f205f8281526020019081526020015f205f9054906101000a900460ff1615610cba576040517f08c379a0000000000000000000000000000000000000000000000000000000008152600401610cb190611b3e565b60405180910390fd5b60015460065f8481526020019081526020015f205f8381526020019081526020015f20541015610d1f576040517f08c379a0000000000000000000000000000000000000000000000000000000008152600401610d1690611ba6565b60405180910390fd5b5f60085f8481526020019081526020015f205f8381526020019081526020015f206040518060c00160405290815f82015481526020016001820154815260200160028201548152602001600382015481526020016004820154815260200160058201548152505090508060035f8581526020019081526020015f205f835f015181526020019081526020015f205f820151815f01556020820151816001015560408201518160020155606082015181600301556080820151816004015560a08201518160050155905050805f015160045f8581526020019081526020015f2081905550806080015160055f8581526020019081526020015f20819055506001600a5f8581526020019081526020015f205f8481526020019081526020015f205f6101000a81548160ff0219169083151502179055507fe87ca8b6e4c0c3d2c47e459bfe4ae13698ba00331ec65fd1088451c80e3a39e78383835f0151604051610e8a93929190611bc4565b60405180910390a1505050565b60025f3373ffffffffffffffffffffffffffffffffffffffff1673ffffffffffffffffffffffffffffffffffffffff1681526020019081526020015f205f9054906101000a900460ff16610f20576040517f08c379a0000000000000000000000000000000000000000000000000000000008152600401610f17906116fe565b60405180910390fd5b60095f8381526020019081526020015f205f8281526020019081526020015f205f9054906101000a900460ff16610f8c576040517f08c379a0000000000000000000000000000000000000000000000000000000008152600401610f8390611ad6565b60405180910390fd5b600a5f8381526020019081526020015f205f8281526020019081526020015f205f9054906101000a900460ff1615610ff9576040517f08c379a0000000000000000000000000000000000000000000000000000000008152600401610ff090611b3e565b60405180910390fd5b611003828261102b565b5050565b5f5f9054906101000a900473ffffffffffffffffffffffffffffffffffffffff1681565b60075f8381526020019081526020015f205f8281526020019081526020015f205f3373ffffffffffffffffffffffffffffffffffffffff1673ffffffffffffffffffffffffffffffffffffffff1681526020019081526020015f205f9054906101000a900460ff1661119f57600160075f8481526020019081526020015f205f8381526020019081526020015f205f3373ffffffffffffffffffffffffffffffffffffffff1673ffffffffffffffffffffffffffffffffffffffff1681526020019081526020015f205f6101000a81548160ff021916908315150217905550600160065f8481526020019081526020015f205f8381526020019081526020015f205f82825461113a9190611749565b925050819055507f0f79f4badf9148332d9b98dbcb97180529bdaa7c60cbff0ed66f78c43cf1555f82823360065f8781526020019081526020015f205f8681526020019081526020015f20546040516111969493929190611bf9565b60405180910390a15b5050565b6040518060c001604052805f81526020015f81526020015f81526020015f81526020015f81526020015f81525090565b5f5ffd5b5f73ffffffffffffffffffffffffffffffffffffffff82169050919050565b5f611200826111d7565b9050919050565b611210816111f6565b811461121a575f5ffd5b50565b5f8135905061122b81611207565b92915050565b5f60208284031215611246576112456111d3565b5b5f6112538482850161121d565b91505092915050565b5f8115159050919050565b6112708161125c565b82525050565b5f6020820190506112895f830184611267565b92915050565b5f819050919050565b6112a18161128f565b82525050565b5f6020820190506112ba5f830184611298565b92915050565b5f819050919050565b6112d2816112c0565b81146112dc575f5ffd5b50565b5f813590506112ed816112c9565b92915050565b6112fc8161128f565b8114611306575f5ffd5b50565b5f81359050611317816112f3565b92915050565b5f5f60408385031215611333576113326111d3565b5b5f611340858286016112df565b925050602061135185828601611309565b9150509250929050565b6113648161128f565b82525050565b611373816112c0565b82525050565b60c082015f82015161138d5f85018261135b565b5060208201516113a0602085018261136a565b5060408201516113b3604085018261136a565b5060608201516113c6606085018261135b565b5060808201516113d9608085018261136a565b5060a08201516113ec60a085018261135b565b50505050565b5f60c0820190506114055f830184611379565b92915050565b5f5f5f5f5f60a08688031215611424576114236111d3565b5b5f611431888289016112df565b955050602061144288828901611309565b9450506040611453888289016112df565b9350506060611464888289016112df565b925050608061147588828901611309565b9150509295509295909350565b61148b816112c0565b82525050565b5f6020820190506114a45f830184611482565b92915050565b5f5f604083850312156114c0576114bf6111d3565b5b5f6114cd858286016112df565b92505060206114de858286016112df565b9150509250929050565b6114f18161125c565b81146114fb575f5ffd5b50565b5f8135905061150c816114e8565b92915050565b5f5f60408385031215611528576115276111d3565b5b5f6115358582860161121d565b9250506020611546858286016114fe565b9150509250929050565b5f60208284031215611565576115646111d3565b5b5f611572848285016112df565b91505092915050565b5f60408201905061158e5f830185611298565b61159b6020830184611482565b9392505050565b5f5f5f606084860312156115b9576115b86111d3565b5b5f6115c6868287016112df565b93505060206115d7868287016112df565b92505060406115e88682870161121d565b9150509250925092565b5f60208284031215611607576116066111d3565b5b5f61161484828501611309565b91505092915050565b5f60c0820190506116305f830189611298565b61163d6020830188611482565b61164a6040830187611482565b6116576060830186611298565b6116646080830185611482565b61167160a0830184611298565b979650505050505050565b611685816111f6565b82525050565b5f60208201905061169e5f83018461167c565b92915050565b5f82825260208201905092915050565b7f4e6f7420617574686f72697a6564206e6f6465000000000000000000000000005f82015250565b5f6116e86013836116a4565b91506116f3826116b4565b602082019050919050565b5f6020820190508181035f830152611715816116dc565b9050919050565b7f4e487b71000000000000000000000000000000000000000000000000000000005f52601160045260245ffd5b5f6117538261128f565b915061175e8361128f565b92508282019050808211156117765761177561171c565b5b92915050565b7f42616420686569676874000000000000000000000000000000000000000000005f82015250565b5f6117b0600a836116a4565b91506117bb8261177c565b602082019050919050565b5f6020820190508181035f8301526117dd816117a4565b9050919050565b7f42616420707265762068617368000000000000000000000000000000000000005f82015250565b5f611818600d836116a4565b9150611823826117e4565b602082019050919050565b5f6020820190508181035f8301526118458161180c565b9050919050565b5f819050919050565b611866611861826112c0565b61184c565b82525050565b5f819050919050565b6118866118818261128f565b61186c565b82525050565b5f6118978288611855565b6020820191506118a78287611875565b6020820191506118b78286611855565b6020820191506118c78285611855565b6020820191506118d78284611875565b6020820191508190509695505050505050565b7f416c72656164792070726f706f736564000000000000000000000000000000005f82015250565b5f61191e6010836116a4565b9150611929826118ea565b602082019050919050565b5f6020820190508181035f83015261194b81611912565b9050919050565b5f6080820190506119655f830187611482565b6119726020830186611482565b61197f6040830185611298565b61198c6060830184611482565b95945050505050565b7f4e6f742061646d696e00000000000000000000000000000000000000000000005f82015250565b5f6119c96009836116a4565b91506119d482611995565b602082019050919050565b5f6020820190508181035f8301526119f6816119bd565b9050919050565b5f604082019050611a105f83018561167c565b611a1d6020830184611267565b9392505050565b7f71756f72756d20746f6f206c6f770000000000000000000000000000000000005f82015250565b5f611a58600e836116a4565b9150611a6382611a24565b602082019050919050565b5f6020820190508181035f830152611a8581611a4c565b9050919050565b7f4e6f20737563682070726f706f73616c000000000000000000000000000000005f82015250565b5f611ac06010836116a4565b9150611acb82611a8c565b602082019050919050565b5f6020820190508181035f830152611aed81611ab4565b9050919050565b7f416c72656164792066696e616c697a65640000000000000000000000000000005f82015250565b5f611b286011836116a4565b9150611b3382611af4565b602082019050919050565b5f6020820190508181035f830152611b5581611b1c565b9050919050565b7f4e6f7420656e6f75676820617070726f76616c730000000000000000000000005f82015250565b5f611b906014836116a4565b9150611b9b82611b5c565b602082019050919050565b5f6020820190508181035f830152611bbd81611b84565b9050919050565b5f606082019050611bd75f830186611482565b611be46020830185611482565b611bf16040830184611298565b949350505050565b5f608082019050611c0c5f830187611482565b611c196020830186611482565b611c26604083018561167c565b611c336060830184611298565b9594505050505056fea264697066735822122025cd83e4741a3e43efe38b83659661d1424dc0ce197c898feda031437dfd066964736f6c634300081e0033",
			"opcodes": "PUSH1 0x80 PUSH1 0x40 MSTORE CALLVALUE DUP1 ISZERO PUSH2 0xF JUMPI PUSH0 PUSH0 REVERT JUMPDEST POP PUSH1 0x40 MLOAD PUSH2 0x1ECC CODESIZE SUB DUP1 PUSH2 0x1ECC DUP4 CODECOPY DUP2 DUP2 ADD PUSH1 0x40 MSTORE DUP2 ADD SWAP1 PUSH2 0x31 SWAP2 SWAP1 PUSH2 0x17A JUMP JUMPDEST CALLER PUSH0 PUSH0 PUSH2 0x100 EXP DUP2 SLOAD DUP2 PUSH20 0xFFFFFFFFFFFFFFFFFFFFFFFFFFFFFFFFFFFFFFFF MUL NOT AND SWAP1 DUP4 PUSH20 0xFFFFFFFFFFFFFFFFFFFFFFFFFFFFFFFFFFFFFFFF AND MUL OR SWAP1 SSTORE POP DUP1 PUSH1 0x1 DUP2 SWAP1 SSTORE POP PUSH1 0x1 PUSH1 0x2 PUSH0 CALLER PUSH20 0xFFFFFFFFFFFFFFFFFFFFFFFFFFFFFFFFFFFFFFFF AND PUSH20 0xFFFFFFFFFFFFFFFFFFFFFFFFFFFFFFFFFFFFFFFF AND DUP2 MSTORE PUSH1 0x20 ADD SWAP1 DUP2 MSTORE PUSH1 0x20 ADD PUSH0 KECCAK256 PUSH0 PUSH2 0x100 EXP DUP2 SLOAD DUP2 PUSH1 0xFF MUL NOT AND SWAP1 DUP4 ISZERO ISZERO MUL OR SWAP1 SSTORE POP PUSH32 0x2594C7E2DC67DBA873B8FCC63BC8A5EE2C8B37FA772F132594CFC90BB82E0FE9 CALLER PUSH1 0x1 PUSH1 0x40 MLOAD PUSH2 0xFE SWAP3 SWAP2 SWAP1 PUSH2 0x1FE JUMP JUMPDEST PUSH1 0x40 MLOAD DUP1 SWAP2 SUB SWAP1 LOG1 PUSH32 0xF18F88786AAE85A652AADB99A82462616489A33370C9BCC7B245906812EF7CD1 DUP2 PUSH1 0x40 MLOAD PUSH2 0x135 SWAP2 SWAP1 PUSH2 0x234 JUMP JUMPDEST PUSH1 0x40 MLOAD DUP1 SWAP2 SUB SWAP1 LOG1 POP PUSH2 0x24D JUMP JUMPDEST PUSH0 PUSH0 REVERT JUMPDEST PUSH0 DUP2 SWAP1 POP SWAP2 SWAP1 POP JUMP JUMPDEST PUSH2 0x159 DUP2 PUSH2 0x147 JUMP JUMPDEST DUP2 EQ PUSH2 0x163 JUMPI PUSH0 PUSH0 REVERT JUMPDEST POP JUMP JUMPDEST PUSH0 DUP2 MLOAD SWAP1 POP PUSH2 0x174 DUP2 PUSH2 0x150 JUMP JUMPDEST SWAP3 SWAP2 POP POP JUMP JUMPDEST PUSH0 PUSH1 0x20 DUP3 DUP5 SUB SLT ISZERO PUSH2 0x18F JUMPI PUSH2 0x18E PUSH2 0x143 JUMP JUMPDEST JUMPDEST PUSH0 PUSH2 0x19C DUP5 DUP3 DUP6 ADD PUSH2 0x166 JUMP JUMPDEST SWAP2 POP POP SWAP3 SWAP2 POP POP JUMP JUMPDEST PUSH0 PUSH20 0xFFFFFFFFFFFFFFFFFFFFFFFFFFFFFFFFFFFFFFFF DUP3 AND SWAP1 POP SWAP2 SWAP1 POP JUMP JUMPDEST PUSH0 PUSH2 0x1CE DUP3 PUSH2 0x1A5 JUMP JUMPDEST SWAP1 POP SWAP2 SWAP1 POP JUMP JUMPDEST PUSH2 0x1DE DUP2 PUSH2 0x1C4 JUMP JUMPDEST DUP3 MSTORE POP POP JUMP JUMPDEST PUSH0 DUP2 ISZERO ISZERO SWAP1 POP SWAP2 SWAP1 POP JUMP JUMPDEST PUSH2 0x1F8 DUP2 PUSH2 0x1E4 JUMP JUMPDEST DUP3 MSTORE POP POP JUMP JUMPDEST PUSH0 PUSH1 0x40 DUP3 ADD SWAP1 POP PUSH2 0x211 PUSH0 DUP4 ADD DUP6 PUSH2 0x1D5 JUMP JUMPDEST PUSH2 0x21E PUSH1 0x20 DUP4 ADD DUP5 PUSH2 0x1EF JUMP JUMPDEST SWAP4 SWAP3 POP POP POP JUMP JUMPDEST PUSH2 0x22E DUP2 PUSH2 0x147 JUMP JUMPDEST DUP3 MSTORE POP POP JUMP JUMPDEST PUSH0 PUSH1 0x20 DUP3 ADD SWAP1 POP PUSH2 0x247 PUSH0 DUP4 ADD DUP5 PUSH2 0x225 JUMP JUMPDEST SWAP3 SWAP2 POP POP JUMP JUMPDEST PUSH2 0x1C72 DUP1 PUSH2 0x25A PUSH0 CODECOPY PUSH0 RETURN INVALID PUSH1 0x80 PUSH1 0x40 MSTORE CALLVALUE DUP1 ISZERO PUSH2 0xF JUMPI PUSH0 PUSH0 REVERT JUMPDEST POP PUSH1 0x4 CALLDATASIZE LT PUSH2 0x114 JUMPI PUSH0 CALLDATALOAD PUSH1 0xE0 SHR DUP1 PUSH4 0x8F4F5DDD GT PUSH2 0xA0 JUMPI DUP1 PUSH4 0xDC791CC9 GT PUSH2 0x6F JUMPI DUP1 PUSH4 0xDC791CC9 EQ PUSH2 0x354 JUMPI DUP1 PUSH4 0xDFB42FD1 EQ PUSH2 0x384 JUMPI DUP1 PUSH4 0xF04E4CA3 EQ PUSH2 0x3B9 JUMPI DUP1 PUSH4 0xF59E292E EQ PUSH2 0x3D5 JUMPI DUP1 PUSH4 0xF851A440 EQ PUSH2 0x3F1 JUMPI PUSH2 0x114 JUMP JUMPDEST DUP1 PUSH4 0x8F4F5DDD EQ PUSH2 0x2A3 JUMPI DUP1 PUSH4 0xC1BA4E59 EQ PUSH2 0x2D3 JUMPI DUP1 PUSH4 0xCF2B1531 EQ PUSH2 0x2EF JUMPI DUP1 PUSH4 0xD623BE16 EQ PUSH2 0x324 JUMPI PUSH2 0x114 JUMP JUMPDEST DUP1 PUSH4 0x3E534788 GT PUSH2 0xE7 JUMPI DUP1 PUSH4 0x3E534788 EQ PUSH2 0x1C6 JUMPI DUP1 PUSH4 0x41ADDB7B EQ PUSH2 0x1F6 JUMPI DUP1 PUSH4 0x5AF2F431 EQ PUSH2 0x212 JUMPI DUP1 PUSH4 0x764ADDB0 EQ PUSH2 0x242 JUMPI DUP1 PUSH4 0x8B104B44 EQ PUSH2 0x273 JUMPI PUSH2 0x114 JUMP JUMPDEST DUP1 PUSH4 0x1750152 EQ PUSH2 0x118 JUMPI DUP1 PUSH4 0x1703A018 EQ PUSH2 0x148 JUMPI DUP1 PUSH4 0x1DC4BD6C EQ PUSH2 0x166 JUMPI DUP1 PUSH4 0x34EF78EF EQ PUSH2 0x196 JUMPI JUMPDEST PUSH0 PUSH0 REVERT JUMPDEST PUSH2 0x132 PUSH1 0x4 DUP1 CALLDATASIZE SUB DUP2 ADD SWAP1 PUSH2 0x12D SWAP2 SWAP1 PUSH2 0x1231 JUMP JUMPDEST PUSH2 0x40F JUMP JUMPDEST PUSH1 0x40 MLOAD PUSH2 0x13F SWAP2 SWAP1 PUSH2 0x1276 JUMP JUMPDEST PUSH1 0x40 MLOAD DUP1 SWAP2 SUB SWAP1 RETURN JUMPDEST PUSH2 0x150 PUSH2 0x42C JUMP JUMPDEST PUSH1 0x40 MLOAD PUSH2 0x15D SWAP2 SWAP1 PUSH2 0x12A7 JUMP JUMPDEST PUSH1 0x40 MLOAD DUP1 SWAP2 SUB SWAP1 RETURN JUMPDEST PUSH2 0x180 PUSH1 0x4 DUP1 CALLDATASIZE SUB DUP2 ADD SWAP1 PUSH2 0x17B SWAP2 SWAP1 PUSH2 0x131D JUMP JUMPDEST PUSH2 0x432 JUMP JUMPDEST PUSH1 0x40 MLOAD PUSH2 0x18D SWAP2 SWAP1 PUSH2 0x13F2 JUMP JUMPDEST PUSH1 0x40 MLOAD DUP1 SWAP2 SUB SWAP1 RETURN JUMPDEST PUSH2 0x1B0 PUSH1 0x4 DUP1 CALLDATASIZE SUB DUP2 ADD SWAP1 PUSH2 0x1AB SWAP2 SWAP1 PUSH2 0x140B JUMP JUMPDEST PUSH2 0x4A8 JUMP JUMPDEST PUSH1 0x40 MLOAD PUSH2 0x1BD SWAP2 SWAP1 PUSH2 0x1491 JUMP JUMPDEST PUSH1 0x40 MLOAD DUP1 SWAP2 SUB SWAP1 RETURN JUMPDEST PUSH2 0x1E0 PUSH1 0x4 DUP1 CALLDATASIZE SUB DUP2 ADD SWAP1 PUSH2 0x1DB SWAP2 SWAP1 PUSH2 0x14AA JUMP JUMPDEST PUSH2 0x79E JUMP JUMPDEST PUSH1 0x40 MLOAD PUSH2 0x1ED SWAP2 SWAP1 PUSH2 0x12A7 JUMP JUMPDEST PUSH1 0x40 MLOAD DUP1 SWAP2 SUB SWAP1 RETURN JUMPDEST PUSH2 0x210 PUSH1 0x4 DUP1 CALLDATASIZE SUB DUP2 ADD SWAP1 PUSH2 0x20B SWAP2 SWAP1 PUSH2 0x1512 JUMP JUMPDEST PUSH2 0x7BE JUMP JUMPDEST STOP JUMPDEST PUSH2 0x22C PUSH1 0x4 DUP1 CALLDATASIZE SUB DUP2 ADD SWAP1 PUSH2 0x227 SWAP2 SWAP1 PUSH2 0x1550 JUMP JUMPDEST PUSH2 0x8DD JUMP JUMPDEST PUSH1 0x40 MLOAD PUSH2 0x239 SWAP2 SWAP1 PUSH2 0x12A7 JUMP JUMPDEST PUSH1 0x40 MLOAD DUP1 SWAP2 SUB SWAP1 RETURN JUMPDEST PUSH2 0x25C PUSH1 0x4 DUP1 CALLDATASIZE SUB DUP2 ADD SWAP1 PUSH2 0x257 SWAP2 SWAP1 PUSH2 0x1550 JUMP JUMPDEST PUSH2 0x8F2 JUMP JUMPDEST PUSH1 0x40 MLOAD PUSH2 0x26A SWAP3 SWAP2 SWAP1 PUSH2 0x157B JUMP JUMPDEST PUSH1 0x40 MLOAD DUP1 SWAP2 SUB SWAP1 RETURN JUMPDEST PUSH2 0x28D PUSH1 0x4 DUP1 CALLDATASIZE SUB DUP2 ADD SWAP1 PUSH2 0x288 SWAP2 SWAP1 PUSH2 0x1550 JUMP JUMPDEST PUSH2 0x921 JUMP JUMPDEST PUSH1 0x40 MLOAD PUSH2 0x29A SWAP2 SWAP1 PUSH2 0x1491 JUMP JUMPDEST PUSH1 0x40 MLOAD DUP1 SWAP2 SUB SWAP1 RETURN JUMPDEST PUSH2 0x2BD PUSH1 0x4 DUP1 CALLDATASIZE SUB DUP2 ADD SWAP1 PUSH2 0x2B8 SWAP2 SWAP1 PUSH2 0x15A2 JUMP JUMPDEST PUSH2 0x936 JUMP JUMPDEST PUSH1 0x40 MLOAD PUSH2 0x2CA SWAP2 SWAP1 PUSH2 0x1276 JUMP JUMPDEST PUSH1 0x40 MLOAD DUP1 SWAP2 SUB SWAP1 RETURN JUMPDEST PUSH2 0x2ED PUSH1 0x4 DUP1 CALLDATASIZE SUB DUP2 ADD SWAP1 PUSH2 0x2E8 SWAP2 SWAP1 PUSH2 0x15F2 JUMP JUMPDEST PUSH2 0x96B JUMP JUMPDEST STOP JUMPDEST PUSH2 0x309 PUSH1 0x4 DUP1 CALLDATASIZE SUB DUP2 ADD SWAP1 PUSH2 0x304 SWAP2 SWAP1 PUSH2 0x131D JUMP JUMPDEST PUSH2 0xA7E JUMP JUMPDEST PUSH1 0x40 MLOAD PUSH2 0x31B SWAP7 SWAP6 SWAP5 SWAP4 SWAP3 SWAP2 SWAP1 PUSH2 0x161D JUMP JUMPDEST PUSH1 0x40 MLOAD DUP1 SWAP2 SUB SWAP1 RETURN JUMPDEST PUSH2 0x33E PUSH1 0x4 DUP1 CALLDATASIZE SUB DUP2 ADD SWAP1 PUSH2 0x339 SWAP2 SWAP1 PUSH2 0x14AA JUMP JUMPDEST PUSH2 0xAC1 JUMP JUMPDEST PUSH1 0x40 MLOAD PUSH2 0x34B SWAP2 SWAP1 PUSH2 0x1276 JUMP JUMPDEST PUSH1 0x40 MLOAD DUP1 SWAP2 SUB SWAP1 RETURN JUMPDEST PUSH2 0x36E PUSH1 0x4 DUP1 CALLDATASIZE SUB DUP2 ADD SWAP1 PUSH2 0x369 SWAP2 SWAP1 PUSH2 0x14AA JUMP JUMPDEST PUSH2 0xAEB JUMP JUMPDEST PUSH1 0x40 MLOAD PUSH2 0x37B SWAP2 SWAP1 PUSH2 0x1276 JUMP JUMPDEST PUSH1 0x40 MLOAD DUP1 SWAP2 SUB SWAP1 RETURN JUMPDEST PUSH2 0x39E PUSH1 0x4 DUP1 CALLDATASIZE SUB DUP2 ADD SWAP1 PUSH2 0x399 SWAP2 SWAP1 PUSH2 0x14AA JUMP JUMPDEST PUSH2 0xB15 JUMP JUMPDEST PUSH1 0x40 MLOAD PUSH2 0x3B0 SWAP7 SWAP6 SWAP5 SWAP4 SWAP3 SWAP2 SWAP1 PUSH2 0x161D JUMP JUMPDEST PUSH1 0x40 MLOAD DUP1 SWAP2 SUB SWAP1 RETURN JUMPDEST PUSH2 0x3D3 PUSH1 0x4 DUP1 CALLDATASIZE SUB DUP2 ADD SWAP1 PUSH2 0x3CE SWAP2 SWAP1 PUSH2 0x14AA JUMP JUMPDEST PUSH2 0xB58 JUMP JUMPDEST STOP JUMPDEST PUSH2 0x3EF PUSH1 0x4 DUP1 CALLDATASIZE SUB DUP2 ADD SWAP1 PUSH2 0x3EA SWAP2 SWAP1 PUSH2 0x14AA JUMP JUMPDEST PUSH2 0xE97 JUMP JUMPDEST STOP JUMPDEST PUSH2 0x3F9 PUSH2 0x1007 JUMP JUMPDEST PUSH1 0x40 MLOAD PUSH2 0x406 SWAP2 SWAP1 PUSH2 0x168B JUMP JUMPDEST PUSH1 0x40 MLOAD DUP1 SWAP2 SUB SWAP1 RETURN JUMPDEST PUSH1 0x2 PUSH1 0x20 MSTORE DUP1 PUSH0 MSTORE PUSH1 0x40 PUSH0 KECCAK256 PUSH0 SWAP2 POP SLOAD SWAP1 PUSH2 0x100 EXP SWAP1 DIV PUSH1 0xFF AND DUP2 JUMP JUMPDEST PUSH1 0x1 SLOAD DUP2 JUMP JUMPDEST PUSH2 0x43A PUSH2 0x11A3 JUMP JUMPDEST PUSH1 0x3 PUSH0 DUP5 DUP2 MSTORE PUSH1 0x20 ADD SWAP1 DUP2 MSTORE PUSH1 0x20 ADD PUSH0 KECCAK256 PUSH0 DUP4 DUP2 MSTORE PUSH1 0x20 ADD SWAP1 DUP2 MSTORE PUSH1 0x20 ADD PUSH0 KECCAK256 PUSH1 0x40 MLOAD DUP1 PUSH1 0xC0 ADD PUSH1 0x40 MSTORE SWAP1 DUP2 PUSH0 DUP3 ADD SLOAD DUP2 MSTORE PUSH1 0x20 ADD PUSH1 0x1 DUP3 ADD SLOAD DUP2 MSTORE PUSH1 0x20 ADD PUSH1 0x2 DUP3 ADD SLOAD DUP2 MSTORE PUSH1 0x20 ADD PUSH1 0x3 DUP3 ADD SLOAD DUP2 MSTORE PUSH1 0x20 ADD PUSH1 0x4 DUP3 ADD SLOAD DUP2 MSTORE PUSH1 0x20 ADD PUSH1 0x5 DUP3 ADD SLOAD DUP2 MSTORE POP POP SWAP1 POP SWAP3 SWAP2 POP POP JUMP JUMPDEST PUSH0 PUSH1 0x2 PUSH0 CALLER PUSH20 0xFFFFFFFFFFFFFFFFFFFFFFFFFFFFFFFFFFFFFFFF AND PUSH20 0xFFFFFFFFFFFFFFFFFFFFFFFFFFFFFFFFFFFFFFFF AND DUP2 MSTORE PUSH1 0x20 ADD SWAP1 DUP2 MSTORE PUSH1 0x20 ADD PUSH0 KECCAK256 PUSH0 SWAP1 SLOAD SWAP1 PUSH2 0x100 EXP SWAP1 DIV PUSH1 0xFF AND PUSH2 0x532 JUMPI PUSH1 0x40 MLOAD PUSH32 0x8C379A000000000000000000000000000000000000000000000000000000000 DUP2 MSTORE PUSH1 0x4 ADD PUSH2 0x529 SWAP1 PUSH2 0x16FE JUMP JUMPDEST PUSH1 0x40 MLOAD DUP1 SWAP2 SUB SWAP1 REVERT JUMPDEST PUSH1 0x1 PUSH1 0x4 PUSH0 DUP9 DUP2 MSTORE PUSH1 0x20 ADD SWAP1 DUP2 MSTORE PUSH1 0x20 ADD PUSH0 KECCAK256 SLOAD PUSH2 0x550 SWAP2 SWAP1 PUSH2 0x1749 JUMP JUMPDEST DUP6 EQ PUSH2 0x591 JUMPI PUSH1 0x40 MLOAD PUSH32 0x8C379A000000000000000000000000000000000000000000000000000000000 DUP2 MSTORE PUSH1 0x4 ADD PUSH2 0x588 SWAP1 PUSH2 0x17C6 JUMP JUMPDEST PUSH1 0x40 MLOAD DUP1 SWAP2 SUB SWAP1 REVERT JUMPDEST PUSH1 0x5 PUSH0 DUP8 DUP2 MSTORE PUSH1 0x20 ADD SWAP1 DUP2 MSTORE PUSH1 0x20 ADD PUSH0 KECCAK256 SLOAD DUP5 EQ PUSH2 0x5E4 JUMPI PUSH1 0x40 MLOAD PUSH32 0x8C379A000000000000000000000000000000000000000000000000000000000 DUP2 MSTORE PUSH1 0x4 ADD PUSH2 0x5DB SWAP1 PUSH2 0x182E JUMP JUMPDEST PUSH1 0x40 MLOAD DUP1 SWAP2 SUB SWAP1 REVERT JUMPDEST PUSH0 DUP7 DUP7 DUP7 DUP7 DUP7 PUSH1 0x40 MLOAD PUSH1 0x20 ADD PUSH2 0x5FE SWAP6 SWAP5 SWAP4 SWAP3 SWAP2 SWAP1 PUSH2 0x188C JUMP JUMPDEST PUSH1 0x40 MLOAD PUSH1 0x20 DUP2 DUP4 SUB SUB DUP2 MSTORE SWAP1 PUSH1 0x40 MSTORE DUP1 MLOAD SWAP1 PUSH1 0x20 ADD KECCAK256 SWAP1 POP PUSH1 0x9 PUSH0 DUP9 DUP2 MSTORE PUSH1 0x20 ADD SWAP1 DUP2 MSTORE PUSH1 0x20 ADD PUSH0 KECCAK256 PUSH0 DUP3 DUP2 MSTORE PUSH1 0x20 ADD SWAP1 DUP2 MSTORE PUSH1 0x20 ADD PUSH0 KECCAK256 PUSH0 SWAP1 SLOAD SWAP1 PUSH2 0x100 EXP SWAP1 DIV PUSH1 0xFF AND ISZERO PUSH2 0x683 JUMPI PUSH1 0x40 MLOAD PUSH32 0x8C379A000000000000000000000000000000000000000000000000000000000 DUP2 MSTORE PUSH1 0x4 ADD PUSH2 0x67A SWAP1 PUSH2 0x1934 JUMP JUMPDEST PUSH1 0x40 MLOAD DUP1 SWAP2 SUB SWAP1 REVERT JUMPDEST PUSH0 PUSH1 0x40 MLOAD DUP1 PUSH1 0xC0 ADD PUSH1 0x40 MSTORE DUP1 DUP9 DUP2 MSTORE PUSH1 0x20 ADD DUP8 DUP2 MSTORE PUSH1 0x20 ADD DUP7 DUP2 MSTORE PUSH1 0x20 ADD DUP6 DUP2 MSTORE PUSH1 0x20 ADD DUP4 DUP2 MSTORE PUSH1 0x20 ADD TIMESTAMP DUP2 MSTORE POP SWAP1 POP DUP1 PUSH1 0x8 PUSH0 DUP11 DUP2 MSTORE PUSH1 0x20 ADD SWAP1 DUP2 MSTORE PUSH1 0x20 ADD PUSH0 KECCAK256 PUSH0 DUP5 DUP2 MSTORE PUSH1 0x20 ADD SWAP1 DUP2 MSTORE PUSH1 0x20 ADD PUSH0 KECCAK256 PUSH0 DUP3 ADD MLOAD DUP2 PUSH0 ADD SSTORE PUSH1 0x20 DUP3 ADD MLOAD DUP2 PUSH1 0x1 ADD SSTORE PUSH1 0x40 DUP3 ADD MLOAD DUP2 PUSH1 0x2 ADD SSTORE PUSH1 0x60 DUP3 ADD MLOAD DUP2 PUSH1 0x3 ADD SSTORE PUSH1 0x80 DUP3 ADD MLOAD DUP2 PUSH1 0x4 ADD SSTORE PUSH1 0xA0 DUP3 ADD MLOAD DUP2 PUSH1 0x5 ADD SSTORE SWAP1 POP POP PUSH1 0x1 PUSH1 0x9 PUSH0 DUP11 DUP2 MSTORE PUSH1 0x20 ADD SWAP1 DUP2 MSTORE PUSH1 0x20 ADD PUSH0 KECCAK256 PUSH0 DUP5 DUP2 MSTORE PUSH1 0x20 ADD SWAP1 DUP2 MSTORE PUSH1 0x20 ADD PUSH0 KECCAK256 PUSH0 PUSH2 0x100 EXP DUP2 SLOAD DUP2 PUSH1 0xFF MUL NOT AND SWAP1 DUP4 ISZERO ISZERO MUL OR SWAP1 SSTORE POP PUSH32 0x51D7CC0EA5B00D3C1C1EFF0D06862630B4CA2795E9D1BE3CCCA63C417B48086D DUP9 DUP4 DUP10 DUP9 PUSH1 0x40 MLOAD PUSH2 0x77E SWAP5 SWAP4 SWAP3 SWAP2 SWAP1 PUSH2 0x1952 JUMP JUMPDEST PUSH1 0x40 MLOAD DUP1 SWAP2 SUB SWAP1 LOG1 PUSH2 0x790 DUP9 DUP4 PUSH2 0x102B JUMP JUMPDEST DUP2 SWAP3 POP POP POP SWAP6 SWAP5 POP POP POP POP POP JUMP JUMPDEST PUSH1 0x6 PUSH1 0x20 MSTORE DUP2 PUSH0 MSTORE PUSH1 0x40 PUSH0 KECCAK256 PUSH1 0x20 MSTORE DUP1 PUSH0 MSTORE PUSH1 0x40 PUSH0 KECCAK256 PUSH0 SWAP2 POP SWAP2 POP POP SLOAD DUP2 JUMP JUMPDEST PUSH0 PUSH0 SWAP1 SLOAD SWAP1 PUSH2 0x100 EXP SWAP1 DIV PUSH20 0xFFFFFFFFFFFFFFFFFFFFFFFFFFFFFFFFFFFFFFFF AND PUSH20 0xFFFFFFFFFFFFFFFFFFFFFFFFFFFFFFFFFFFFFFFF AND CALLER PUSH20 0xFFFFFFFFFFFFFFFFFFFFFFFFFFFFFFFFFFFFFFFF AND EQ PUSH2 0x84C JUMPI PUSH1 0x40 MLOAD PUSH32 0x8C379A000000000000000000000000000000000000000000000000000000000 DUP2 MSTORE PUSH1 0x4 ADD PUSH2 0x843 SWAP1 PUSH2 0x19DF JUMP JUMPDEST PUSH1 0x40 MLOAD DUP1 SWAP2 SUB SWAP1 REVERT JUMPDEST DUP1 PUSH1 0x2 PUSH0 DUP5 PUSH20 0xFFFFFFFFFFFFFFFFFFFFFFFFFFFFFFFFFFFFFFFF AND PUSH20 0xFFFFFFFFFFFFFFFFFFFFFFFFFFFFFFFFFFFFFFFF AND DUP2 MSTORE PUSH1 0x20 ADD SWAP1 DUP2 MSTORE PUSH1 0x20 ADD PUSH0 KECCAK256 PUSH0 PUSH2 0x100 EXP DUP2 SLOAD DUP2 PUSH1 0xFF MUL NOT AND SWAP1 DUP4 ISZERO ISZERO MUL OR SWAP1 SSTORE POP PUSH32 0x2594C7E2DC67DBA873B8FCC63BC8A5EE2C8B37FA772F132594CFC90BB82E0FE9 DUP3 DUP3 PUSH1 0x40 MLOAD PUSH2 0x8D1 SWAP3 SWAP2 SWAP1 PUSH2 0x19FD JUMP JUMPDEST PUSH1 0x40 MLOAD DUP1 SWAP2 SUB SWAP1 LOG1 POP POP JUMP JUMPDEST PUSH1 0x4 PUSH1 0x20 MSTORE DUP1 PUSH0 MSTORE PUSH1 0x40 PUSH0 KECCAK256 PUSH0 SWAP2 POP SWAP1 POP SLOAD DUP2 JUMP JUMPDEST PUSH0 PUSH0 PUSH1 0x4 PUSH0 DUP5 DUP2 MSTORE PUSH1 0x20 ADD SWAP1 DUP2 MSTORE PUSH1 0x20 ADD PUSH0 KECCAK256 SLOAD PUSH1 0x5 PUSH0 DUP6 DUP2 MSTORE PUSH1 0x20 ADD SWAP1 DUP2 MSTORE PUSH1 0x20 ADD PUSH0 KECCAK256 SLOAD SWAP2 POP SWAP2 POP SWAP2 POP SWAP2 JUMP JUMPDEST PUSH1 0x5 PUSH1 0x20 MSTORE DUP1 PUSH0 MSTORE PUSH1 0x40 PUSH0 KECCAK256 PUSH0 SWAP2 POP SWAP1 POP SLOAD DUP2 JUMP JUMPDEST PUSH1 0x7 PUSH1 0x20 MSTORE DUP3 PUSH0 MSTORE PUSH1 0x40 PUSH0 KECCAK256 PUSH1 0x20 MSTORE DUP2 PUSH0 MSTORE PUSH1 0x40 PUSH0 KECCAK256 PUSH1 0x20 MSTORE DUP1 PUSH0 MSTORE PUSH1 0x40 PUSH0 KECCAK256 PUSH0 SWAP3 POP SWAP3 POP POP SWAP1 SLOAD SWAP1 PUSH2 0x100 EXP SWAP1 DIV PUSH1 0xFF AND DUP2 JUMP JUMPDEST PUSH0 PUSH0 SWAP1 SLOAD SWAP1 PUSH2 0x100 EXP SWAP1 DIV PUSH20 0xFFFFFFFFFFFFFFFFFFFFFFFFFFFFFFFFFFFFFFFF AND PUSH20 0xFFFFFFFFFFFFFFFFFFFFFFFFFFFFFFFFFFFFFFFF AND CALLER PUSH20 0xFFFFFFFFFFFFFFFFFFFFFFFFFFFFFFFFFFFFFFFF AND EQ PUSH2 0x9F9 JUMPI PUSH1 0x40 MLOAD PUSH32 0x8C379A000000000000000000000000000000000000000000000000000000000 DUP2 MSTORE PUSH1 0x4 ADD PUSH2 0x9F0 SWAP1 PUSH2 0x19DF JUMP JUMPDEST PUSH1 0x40 MLOAD DUP1 SWAP2 SUB SWAP1 REVERT JUMPDEST PUSH1 0x1 DUP2 LT ISZERO PUSH2 0xA3D JUMPI PUSH1 0x40 MLOAD PUSH32 0x8C379A000000000000000000000000000000000000000000000000000000000 DUP2 MSTORE PUSH1 0x4 ADD PUSH2 0xA34 SWAP1 PUSH2 0x1A6E JUMP JUMPDEST PUSH1 0x40 MLOAD DUP1 SWAP2 SUB SWAP1 REVERT JUMPDEST DUP1 PUSH1 0x1 DUP2 SWAP1 SSTORE POP PUSH32 0xF18F88786AAE85A652AADB99A82462616489A33370C9BCC7B245906812EF7CD1 DUP2 PUSH1 0x40 MLOAD PUSH2 0xA73 SWAP2 SWAP1 PUSH2 0x12A7 JUMP JUMPDEST PUSH1 0x40 MLOAD DUP1 SWAP2 SUB SWAP1 LOG1 POP JUMP JUMPDEST PUSH1 0x3 PUSH1 0x20 MSTORE DUP2 PUSH0 MSTORE PUSH1 0x40 PUSH0 KECCAK256 PUSH1 0x20 MSTORE DUP1 PUSH0 MSTORE PUSH1 0x40 PUSH0 KECCAK256 PUSH0 SWAP2 POP SWAP2 POP POP DUP1 PUSH0 ADD SLOAD SWAP1 DUP1 PUSH1 0x1 ADD SLOAD SWAP1 DUP1 PUSH1 0x2 ADD SLOAD SWAP1 DUP1 PUSH1 0x3 ADD SLOAD SWAP1 DUP1 PUSH1 0x4 ADD SLOAD SWAP1 DUP1 PUSH1 0x5 ADD SLOAD SWAP1 POP DUP7 JUMP JUMPDEST PUSH1 0xA PUSH1 0x20 MSTORE DUP2 PUSH0 MSTORE PUSH1 0x40 PUSH0 KECCAK256 PUSH1 0x20 MSTORE DUP1 PUSH0 MSTORE PUSH1 0x40 PUSH0 KECCAK256 PUSH0 SWAP2 POP SWAP2 POP SWAP1 SLOAD SWAP1 PUSH2 0x100 EXP SWAP1 DIV PUSH1 0xFF AND DUP2 JUMP JUMPDEST PUSH1 0x9 PUSH1 0x20 MSTORE DUP2 PUSH0 MSTORE PUSH1 0x40 PUSH0 KECCAK256 PUSH1 0x20 MSTORE DUP1 PUSH0 MSTORE PUSH1 0x40 PUSH0 KECCAK256 PUSH0 SWAP2 POP SWAP2 POP SWAP1 SLOAD SWAP1 PUSH2 0x100 EXP SWAP1 DIV PUSH1 0xFF AND DUP2 JUMP JUMPDEST PUSH1 0x8 PUSH1 0x20 MSTORE DUP2 PUSH0 MSTORE PUSH1 0x40 PUSH0 KECCAK256 PUSH1 0x20 MSTORE DUP1 PUSH0 MSTORE PUSH1 0x40 PUSH0 KECCAK256 PUSH0 SWAP2 POP SWAP2 POP POP DUP1 PUSH0 ADD SLOAD SWAP1 DUP1 PUSH1 0x1 ADD SLOAD SWAP1 DUP1 PUSH1 0x2 ADD SLOAD SWAP1 DUP1 PUSH1 0x3 ADD SLOAD SWAP1 DUP1 PUSH1 0x4 ADD SLOAD SWAP1 DUP1 PUSH1 0x5 ADD SLOAD SWAP1 POP DUP7 JUMP JUMPDEST PUSH1 0x2 PUSH0 CALLER PUSH20 0xFFFFFFFFFFFFFFFFFFFFFFFFFFFFFFFFFFFFFFFF AND PUSH20 0xFFFFFFFFFFFFFFFFFFFFFFFFFFFFFFFFFFFFFFFF AND DUP2 MSTORE PUSH1 0x20 ADD SWAP1 DUP2 MSTORE PUSH1 0x20 ADD PUSH0 KECCAK256 PUSH0 SWAP1 SLOAD SWAP1 PUSH2 0x100 EXP SWAP1 DIV PUSH1 0xFF AND PUSH2 0xBE1 JUMPI PUSH1 0x40 MLOAD PUSH32 0x8C379A000000000000000000000000000000000000000000000000000000000 DUP2 MSTORE PUSH1 0x4 ADD PUSH2 0xBD8 SWAP1 PUSH2 0x16FE JUMP JUMPDEST PUSH1 0x40 MLOAD DUP1 SWAP2 SUB SWAP1 REVERT JUMPDEST PUSH1 0x9 PUSH0 DUP4 DUP2 MSTORE PUSH1 0x20 ADD SWAP1 DUP2 MSTORE PUSH1 0x20 ADD PUSH0 KECCAK256 PUSH0 DUP3 DUP2 MSTORE PUSH1 0x20 ADD SWAP1 DUP2 MSTORE PUSH1 0x20 ADD PUSH0 KECCAK256 PUSH0 SWAP1 SLOAD SWAP1 PUSH2 0x100 EXP SWAP1 DIV PUSH1 0xFF AND PUSH2 0xC4D JUMPI PUSH1 0x40 MLOAD PUSH32 0x8C379A000000000000000000000000000000000000000000000000000000000 DUP2 MSTORE PUSH1 0x4 ADD PUSH2 0xC44 SWAP1 PUSH2 0x1AD6 JUMP JUMPDEST PUSH1 0x40 MLOAD DUP1 SWAP2 SUB SWAP1 REVERT JUMPDEST PUSH1 0xA PUSH0 DUP4 DUP2 MSTORE PUSH1 0x20 ADD SWAP1 DUP2 MSTORE PUSH1 0x20 ADD PUSH0 KECCAK256 PUSH0 DUP3 DUP2 MSTORE PUSH1 0x20 ADD SWAP1 DUP2 MSTORE PUSH1 0x20 ADD PUSH0 KECCAK256 PUSH0 SWAP1 SLOAD SWAP1 PUSH2 0x100 EXP SWAP1 DIV PUSH1 0xFF AND ISZERO PUSH2 0xCBA JUMPI PUSH1 0x40 MLOAD PUSH32 0x8C379A000000000000000000000000000000000000000000000000000000000 DUP2 MSTORE PUSH1 0x4 ADD PUSH2 0xCB1 SWAP1 PUSH2 0x1B3E JUMP JUMPDEST PUSH1 0x40 MLOAD DUP1 SWAP2 SUB SWAP1 REVERT JUMPDEST PUSH1 0x1 SLOAD PUSH1 0x6 PUSH0 DUP5 DUP2 MSTORE PUSH1 0x20 ADD SWAP1 DUP2 MSTORE PUSH1 0x20 ADD PUSH0 KECCAK256 PUSH0 DUP4 DUP2 MSTORE PUSH1 0x20 ADD SWAP1 DUP2 MSTORE PUSH1 0x20 ADD PUSH0 KECCAK256 SLOAD LT ISZERO PUSH2 0xD1F JUMPI PUSH1 0x40 MLOAD PUSH32 0x8C379A000000000000000000000000000000000000000000000000000000000 DUP2 MSTORE PUSH1 0x4 ADD PUSH2 0xD16 SWAP1 PUSH2 0x1BA6 JUMP JUMPDEST PUSH1 0x40 MLOAD DUP1 SWAP2 SUB SWAP1 REVERT JUMPDEST PUSH0 PUSH1 0x8 PUSH0 DUP5 DUP2 MSTORE PUSH1 0x20 ADD SWAP1 DUP2 MSTORE PUSH1 0x20 ADD PUSH0 KECCAK256 PUSH0 DUP4 DUP2 MSTORE PUSH1 0x20 ADD SWAP1 DUP2 MSTORE PUSH1 0x20 ADD PUSH0 KECCAK256 PUSH1 0x40 MLOAD DUP1 PUSH1 0xC0 ADD PUSH1 0x40 MSTORE SWAP1 DUP2 PUSH0 DUP3 ADD SLOAD DUP2 MSTORE PUSH1 0x20 ADD PUSH1 0x1 DUP3 ADD SLOAD DUP2 MSTORE PUSH1 0x20 ADD PUSH1 0x2 DUP3 ADD SLOAD DUP2 MSTORE PUSH1 0x20 ADD PUSH1 0x3 DUP3 ADD SLOAD DUP2 MSTORE PUSH1 0x20 ADD PUSH1 0x4 DUP3 ADD SLOAD DUP2 MSTORE PUSH1 0x20 ADD PUSH1 0x5 DUP3 ADD SLOAD DUP2 MSTORE POP POP SWAP1 POP DUP1 PUSH1 0x3 PUSH0 DUP6 DUP2 MSTORE PUSH1 0x20 ADD SWAP1 DUP2 MSTORE PUSH1 0x20 ADD PUSH0 KECCAK256 PUSH0 DUP4 PUSH0 ADD MLOAD DUP2 MSTORE PUSH1 0x20 ADD SWAP1 DUP2 MSTORE PUSH1 0x20 ADD PUSH0 KECCAK256 PUSH0 DUP3 ADD MLOAD DUP2 PUSH0 ADD SSTORE PUSH1 0x20 DUP3 ADD MLOAD DUP2 PUSH1 0x1 ADD SSTORE PUSH1 0x40 DUP3 ADD MLOAD DUP2 PUSH1 0x2 ADD SSTORE PUSH1 0x60 DUP3 ADD MLOAD DUP2 PUSH1 0x3 ADD SSTORE PUSH1 0x80 DUP3 ADD MLOAD DUP2 PUSH1 0x4 ADD SSTORE PUSH1 0xA0 DUP3 ADD MLOAD DUP2 PUSH1 0x5 ADD SSTORE SWAP1 POP POP DUP1 PUSH0 ADD MLOAD PUSH1 0x4 PUSH0 DUP6 DUP2 MSTORE PUSH1 0x20 ADD SWAP1 DUP2 MSTORE PUSH1 0x20 ADD PUSH0 KECCAK256 DUP2 SWAP1 SSTORE POP DUP1 PUSH1 0x80 ADD MLOAD PUSH1 0x5 PUSH0 DUP6 DUP2 MSTORE PUSH1 0x20 ADD SWAP1 DUP2 MSTORE PUSH1 0x20 ADD PUSH0 KECCAK256 DUP2 SWAP1 SSTORE POP PUSH1 0x1 PUSH1 0xA PUSH0 DUP6 DUP2 MSTORE PUSH1 0x20 ADD SWAP1 DUP2 MSTORE PUSH1 0x20 ADD PUSH0 KECCAK256 PUSH0 DUP5 DUP2 MSTORE PUSH1 0x20 ADD SWAP1 DUP2 MSTORE PUSH1 0x20 ADD PUSH0 KECCAK256 PUSH0 PUSH2 0x100 EXP DUP2 SLOAD DUP2 PUSH1 0xFF MUL NOT AND SWAP1 DUP4 ISZERO ISZERO MUL OR SWAP1 SSTORE POP PUSH32 0xE87CA8B6E4C0C3D2C47E459BFE4AE13698BA00331EC65FD1088451C80E3A39E7 DUP4 DUP4 DUP4 PUSH0 ADD MLOAD PUSH1 0x40 MLOAD PUSH2 0xE8A SWAP4 SWAP3 SWAP2 SWAP1 PUSH2 0x1BC4 JUMP JUMPDEST PUSH1 0x40 MLOAD DUP1 SWAP2 SUB SWAP1 LOG1 POP POP POP JUMP JUMPDEST PUSH1 0x2 PUSH0 CALLER PUSH20 0xFFFFFFFFFFFFFFFFFFFFFFFFFFFFFFFFFFFFFFFF AND PUSH20 0xFFFFFFFFFFFFFFFFFFFFFFFFFFFFFFFFFFFFFFFF AND DUP2 MSTORE PUSH1 0x20 ADD SWAP1 DUP2 MSTORE PUSH1 0x20 ADD PUSH0 KECCAK256 PUSH0 SWAP1 SLOAD SWAP1 PUSH2 0x100 EXP SWAP1 DIV PUSH1 0xFF AND PUSH2 0xF20 JUMPI PUSH1 0x40 MLOAD PUSH32 0x8C379A000000000000000000000000000000000000000000000000000000000 DUP2 MSTORE PUSH1 0x4 ADD PUSH2 0xF17 SWAP1 PUSH2 0x16FE JUMP JUMPDEST PUSH1 0x40 MLOAD DUP1 SWAP2 SUB SWAP1 REVERT JUMPDEST PUSH1 0x9 PUSH0 DUP4 DUP2 MSTORE PUSH1 0x20 ADD SWAP1 DUP2 MSTORE PUSH1 0x20 ADD PUSH0 KECCAK256 PUSH0 DUP3 DUP2 MSTORE PUSH1 0x20 ADD SWAP1 DUP2 MSTORE PUSH1 0x20 ADD PUSH0 KECCAK256 PUSH0 SWAP1 SLOAD SWAP1 PUSH2 0x100 EXP SWAP1 DIV PUSH1 0xFF AND PUSH2 0xF8C JUMPI PUSH1 0x40 MLOAD PUSH32 0x8C379A000000000000000000000000000000000000000000000000000000000 DUP2 MSTORE PUSH1 0x4 ADD PUSH2 0xF83 SWAP1 PUSH2 0x1AD6 JUMP JUMPDEST PUSH1 0x40 MLOAD DUP1 SWAP2 SUB SWAP1 REVERT JUMPDEST PUSH1 0xA PUSH0 DUP4 DUP2 MSTORE PUSH1 0x20 ADD SWAP1 DUP2 MSTORE PUSH1 0x20 ADD PUSH0 KECCAK256 PUSH0 DUP3 DUP2 MSTORE PUSH1 0x20 ADD SWAP1 DUP2 MSTORE PUSH1 0x20 ADD PUSH0 KECCAK256 PUSH0 SWAP1 SLOAD SWAP1 PUSH2 0x100 EXP SWAP1 DIV PUSH1 0xFF AND ISZERO PUSH2 0xFF9 JUMPI PUSH1 0x40 MLOAD PUSH32 0x8C379A000000000000000000000000000000000000000000000000000000000 DUP2 MSTORE PUSH1 0x4 ADD PUSH2 0xFF0 SWAP1 PUSH2 0x1B3E JUMP JUMPDEST PUSH1 0x40 MLOAD DUP1 SWAP2 SUB SWAP1 REVERT JUMPDEST PUSH2 0x1003 DUP3 DUP3 PUSH2 0x102B JUMP JUMPDEST POP POP JUMP JUMPDEST PUSH0 PUSH0 SWAP1 SLOAD SWAP1 PUSH2 0x100 EXP SWAP1 DIV PUSH20 0xFFFFFFFFFFFFFFFFFFFFFFFFFFFFFFFFFFFFFFFF AND DUP2 JUMP JUMPDEST PUSH1 0x7 PUSH0 DUP4 DUP2 MSTORE PUSH1 0x20 ADD SWAP1 DUP2 MSTORE PUSH1 0x20 ADD PUSH0 KECCAK256 PUSH0 DUP3 DUP2 MSTORE PUSH1 0x20 ADD SWAP1 DUP2 MSTORE PUSH1 0x20 ADD PUSH0 KECCAK256 PUSH0 CALLER PUSH20 0xFFFFFFFFFFFFFFFFFFFFFFFFFFFFFFFFFFFFFFFF AND PUSH20 0xFFFFFFFFFFFFFFFFFFFFFFFFFFFFFFFFFFFFFFFF AND DUP2 MSTORE PUSH1 0x20 ADD SWAP1 DUP2 MSTORE PUSH1 0x20 ADD PUSH0 KECCAK256 PUSH0 SWAP1 SLOAD SWAP1 PUSH2 0x100 EXP SWAP1 DIV PUSH1 0xFF AND PUSH2 0x119F JUMPI PUSH1 0x1 PUSH1 0x7 PUSH0 DUP5 DUP2 MSTORE PUSH1 0x20 ADD SWAP1 DUP2 MSTORE PUSH1 0x20 ADD PUSH0 KECCAK256 PUSH0 DUP4 DUP2 MSTORE PUSH1 0x20 ADD SWAP1 DUP2 MSTORE PUSH1 0x20 ADD PUSH0 KECCAK256 PUSH0 CALLER PUSH20 0xFFFFFFFFFFFFFFFFFFFFFFFFFFFFFFFFFFFFFFFF AND PUSH20 0xFFFFFFFFFFFFFFFFFFFFFFFFFFFFFFFFFFFFFFFF AND DUP2 MSTORE PUSH1 0x20 ADD SWAP1 DUP2 MSTORE PUSH1 0x20 ADD PUSH0 KECCAK256 PUSH0 PUSH2 0x100 EXP DUP2 SLOAD DUP2 PUSH1 0xFF MUL NOT AND SWAP1 DUP4 ISZERO ISZERO MUL OR SWAP1 SSTORE POP PUSH1 0x1 PUSH1 0x6 PUSH0 DUP5 DUP2 MSTORE PUSH1 0x20 ADD SWAP1 DUP2 MSTORE PUSH1 0x20 ADD PUSH0 KECCAK256 PUSH0 DUP4 DUP2 MSTORE PUSH1 0x20 ADD SWAP1 DUP2 MSTORE PUSH1 0x20 ADD PUSH0 KECCAK256 PUSH0 DUP3 DUP3 SLOAD PUSH2 0x113A SWAP2 SWAP1 PUSH2 0x1749 JUMP JUMPDEST SWAP3 POP POP DUP2 SWAP1 SSTORE POP PUSH32 0xF79F4BADF9148332D9B98DBCB97180529BDAA7C60CBFF0ED66F78C43CF1555F DUP3 DUP3 CALLER PUSH1 0x6 PUSH0 DUP8 DUP2 MSTORE PUSH1 0x20 ADD SWAP1 DUP2 MSTORE PUSH1 0x20 ADD PUSH0 KECCAK256 PUSH0 DUP7 DUP2 MSTORE PUSH1 0x20 ADD SWAP1 DUP2 MSTORE PUSH1 0x20 ADD PUSH0 KECCAK256 SLOAD PUSH1 0x40 MLOAD PUSH2 0x1196 SWAP5 SWAP4 SWAP3 SWAP2 SWAP1 PUSH2 0x1BF9 JUMP JUMPDEST PUSH1 0x40 MLOAD DUP1 SWAP2 SUB SWAP1 LOG1 JUMPDEST POP POP JUMP JUMPDEST PUSH1 0x40 MLOAD DUP1 PUSH1 0xC0 ADD PUSH1 0x40 MSTORE DUP1 PUSH0 DUP2 MSTORE PUSH1 0x20 ADD PUSH0 DUP2 MSTORE PUSH1 0x20 ADD PUSH0 DUP2 MSTORE PUSH1 0x20 ADD PUSH0 DUP2 MSTORE PUSH1 0x20 ADD PUSH0 DUP2 MSTORE PUSH1 0x20 ADD PUSH0 DUP2 MSTORE POP SWAP1 JUMP JUMPDEST PUSH0 PUSH0 REVERT JUMPDEST PUSH0 PUSH20 0xFFFFFFFFFFFFFFFFFFFFFFFFFFFFFFFFFFFFFFFF DUP3 AND SWAP1 POP SWAP2 SWAP1 POP JUMP JUMPDEST PUSH0 PUSH2 0x1200 DUP3 PUSH2 0x11D7 JUMP JUMPDEST SWAP1 POP SWAP2 SWAP1 POP JUMP JUMPDEST PUSH2 0x1210 DUP2 PUSH2 0x11F6 JUMP JUMPDEST DUP2 EQ PUSH2 0x121A JUMPI PUSH0 PUSH0 REVERT JUMPDEST POP JUMP JUMPDEST PUSH0 DUP2 CALLDATALOAD SWAP1 POP PUSH2 0x122B DUP2 PUSH2 0x1207 JUMP JUMPDEST SWAP3 SWAP2 POP POP JUMP JUMPDEST PUSH0 PUSH1 0x20 DUP3 DUP5 SUB SLT ISZERO PUSH2 0x1246 JUMPI PUSH2 0x1245 PUSH2 0x11D3 JUMP JUMPDEST JUMPDEST PUSH0 PUSH2 0x1253 DUP5 DUP3 DUP6 ADD PUSH2 0x121D JUMP JUMPDEST SWAP2 POP POP SWAP3 SWAP2 POP POP JUMP JUMPDEST PUSH0 DUP2 ISZERO ISZERO SWAP1 POP SWAP2 SWAP1 POP JUMP JUMPDEST PUSH2 0x1270 DUP2 PUSH2 0x125C JUMP JUMPDEST DUP3 MSTORE POP POP JUMP JUMPDEST PUSH0 PUSH1 0x20 DUP3 ADD SWAP1 POP PUSH2 0x1289 PUSH0 DUP4 ADD DUP5 PUSH2 0x1267 JUMP JUMPDEST SWAP3 SWAP2 POP POP JUMP JUMPDEST PUSH0 DUP2 SWAP1 POP SWAP2 SWAP1 POP JUMP JUMPDEST PUSH2 0x12A1 DUP2 PUSH2 0x128F JUMP JUMPDEST DUP3 MSTORE POP POP JUMP JUMPDEST PUSH0 PUSH1 0x20 DUP3 ADD SWAP1 POP PUSH2 0x12BA PUSH0 DUP4 ADD DUP5 PUSH2 0x1298 JUMP JUMPDEST SWAP3 SWAP2 POP POP JUMP JUMPDEST PUSH0 DUP2 SWAP1 POP SWAP2 SWAP1 POP JUMP JUMPDEST PUSH2 0x12D2 DUP2 PUSH2 0x12C0 JUMP JUMPDEST DUP2 EQ PUSH2 0x12DC JUMPI PUSH0 PUSH0 REVERT JUMPDEST POP JUMP JUMPDEST PUSH0 DUP2 CALLDATALOAD SWAP1 POP PUSH2 0x12ED DUP2 PUSH2 0x12C9 JUMP JUMPDEST SWAP3 SWAP2 POP POP JUMP JUMPDEST PUSH2 0x12FC DUP2 PUSH2 0x128F JUMP JUMPDEST DUP2 EQ PUSH2 0x1306 JUMPI PUSH0 PUSH0 REVERT JUMPDEST POP JUMP JUMPDEST PUSH0 DUP2 CALLDATALOAD SWAP1 POP PUSH2 0x1317 DUP2 PUSH2 0x12F3 JUMP JUMPDEST SWAP3 SWAP2 POP POP JUMP JUMPDEST PUSH0 PUSH0 PUSH1 0x40 DUP4 DUP6 SUB SLT ISZERO PUSH2 0x1333 JUMPI PUSH2 0x1332 PUSH2 0x11D3 JUMP JUMPDEST JUMPDEST PUSH0 PUSH2 0x1340 DUP6 DUP3 DUP7 ADD PUSH2 0x12DF JUMP JUMPDEST SWAP3 POP POP PUSH1 0x20 PUSH2 0x1351 DUP6 DUP3 DUP7 ADD PUSH2 0x1309 JUMP JUMPDEST SWAP2 POP POP SWAP3 POP SWAP3 SWAP1 POP JUMP JUMPDEST PUSH2 0x1364 DUP2 PUSH2 0x128F JUMP JUMPDEST DUP3 MSTORE POP POP JUMP JUMPDEST PUSH2 0x1373 DUP2 PUSH2 0x12C0 JUMP JUMPDEST DUP3 MSTORE POP POP JUMP JUMPDEST PUSH1 0xC0 DUP3 ADD PUSH0 DUP3 ADD MLOAD PUSH2 0x138D PUSH0 DUP6 ADD DUP3 PUSH2 0x135B JUMP JUMPDEST POP PUSH1 0x20 DUP3 ADD MLOAD PUSH2 0x13A0 PUSH1 0x20 DUP6 ADD DUP3 PUSH2 0x136A JUMP JUMPDEST POP PUSH1 0x40 DUP3 ADD MLOAD PUSH2 0x13B3 PUSH1 0x40 DUP6 ADD DUP3 PUSH2 0x136A JUMP JUMPDEST POP PUSH1 0x60 DUP3 ADD MLOAD PUSH2 0x13C6 PUSH1 0x60 DUP6 ADD DUP3 PUSH2 0x135B JUMP JUMPDEST POP PUSH1 0x80 DUP3 ADD MLOAD PUSH2 0x13D9 PUSH1 0x80 DUP6 ADD DUP3 PUSH2 0x136A JUMP JUMPDEST POP PUSH1 0xA0 DUP3 ADD MLOAD PUSH2 0x13EC PUSH1 0xA0 DUP6 ADD DUP3 PUSH2 0x135B JUMP JUMPDEST POP POP POP POP JUMP JUMPDEST PUSH0 PUSH1 0xC0 DUP3 ADD SWAP1 POP PUSH2 0x1405 PUSH0 DUP4 ADD DUP5 PUSH2 0x1379 JUMP JUMPDEST SWAP3 SWAP2 POP POP JUMP JUMPDEST PUSH0 PUSH0 PUSH0 PUSH0 PUSH0 PUSH1 0xA0 DUP7 DUP9 SUB SLT ISZERO PUSH2 0x1424 JUMPI PUSH2 0x1423 PUSH2 0x11D3 JUMP JUMPDEST JUMPDEST PUSH0 PUSH2 0x1431 DUP9 DUP3 DUP10 ADD PUSH2 0x12DF JUMP JUMPDEST SWAP6 POP POP PUSH1 0x20 PUSH2 0x1442 DUP9 DUP3 DUP10 ADD PUSH2 0x1309 JUMP JUMPDEST SWAP5 POP POP PUSH1 0x40 PUSH2 0x1453 DUP9 DUP3 DUP10 ADD PUSH2 0x12DF JUMP JUMPDEST SWAP4 POP POP PUSH1 0x60 PUSH2 0x1464 DUP9 DUP3 DUP10 ADD PUSH2 0x12DF JUMP JUMPDEST SWAP3 POP POP PUSH1 0x80 PUSH2 0x1475 DUP9 DUP3 DUP10 ADD PUSH2 0x1309 JUMP JUMPDEST SWAP2 POP POP SWAP3 SWAP6 POP SWAP3 SWAP6 SWAP1 SWAP4 POP JUMP JUMPDEST PUSH2 0x148B DUP2 PUSH2 0x12C0 JUMP JUMPDEST DUP3 MSTORE POP POP JUMP JUMPDEST PUSH0 PUSH1 0x20 DUP3 ADD SWAP1 POP PUSH2 0x14A4 PUSH0 DUP4 ADD DUP5 PUSH2 0x1482 JUMP JUMPDEST SWAP3 SWAP2 POP POP JUMP JUMPDEST PUSH0 PUSH0 PUSH1 0x40 DUP4 DUP6 SUB SLT ISZERO PUSH2 0x14C0 JUMPI PUSH2 0x14BF PUSH2 0x11D3 JUMP JUMPDEST JUMPDEST PUSH0 PUSH2 0x14CD DUP6 DUP3 DUP7 ADD PUSH2 0x12DF JUMP JUMPDEST SWAP3 POP POP PUSH1 0x20 PUSH2 0x14DE DUP6 DUP3 DUP7 ADD PUSH2 0x12DF JUMP JUMPDEST SWAP2 POP POP SWAP3 POP SWAP3 SWAP1 POP JUMP JUMPDEST PUSH2 0x14F1 DUP2 PUSH2 0x125C JUMP JUMPDEST DUP2 EQ PUSH2 0x14FB JUMPI PUSH0 PUSH0 REVERT JUMPDEST POP JUMP JUMPDEST PUSH0 DUP2 CALLDATALOAD SWAP1 POP PUSH2 0x150C DUP2 PUSH2 0x14E8 JUMP JUMPDEST SWAP3 SWAP2 POP POP JUMP JUMPDEST PUSH0 PUSH0 PUSH1 0x40 DUP4 DUP6 SUB SLT ISZERO PUSH2 0x1528 JUMPI PUSH2 0x1527 PUSH2 0x11D3 JUMP JUMPDEST JUMPDEST PUSH0 PUSH2 0x1535 DUP6 DUP3 DUP7 ADD PUSH2 0x121D JUMP JUMPDEST SWAP3 POP POP PUSH1 0x20 PUSH2 0x1546 DUP6 DUP3 DUP7 ADD PUSH2 0x14FE JUMP JUMPDEST SWAP2 POP POP SWAP3 POP SWAP3 SWAP1 POP JUMP JUMPDEST PUSH0 PUSH1 0x20 DUP3 DUP5 SUB SLT ISZERO PUSH2 0x1565 JUMPI PUSH2 0x1564 PUSH2 0x11D3 JUMP JUMPDEST JUMPDEST PUSH0 PUSH2 0x1572 DUP5 DUP3 DUP6 ADD PUSH2 0x12DF JUMP JUMPDEST SWAP2 POP POP SWAP3 SWAP2 POP POP JUMP JUMPDEST PUSH0 PUSH1 0x40 DUP3 ADD SWAP1 POP PUSH2 0x158E PUSH0 DUP4 ADD DUP6 PUSH2 0x1298 JUMP JUMPDEST PUSH2 0x159B PUSH1 0x20 DUP4 ADD DUP5 PUSH2 0x1482 JUMP JUMPDEST SWAP4 SWAP3 POP POP POP JUMP JUMPDEST PUSH0 PUSH0 PUSH0 PUSH1 0x60 DUP5 DUP7 SUB SLT ISZERO PUSH2 0x15B9 JUMPI PUSH2 0x15B8 PUSH2 0x11D3 JUMP JUMPDEST JUMPDEST PUSH0 PUSH2 0x15C6 DUP7 DUP3 DUP8 ADD PUSH2 0x12DF JUMP JUMPDEST SWAP4 POP POP PUSH1 0x20 PUSH2 0x15D7 DUP7 DUP3 DUP8 ADD PUSH2 0x12DF JUMP JUMPDEST SWAP3 POP POP PUSH1 0x40 PUSH2 0x15E8 DUP7 DUP3 DUP8 ADD PUSH2 0x121D JUMP JUMPDEST SWAP2 POP POP SWAP3 POP SWAP3 POP SWAP3 JUMP JUMPDEST PUSH0 PUSH1 0x20 DUP3 DUP5 SUB SLT ISZERO PUSH2 0x1607 JUMPI PUSH2 0x1606 PUSH2 0x11D3 JUMP JUMPDEST JUMPDEST PUSH0 PUSH2 0x1614 DUP5 DUP3 DUP6 ADD PUSH2 0x1309 JUMP JUMPDEST SWAP2 POP POP SWAP3 SWAP2 POP POP JUMP JUMPDEST PUSH0 PUSH1 0xC0 DUP3 ADD SWAP1 POP PUSH2 0x1630 PUSH0 DUP4 ADD DUP10 PUSH2 0x1298 JUMP JUMPDEST PUSH2 0x163D PUSH1 0x20 DUP4 ADD DUP9 PUSH2 0x1482 JUMP JUMPDEST PUSH2 0x164A PUSH1 0x40 DUP4 ADD DUP8 PUSH2 0x1482 JUMP JUMPDEST PUSH2 0x1657 PUSH1 0x60 DUP4 ADD DUP7 PUSH2 0x1298 JUMP JUMPDEST PUSH2 0x1664 PUSH1 0x80 DUP4 ADD DUP6 PUSH2 0x1482 JUMP JUMPDEST PUSH2 0x1671 PUSH1 0xA0 DUP4 ADD DUP5 PUSH2 0x1298 JUMP JUMPDEST SWAP8 SWAP7 POP POP POP POP POP POP POP JUMP JUMPDEST PUSH2 0x1685 DUP2 PUSH2 0x11F6 JUMP JUMPDEST DUP3 MSTORE POP POP JUMP JUMPDEST PUSH0 PUSH1 0x20 DUP3 ADD SWAP1 POP PUSH2 0x169E PUSH0 DUP4 ADD DUP5 PUSH2 0x167C JUMP JUMPDEST SWAP3 SWAP2 POP POP JUMP JUMPDEST PUSH0 DUP3 DUP3 MSTORE PUSH1 0x20 DUP3 ADD SWAP1 POP SWAP3 SWAP2 POP POP JUMP JUMPDEST PUSH32 0x4E6F7420617574686F72697A6564206E6F646500000000000000000000000000 PUSH0 DUP3 ADD MSTORE POP JUMP JUMPDEST PUSH0 PUSH2 0x16E8 PUSH1 0x13 DUP4 PUSH2 0x16A4 JUMP JUMPDEST SWAP2 POP PUSH2 0x16F3 DUP3 PUSH2 0x16B4 JUMP JUMPDEST PUSH1 0x20 DUP3 ADD SWAP1 POP SWAP2 SWAP1 POP JUMP JUMPDEST PUSH0 PUSH1 0x20 DUP3 ADD SWAP1 POP DUP2 DUP2 SUB PUSH0 DUP4 ADD MSTORE PUSH2 0x1715 DUP2 PUSH2 0x16DC JUMP JUMPDEST SWAP1 POP SWAP2 SWAP1 POP JUMP JUMPDEST PUSH32 0x4E487B7100000000000000000000000000000000000000000000000000000000 PUSH0 MSTORE PUSH1 0x11 PUSH1 0x4 MSTORE PUSH1 0x24 PUSH0 REVERT JUMPDEST PUSH0 PUSH2 0x1753 DUP3 PUSH2 0x128F JUMP JUMPDEST SWAP2 POP PUSH2 0x175E DUP4 PUSH2 0x128F JUMP JUMPDEST SWAP3 POP DUP3 DUP3 ADD SWAP1 POP DUP1 DUP3 GT ISZERO PUSH2 0x1776 JUMPI PUSH2 0x1775 PUSH2 0x171C JUMP JUMPDEST JUMPDEST SWAP3 SWAP2 POP POP JUMP JUMPDEST PUSH32 0x4261642068656967687400000000000000000000000000000000000000000000 PUSH0 DUP3 ADD MSTORE POP JUMP JUMPDEST PUSH0 PUSH2 0x17B0 PUSH1 0xA DUP4 PUSH2 0x16A4 JUMP JUMPDEST SWAP2 POP PUSH2 0x17BB DUP3 PUSH2 0x177C JUMP JUMPDEST PUSH1 0x20 DUP3 ADD SWAP1 POP SWAP2 SWAP1 POP JUMP JUMPDEST PUSH0 PUSH1 0x20 DUP3 ADD SWAP1 POP DUP2 DUP2 SUB PUSH0 DUP4 ADD MSTORE PUSH2 0x17DD DUP2 PUSH2 0x17A4 JUMP JUMPDEST SWAP1 POP SWAP2 SWAP1 POP JUMP JUMPDEST PUSH32 0x4261642070726576206861736800000000000000000000000000000000000000 PUSH0 DUP3 ADD MSTORE POP JUMP JUMPDEST PUSH0 PUSH2 0x1818 PUSH1 0xD DUP4 PUSH2 0x16A4 JUMP JUMPDEST SWAP2 POP PUSH2 0x1823 DUP3 PUSH2 0x17E4 JUMP JUMPDEST PUSH1 0x20 DUP3 ADD SWAP1 POP SWAP2 SWAP1 POP JUMP JUMPDEST PUSH0 PUSH1 0x20 DUP3 ADD SWAP1 POP DUP2 DUP2 SUB PUSH0 DUP4 ADD MSTORE PUSH2 0x1845 DUP2 PUSH2 0x180C JUMP JUMPDEST SWAP1 POP SWAP2 SWAP1 POP JUMP JUMPDEST PUSH0 DUP2 SWAP1 POP SWAP2 SWAP1 POP JUMP JUMPDEST PUSH2 0x1866 PUSH2 0x1861 DUP3 PUSH2 0x12C0 JUMP JUMPDEST PUSH2 0x184C JUMP JUMPDEST DUP3 MSTORE POP POP JUMP JUMPDEST PUSH0 DUP2 SWAP1 POP SWAP2 SWAP1 POP JUMP JUMPDEST PUSH2 0x1886 PUSH2 0x1881 DUP3 PUSH2 0x128F JUMP JUMPDEST PUSH2 0x186C JUMP JUMPDEST DUP3 MSTORE POP POP JUMP JUMPDEST PUSH0 PUSH2 0x1897 DUP3 DUP9 PUSH2 0x1855 JUMP JUMPDEST PUSH1 0x20 DUP3 ADD SWAP2 POP PUSH2 0x18A7 DUP3 DUP8 PUSH2 0x1875 JUMP JUMPDEST PUSH1 0x20 DUP3 ADD SWAP2 POP PUSH2 0x18B7 DUP3 DUP7 PUSH2 0x1855 JUMP JUMPDEST PUSH1 0x20 DUP3 ADD SWAP2 POP PUSH2 0x18C7 DUP3 DUP6 PUSH2 0x1855 JUMP JUMPDEST PUSH1 0x20 DUP3 ADD SWAP2 POP PUSH2 0x18D7 DUP3 DUP5 PUSH2 0x1875 JUMP JUMPDEST PUSH1 0x20 DUP3 ADD SWAP2 POP DUP2 SWAP1 POP SWAP7 SWAP6 POP POP POP POP POP POP JUMP JUMPDEST PUSH32 0x416C72656164792070726F706F73656400000000000000000000000000000000 PUSH0 DUP3 ADD MSTORE POP JUMP JUMPDEST PUSH0 PUSH2 0x191E PUSH1 0x10 DUP4 PUSH2 0x16A4 JUMP JUMPDEST SWAP2 POP PUSH2 0x1929 DUP3 PUSH2 0x18EA JUMP JUMPDEST PUSH1 0x20 DUP3 ADD SWAP1 POP SWAP2 SWAP1 POP JUMP JUMPDEST PUSH0 PUSH1 0x20 DUP3 ADD SWAP1 POP DUP2 DUP2 SUB PUSH0 DUP4 ADD MSTORE PUSH2 0x194B DUP2 PUSH2 0x1912 JUMP JUMPDEST SWAP1 POP SWAP2 SWAP1 POP JUMP JUMPDEST PUSH0 PUSH1 0x80 DUP3 ADD SWAP1 POP PUSH2 0x1965 PUSH0 DUP4 ADD DUP8 PUSH2 0x1482 JUMP JUMPDEST PUSH2 0x1972 PUSH1 0x20 DUP4 ADD DUP7 PUSH2 0x1482 JUMP JUMPDEST PUSH2 0x197F PUSH1 0x40 DUP4 ADD DUP6 PUSH2 0x1298 JUMP JUMPDEST PUSH2 0x198C PUSH1 0x60 DUP4 ADD DUP5 PUSH2 0x1482 JUMP JUMPDEST SWAP6 SWAP5 POP POP POP POP POP JUMP JUMPDEST PUSH32 0x4E6F742061646D696E0000000000000000000000000000000000000000000000 PUSH0 DUP3 ADD MSTORE POP JUMP JUMPDEST PUSH0 PUSH2 0x19C9 PUSH1 0x9 DUP4 PUSH2 0x16A4 JUMP JUMPDEST SWAP2 POP PUSH2 0x19D4 DUP3 PUSH2 0x1995 JUMP JUMPDEST PUSH1 0x20 DUP3 ADD SWAP1 POP SWAP2 SWAP1 POP JUMP JUMPDEST PUSH0 PUSH1 0x20 DUP3 ADD SWAP1 POP DUP2 DUP2 SUB PUSH0 DUP4 ADD MSTORE PUSH2 0x19F6 DUP2 PUSH2 0x19BD JUMP JUMPDEST SWAP1 POP SWAP2 SWAP1 POP JUMP JUMPDEST PUSH0 PUSH1 0x40 DUP3 ADD SWAP1 POP PUSH2 0x1A10 PUSH0 DUP4 ADD DUP6 PUSH2 0x167C JUMP JUMPDEST PUSH2 0x1A1D PUSH1 0x20 DUP4 ADD DUP5 PUSH2 0x1267 JUMP JUMPDEST SWAP4 SWAP3 POP POP POP JUMP JUMPDEST PUSH32 0x71756F72756D20746F6F206C6F77000000000000000000000000000000000000 PUSH0 DUP3 ADD MSTORE POP JUMP JUMPDEST PUSH0 PUSH2 0x1A58 PUSH1 0xE DUP4 PUSH2 0x16A4 JUMP JUMPDEST SWAP2 POP PUSH2 0x1A63 DUP3 PUSH2 0x1A24 JUMP JUMPDEST PUSH1 0x20 DUP3 ADD SWAP1 POP SWAP2 SWAP1 POP JUMP JUMPDEST PUSH0 PUSH1 0x20 DUP3 ADD SWAP1 POP DUP2 DUP2 SUB PUSH0 DUP4 ADD MSTORE PUSH2 0x1A85 DUP2 PUSH2 0x1A4C JUMP JUMPDEST SWAP1 POP SWAP2 SWAP1 POP JUMP JUMPDEST PUSH32 0x4E6F20737563682070726F706F73616C00000000000000000000000000000000 PUSH0 DUP3 ADD MSTORE POP JUMP JUMPDEST PUSH0 PUSH2 0x1AC0 PUSH1 0x10 DUP4 PUSH2 0x16A4 JUMP JUMPDEST SWAP2 POP PUSH2 0x1ACB DUP3 PUSH2 0x1A8C JUMP JUMPDEST PUSH1 0x20 DUP3 ADD SWAP1 POP SWAP2 SWAP1 POP JUMP JUMPDEST PUSH0 PUSH1 0x20 DUP3 ADD SWAP1 POP DUP2 DUP2 SUB PUSH0 DUP4 ADD MSTORE PUSH2 0x1AED DUP2 PUSH2 0x1AB4 JUMP JUMPDEST SWAP1 POP SWAP2 SWAP1 POP JUMP JUMPDEST PUSH32 0x416C72656164792066696E616C697A6564000000000000000000000000000000 PUSH0 DUP3 ADD MSTORE POP JUMP JUMPDEST PUSH0 PUSH2 0x1B28 PUSH1 0x11 DUP4 PUSH2 0x16A4 JUMP JUMPDEST SWAP2 POP PUSH2 0x1B33 DUP3 PUSH2 0x1AF4 JUMP JUMPDEST PUSH1 0x20 DUP3 ADD SWAP1 POP SWAP2 SWAP1 POP JUMP JUMPDEST PUSH0 PUSH1 0x20 DUP3 ADD SWAP1 POP DUP2 DUP2 SUB PUSH0 DUP4 ADD MSTORE PUSH2 0x1B55 DUP2 PUSH2 0x1B1C JUMP JUMPDEST SWAP1 POP SWAP2 SWAP1 POP JUMP JUMPDEST PUSH32 0x4E6F7420656E6F75676820617070726F76616C73000000000000000000000000 PUSH0 DUP3 ADD MSTORE POP JUMP JUMPDEST PUSH0 PUSH2 0x1B90 PUSH1 0x14 DUP4 PUSH2 0x16A4 JUMP JUMPDEST SWAP2 POP PUSH2 0x1B9B DUP3 PUSH2 0x1B5C JUMP JUMPDEST PUSH1 0x20 DUP3 ADD SWAP1 POP SWAP2 SWAP1 POP JUMP JUMPDEST PUSH0 PUSH1 0x20 DUP3 ADD SWAP1 POP DUP2 DUP2 SUB PUSH0 DUP4 ADD MSTORE PUSH2 0x1BBD DUP2 PUSH2 0x1B84 JUMP JUMPDEST SWAP1 POP SWAP2 SWAP1 POP JUMP JUMPDEST PUSH0 PUSH1 0x60 DUP3 ADD SWAP1 POP PUSH2 0x1BD7 PUSH0 DUP4 ADD DUP7 PUSH2 0x1482 JUMP JUMPDEST PUSH2 0x1BE4 PUSH1 0x20 DUP4 ADD DUP6 PUSH2 0x1482 JUMP JUMPDEST PUSH2 0x1BF1 PUSH1 0x40 DUP4 ADD DUP5 PUSH2 0x1298 JUMP JUMPDEST SWAP5 SWAP4 POP POP POP POP JUMP JUMPDEST PUSH0 PUSH1 0x80 DUP3 ADD SWAP1 POP PUSH2 0x1C0C PUSH0 DUP4 ADD DUP8 PUSH2 0x1482 JUMP JUMPDEST PUSH2 0x1C19 PUSH1 0x20 DUP4 ADD DUP7 PUSH2 0x1482 JUMP JUMPDEST PUSH2 0x1C26 PUSH1 0x40 DUP4 ADD DUP6 PUSH2 0x167C JUMP JUMPDEST PUSH2 0x1C33 PUSH1 0x60 DUP4 ADD DUP5 PUSH2 0x1298 JUMP JUMPDEST SWAP6 SWAP5 POP POP POP POP POP JUMP INVALID LOG2 PUSH5 0x6970667358 0x22 SLT KECCAK256 0x25 0xCD DUP4 RETF PUSH21 0x1A3E43EFE38B83659661D1424DC0CE197C898FEDA0 BALANCE NUMBER PUSH30 0xFD066964736F6C634300081E003300000000000000000000000000000000 "
		},
		"gasEstimates": {
			"creation": {
				"codeDepositCost": "1456400",
				"executionCost": "infinite",
				"totalCost": "infinite"
			},
			"external": {
				"admin()": "2617",
				"approvalsCount(bytes32,bytes32)": "infinite",
				"approveBlock(bytes32,bytes32)": "infinite",
				"approvedBy(bytes32,bytes32,address)": "infinite",
				"blocks(bytes32,uint256)": "infinite",
				"finalizeBlock(bytes32,bytes32)": "infinite",
				"finalized(bytes32,bytes32)": "infinite",
				"getBlock(bytes32,uint256)": "infinite",
				"getTip(bytes32)": "infinite",
				"isNode(address)": "2857",
				"proposalExists(bytes32,bytes32)": "infinite",
				"proposals(bytes32,bytes32)": "infinite",
				"proposeBlock(bytes32,uint256,bytes32,bytes32,uint256)": "infinite",
				"quorum()": "2471",
				"setNode(address,bool)": "infinite",
				"setQuorum(uint256)": "infinite",
				"tipHash(bytes32)": "infinite",
				"tipHeight(bytes32)": "2821"
			},
			"internal": {
				"_approve(bytes32,bytes32)": "infinite"
			}
		},
		"methodIdentifiers": {
			"admin()": "f851a440",
			"approvalsCount(bytes32,bytes32)": "3e534788",
			"approveBlock(bytes32,bytes32)": "f59e292e",
			"approvedBy(bytes32,bytes32,address)": "8f4f5ddd",
			"blocks(bytes32,uint256)": "cf2b1531",
			"finalizeBlock(bytes32,bytes32)": "f04e4ca3",
			"finalized(bytes32,bytes32)": "d623be16",
			"getBlock(bytes32,uint256)": "1dc4bd6c",
			"getTip(bytes32)": "764addb0",
			"isNode(address)": "01750152",
			"proposalExists(bytes32,bytes32)": "dc791cc9",
			"proposals(bytes32,bytes32)": "dfb42fd1",
			"proposeBlock(bytes32,uint256,bytes32,bytes32,uint256)": "34ef78ef",
			"quorum()": "1703a018",
			"setNode(address,bool)": "41addb7b",
			"setQuorum(uint256)": "c1ba4e59",
			"tipHash(bytes32)": "8b104b44",
			"tipHeight(bytes32)": "5af2f431"
		}
	},
	"abi": [
		{
			"inputs": [
				{
					"internalType": "uint256",
					"name": "_quorum",
					"type": "uint256"
				}
			],
			"stateMutability": "nonpayable",
			"type": "constructor"
		},
		{
			"anonymous": false,
			"inputs": [
				{
					"indexed": false,
					"internalType": "bytes32",
					"name": "electionIdHash",
					"type": "bytes32"
				},
				{
					"indexed": false,
					"internalType": "bytes32",
					"name": "blockHash",
					"type": "bytes32"
				},
				{
					"indexed": false,
					"internalType": "address",
					"name": "approver",
					"type": "address"
				},
				{
					"indexed": false,
					"internalType": "uint256",
					"name": "approvals",
					"type": "uint256"
				}
			],
			"name": "BlockApproved",
			"type": "event"
		},
		{
			"anonymous": false,
			"inputs": [
				{
					"indexed": false,
					"internalType": "bytes32",
					"name": "electionIdHash",
					"type": "bytes32"
				},
				{
					"indexed": false,
					"internalType": "bytes32",
					"name": "blockHash",
					"type": "bytes32"
				},
				{
					"indexed": false,
					"internalType": "uint256",
					"name": "height",
					"type": "uint256"
				}
			],
			"name": "BlockFinalized",
			"type": "event"
		},
		{
			"anonymous": false,
			"inputs": [
				{
					"indexed": false,
					"internalType": "bytes32",
					"name": "electionIdHash",
					"type": "bytes32"
				},
				{
					"indexed": false,
					"internalType": "bytes32",
					"name": "blockHash",
					"type": "bytes32"
				},
				{
					"indexed": false,
					"internalType": "uint256",
					"name": "height",
					"type": "uint256"
				},
				{
					"indexed": false,
					"internalType": "bytes32",
					"name": "merkleRoot",
					"type": "bytes32"
				}
			],
			"name": "BlockProposed",
			"type": "event"
		},
		{
			"anonymous": false,
			"inputs": [
				{
					"indexed": false,
					"internalType": "address",
					"name": "node",
					"type": "address"
				},
				{
					"indexed": false,
					"internalType": "bool",
					"name": "allowed",
					"type": "bool"
				}
			],
			"name": "NodeUpdated",
			"type": "event"
		},
		{
			"anonymous": false,
			"inputs": [
				{
					"indexed": false,
					"internalType": "uint256",
					"name": "quorum",
					"type": "uint256"
				}
			],
			"name": "QuorumUpdated",
			"type": "event"
		},
		{
			"inputs": [],
			"name": "admin",
			"outputs": [
				{
					"internalType": "address",
					"name": "",
					"type": "address"
				}
			],
			"stateMutability": "view",
			"type": "function"
		},
		{
			"inputs": [
				{
					"internalType": "bytes32",
					"name": "",
					"type": "bytes32"
				},
				{
					"internalType": "bytes32",
					"name": "",
					"type": "bytes32"
				}
			],
			"name": "approvalsCount",
			"outputs": [
				{
					"internalType": "uint256",
					"name": "",
					"type": "uint256"
				}
			],
			"stateMutability": "view",
			"type": "function"
		},
		{
			"inputs": [
				{
					"internalType": "bytes32",
					"name": "electionIdHash",
					"type": "bytes32"
				},
				{
					"internalType": "bytes32",
					"name": "blockHash",
					"type": "bytes32"
				}
			],
			"name": "approveBlock",
			"outputs": [],
			"stateMutability": "nonpayable",
			"type": "function"
		},
		{
			"inputs": [
				{
					"internalType": "bytes32",
					"name": "",
					"type": "bytes32"
				},
				{
					"internalType": "bytes32",
					"name": "",
					"type": "bytes32"
				},
				{
					"internalType": "address",
					"name": "",
					"type": "address"
				}
			],
			"name": "approvedBy",
			"outputs": [
				{
					"internalType": "bool",
					"name": "",
					"type": "bool"
				}
			],
			"stateMutability": "view",
			"type": "function"
		},
		{
			"inputs": [
				{
					"internalType": "bytes32",
					"name": "",
					"type": "bytes32"
				},
				{
					"internalType": "uint256",
					"name": "",
					"type": "uint256"
				}
			],
			"name": "blocks",
			"outputs": [
				{
					"internalType": "uint256",
					"name": "height",
					"type": "uint256"
				},
				{
					"internalType": "bytes32",
					"name": "prevHash",
					"type": "bytes32"
				},
				{
					"internalType": "bytes32",
					"name": "merkleRoot",
					"type": "bytes32"
				},
				{
					"internalType": "uint256",
					"name": "entryCount",
					"type": "uint256"
				},
				{
					"internalType": "bytes32",
					"name": "blockHash",
					"type": "bytes32"
				},
				{
					"internalType": "uint256",
					"name": "timestamp",
					"type": "uint256"
				}
			],
			"stateMutability": "view",
			"type": "function"
		},
		{
			"inputs": [
				{
					"internalType": "bytes32",
					"name": "electionIdHash",
					"type": "bytes32"
				},
				{
					"internalType": "bytes32",
					"name": "blockHash",
					"type": "bytes32"
				}
			],
			"name": "finalizeBlock",
			"outputs": [],
			"stateMutability": "nonpayable",
			"type": "function"
		},
		{
			"inputs": [
				{
					"internalType": "bytes32",
					"name": "",
					"type": "bytes32"
				},
				{
					"internalType": "bytes32",
					"name": "",
					"type": "bytes32"
				}
			],
			"name": "finalized",
			"outputs": [
				{
					"internalType": "bool",
					"name": "",
					"type": "bool"
				}
			],
			"stateMutability": "view",
			"type": "function"
		},
		{
			"inputs": [
				{
					"internalType": "bytes32",
					"name": "electionIdHash",
					"type": "bytes32"
				},
				{
					"internalType": "uint256",
					"name": "height",
					"type": "uint256"
				}
			],
			"name": "getBlock",
			"outputs": [
				{
					"components": [
						{
							"internalType": "uint256",
							"name": "height",
							"type": "uint256"
						},
						{
							"internalType": "bytes32",
							"name": "prevHash",
							"type": "bytes32"
						},
						{
							"internalType": "bytes32",
							"name": "merkleRoot",
							"type": "bytes32"
						},
						{
							"internalType": "uint256",
							"name": "entryCount",
							"type": "uint256"
						},
						{
							"internalType": "bytes32",
							"name": "blockHash",
							"type": "bytes32"
						},
						{
							"internalType": "uint256",
							"name": "timestamp",
							"type": "uint256"
						}
					],
					"internalType": "struct VoteLedger.BlockHeader",
					"name": "",
					"type": "tuple"
				}
			],
			"stateMutability": "view",
			"type": "function"
		},
		{
			"inputs": [
				{
					"internalType": "bytes32",
					"name": "electionIdHash",
					"type": "bytes32"
				}
			],
			"name": "getTip",
			"outputs": [
				{
					"internalType": "uint256",
					"name": "",
					"type": "uint256"
				},
				{
					"internalType": "bytes32",
					"name": "",
					"type": "bytes32"
				}
			],
			"stateMutability": "view",
			"type": "function"
		},
		{
			"inputs": [
				{
					"internalType": "address",
					"name": "",
					"type": "address"
				}
			],
			"name": "isNode",
			"outputs": [
				{
					"internalType": "bool",
					"name": "",
					"type": "bool"
				}
			],
			"stateMutability": "view",
			"type": "function"
		},
		{
			"inputs": [
				{
					"internalType": "bytes32",
					"name": "",
					"type": "bytes32"
				},
				{
					"internalType": "bytes32",
					"name": "",
					"type": "bytes32"
				}
			],
			"name": "proposalExists",
			"outputs": [
				{
					"internalType": "bool",
					"name": "",
					"type": "bool"
				}
			],
			"stateMutability": "view",
			"type": "function"
		},
		{
			"inputs": [
				{
					"internalType": "bytes32",
					"name": "",
					"type": "bytes32"
				},
				{
					"internalType": "bytes32",
					"name": "",
					"type": "bytes32"
				}
			],
			"name": "proposals",
			"outputs": [
				{
					"internalType": "uint256",
					"name": "height",
					"type": "uint256"
				},
				{
					"internalType": "bytes32",
					"name": "prevHash",
					"type": "bytes32"
				},
				{
					"internalType": "bytes32",
					"name": "merkleRoot",
					"type": "bytes32"
				},
				{
					"internalType": "uint256",
					"name": "entryCount",
					"type": "uint256"
				},
				{
					"internalType": "bytes32",
					"name": "blockHash",
					"type": "bytes32"
				},
				{
					"internalType": "uint256",
					"name": "timestamp",
					"type": "uint256"
				}
			],
			"stateMutability": "view",
			"type": "function"
		},
		{
			"inputs": [
				{
					"internalType": "bytes32",
					"name": "electionIdHash",
					"type": "bytes32"
				},
				{
					"internalType": "uint256",
					"name": "height",
					"type": "uint256"
				},
				{
					"internalType": "bytes32",
					"name": "prevHash",
					"type": "bytes32"
				},
				{
					"internalType": "bytes32",
					"name": "merkleRoot",
					"type": "bytes32"
				},
				{
					"internalType": "uint256",
					"name": "entryCount",
					"type": "uint256"
				}
			],
			"name": "proposeBlock",
			"outputs": [
				{
					"internalType": "bytes32",
					"name": "",
					"type": "bytes32"
				}
			],
			"stateMutability": "nonpayable",
			"type": "function"
		},
		{
			"inputs": [],
			"name": "quorum",
			"outputs": [
				{
					"internalType": "uint256",
					"name": "",
					"type": "uint256"
				}
			],
			"stateMutability": "view",
			"type": "function"
		},
		{
			"inputs": [
				{
					"internalType": "address",
					"name": "node",
					"type": "address"
				},
				{
					"internalType": "bool",
					"name": "allowed",
					"type": "bool"
				}
			],
			"name": "setNode",
			"outputs": [],
			"stateMutability": "nonpayable",
			"type": "function"
		},
		{
			"inputs": [
				{
					"internalType": "uint256",
					"name": "_quorum",
					"type": "uint256"
				}
			],
			"name": "setQuorum",
			"outputs": [],
			"stateMutability": "nonpayable",
			"type": "function"
		},
		{
			"inputs": [
				{
					"internalType": "bytes32",
					"name": "",
					"type": "bytes32"
				}
			],
			"name": "tipHash",
			"outputs": [
				{
					"internalType": "bytes32",
					"name": "",
					"type": "bytes32"
				}
			],
			"stateMutability": "view",
			"type": "function"
		},
		{
			"inputs": [
				{
					"internalType": "bytes32",
					"name": "",
					"type": "bytes32"
				}
			],
			"name": "tipHeight",
			"outputs": [
				{
					"internalType": "uint256",
					"name": "",
					"type": "uint256"
				}
			],
			"stateMutability": "view",
			"type": "function"
		}
	]
}